ARM GAS  /tmp/ccbCwbY1.s 			page 1


   1              		.syntax unified
   2              		.cpu cortex-m4
   3              		.fpu softvfp
   4              		.eabi_attribute 20, 1
   5              		.eabi_attribute 21, 1
   6              		.eabi_attribute 23, 3
   7              		.eabi_attribute 24, 1
   8              		.eabi_attribute 25, 1
   9              		.eabi_attribute 26, 1
  10              		.eabi_attribute 30, 2
  11              		.eabi_attribute 34, 1
  12              		.eabi_attribute 18, 4
  13              		.thumb
  14              		.file	"chsem.c"
  15              		.text
  16              	.Ltext0:
  17              		.cfi_sections	.debug_frame
  18              		.section	.text.chSemInit,"ax",%progbits
  19              		.align	2
  20              		.p2align 4,,15
  21              		.global	chSemInit
  22              		.thumb
  23              		.thumb_func
  24              		.type	chSemInit, %function
  25              	chSemInit:
  26              	.LFB7:
  27              		.file 1 "../../os/kernel/src/chsem.c"
  28              		.loc 1 86 0
  29              		.cfi_startproc
  30              		@ args = 0, pretend = 0, frame = 0
  31              		@ frame_needed = 0, uses_anonymous_args = 0
  32              		@ link register save eliminated.
  33              	.LVL0:
  34              		.loc 1 90 0
  35 0000 4060     		str	r0, [r0, #4]
  36 0002 0060     		str	r0, [r0]
  37              		.loc 1 91 0
  38 0004 8160     		str	r1, [r0, #8]
  39 0006 7047     		bx	lr
  40              		.cfi_endproc
  41              	.LFE7:
  42              		.size	chSemInit, .-chSemInit
  43 0008 AFF30080 		.section	.text.chSemResetI,"ax",%progbits
  43      AFF30080 
  44              		.align	2
  45              		.p2align 4,,15
  46              		.global	chSemResetI
  47              		.thumb
  48              		.thumb_func
  49              		.type	chSemResetI, %function
  50              	chSemResetI:
  51              	.LFB9:
  52              		.loc 1 136 0
  53              		.cfi_startproc
  54              		@ args = 0, pretend = 0, frame = 0
  55              		@ frame_needed = 0, uses_anonymous_args = 0
  56              	.LVL1:
ARM GAS  /tmp/ccbCwbY1.s 			page 2


  57 0000 70B5     		push	{r4, r5, r6, lr}
  58              		.cfi_def_cfa_offset 16
  59              		.cfi_offset 4, -16
  60              		.cfi_offset 5, -12
  61              		.cfi_offset 6, -8
  62              		.cfi_offset 14, -4
  63              		.loc 1 141 0
  64 0002 8568     		ldr	r5, [r0, #8]
  65              	.LVL2:
  66              		.loc 1 147 0
  67 0004 8160     		str	r1, [r0, #8]
  68              		.loc 1 148 0
  69 0006 0135     		adds	r5, r5, #1
  70              	.LVL3:
  71 0008 002D     		cmp	r5, #0
  72              		.loc 1 136 0
  73 000a 0446     		mov	r4, r0
  74              		.loc 1 148 0
  75 000c 0BDC     		bgt	.L2
  76              		.loc 1 149 0
  77 000e 6FF00106 		mvn	r6, #1
  78              	.LVL4:
  79              	.L5:
  80              	.LBB24:
  81              	.LBB25:
  82              		.file 2 "../../os/kernel/include/chinline.h"
  83              		.loc 2 67 0
  84 0012 6068     		ldr	r0, [r4, #4]
  85              	.LVL5:
  86              		.loc 2 69 0
  87 0014 4368     		ldr	r3, [r0, #4]
  88 0016 6360     		str	r3, [r4, #4]
  89 0018 1C60     		str	r4, [r3]
  90              	.LBE25:
  91              	.LBE24:
  92              		.loc 1 149 0
  93 001a FFF7FEFF 		bl	chSchReadyI
  94              	.LVL6:
  95              		.loc 1 148 0
  96 001e 0135     		adds	r5, r5, #1
  97              	.LVL7:
  98 0020 012D     		cmp	r5, #1
  99              		.loc 1 149 0
 100 0022 4662     		str	r6, [r0, #36]
 101              	.LVL8:
 102              		.loc 1 148 0
 103 0024 F5D1     		bne	.L5
 104              	.LVL9:
 105              	.L2:
 106 0026 70BD     		pop	{r4, r5, r6, pc}
 107              		.cfi_endproc
 108              	.LFE9:
 109              		.size	chSemResetI, .-chSemResetI
 110 0028 AFF30080 		.section	.text.chSemReset,"ax",%progbits
 110      AFF30080 
 111              		.align	2
 112              		.p2align 4,,15
ARM GAS  /tmp/ccbCwbY1.s 			page 3


 113              		.global	chSemReset
 114              		.thumb
 115              		.thumb_func
 116              		.type	chSemReset, %function
 117              	chSemReset:
 118              	.LFB8:
 119              		.loc 1 109 0
 120              		.cfi_startproc
 121              		@ args = 0, pretend = 0, frame = 0
 122              		@ frame_needed = 0, uses_anonymous_args = 0
 123              	.LVL10:
 124 0000 08B5     		push	{r3, lr}
 125              		.cfi_def_cfa_offset 8
 126              		.cfi_offset 3, -8
 127              		.cfi_offset 14, -4
 128              	.LBB26:
 129              		.loc 1 111 0
 130 0002 2023     		movs	r3, #32
 131              	@ 111 "../../os/kernel/src/chsem.c" 1
 132 0004 83F31188 		msr     BASEPRI, r3
 133              	@ 0 "" 2
 134              		.thumb
 135              	.LBE26:
 136              		.loc 1 112 0
 137 0008 FFF7FEFF 		bl	chSemResetI
 138              	.LVL11:
 139              		.loc 1 113 0
 140 000c FFF7FEFF 		bl	chSchRescheduleS
 141              	.LVL12:
 142              	.LBB27:
 143              		.loc 1 114 0
 144 0010 0023     		movs	r3, #0
 145              	@ 114 "../../os/kernel/src/chsem.c" 1
 146 0012 83F31188 		msr     BASEPRI, r3
 147              	@ 0 "" 2
 148              		.thumb
 149 0016 08BD     		pop	{r3, pc}
 150              	.LBE27:
 151              		.cfi_endproc
 152              	.LFE8:
 153              		.size	chSemReset, .-chSemReset
 154 0018 AFF30080 		.section	.text.chSemWaitS,"ax",%progbits
 154      AFF30080 
 155              		.align	2
 156              		.p2align 4,,15
 157              		.global	chSemWaitS
 158              		.thumb
 159              		.thumb_func
 160              		.type	chSemWaitS, %function
 161              	chSemWaitS:
 162              	.LFB11:
 163              		.loc 1 185 0
 164              		.cfi_startproc
 165              		@ args = 0, pretend = 0, frame = 0
 166              		@ frame_needed = 0, uses_anonymous_args = 0
 167              	.LVL13:
 168              		.loc 1 194 0
ARM GAS  /tmp/ccbCwbY1.s 			page 4


 169 0000 8268     		ldr	r2, [r0, #8]
 170 0002 013A     		subs	r2, r2, #1
 171 0004 002A     		cmp	r2, #0
 172              		.loc 1 185 0
 173 0006 10B5     		push	{r4, lr}
 174              		.cfi_def_cfa_offset 8
 175              		.cfi_offset 4, -8
 176              		.cfi_offset 14, -4
 177              		.loc 1 185 0
 178 0008 0346     		mov	r3, r0
 179              		.loc 1 194 0
 180 000a 8260     		str	r2, [r0, #8]
 181 000c 01DB     		blt	.L14
 182              		.loc 1 200 0
 183 000e 0020     		movs	r0, #0
 184              	.LVL14:
 185              		.loc 1 201 0
 186 0010 10BD     		pop	{r4, pc}
 187              	.LVL15:
 188              	.L14:
 189              		.loc 1 195 0
 190 0012 40F20004 		movw	r4, #:lower16:rlist
 191 0016 C0F20004 		movt	r4, #:upper16:rlist
 192              		.loc 1 197 0
 193 001a 0320     		movs	r0, #3
 194              	.LVL16:
 195              		.loc 1 195 0
 196 001c A269     		ldr	r2, [r4, #24]
 197 001e 5362     		str	r3, [r2, #36]
 198              	.LVL17:
 199              	.LBB28:
 200              	.LBB29:
 201              		.loc 2 55 0
 202 0020 5968     		ldr	r1, [r3, #4]
 203              		.loc 2 54 0
 204 0022 1360     		str	r3, [r2]
 205              		.loc 2 55 0
 206 0024 5160     		str	r1, [r2, #4]
 207              		.loc 2 56 0
 208 0026 5A60     		str	r2, [r3, #4]
 209              	.LVL18:
 210 0028 0A60     		str	r2, [r1]
 211              	.LVL19:
 212              	.LBE29:
 213              	.LBE28:
 214              		.loc 1 197 0
 215 002a FFF7FEFF 		bl	chSchGoSleepS
 216              	.LVL20:
 217              		.loc 1 198 0
 218 002e A369     		ldr	r3, [r4, #24]
 219 0030 586A     		ldr	r0, [r3, #36]
 220 0032 10BD     		pop	{r4, pc}
 221              		.cfi_endproc
 222              	.LFE11:
 223              		.size	chSemWaitS, .-chSemWaitS
 224 0034 AFF30080 		.section	.text.chSemWait,"ax",%progbits
 224      AFF30080 
ARM GAS  /tmp/ccbCwbY1.s 			page 5


 224      AFF30080 
 225              		.align	2
 226              		.p2align 4,,15
 227              		.global	chSemWait
 228              		.thumb
 229              		.thumb_func
 230              		.type	chSemWait, %function
 231              	chSemWait:
 232              	.LFB10:
 233              		.loc 1 164 0
 234              		.cfi_startproc
 235              		@ args = 0, pretend = 0, frame = 0
 236              		@ frame_needed = 0, uses_anonymous_args = 0
 237              	.LVL21:
 238 0000 08B5     		push	{r3, lr}
 239              		.cfi_def_cfa_offset 8
 240              		.cfi_offset 3, -8
 241              		.cfi_offset 14, -4
 242              	.LBB30:
 243              		.loc 1 167 0
 244 0002 2023     		movs	r3, #32
 245              	@ 167 "../../os/kernel/src/chsem.c" 1
 246 0004 83F31188 		msr     BASEPRI, r3
 247              	@ 0 "" 2
 248              		.thumb
 249              	.LBE30:
 250              		.loc 1 168 0
 251 0008 FFF7FEFF 		bl	chSemWaitS
 252              	.LVL22:
 253              	.LBB31:
 254              		.loc 1 169 0
 255 000c 0023     		movs	r3, #0
 256              	@ 169 "../../os/kernel/src/chsem.c" 1
 257 000e 83F31188 		msr     BASEPRI, r3
 258              	@ 0 "" 2
 259              		.thumb
 260              	.LBE31:
 261              		.loc 1 171 0
 262 0012 08BD     		pop	{r3, pc}
 263              		.cfi_endproc
 264              	.LFE10:
 265              		.size	chSemWait, .-chSemWait
 266 0014 AFF30080 		.section	.text.chSemWaitTimeoutS,"ax",%progbits
 266      AFF30080 
 266      AFF30080 
 267              		.align	2
 268              		.p2align 4,,15
 269              		.global	chSemWaitTimeoutS
 270              		.thumb
 271              		.thumb_func
 272              		.type	chSemWaitTimeoutS, %function
 273              	chSemWaitTimeoutS:
 274              	.LFB13:
 275              		.loc 1 250 0
 276              		.cfi_startproc
 277              		@ args = 0, pretend = 0, frame = 0
 278              		@ frame_needed = 0, uses_anonymous_args = 0
ARM GAS  /tmp/ccbCwbY1.s 			page 6


 279              		@ link register save eliminated.
 280              	.LVL23:
 281 0000 0346     		mov	r3, r0
 282              		.loc 1 254 0
 283 0002 8068     		ldr	r0, [r0, #8]
 284              	.LVL24:
 285              		.loc 1 259 0
 286 0004 421E     		subs	r2, r0, #1
 287 0006 002A     		cmp	r2, #0
 288              		.loc 1 250 0
 289 0008 10B4     		push	{r4}
 290              		.cfi_def_cfa_offset 4
 291              		.cfi_offset 4, -4
 292              		.loc 1 268 0
 293 000a A8BF     		it	ge
 294 000c 0020     		movge	r0, #0
 295              		.loc 1 259 0
 296 000e 9A60     		str	r2, [r3, #8]
 297 0010 02DB     		blt	.L20
 298              	.L17:
 299              		.loc 1 269 0
 300 0012 5DF8044B 		ldr	r4, [sp], #4
 301 0016 7047     		bx	lr
 302              	.L20:
 303              		.loc 1 260 0
 304 0018 79B1     		cbz	r1, .L21
 305              		.loc 1 264 0
 306 001a 40F20002 		movw	r2, #:lower16:rlist
 307 001e C0F20002 		movt	r2, #:upper16:rlist
 308              		.loc 1 266 0
 309 0022 0320     		movs	r0, #3
 310              		.loc 1 264 0
 311 0024 9269     		ldr	r2, [r2, #24]
 312 0026 5362     		str	r3, [r2, #36]
 313              	.LVL25:
 314              	.LBB32:
 315              	.LBB33:
 316              		.loc 2 55 0
 317 0028 5C68     		ldr	r4, [r3, #4]
 318 002a 82E81800 		stmia	r2, {r3, r4}
 319              		.loc 2 56 0
 320 002e 5A60     		str	r2, [r3, #4]
 321              	.LVL26:
 322 0030 2260     		str	r2, [r4]
 323              	.LVL27:
 324              	.LBE33:
 325              	.LBE32:
 326              		.loc 1 269 0
 327 0032 5DF8044B 		ldr	r4, [sp], #4
 328              		.loc 1 266 0
 329 0036 FFF7FEBF 		b	chSchGoSleepTimeoutS
 330              	.LVL28:
 331              	.L21:
 332              		.loc 1 261 0
 333 003a 9860     		str	r0, [r3, #8]
 334              		.loc 1 262 0
 335 003c 4FF0FF30 		mov	r0, #-1
ARM GAS  /tmp/ccbCwbY1.s 			page 7


 336 0040 E7E7     		b	.L17
 337              		.cfi_endproc
 338              	.LFE13:
 339              		.size	chSemWaitTimeoutS, .-chSemWaitTimeoutS
 340 0042 00BFAFF3 		.section	.text.chSemWaitTimeout,"ax",%progbits
 340      0080AFF3 
 340      0080AFF3 
 340      0080
 341              		.align	2
 342              		.p2align 4,,15
 343              		.global	chSemWaitTimeout
 344              		.thumb
 345              		.thumb_func
 346              		.type	chSemWaitTimeout, %function
 347              	chSemWaitTimeout:
 348              	.LFB12:
 349              		.loc 1 222 0
 350              		.cfi_startproc
 351              		@ args = 0, pretend = 0, frame = 0
 352              		@ frame_needed = 0, uses_anonymous_args = 0
 353              	.LVL29:
 354 0000 08B5     		push	{r3, lr}
 355              		.cfi_def_cfa_offset 8
 356              		.cfi_offset 3, -8
 357              		.cfi_offset 14, -4
 358              	.LBB34:
 359              		.loc 1 225 0
 360 0002 2023     		movs	r3, #32
 361              	@ 225 "../../os/kernel/src/chsem.c" 1
 362 0004 83F31188 		msr     BASEPRI, r3
 363              	@ 0 "" 2
 364              		.thumb
 365              	.LBE34:
 366              		.loc 1 226 0
 367 0008 FFF7FEFF 		bl	chSemWaitTimeoutS
 368              	.LVL30:
 369              	.LBB35:
 370              		.loc 1 227 0
 371 000c 0023     		movs	r3, #0
 372              	@ 227 "../../os/kernel/src/chsem.c" 1
 373 000e 83F31188 		msr     BASEPRI, r3
 374              	@ 0 "" 2
 375              		.thumb
 376              	.LBE35:
 377              		.loc 1 229 0
 378 0012 08BD     		pop	{r3, pc}
 379              		.cfi_endproc
 380              	.LFE12:
 381              		.size	chSemWaitTimeout, .-chSemWaitTimeout
 382 0014 AFF30080 		.section	.text.chSemSignal,"ax",%progbits
 382      AFF30080 
 382      AFF30080 
 383              		.align	2
 384              		.p2align 4,,15
 385              		.global	chSemSignal
 386              		.thumb
 387              		.thumb_func
ARM GAS  /tmp/ccbCwbY1.s 			page 8


 388              		.type	chSemSignal, %function
 389              	chSemSignal:
 390              	.LFB14:
 391              		.loc 1 278 0
 392              		.cfi_startproc
 393              		@ args = 0, pretend = 0, frame = 0
 394              		@ frame_needed = 0, uses_anonymous_args = 0
 395              	.LVL31:
 396 0000 08B5     		push	{r3, lr}
 397              		.cfi_def_cfa_offset 8
 398              		.cfi_offset 3, -8
 399              		.cfi_offset 14, -4
 400              		.loc 1 278 0
 401 0002 0246     		mov	r2, r0
 402              	.LBB36:
 403              		.loc 1 286 0
 404 0004 2023     		movs	r3, #32
 405              	@ 286 "../../os/kernel/src/chsem.c" 1
 406 0006 83F31188 		msr     BASEPRI, r3
 407              	@ 0 "" 2
 408              		.thumb
 409              	.LBE36:
 410              		.loc 1 287 0
 411 000a 8368     		ldr	r3, [r0, #8]
 412 000c 0133     		adds	r3, r3, #1
 413 000e 002B     		cmp	r3, #0
 414 0010 8360     		str	r3, [r0, #8]
 415 0012 03DD     		ble	.L25
 416              	.LBB37:
 417              		.loc 1 289 0
 418 0014 0023     		movs	r3, #0
 419              	@ 289 "../../os/kernel/src/chsem.c" 1
 420 0016 83F31188 		msr     BASEPRI, r3
 421              	@ 0 "" 2
 422              		.thumb
 423 001a 08BD     		pop	{r3, pc}
 424              	.L25:
 425              	.LVL32:
 426              	.LBE37:
 427              	.LBB38:
 428              	.LBB39:
 429              		.loc 2 60 0
 430 001c 0068     		ldr	r0, [r0]
 431              	.LVL33:
 432              		.loc 2 62 0
 433 001e 0368     		ldr	r3, [r0]
 434              	.LBE39:
 435              	.LBE38:
 436              		.loc 1 288 0
 437 0020 0021     		movs	r1, #0
 438              	.LBB41:
 439              	.LBB40:
 440              		.loc 2 62 0
 441 0022 1360     		str	r3, [r2]
 442 0024 5A60     		str	r2, [r3, #4]
 443              	.LBE40:
 444              	.LBE41:
ARM GAS  /tmp/ccbCwbY1.s 			page 9


 445              		.loc 1 288 0
 446 0026 FFF7FEFF 		bl	chSchWakeupS
 447              	.LVL34:
 448              	.LBB42:
 449              		.loc 1 289 0
 450 002a 0023     		movs	r3, #0
 451              	@ 289 "../../os/kernel/src/chsem.c" 1
 452 002c 83F31188 		msr     BASEPRI, r3
 453              	@ 0 "" 2
 454              		.thumb
 455 0030 08BD     		pop	{r3, pc}
 456              	.LBE42:
 457              		.cfi_endproc
 458              	.LFE14:
 459              		.size	chSemSignal, .-chSemSignal
 460 0032 00BFAFF3 		.section	.text.chSemSignalI,"ax",%progbits
 460      0080AFF3 
 460      0080AFF3 
 460      0080
 461              		.align	2
 462              		.p2align 4,,15
 463              		.global	chSemSignalI
 464              		.thumb
 465              		.thumb_func
 466              		.type	chSemSignalI, %function
 467              	chSemSignalI:
 468              	.LFB15:
 469              		.loc 1 303 0
 470              		.cfi_startproc
 471              		@ args = 0, pretend = 0, frame = 0
 472              		@ frame_needed = 0, uses_anonymous_args = 0
 473              		@ link register save eliminated.
 474              	.LVL35:
 475              		.loc 1 312 0
 476 0000 8268     		ldr	r2, [r0, #8]
 477 0002 0132     		adds	r2, r2, #1
 478 0004 002A     		cmp	r2, #0
 479              		.loc 1 303 0
 480 0006 10B4     		push	{r4}
 481              		.cfi_def_cfa_offset 4
 482              		.cfi_offset 4, -4
 483              		.loc 1 303 0
 484 0008 0346     		mov	r3, r0
 485              		.loc 1 312 0
 486 000a 8260     		str	r2, [r0, #8]
 487 000c 02DD     		ble	.L28
 488              		.loc 1 319 0
 489 000e 5DF8044B 		ldr	r4, [sp], #4
 490 0012 7047     		bx	lr
 491              	.L28:
 492              	.LVL36:
 493              	.LBB43:
 494              	.LBB44:
 495              	.LBB45:
 496              		.loc 2 60 0
 497 0014 0268     		ldr	r2, [r0]
 498              	.LVL37:
ARM GAS  /tmp/ccbCwbY1.s 			page 10


 499              		.loc 2 62 0
 500 0016 1168     		ldr	r1, [r2]
 501              	.LBE45:
 502              	.LBE44:
 503              		.loc 1 316 0
 504 0018 0024     		movs	r4, #0
 505              	.LBB47:
 506              	.LBB46:
 507              		.loc 2 62 0
 508 001a 0160     		str	r1, [r0]
 509 001c 4B60     		str	r3, [r1, #4]
 510              	.LBE46:
 511              	.LBE47:
 512              		.loc 1 316 0
 513 001e 5462     		str	r4, [r2, #36]
 514              		.loc 1 317 0
 515 0020 1046     		mov	r0, r2
 516              	.LVL38:
 517              	.LBE43:
 518              		.loc 1 319 0
 519 0022 5DF8044B 		ldr	r4, [sp], #4
 520              	.LBB48:
 521              		.loc 1 317 0
 522 0026 FFF7FEBF 		b	chSchReadyI
 523              	.LVL39:
 524              	.LBE48:
 525              		.cfi_endproc
 526              	.LFE15:
 527              		.size	chSemSignalI, .-chSemSignalI
 528 002a 00BFAFF3 		.section	.text.chSemAddCounterI,"ax",%progbits
 528      0080
 529              		.align	2
 530              		.p2align 4,,15
 531              		.global	chSemAddCounterI
 532              		.thumb
 533              		.thumb_func
 534              		.type	chSemAddCounterI, %function
 535              	chSemAddCounterI:
 536              	.LFB16:
 537              		.loc 1 334 0
 538              		.cfi_startproc
 539              		@ args = 0, pretend = 0, frame = 0
 540              		@ frame_needed = 0, uses_anonymous_args = 0
 541              	.LVL40:
 542 0000 70B5     		push	{r4, r5, r6, lr}
 543              		.cfi_def_cfa_offset 16
 544              		.cfi_offset 4, -16
 545              		.cfi_offset 5, -12
 546              		.cfi_offset 6, -8
 547              		.cfi_offset 14, -4
 548              		.loc 1 343 0
 549 0002 0C1E     		subs	r4, r1, #0
 550              		.loc 1 334 0
 551 0004 0546     		mov	r5, r0
 552              		.loc 1 343 0
 553 0006 11DD     		ble	.L29
 554              		.loc 1 345 0
ARM GAS  /tmp/ccbCwbY1.s 			page 11


 555 0008 0026     		movs	r6, #0
 556 000a 01E0     		b	.L33
 557              	.LVL41:
 558              	.L31:
 559              		.loc 1 343 0
 560 000c 013C     		subs	r4, r4, #1
 561              	.LVL42:
 562 000e 0DD0     		beq	.L29
 563              	.LVL43:
 564              	.L33:
 565              		.loc 1 344 0
 566 0010 AB68     		ldr	r3, [r5, #8]
 567 0012 0133     		adds	r3, r3, #1
 568 0014 002B     		cmp	r3, #0
 569 0016 AB60     		str	r3, [r5, #8]
 570 0018 F8DC     		bgt	.L31
 571              	.LVL44:
 572              	.LBB49:
 573              	.LBB50:
 574              		.loc 2 60 0
 575 001a 2868     		ldr	r0, [r5]
 576              	.LVL45:
 577              		.loc 2 62 0
 578 001c 0368     		ldr	r3, [r0]
 579 001e 2B60     		str	r3, [r5]
 580 0020 5D60     		str	r5, [r3, #4]
 581              	.LBE50:
 582              	.LBE49:
 583              		.loc 1 345 0
 584 0022 FFF7FEFF 		bl	chSchReadyI
 585              	.LVL46:
 586              		.loc 1 343 0
 587 0026 013C     		subs	r4, r4, #1
 588              	.LVL47:
 589              		.loc 1 345 0
 590 0028 4662     		str	r6, [r0, #36]
 591              	.LVL48:
 592              		.loc 1 343 0
 593 002a F1D1     		bne	.L33
 594              	.LVL49:
 595              	.L29:
 596 002c 70BD     		pop	{r4, r5, r6, pc}
 597              		.cfi_endproc
 598              	.LFE16:
 599              		.size	chSemAddCounterI, .-chSemAddCounterI
 600 002e 00BF     		.section	.text.chSemSignalWait,"ax",%progbits
 601              		.align	2
 602              		.p2align 4,,15
 603              		.global	chSemSignalWait
 604              		.thumb
 605              		.thumb_func
 606              		.type	chSemSignalWait, %function
 607              	chSemSignalWait:
 608              	.LFB17:
 609              		.loc 1 366 0
 610              		.cfi_startproc
 611              		@ args = 0, pretend = 0, frame = 8
ARM GAS  /tmp/ccbCwbY1.s 			page 12


 612              		@ frame_needed = 0, uses_anonymous_args = 0
 613              	.LVL50:
 614 0000 10B5     		push	{r4, lr}
 615              		.cfi_def_cfa_offset 8
 616              		.cfi_offset 4, -8
 617              		.cfi_offset 14, -4
 618 0002 0246     		mov	r2, r0
 619 0004 82B0     		sub	sp, sp, #8
 620              		.cfi_def_cfa_offset 16
 621              	.LBB51:
 622              		.loc 1 379 0
 623 0006 2023     		movs	r3, #32
 624              	@ 379 "../../os/kernel/src/chsem.c" 1
 625 0008 83F31188 		msr     BASEPRI, r3
 626              	@ 0 "" 2
 627              		.thumb
 628              	.LBE51:
 629              		.loc 1 380 0
 630 000c 8368     		ldr	r3, [r0, #8]
 631 000e 0133     		adds	r3, r3, #1
 632 0010 002B     		cmp	r3, #0
 633 0012 8360     		str	r3, [r0, #8]
 634 0014 20DD     		ble	.L41
 635              	.LVL51:
 636              	.L38:
 637              		.loc 1 382 0
 638 0016 8B68     		ldr	r3, [r1, #8]
 639 0018 013B     		subs	r3, r3, #1
 640 001a 002B     		cmp	r3, #0
 641 001c 8B60     		str	r3, [r1, #8]
 642 001e 07DB     		blt	.L42
 643              		.loc 1 390 0
 644 0020 FFF7FEFF 		bl	chSchRescheduleS
 645              	.LVL52:
 646              		.loc 1 391 0
 647 0024 0020     		movs	r0, #0
 648              	.LVL53:
 649              	.LBB52:
 650              		.loc 1 393 0
 651 0026 0023     		movs	r3, #0
 652              	@ 393 "../../os/kernel/src/chsem.c" 1
 653 0028 83F31188 		msr     BASEPRI, r3
 654              	@ 0 "" 2
 655              		.thumb
 656              	.LBE52:
 657              		.loc 1 395 0
 658 002c 02B0     		add	sp, sp, #8
 659              		@ sp needed
 660 002e 10BD     		pop	{r4, pc}
 661              	.LVL54:
 662              	.L42:
 663              	.LBB53:
 664              		.loc 1 383 0
 665 0030 40F20003 		movw	r3, #:lower16:rlist
 666 0034 C0F20003 		movt	r3, #:upper16:rlist
 667              	.LBB54:
 668              	.LBB55:
ARM GAS  /tmp/ccbCwbY1.s 			page 13


 669              		.loc 2 55 0
 670 0038 4A68     		ldr	r2, [r1, #4]
 671              	.LBE55:
 672              	.LBE54:
 673              		.loc 1 383 0
 674 003a 9C69     		ldr	r4, [r3, #24]
 675              	.LVL55:
 676              		.loc 1 386 0
 677 003c 0320     		movs	r0, #3
 678              	.LBB57:
 679              	.LBB56:
 680              		.loc 2 55 0
 681 003e 84E80600 		stmia	r4, {r1, r2}
 682              		.loc 2 56 0
 683 0042 4C60     		str	r4, [r1, #4]
 684 0044 1460     		str	r4, [r2]
 685              	.LBE56:
 686              	.LBE57:
 687              		.loc 1 385 0
 688 0046 6162     		str	r1, [r4, #36]
 689              		.loc 1 386 0
 690 0048 FFF7FEFF 		bl	chSchGoSleepS
 691              	.LVL56:
 692              		.loc 1 387 0
 693 004c 606A     		ldr	r0, [r4, #36]
 694              	.LVL57:
 695              	.LBE53:
 696              	.LBB58:
 697              		.loc 1 393 0
 698 004e 0023     		movs	r3, #0
 699              	@ 393 "../../os/kernel/src/chsem.c" 1
 700 0050 83F31188 		msr     BASEPRI, r3
 701              	@ 0 "" 2
 702              		.thumb
 703              	.LBE58:
 704              		.loc 1 395 0
 705 0054 02B0     		add	sp, sp, #8
 706              		@ sp needed
 707 0056 10BD     		pop	{r4, pc}
 708              	.LVL58:
 709              	.L41:
 710              	.LBB59:
 711              	.LBB60:
 712              		.loc 2 60 0
 713 0058 0068     		ldr	r0, [r0]
 714              	.LVL59:
 715              		.loc 2 62 0
 716 005a 0368     		ldr	r3, [r0]
 717 005c 1360     		str	r3, [r2]
 718 005e 5A60     		str	r2, [r3, #4]
 719              	.LBE60:
 720              	.LBE59:
 721              		.loc 1 381 0
 722 0060 0191     		str	r1, [sp, #4]
 723 0062 FFF7FEFF 		bl	chSchReadyI
 724              	.LVL60:
 725 0066 0023     		movs	r3, #0
ARM GAS  /tmp/ccbCwbY1.s 			page 14


 726 0068 4362     		str	r3, [r0, #36]
 727 006a 0199     		ldr	r1, [sp, #4]
 728 006c D3E7     		b	.L38
 729              		.cfi_endproc
 730              	.LFE17:
 731              		.size	chSemSignalWait, .-chSemSignalWait
 732 006e 00BF     		.text
 733              	.Letext0:
 734              		.file 3 "/usr/include/newlib/machine/_default_types.h"
 735              		.file 4 "/usr/include/newlib/stdint.h"
 736              		.file 5 "../../os/ports/GCC/ARMCMx/chtypes.h"
 737              		.file 6 "../../os/kernel/include/chlists.h"
 738              		.file 7 "../../os/kernel/include/chthreads.h"
 739              		.file 8 "../../os/ports/GCC/ARMCMx/chcore_v7m.h"
 740              		.file 9 "../../os/kernel/include/chschd.h"
 741              		.file 10 "../../os/kernel/include/chsem.h"
 742              		.file 11 "../../os/kernel/include/chmtx.h"
