ARM GAS  /tmp/ccpWj9C5.s 			page 1


   1              		.syntax unified
   2              		.cpu cortex-m4
   3              		.fpu softvfp
   4              		.eabi_attribute 20, 1
   5              		.eabi_attribute 21, 1
   6              		.eabi_attribute 23, 3
   7              		.eabi_attribute 24, 1
   8              		.eabi_attribute 25, 1
   9              		.eabi_attribute 26, 1
  10              		.eabi_attribute 30, 2
  11              		.eabi_attribute 34, 1
  12              		.eabi_attribute 18, 4
  13              		.thumb
  14              		.file	"chcond.c"
  15              		.text
  16              	.Ltext0:
  17              		.cfi_sections	.debug_frame
  18              		.section	.text.chCondInit,"ax",%progbits
  19              		.align	2
  20              		.p2align 4,,15
  21              		.global	chCondInit
  22              		.thumb
  23              		.thumb_func
  24              		.type	chCondInit, %function
  25              	chCondInit:
  26              	.LFB7:
  27              		.file 1 "../../../os/kernel/src/chcond.c"
  28              		.loc 1 59 0
  29              		.cfi_startproc
  30              		@ args = 0, pretend = 0, frame = 0
  31              		@ frame_needed = 0, uses_anonymous_args = 0
  32              	.LVL0:
  33 0000 10B5     		push	{r4, lr}
  34              		.cfi_def_cfa_offset 8
  35              		.cfi_offset 4, -8
  36              		.cfi_offset 14, -4
  37              		.loc 1 61 0
  38 0002 0446     		mov	r4, r0
  39 0004 10B1     		cbz	r0, .L4
  40              		.loc 1 63 0
  41 0006 6460     		str	r4, [r4, #4]
  42 0008 2460     		str	r4, [r4]
  43 000a 10BD     		pop	{r4, pc}
  44              	.L4:
  45              		.loc 1 61 0 discriminator 1
  46 000c 0248     		ldr	r0, .L5
  47              	.LVL1:
  48 000e FFF7FEFF 		bl	chDbgPanic
  49              	.LVL2:
  50              		.loc 1 63 0 discriminator 1
  51 0012 6460     		str	r4, [r4, #4]
  52 0014 2460     		str	r4, [r4]
  53 0016 10BD     		pop	{r4, pc}
  54              	.LVL3:
  55              	.L6:
  56              		.align	2
  57              	.L5:
ARM GAS  /tmp/ccpWj9C5.s 			page 2


  58 0018 00000000 		.word	.LC0
  59              		.cfi_endproc
  60              	.LFE7:
  61              		.size	chCondInit, .-chCondInit
  62 001c AFF30080 		.section	.text.chCondSignal,"ax",%progbits
  63              		.align	2
  64              		.p2align 4,,15
  65              		.global	chCondSignal
  66              		.thumb
  67              		.thumb_func
  68              		.type	chCondSignal, %function
  69              	chCondSignal:
  70              	.LFB8:
  71              		.loc 1 73 0
  72              		.cfi_startproc
  73              		@ args = 0, pretend = 0, frame = 0
  74              		@ frame_needed = 0, uses_anonymous_args = 0
  75              	.LVL4:
  76 0000 10B5     		push	{r4, lr}
  77              		.cfi_def_cfa_offset 8
  78              		.cfi_offset 4, -8
  79              		.cfi_offset 14, -4
  80              		.loc 1 75 0
  81 0002 0446     		mov	r4, r0
  82 0004 98B1     		cbz	r0, .L10
  83              	.LVL5:
  84              	.L8:
  85              	.LBB14:
  86              		.loc 1 77 0
  87 0006 2023     		movs	r3, #32
  88              	@ 77 "../../../os/kernel/src/chcond.c" 1
  89 0008 83F31188 		msr     BASEPRI, r3
  90              	@ 0 "" 2
  91              		.thumb
  92              	.LBE14:
  93 000c FFF7FEFF 		bl	dbg_check_lock
  94              	.LVL6:
  95              		.loc 1 78 0
  96 0010 2068     		ldr	r0, [r4]
  97 0012 A042     		cmp	r0, r4
  98 0014 05D0     		beq	.L9
  99              	.LVL7:
 100              	.LBB15:
 101              	.LBB16:
 102              		.file 2 "../../../os/kernel/include/chinline.h"
 103              		.loc 2 62 0
 104 0016 0368     		ldr	r3, [r0]
 105 0018 2360     		str	r3, [r4]
 106              	.LBE16:
 107              	.LBE15:
 108              		.loc 1 79 0
 109 001a 0021     		movs	r1, #0
 110              	.LBB18:
 111              	.LBB17:
 112              		.loc 2 62 0
 113 001c 5C60     		str	r4, [r3, #4]
 114              	.LBE17:
ARM GAS  /tmp/ccpWj9C5.s 			page 3


 115              	.LBE18:
 116              		.loc 1 79 0
 117 001e FFF7FEFF 		bl	chSchWakeupS
 118              	.LVL8:
 119              	.L9:
 120              		.loc 1 80 0
 121 0022 FFF7FEFF 		bl	dbg_check_unlock
 122              	.LVL9:
 123              	.LBB19:
 124 0026 0023     		movs	r3, #0
 125              	@ 80 "../../../os/kernel/src/chcond.c" 1
 126 0028 83F31188 		msr     BASEPRI, r3
 127              	@ 0 "" 2
 128              		.thumb
 129 002c 10BD     		pop	{r4, pc}
 130              	.LVL10:
 131              	.L10:
 132              	.LBE19:
 133              		.loc 1 75 0 discriminator 1
 134 002e 0248     		ldr	r0, .L11
 135              	.LVL11:
 136 0030 FFF7FEFF 		bl	chDbgPanic
 137              	.LVL12:
 138 0034 E7E7     		b	.L8
 139              	.L12:
 140 0036 00BF     		.align	2
 141              	.L11:
 142 0038 10000000 		.word	.LC1
 143              		.cfi_endproc
 144              	.LFE8:
 145              		.size	chCondSignal, .-chCondSignal
 146 003c AFF30080 		.section	.text.chCondSignalI,"ax",%progbits
 147              		.align	2
 148              		.p2align 4,,15
 149              		.global	chCondSignalI
 150              		.thumb
 151              		.thumb_func
 152              		.type	chCondSignalI, %function
 153              	chCondSignalI:
 154              	.LFB9:
 155              		.loc 1 94 0
 156              		.cfi_startproc
 157              		@ args = 0, pretend = 0, frame = 0
 158              		@ frame_needed = 0, uses_anonymous_args = 0
 159              	.LVL13:
 160 0000 10B5     		push	{r4, lr}
 161              		.cfi_def_cfa_offset 8
 162              		.cfi_offset 4, -8
 163              		.cfi_offset 14, -4
 164              		.loc 1 94 0
 165 0002 0446     		mov	r4, r0
 166              		.loc 1 96 0
 167 0004 FFF7FEFF 		bl	chDbgCheckClassI
 168              	.LVL14:
 169              		.loc 1 97 0
 170 0008 54B1     		cbz	r4, .L16
 171              	.L14:
ARM GAS  /tmp/ccpWj9C5.s 			page 4


 172              		.loc 1 99 0
 173 000a 2068     		ldr	r0, [r4]
 174 000c A042     		cmp	r0, r4
 175 000e 06D0     		beq	.L13
 176              	.LVL15:
 177              	.LBB20:
 178              	.LBB21:
 179              		.loc 2 62 0
 180 0010 0368     		ldr	r3, [r0]
 181 0012 2360     		str	r3, [r4]
 182 0014 5C60     		str	r4, [r3, #4]
 183              	.LBE21:
 184              	.LBE20:
 185              		.loc 1 100 0
 186 0016 FFF7FEFF 		bl	chSchReadyI
 187              	.LVL16:
 188 001a 0023     		movs	r3, #0
 189 001c 8362     		str	r3, [r0, #40]
 190              	.LVL17:
 191              	.L13:
 192 001e 10BD     		pop	{r4, pc}
 193              	.LVL18:
 194              	.L16:
 195              		.loc 1 97 0 discriminator 1
 196 0020 0148     		ldr	r0, .L17
 197 0022 FFF7FEFF 		bl	chDbgPanic
 198              	.LVL19:
 199 0026 F0E7     		b	.L14
 200              	.L18:
 201              		.align	2
 202              	.L17:
 203 0028 24000000 		.word	.LC2
 204              		.cfi_endproc
 205              	.LFE9:
 206              		.size	chCondSignalI, .-chCondSignalI
 207 002c AFF30080 		.section	.text.chCondBroadcastI,"ax",%progbits
 208              		.align	2
 209              		.p2align 4,,15
 210              		.global	chCondBroadcastI
 211              		.thumb
 212              		.thumb_func
 213              		.type	chCondBroadcastI, %function
 214              	chCondBroadcastI:
 215              	.LFB11:
 216              		.loc 1 129 0
 217              		.cfi_startproc
 218              		@ args = 0, pretend = 0, frame = 0
 219              		@ frame_needed = 0, uses_anonymous_args = 0
 220              	.LVL20:
 221 0000 38B5     		push	{r3, r4, r5, lr}
 222              		.cfi_def_cfa_offset 16
 223              		.cfi_offset 3, -16
 224              		.cfi_offset 4, -12
 225              		.cfi_offset 5, -8
 226              		.cfi_offset 14, -4
 227              		.loc 1 129 0
 228 0002 0446     		mov	r4, r0
ARM GAS  /tmp/ccpWj9C5.s 			page 5


 229              		.loc 1 131 0
 230 0004 FFF7FEFF 		bl	chDbgCheckClassI
 231              	.LVL21:
 232              		.loc 1 132 0
 233 0008 74B1     		cbz	r4, .L24
 234              	.L20:
 235              		.loc 1 137 0 discriminator 1
 236 000a 2068     		ldr	r0, [r4]
 237 000c A042     		cmp	r0, r4
 238 000e 0AD0     		beq	.L19
 239              		.loc 1 138 0
 240 0010 6FF00105 		mvn	r5, #1
 241              	.L23:
 242              	.LVL22:
 243              	.LBB22:
 244              	.LBB23:
 245              		.loc 2 62 0
 246 0014 0368     		ldr	r3, [r0]
 247 0016 2360     		str	r3, [r4]
 248 0018 5C60     		str	r4, [r3, #4]
 249              	.LBE23:
 250              	.LBE22:
 251              		.loc 1 138 0
 252 001a FFF7FEFF 		bl	chSchReadyI
 253              	.LVL23:
 254 001e 8562     		str	r5, [r0, #40]
 255              		.loc 1 137 0
 256 0020 2068     		ldr	r0, [r4]
 257 0022 A042     		cmp	r0, r4
 258 0024 F6D1     		bne	.L23
 259              	.LVL24:
 260              	.L19:
 261 0026 38BD     		pop	{r3, r4, r5, pc}
 262              	.LVL25:
 263              	.L24:
 264              		.loc 1 132 0 discriminator 1
 265 0028 0148     		ldr	r0, .L25
 266 002a FFF7FEFF 		bl	chDbgPanic
 267              	.LVL26:
 268 002e ECE7     		b	.L20
 269              	.L26:
 270              		.align	2
 271              	.L25:
 272 0030 38000000 		.word	.LC3
 273              		.cfi_endproc
 274              	.LFE11:
 275              		.size	chCondBroadcastI, .-chCondBroadcastI
 276 0034 AFF30080 		.section	.text.chCondBroadcast,"ax",%progbits
 276      AFF30080 
 276      AFF30080 
 277              		.align	2
 278              		.p2align 4,,15
 279              		.global	chCondBroadcast
 280              		.thumb
 281              		.thumb_func
 282              		.type	chCondBroadcast, %function
 283              	chCondBroadcast:
ARM GAS  /tmp/ccpWj9C5.s 			page 6


 284              	.LFB10:
 285              		.loc 1 110 0
 286              		.cfi_startproc
 287              		@ args = 0, pretend = 0, frame = 0
 288              		@ frame_needed = 0, uses_anonymous_args = 0
 289              	.LVL27:
 290 0000 10B5     		push	{r4, lr}
 291              		.cfi_def_cfa_offset 8
 292              		.cfi_offset 4, -8
 293              		.cfi_offset 14, -4
 294              	.LBB24:
 295              		.loc 1 112 0
 296 0002 2023     		movs	r3, #32
 297              	.LBE24:
 298              		.loc 1 110 0
 299 0004 0446     		mov	r4, r0
 300              	.LBB25:
 301              		.loc 1 112 0
 302              	@ 112 "../../../os/kernel/src/chcond.c" 1
 303 0006 83F31188 		msr     BASEPRI, r3
 304              	@ 0 "" 2
 305              		.thumb
 306              	.LBE25:
 307 000a FFF7FEFF 		bl	dbg_check_lock
 308              	.LVL28:
 309              		.loc 1 113 0
 310 000e 2046     		mov	r0, r4
 311 0010 FFF7FEFF 		bl	chCondBroadcastI
 312              	.LVL29:
 313              		.loc 1 114 0
 314 0014 FFF7FEFF 		bl	chSchRescheduleS
 315              	.LVL30:
 316              		.loc 1 115 0
 317 0018 FFF7FEFF 		bl	dbg_check_unlock
 318              	.LVL31:
 319              	.LBB26:
 320 001c 0023     		movs	r3, #0
 321              	@ 115 "../../../os/kernel/src/chcond.c" 1
 322 001e 83F31188 		msr     BASEPRI, r3
 323              	@ 0 "" 2
 324              		.thumb
 325 0022 10BD     		pop	{r4, pc}
 326              	.LBE26:
 327              		.cfi_endproc
 328              	.LFE10:
 329              		.size	chCondBroadcast, .-chCondBroadcast
 330 0024 AFF30080 		.section	.text.chCondWaitS,"ax",%progbits
 330      AFF30080 
 330      AFF30080 
 331              		.align	2
 332              		.p2align 4,,15
 333              		.global	chCondWaitS
 334              		.thumb
 335              		.thumb_func
 336              		.type	chCondWaitS, %function
 337              	chCondWaitS:
 338              	.LFB13:
ARM GAS  /tmp/ccpWj9C5.s 			page 7


 339              		.loc 1 184 0
 340              		.cfi_startproc
 341              		@ args = 0, pretend = 0, frame = 0
 342              		@ frame_needed = 0, uses_anonymous_args = 0
 343              	.LVL32:
 344              		.loc 1 185 0
 345 0000 154B     		ldr	r3, .L38
 346              		.loc 1 184 0
 347 0002 70B5     		push	{r4, r5, r6, lr}
 348              		.cfi_def_cfa_offset 16
 349              		.cfi_offset 4, -16
 350              		.cfi_offset 5, -12
 351              		.cfi_offset 6, -8
 352              		.cfi_offset 14, -4
 353              		.loc 1 184 0
 354 0004 0546     		mov	r5, r0
 355              		.loc 1 185 0
 356 0006 9C69     		ldr	r4, [r3, #24]
 357              	.LVL33:
 358              		.loc 1 189 0
 359 0008 FFF7FEFF 		bl	chDbgCheckClassS
 360              	.LVL34:
 361              		.loc 1 190 0
 362 000c E5B1     		cbz	r5, .L35
 363              	.L29:
 364              		.loc 1 191 0
 365 000e 236C     		ldr	r3, [r4, #64]
 366 0010 F3B1     		cbz	r3, .L36
 367              	.L30:
 368              		.loc 1 195 0
 369 0012 FFF7FEFF 		bl	chMtxUnlockS
 370              	.LVL35:
 371              		.loc 1 196 0
 372 0016 A562     		str	r5, [r4, #40]
 373              		.loc 1 195 0
 374 0018 0646     		mov	r6, r0
 375              	.LVL36:
 376              	.LBB27:
 377              	.LBB28:
 378              		.loc 2 43 0
 379 001a 2B46     		mov	r3, r5
 380 001c 03E0     		b	.L33
 381              	.LVL37:
 382              	.L37:
 383              		.loc 2 46 0
 384 001e 9968     		ldr	r1, [r3, #8]
 385 0020 A268     		ldr	r2, [r4, #8]
 386 0022 9142     		cmp	r1, r2
 387 0024 02D3     		bcc	.L32
 388              	.L33:
 389              		.loc 2 45 0
 390 0026 1B68     		ldr	r3, [r3]
 391              	.LVL38:
 392              		.loc 2 46 0
 393 0028 9D42     		cmp	r5, r3
 394 002a F8D1     		bne	.L37
 395              	.L32:
ARM GAS  /tmp/ccpWj9C5.s 			page 8


 396              		.loc 2 48 0
 397 002c 5A68     		ldr	r2, [r3, #4]
 398 002e 6260     		str	r2, [r4, #4]
 399              		.loc 2 47 0
 400 0030 2360     		str	r3, [r4]
 401              	.LBE28:
 402              	.LBE27:
 403              		.loc 1 198 0
 404 0032 0520     		movs	r0, #5
 405              	.LVL39:
 406              	.LBB30:
 407              	.LBB29:
 408              		.loc 2 49 0
 409 0034 5C60     		str	r4, [r3, #4]
 410 0036 1460     		str	r4, [r2]
 411              	.LBE29:
 412              	.LBE30:
 413              		.loc 1 198 0
 414 0038 FFF7FEFF 		bl	chSchGoSleepS
 415              	.LVL40:
 416              		.loc 1 199 0
 417 003c A46A     		ldr	r4, [r4, #40]
 418              	.LVL41:
 419              		.loc 1 200 0
 420 003e 3046     		mov	r0, r6
 421 0040 FFF7FEFF 		bl	chMtxLockS
 422              	.LVL42:
 423              		.loc 1 202 0
 424 0044 2046     		mov	r0, r4
 425 0046 70BD     		pop	{r4, r5, r6, pc}
 426              	.LVL43:
 427              	.L35:
 428              		.loc 1 190 0 discriminator 1
 429 0048 0448     		ldr	r0, .L38+4
 430 004a FFF7FEFF 		bl	chDbgPanic
 431              	.LVL44:
 432 004e DEE7     		b	.L29
 433              	.L36:
 434              		.loc 1 191 0 discriminator 1
 435 0050 0348     		ldr	r0, .L38+8
 436 0052 FFF7FEFF 		bl	chDbgPanic
 437              	.LVL45:
 438 0056 DCE7     		b	.L30
 439              	.L39:
 440              		.align	2
 441              	.L38:
 442 0058 00000000 		.word	rlist
 443 005c 50000000 		.word	.LC4
 444 0060 60000000 		.word	.LC5
 445              		.cfi_endproc
 446              	.LFE13:
 447              		.size	chCondWaitS, .-chCondWaitS
 448 0064 AFF30080 		.section	.text.chCondWait,"ax",%progbits
 448      AFF30080 
 448      AFF30080 
 449              		.align	2
 450              		.p2align 4,,15
ARM GAS  /tmp/ccpWj9C5.s 			page 9


 451              		.global	chCondWait
 452              		.thumb
 453              		.thumb_func
 454              		.type	chCondWait, %function
 455              	chCondWait:
 456              	.LFB12:
 457              		.loc 1 158 0
 458              		.cfi_startproc
 459              		@ args = 0, pretend = 0, frame = 0
 460              		@ frame_needed = 0, uses_anonymous_args = 0
 461              	.LVL46:
 462 0000 10B5     		push	{r4, lr}
 463              		.cfi_def_cfa_offset 8
 464              		.cfi_offset 4, -8
 465              		.cfi_offset 14, -4
 466              	.LBB31:
 467              		.loc 1 161 0
 468 0002 2023     		movs	r3, #32
 469              	.LBE31:
 470              		.loc 1 158 0
 471 0004 0446     		mov	r4, r0
 472              	.LBB32:
 473              		.loc 1 161 0
 474              	@ 161 "../../../os/kernel/src/chcond.c" 1
 475 0006 83F31188 		msr     BASEPRI, r3
 476              	@ 0 "" 2
 477              		.thumb
 478              	.LBE32:
 479 000a FFF7FEFF 		bl	dbg_check_lock
 480              	.LVL47:
 481              		.loc 1 162 0
 482 000e 2046     		mov	r0, r4
 483 0010 FFF7FEFF 		bl	chCondWaitS
 484              	.LVL48:
 485 0014 0446     		mov	r4, r0
 486              	.LVL49:
 487              		.loc 1 163 0
 488 0016 FFF7FEFF 		bl	dbg_check_unlock
 489              	.LVL50:
 490              	.LBB33:
 491 001a 0023     		movs	r3, #0
 492              	@ 163 "../../../os/kernel/src/chcond.c" 1
 493 001c 83F31188 		msr     BASEPRI, r3
 494              	@ 0 "" 2
 495              		.thumb
 496              	.LBE33:
 497              		.loc 1 165 0
 498 0020 2046     		mov	r0, r4
 499 0022 10BD     		pop	{r4, pc}
 500              		.cfi_endproc
 501              	.LFE12:
 502              		.size	chCondWait, .-chCondWait
 503 0024 AFF30080 		.section	.text.chCondWaitTimeoutS,"ax",%progbits
 503      AFF30080 
 503      AFF30080 
 504              		.align	2
 505              		.p2align 4,,15
ARM GAS  /tmp/ccpWj9C5.s 			page 10


 506              		.global	chCondWaitTimeoutS
 507              		.thumb
 508              		.thumb_func
 509              		.type	chCondWaitTimeoutS, %function
 510              	chCondWaitTimeoutS:
 511              	.LFB15:
 512              		.loc 1 270 0
 513              		.cfi_startproc
 514              		@ args = 0, pretend = 0, frame = 0
 515              		@ frame_needed = 0, uses_anonymous_args = 0
 516              	.LVL51:
 517 0000 2DE9F041 		push	{r4, r5, r6, r7, r8, lr}
 518              		.cfi_def_cfa_offset 24
 519              		.cfi_offset 4, -24
 520              		.cfi_offset 5, -20
 521              		.cfi_offset 6, -16
 522              		.cfi_offset 7, -12
 523              		.cfi_offset 8, -8
 524              		.cfi_offset 14, -4
 525              		.loc 1 270 0
 526 0004 0646     		mov	r6, r0
 527 0006 8846     		mov	r8, r1
 528              		.loc 1 274 0
 529 0008 FFF7FEFF 		bl	chDbgCheckClassS
 530              	.LVL52:
 531              		.loc 1 275 0
 532 000c 36B3     		cbz	r6, .L42
 533              		.loc 1 275 0 is_stmt 0 discriminator 2
 534 000e B8F1000F 		cmp	r8, #0
 535 0012 23D0     		beq	.L42
 536              	.L43:
 537              		.loc 1 276 0 is_stmt 1
 538 0014 154C     		ldr	r4, .L54
 539 0016 A369     		ldr	r3, [r4, #24]
 540 0018 1B6C     		ldr	r3, [r3, #64]
 541 001a 1BB3     		cbz	r3, .L53
 542              	.L44:
 543              		.loc 1 280 0
 544 001c FFF7FEFF 		bl	chMtxUnlockS
 545              	.LVL53:
 546              		.loc 1 281 0
 547 0020 A569     		ldr	r5, [r4, #24]
 548              		.loc 1 280 0
 549 0022 0746     		mov	r7, r0
 550              	.LVL54:
 551              	.LBB34:
 552              	.LBB35:
 553              		.loc 2 43 0
 554 0024 3346     		mov	r3, r6
 555              	.LBE35:
 556              	.LBE34:
 557              		.loc 1 281 0
 558 0026 AE62     		str	r6, [r5, #40]
 559              	.LVL55:
 560 0028 03E0     		b	.L49
 561              	.LVL56:
 562              	.L45:
ARM GAS  /tmp/ccpWj9C5.s 			page 11


 563              	.LBB39:
 564              	.LBB36:
 565              		.loc 2 46 0
 566 002a 9C68     		ldr	r4, [r3, #8]
 567 002c AA68     		ldr	r2, [r5, #8]
 568 002e 9442     		cmp	r4, r2
 569 0030 02D3     		bcc	.L48
 570              	.L49:
 571              		.loc 2 45 0
 572 0032 1B68     		ldr	r3, [r3]
 573              	.LVL57:
 574              		.loc 2 46 0
 575 0034 9E42     		cmp	r6, r3
 576 0036 F8D1     		bne	.L45
 577              	.L48:
 578              		.loc 2 48 0
 579 0038 5A68     		ldr	r2, [r3, #4]
 580 003a 6A60     		str	r2, [r5, #4]
 581              		.loc 2 47 0
 582 003c 2B60     		str	r3, [r5]
 583              	.LBE36:
 584              	.LBE39:
 585              		.loc 1 283 0
 586 003e 4146     		mov	r1, r8
 587              	.LBB40:
 588              	.LBB37:
 589              		.loc 2 49 0
 590 0040 5D60     		str	r5, [r3, #4]
 591              	.LBE37:
 592              	.LBE40:
 593              		.loc 1 283 0
 594 0042 0520     		movs	r0, #5
 595              	.LVL58:
 596              	.LBB41:
 597              	.LBB38:
 598              		.loc 2 49 0
 599 0044 1560     		str	r5, [r2]
 600              	.LBE38:
 601              	.LBE41:
 602              		.loc 1 283 0
 603 0046 FFF7FEFF 		bl	chSchGoSleepTimeoutS
 604              	.LVL59:
 605              		.loc 1 284 0
 606 004a 431C     		adds	r3, r0, #1
 607              		.loc 1 283 0
 608 004c 0446     		mov	r4, r0
 609              	.LVL60:
 610              		.loc 1 284 0
 611 004e 02D0     		beq	.L47
 612              		.loc 1 285 0
 613 0050 3846     		mov	r0, r7
 614              	.LVL61:
 615 0052 FFF7FEFF 		bl	chMtxLockS
 616              	.LVL62:
 617              	.L47:
 618              		.loc 1 287 0
 619 0056 2046     		mov	r0, r4
ARM GAS  /tmp/ccpWj9C5.s 			page 12


 620 0058 BDE8F081 		pop	{r4, r5, r6, r7, r8, pc}
 621              	.LVL63:
 622              	.L42:
 623              		.loc 1 275 0 discriminator 1
 624 005c 0448     		ldr	r0, .L54+4
 625 005e FFF7FEFF 		bl	chDbgPanic
 626              	.LVL64:
 627 0062 D7E7     		b	.L43
 628              	.L53:
 629              		.loc 1 276 0 discriminator 1
 630 0064 0348     		ldr	r0, .L54+8
 631 0066 FFF7FEFF 		bl	chDbgPanic
 632              	.LVL65:
 633 006a D7E7     		b	.L44
 634              	.L55:
 635              		.align	2
 636              	.L54:
 637 006c 00000000 		.word	rlist
 638 0070 74000000 		.word	.LC6
 639 0074 8C000000 		.word	.LC7
 640              		.cfi_endproc
 641              	.LFE15:
 642              		.size	chCondWaitTimeoutS, .-chCondWaitTimeoutS
 643 0078 AFF30080 		.section	.text.chCondWaitTimeout,"ax",%progbits
 643      AFF30080 
 644              		.align	2
 645              		.p2align 4,,15
 646              		.global	chCondWaitTimeout
 647              		.thumb
 648              		.thumb_func
 649              		.type	chCondWaitTimeout, %function
 650              	chCondWaitTimeout:
 651              	.LFB14:
 652              		.loc 1 233 0
 653              		.cfi_startproc
 654              		@ args = 0, pretend = 0, frame = 0
 655              		@ frame_needed = 0, uses_anonymous_args = 0
 656              	.LVL66:
 657 0000 38B5     		push	{r3, r4, r5, lr}
 658              		.cfi_def_cfa_offset 16
 659              		.cfi_offset 3, -16
 660              		.cfi_offset 4, -12
 661              		.cfi_offset 5, -8
 662              		.cfi_offset 14, -4
 663              		.loc 1 233 0
 664 0002 0546     		mov	r5, r0
 665 0004 0C46     		mov	r4, r1
 666              	.LBB42:
 667              		.loc 1 236 0
 668 0006 2023     		movs	r3, #32
 669              	@ 236 "../../../os/kernel/src/chcond.c" 1
 670 0008 83F31188 		msr     BASEPRI, r3
 671              	@ 0 "" 2
 672              		.thumb
 673              	.LBE42:
 674 000c FFF7FEFF 		bl	dbg_check_lock
 675              	.LVL67:
ARM GAS  /tmp/ccpWj9C5.s 			page 13


 676              		.loc 1 237 0
 677 0010 2146     		mov	r1, r4
 678 0012 2846     		mov	r0, r5
 679 0014 FFF7FEFF 		bl	chCondWaitTimeoutS
 680              	.LVL68:
 681 0018 0446     		mov	r4, r0
 682              	.LVL69:
 683              		.loc 1 238 0
 684 001a FFF7FEFF 		bl	dbg_check_unlock
 685              	.LVL70:
 686              	.LBB43:
 687 001e 0023     		movs	r3, #0
 688              	@ 238 "../../../os/kernel/src/chcond.c" 1
 689 0020 83F31188 		msr     BASEPRI, r3
 690              	@ 0 "" 2
 691              		.thumb
 692              	.LBE43:
 693              		.loc 1 240 0
 694 0024 2046     		mov	r0, r4
 695 0026 38BD     		pop	{r3, r4, r5, pc}
 696              		.cfi_endproc
 697              	.LFE14:
 698              		.size	chCondWaitTimeout, .-chCondWaitTimeout
 699 0028 AFF30080 		.section	.rodata.str1.4,"aMS",%progbits,1
 699      AFF30080 
 700              		.align	2
 701              	.LC0:
 702 0000 22636843 		.ascii	"\"chCondInit\"()\000"
 702      6F6E6449 
 702      6E697422 
 702      282900
 703 000f 00       		.space	1
 704              	.LC1:
 705 0010 22636843 		.ascii	"\"chCondSignal\"()\000"
 705      6F6E6453 
 705      69676E61 
 705      6C222829 
 705      00
 706 0021 000000   		.space	3
 707              	.LC2:
 708 0024 22636843 		.ascii	"\"chCondSignalI\"()\000"
 708      6F6E6453 
 708      69676E61 
 708      6C492228 
 708      2900
 709 0036 0000     		.space	2
 710              	.LC3:
 711 0038 22636843 		.ascii	"\"chCondBroadcastI\"()\000"
 711      6F6E6442 
 711      726F6164 
 711      63617374 
 711      49222829 
 712 004d 000000   		.space	3
 713              	.LC4:
 714 0050 22636843 		.ascii	"\"chCondWaitS\"()\000"
 714      6F6E6457 
 714      61697453 
ARM GAS  /tmp/ccpWj9C5.s 			page 14


 714      22282900 
 715              	.LC5:
 716 0060 6368436F 		.ascii	"chCondWaitS(), #1\000"
 716      6E645761 
 716      69745328 
 716      292C2023 
 716      3100
 717 0072 0000     		.space	2
 718              	.LC6:
 719 0074 22636843 		.ascii	"\"chCondWaitTimeoutS\"()\000"
 719      6F6E6457 
 719      61697454 
 719      696D656F 
 719      75745322 
 720 008b 00       		.space	1
 721              	.LC7:
 722 008c 6368436F 		.ascii	"chCondWaitTimeoutS(), #1\000"
 722      6E645761 
 722      69745469 
 722      6D656F75 
 722      74532829 
 723 00a5 000000   		.text
 724              	.Letext0:
 725              		.file 3 "/opt/ARM/arm-none-eabi/include/machine/_default_types.h"
 726              		.file 4 "/opt/ARM/arm-none-eabi/include/stdint.h"
 727              		.file 5 "../../../os/ports/GCC/ARMCMx/chtypes.h"
 728              		.file 6 "../../../os/kernel/include/chlists.h"
 729              		.file 7 "../../../os/kernel/include/chthreads.h"
 730              		.file 8 "../../../os/ports/GCC/ARMCMx/chcore_v7m.h"
 731              		.file 9 "../../../os/kernel/include/chschd.h"
 732              		.file 10 "../../../os/kernel/include/chmtx.h"
 733              		.file 11 "../../../os/kernel/include/chcond.h"
 734              		.file 12 "../../../os/kernel/include/chdebug.h"
