ARM GAS  /tmp/cc28dqBY.s 			page 1


   1              		.syntax unified
   2              		.cpu cortex-m4
   3              		.fpu softvfp
   4              		.eabi_attribute 20, 1
   5              		.eabi_attribute 21, 1
   6              		.eabi_attribute 23, 3
   7              		.eabi_attribute 24, 1
   8              		.eabi_attribute 25, 1
   9              		.eabi_attribute 26, 1
  10              		.eabi_attribute 30, 2
  11              		.eabi_attribute 34, 1
  12              		.eabi_attribute 18, 4
  13              		.thumb
  14              		.file	"chcore_v7m.c"
  15              		.text
  16              	.Ltext0:
  17              		.cfi_sections	.debug_frame
  18              		.section	.text._port_switch_from_isr,"ax",%progbits
  19              		.align	2
  20              		.p2align 4,,15
  21              		.global	_port_switch_from_isr
  22              		.thumb
  23              		.thumb_func
  24              		.type	_port_switch_from_isr, %function
  25              	_port_switch_from_isr:
  26              	.LFB11:
  27              		.file 1 "../../../os/ports/GCC/ARMCMx/chcore_v7m.c"
  28              		.loc 1 197 0
  29              		.cfi_startproc
  30              		@ Naked Function: prologue and epilogue provided by programmer.
  31              		@ args = 0, pretend = 0, frame = 0
  32              		@ frame_needed = 0, uses_anonymous_args = 0
  33              		.loc 1 199 0
  34 0000 FFF7FEFF 		bl	dbg_check_lock
  35              	.LVL0:
  36              		.loc 1 200 0
  37 0004 FFF7FEFF 		bl	chSchDoReschedule
  38              	.LVL1:
  39              		.loc 1 201 0
  40 0008 FFF7FEFF 		bl	dbg_check_unlock
  41              	.LVL2:
  42              		.loc 1 202 0
  43              	@ 202 "../../../os/ports/GCC/ARMCMx/chcore_v7m.c" 1
  44              		_port_exit_from_isr:
  45              	@ 0 "" 2
  46              		.loc 1 204 0
  47              	@ 204 "../../../os/ports/GCC/ARMCMx/chcore_v7m.c" 1
  48 000c 00DF     		svc     #0
  49              	@ 0 "" 2
  50              		.loc 1 211 0
  51              		.thumb
  52              		.cfi_endproc
  53              	.LFE11:
  54              		.size	_port_switch_from_isr, .-_port_switch_from_isr
  55 000e 00BF     		.section	.text.SVCallVector,"ax",%progbits
  56              		.align	2
  57              		.p2align 4,,15
ARM GAS  /tmp/cc28dqBY.s 			page 2


  58              		.global	SVCallVector
  59              		.thumb
  60              		.thumb_func
  61              		.type	SVCallVector, %function
  62              	SVCallVector:
  63              	.LFB8:
  64              		.loc 1 65 0
  65              		.cfi_startproc
  66              		@ args = 0, pretend = 0, frame = 0
  67              		@ frame_needed = 0, uses_anonymous_args = 0
  68              		@ link register save eliminated.
  69              		.loc 1 74 0
  70              	@ 74 "../../../os/ports/GCC/ARMCMx/chcore_v7m.c" 1
  71 0000 EFF30983 		mrs     r3, PSP
  72              	@ 0 "" 2
  73              	.LVL3:
  74              		.loc 1 78 0
  75              		.thumb
  76 0004 2033     		adds	r3, r3, #32
  77              	.LVL4:
  78              		.loc 1 81 0
  79              	@ 81 "../../../os/ports/GCC/ARMCMx/chcore_v7m.c" 1
  80 0006 83F30988 		msr     PSP, r3
  81              	@ 0 "" 2
  82              		.thumb
  83              	.LBB2:
  84              		.loc 1 82 0
  85 000a 0023     		movs	r3, #0
  86              	.LVL5:
  87              	@ 82 "../../../os/ports/GCC/ARMCMx/chcore_v7m.c" 1
  88 000c 83F31188 		msr     BASEPRI, r3
  89              	@ 0 "" 2
  90              		.thumb
  91 0010 7047     		bx	lr
  92              	.LBE2:
  93              		.cfi_endproc
  94              	.LFE8:
  95              		.size	SVCallVector, .-SVCallVector
  96 0012 00BFAFF3 		.section	.text._port_init,"ax",%progbits
  96      0080AFF3 
  96      0080AFF3 
  96      0080
  97              		.align	2
  98              		.p2align 4,,15
  99              		.global	_port_init
 100              		.thumb
 101              		.thumb_func
 102              		.type	_port_init, %function
 103              	_port_init:
 104              	.LFB9:
 105              		.loc 1 120 0
 106              		.cfi_startproc
 107              		@ args = 0, pretend = 0, frame = 0
 108              		@ frame_needed = 0, uses_anonymous_args = 0
 109 0000 08B5     		push	{r3, lr}
 110              		.cfi_def_cfa_offset 8
 111              		.cfi_offset 3, -8
ARM GAS  /tmp/cc28dqBY.s 			page 3


 112              		.cfi_offset 14, -4
 113              		.loc 1 123 0
 114 0002 094B     		ldr	r3, .L4
 115              		.loc 1 124 0
 116 0004 094A     		ldr	r2, .L4+4
 117              		.loc 1 123 0
 118 0006 0021     		movs	r1, #0
 119 0008 9960     		str	r1, [r3, #8]
 120              		.loc 1 127 0
 121 000a 0720     		movs	r0, #7
 122              		.loc 1 124 0
 123 000c DA60     		str	r2, [r3, #12]
 124              		.loc 1 127 0
 125 000e 1021     		movs	r1, #16
 126 0010 FFF7FEFF 		bl	nvicSetSystemHandlerPriority
 127              	.LVL6:
 128              		.loc 1 129 0
 129 0014 0A20     		movs	r0, #10
 130 0016 2021     		movs	r1, #32
 131 0018 FFF7FEFF 		bl	nvicSetSystemHandlerPriority
 132              	.LVL7:
 133              		.loc 1 131 0
 134 001c 0B20     		movs	r0, #11
 135 001e 8021     		movs	r1, #128
 136              		.loc 1 133 0
 137 0020 BDE80840 		pop	{r3, lr}
 138              		.loc 1 131 0
 139 0024 FFF7FEBF 		b	nvicSetSystemHandlerPriority
 140              	.LVL8:
 141              	.L5:
 142              		.align	2
 143              	.L4:
 144 0028 00ED00E0 		.word	-536810240
 145 002c 0003FA05 		.word	100270848
 146              		.cfi_endproc
 147              	.LFE9:
 148              		.size	_port_init, .-_port_init
 149              		.section	.text._port_irq_epilogue,"ax",%progbits
 150              		.align	2
 151              		.p2align 4,,15
 152              		.global	_port_irq_epilogue
 153              		.thumb
 154              		.thumb_func
 155              		.type	_port_irq_epilogue, %function
 156              	_port_irq_epilogue:
 157              	.LFB10:
 158              		.loc 1 150 0
 159              		.cfi_startproc
 160              		@ args = 0, pretend = 0, frame = 0
 161              		@ frame_needed = 0, uses_anonymous_args = 0
 162              		@ link register save eliminated.
 163              	.LBB3:
 164              		.loc 1 152 0
 165 0000 2023     		movs	r3, #32
 166              	@ 152 "../../../os/ports/GCC/ARMCMx/chcore_v7m.c" 1
 167 0002 83F31188 		msr     BASEPRI, r3
 168              	@ 0 "" 2
ARM GAS  /tmp/cc28dqBY.s 			page 4


 169              		.thumb
 170              	.LBE3:
 171              		.loc 1 153 0
 172 0006 164B     		ldr	r3, .L14
 173 0008 5B68     		ldr	r3, [r3, #4]
 174 000a 13F40063 		ands	r3, r3, #2048
 175 000e 1AD0     		beq	.L7
 176              	.LBB4:
 177              		.loc 1 163 0
 178              	@ 163 "../../../os/ports/GCC/ARMCMx/chcore_v7m.c" 1
 179 0010 EFF30983 		mrs     r3, PSP
 180              	@ 0 "" 2
 181              	.LVL9:
 182              		.loc 1 168 0
 183              		.thumb
 184 0014 4FF08072 		mov	r2, #16777216
 185 0018 43F8042C 		str	r2, [r3, #-4]
 186              		.loc 1 167 0
 187 001c A3F12002 		sub	r2, r3, #32
 188              	.LVL10:
 189              		.loc 1 169 0
 190              	@ 169 "../../../os/ports/GCC/ARMCMx/chcore_v7m.c" 1
 191 0020 82F30988 		msr     PSP, r2
 192              	@ 0 "" 2
 193              		.loc 1 173 0
 194              		.thumb
 195 0024 0F49     		ldr	r1, .L14+4
 196 0026 8A69     		ldr	r2, [r1, #24]
 197              	.LVL11:
 198 0028 0968     		ldr	r1, [r1]
 199 002a 92F82300 		ldrb	r0, [r2, #35]	@ zero_extendqisi2
 200 002e 8968     		ldr	r1, [r1, #8]
 201 0030 9268     		ldr	r2, [r2, #8]
 202 0032 58B1     		cbz	r0, .L8
 203              		.loc 1 173 0 is_stmt 0 discriminator 1
 204 0034 9142     		cmp	r1, r2
 205 0036 94BF     		ite	ls
 206 0038 0022     		movls	r2, #0
 207 003a 0122     		movhi	r2, #1
 208 003c 62B1     		cbz	r2, .L10
 209              	.L13:
 210              		.loc 1 175 0 is_stmt 1
 211 003e 0A4A     		ldr	r2, .L14+8
 212 0040 43F8082C 		str	r2, [r3, #-8]
 213 0044 7047     		bx	lr
 214              	.LVL12:
 215              	.L7:
 216              	.LBE4:
 217              	.LBB5:
 218              		.loc 1 187 0
 219              	@ 187 "../../../os/ports/GCC/ARMCMx/chcore_v7m.c" 1
 220 0046 83F31188 		msr     BASEPRI, r3
 221              	@ 0 "" 2
 222              		.thumb
 223 004a 7047     		bx	lr
 224              	.LVL13:
 225              	.L8:
ARM GAS  /tmp/cc28dqBY.s 			page 5


 226              	.LBE5:
 227              	.LBB6:
 228              		.loc 1 173 0 discriminator 2
 229 004c 9142     		cmp	r1, r2
 230 004e 34BF     		ite	cc
 231 0050 0022     		movcc	r2, #0
 232 0052 0122     		movcs	r2, #1
 233 0054 002A     		cmp	r2, #0
 234 0056 F2D1     		bne	.L13
 235              	.L10:
 236              		.loc 1 180 0
 237 0058 044A     		ldr	r2, .L14+12
 238 005a 43F8082C 		str	r2, [r3, #-8]
 239 005e 7047     		bx	lr
 240              	.L15:
 241              		.align	2
 242              	.L14:
 243 0060 00ED00E0 		.word	-536810240
 244 0064 00000000 		.word	rlist
 245 0068 00000000 		.word	_port_switch_from_isr
 246 006c 0C000000 		.word	_port_exit_from_isr
 247              	.LBE6:
 248              		.cfi_endproc
 249              	.LFE10:
 250              		.size	_port_irq_epilogue, .-_port_irq_epilogue
 251              		.section	.text.SysTickVector,"ax",%progbits
 252              		.align	2
 253              		.p2align 4,,15
 254              		.global	SysTickVector
 255              		.thumb
 256              		.thumb_func
 257              		.type	SysTickVector, %function
 258              	SysTickVector:
 259              	.LFB7:
 260              		.loc 1 47 0
 261              		.cfi_startproc
 262              		@ args = 0, pretend = 0, frame = 0
 263              		@ frame_needed = 0, uses_anonymous_args = 0
 264 0000 08B5     		push	{r3, lr}
 265              		.cfi_def_cfa_offset 8
 266              		.cfi_offset 3, -8
 267              		.cfi_offset 14, -4
 268              		.loc 1 49 0
 269 0002 FFF7FEFF 		bl	dbg_check_enter_isr
 270              	.LVL14:
 271              	.LBB7:
 272              		.loc 1 51 0
 273 0006 2023     		movs	r3, #32
 274              	@ 51 "../../../os/ports/GCC/ARMCMx/chcore_v7m.c" 1
 275 0008 83F31188 		msr     BASEPRI, r3
 276              	@ 0 "" 2
 277              		.thumb
 278              	.LBE7:
 279 000c FFF7FEFF 		bl	dbg_check_lock_from_isr
 280              	.LVL15:
 281              		.loc 1 52 0
 282 0010 FFF7FEFF 		bl	chSysTimerHandlerI
ARM GAS  /tmp/cc28dqBY.s 			page 6


 283              	.LVL16:
 284              		.loc 1 53 0
 285 0014 FFF7FEFF 		bl	dbg_check_unlock_from_isr
 286              	.LVL17:
 287              	.LBB8:
 288 0018 0023     		movs	r3, #0
 289              	@ 53 "../../../os/ports/GCC/ARMCMx/chcore_v7m.c" 1
 290 001a 83F31188 		msr     BASEPRI, r3
 291              	@ 0 "" 2
 292              		.thumb
 293              	.LBE8:
 294              		.loc 1 55 0
 295 001e FFF7FEFF 		bl	dbg_check_leave_isr
 296              	.LVL18:
 297              		.loc 1 56 0
 298 0022 BDE80840 		pop	{r3, lr}
 299              		.loc 1 55 0
 300 0026 FFF7FEBF 		b	_port_irq_epilogue
 301              	.LVL19:
 302              		.cfi_endproc
 303              	.LFE7:
 304              		.size	SysTickVector, .-SysTickVector
 305 002a 00BFAFF3 		.section	.text._port_switch,"ax",%progbits
 305      0080
 306              		.align	2
 307              		.p2align 4,,15
 308              		.global	_port_switch
 309              		.thumb
 310              		.thumb_func
 311              		.type	_port_switch, %function
 312              	_port_switch:
 313              	.LFB12:
 314              		.loc 1 226 0
 315              		.cfi_startproc
 316              		@ Naked Function: prologue and epilogue provided by programmer.
 317              		@ args = 0, pretend = 0, frame = 0
 318              		@ frame_needed = 0, uses_anonymous_args = 0
 319              	.LVL20:
 320              		.loc 1 228 0
 321              	@ 228 "../../../os/ports/GCC/ARMCMx/chcore_v7m.c" 1
 322 0000 2DE9F04F 		push    {r4, r5, r6, r7, r8, r9, r10, r11, lr}
 323              	@ 0 "" 2
 324              		.loc 1 234 0
 325              	@ 234 "../../../os/ports/GCC/ARMCMx/chcore_v7m.c" 1
 326 0004 C1F80CD0 		str     sp, [r1, #12]                          
 327 0008 D0F80CD0 		ldr     sp, [r0, #12]
 328              	@ 0 "" 2
 329              		.loc 1 240 0
 330              	@ 240 "../../../os/ports/GCC/ARMCMx/chcore_v7m.c" 1
 331 000c BDE8F08F 		pop     {r4, r5, r6, r7, r8, r9, r10, r11, pc}
 332              	@ 0 "" 2
 333              		.loc 1 242 0
 334              		.thumb
 335              		.cfi_endproc
 336              	.LFE12:
 337              		.size	_port_switch, .-_port_switch
 338              		.section	.text._port_thread_start,"ax",%progbits
ARM GAS  /tmp/cc28dqBY.s 			page 7


 339              		.align	2
 340              		.p2align 4,,15
 341              		.global	_port_thread_start
 342              		.thumb
 343              		.thumb_func
 344              		.type	_port_thread_start, %function
 345              	_port_thread_start:
 346              	.LFB13:
 347              		.loc 1 249 0
 348              		.cfi_startproc
 349              		@ args = 0, pretend = 0, frame = 0
 350              		@ frame_needed = 0, uses_anonymous_args = 0
 351 0000 08B5     		push	{r3, lr}
 352              		.cfi_def_cfa_offset 8
 353              		.cfi_offset 3, -8
 354              		.cfi_offset 14, -4
 355              		.loc 1 251 0
 356 0002 FFF7FEFF 		bl	dbg_check_unlock
 357              	.LVL21:
 358              	.LBB9:
 359 0006 0023     		movs	r3, #0
 360              	@ 251 "../../../os/ports/GCC/ARMCMx/chcore_v7m.c" 1
 361 0008 83F31188 		msr     BASEPRI, r3
 362              	@ 0 "" 2
 363              		.thumb
 364              	.LBE9:
 365              		.loc 1 252 0
 366              	@ 252 "../../../os/ports/GCC/ARMCMx/chcore_v7m.c" 1
 367 000c 2846     		mov     r0, r5                                 
 368 000e A047     		blx     r4                                     
 369 0010 FFF7FEFF 		bl      chThdExit
 370              	@ 0 "" 2
 371              		.thumb
 372 0014 08BD     		pop	{r3, pc}
 373              		.cfi_endproc
 374              	.LFE13:
 375              		.size	_port_thread_start, .-_port_thread_start
 376 0016 00BFAFF3 		.text
 376      0080AFF3 
 376      0080
 377              	.Letext0:
 378              		.file 2 "/opt/ARM/arm-none-eabi/include/machine/_default_types.h"
 379              		.file 3 "/opt/ARM/arm-none-eabi/include/stdint.h"
 380              		.file 4 "../../../os/ports/GCC/ARMCMx/chtypes.h"
 381              		.file 5 "../../../os/kernel/include/chlists.h"
 382              		.file 6 "../../../os/kernel/include/chthreads.h"
 383              		.file 7 "../../../os/ports/GCC/ARMCMx/chcore_v7m.h"
 384              		.file 8 "../../../os/ports/common/ARMCMx/nvic.h"
 385              		.file 9 "../../../os/kernel/include/chschd.h"
 386              		.file 10 "../../../os/kernel/include/chmtx.h"
 387              		.file 11 "../../../os/kernel/include/chdebug.h"
 388              		.file 12 "../../../os/kernel/include/chsys.h"
