ARM GAS  /tmp/ccsz4bQr.s 			page 1


   1              		.syntax unified
   2              		.cpu cortex-m4
   3              		.fpu softvfp
   4              		.eabi_attribute 20, 1
   5              		.eabi_attribute 21, 1
   6              		.eabi_attribute 23, 3
   7              		.eabi_attribute 24, 1
   8              		.eabi_attribute 25, 1
   9              		.eabi_attribute 26, 1
  10              		.eabi_attribute 30, 2
  11              		.eabi_attribute 34, 1
  12              		.eabi_attribute 18, 4
  13              		.thumb
  14              		.file	"chqueues.c"
  15              		.text
  16              	.Ltext0:
  17              		.cfi_sections	.debug_frame
  18              		.section	.text.qwait,"ax",%progbits
  19              		.align	2
  20              		.p2align 4,,15
  21              		.thumb
  22              		.thumb_func
  23              		.type	qwait, %function
  24              	qwait:
  25              	.LFB7:
  26              		.file 1 "../../../os/kernel/src/chqueues.c"
  27              		.loc 1 70 0
  28              		.cfi_startproc
  29              		@ args = 0, pretend = 0, frame = 0
  30              		@ frame_needed = 0, uses_anonymous_args = 0
  31              		@ link register save eliminated.
  32              	.LVL0:
  33 0000 10B4     		push	{r4}
  34              		.cfi_def_cfa_offset 4
  35              		.cfi_offset 4, -4
  36              		.loc 1 70 0
  37 0002 0246     		mov	r2, r0
  38              		.loc 1 72 0
  39 0004 61B1     		cbz	r1, .L2
  40              		.loc 1 74 0
  41 0006 094B     		ldr	r3, .L4
  42 0008 9B69     		ldr	r3, [r3, #24]
  43 000a 9862     		str	r0, [r3, #40]
  44              	.LVL1:
  45              	.LBB12:
  46              	.LBB13:
  47              		.file 2 "../../../os/kernel/include/chinline.h"
  48              		.loc 2 55 0
  49 000c 4468     		ldr	r4, [r0, #4]
  50              	.LBE13:
  51              	.LBE12:
  52              		.loc 1 76 0
  53 000e 0D20     		movs	r0, #13
  54              	.LVL2:
  55              	.LBB15:
  56              	.LBB14:
  57              		.loc 2 55 0
ARM GAS  /tmp/ccsz4bQr.s 			page 2


  58 0010 83E81400 		stmia	r3, {r2, r4}
  59              		.loc 2 56 0
  60 0014 5360     		str	r3, [r2, #4]
  61 0016 2360     		str	r3, [r4]
  62              	.LBE14:
  63              	.LBE15:
  64              		.loc 1 77 0
  65 0018 5DF8044B 		ldr	r4, [sp], #4
  66              		.loc 1 76 0
  67 001c FFF7FEBF 		b	chSchGoSleepTimeoutS
  68              	.LVL3:
  69              	.L2:
  70              		.loc 1 77 0
  71 0020 4FF0FF30 		mov	r0, #-1
  72              	.LVL4:
  73 0024 5DF8044B 		ldr	r4, [sp], #4
  74 0028 7047     		bx	lr
  75              	.L5:
  76 002a 00BF     		.align	2
  77              	.L4:
  78 002c 00000000 		.word	rlist
  79              		.cfi_endproc
  80              	.LFE7:
  81              		.size	qwait, .-qwait
  82              		.section	.text.chIQInit,"ax",%progbits
  83              		.align	2
  84              		.p2align 4,,15
  85              		.global	chIQInit
  86              		.thumb
  87              		.thumb_func
  88              		.type	chIQInit, %function
  89              	chIQInit:
  90              	.LFB8:
  91              		.loc 1 96 0
  92              		.cfi_startproc
  93              		@ args = 4, pretend = 0, frame = 0
  94              		@ frame_needed = 0, uses_anonymous_args = 0
  95              		@ link register save eliminated.
  96              	.LVL5:
  97 0000 30B4     		push	{r4, r5}
  98              		.cfi_def_cfa_offset 8
  99              		.cfi_offset 4, -8
 100              		.cfi_offset 5, -4
 101              		.loc 1 96 0
 102 0002 029C     		ldr	r4, [sp, #8]
 103              		.loc 1 103 0
 104 0004 0462     		str	r4, [r0, #32]
 105              		.loc 1 99 0
 106 0006 0025     		movs	r5, #0
 107              		.loc 1 101 0
 108 0008 0A44     		add	r2, r2, r1
 109              	.LVL6:
 110              		.loc 1 99 0
 111 000a 8560     		str	r5, [r0, #8]
 112              		.loc 1 101 0
 113 000c 0261     		str	r2, [r0, #16]
 114              		.loc 1 98 0
ARM GAS  /tmp/ccsz4bQr.s 			page 3


 115 000e 4060     		str	r0, [r0, #4]
 116 0010 0060     		str	r0, [r0]
 117              		.loc 1 100 0
 118 0012 4161     		str	r1, [r0, #20]
 119 0014 8161     		str	r1, [r0, #24]
 120 0016 C160     		str	r1, [r0, #12]
 121              		.loc 1 102 0
 122 0018 C361     		str	r3, [r0, #28]
 123              		.loc 1 104 0
 124 001a 30BC     		pop	{r4, r5}
 125              	.LVL7:
 126 001c 7047     		bx	lr
 127              		.cfi_endproc
 128              	.LFE8:
 129              		.size	chIQInit, .-chIQInit
 130 001e 00BF     		.section	.text.chIQResetI,"ax",%progbits
 131              		.align	2
 132              		.p2align 4,,15
 133              		.global	chIQResetI
 134              		.thumb
 135              		.thumb_func
 136              		.type	chIQResetI, %function
 137              	chIQResetI:
 138              	.LFB9:
 139              		.loc 1 117 0
 140              		.cfi_startproc
 141              		@ args = 0, pretend = 0, frame = 0
 142              		@ frame_needed = 0, uses_anonymous_args = 0
 143              	.LVL8:
 144 0000 38B5     		push	{r3, r4, r5, lr}
 145              		.cfi_def_cfa_offset 16
 146              		.cfi_offset 3, -16
 147              		.cfi_offset 4, -12
 148              		.cfi_offset 5, -8
 149              		.cfi_offset 14, -4
 150              		.loc 1 117 0
 151 0002 0446     		mov	r4, r0
 152              		.loc 1 119 0
 153 0004 FFF7FEFF 		bl	chDbgCheckClassI
 154              	.LVL9:
 155              		.loc 1 123 0
 156 0008 2068     		ldr	r0, [r4]
 157              		.loc 1 121 0
 158 000a E368     		ldr	r3, [r4, #12]
 159 000c 6361     		str	r3, [r4, #20]
 160              		.loc 1 122 0
 161 000e 0022     		movs	r2, #0
 162              		.loc 1 123 0
 163 0010 A042     		cmp	r0, r4
 164              		.loc 1 122 0
 165 0012 A260     		str	r2, [r4, #8]
 166              		.loc 1 121 0
 167 0014 A361     		str	r3, [r4, #24]
 168              		.loc 1 123 0
 169 0016 0AD0     		beq	.L7
 170              		.loc 1 124 0
 171 0018 6FF00105 		mvn	r5, #1
ARM GAS  /tmp/ccsz4bQr.s 			page 4


 172              	.L10:
 173              	.LVL10:
 174              	.LBB16:
 175              	.LBB17:
 176              		.loc 2 62 0
 177 001c 0368     		ldr	r3, [r0]
 178 001e 2360     		str	r3, [r4]
 179 0020 5C60     		str	r4, [r3, #4]
 180              	.LBE17:
 181              	.LBE16:
 182              		.loc 1 124 0
 183 0022 FFF7FEFF 		bl	chSchReadyI
 184              	.LVL11:
 185 0026 8562     		str	r5, [r0, #40]
 186              		.loc 1 123 0
 187 0028 2068     		ldr	r0, [r4]
 188 002a A042     		cmp	r0, r4
 189 002c F6D1     		bne	.L10
 190              	.LVL12:
 191              	.L7:
 192 002e 38BD     		pop	{r3, r4, r5, pc}
 193              		.cfi_endproc
 194              	.LFE9:
 195              		.size	chIQResetI, .-chIQResetI
 196              		.section	.text.chIQPutI,"ax",%progbits
 197              		.align	2
 198              		.p2align 4,,15
 199              		.global	chIQPutI
 200              		.thumb
 201              		.thumb_func
 202              		.type	chIQPutI, %function
 203              	chIQPutI:
 204              	.LFB10:
 205              		.loc 1 140 0
 206              		.cfi_startproc
 207              		@ args = 0, pretend = 0, frame = 0
 208              		@ frame_needed = 0, uses_anonymous_args = 0
 209              	.LVL13:
 210 0000 38B5     		push	{r3, r4, r5, lr}
 211              		.cfi_def_cfa_offset 16
 212              		.cfi_offset 3, -16
 213              		.cfi_offset 4, -12
 214              		.cfi_offset 5, -8
 215              		.cfi_offset 14, -4
 216              		.loc 1 140 0
 217 0002 0446     		mov	r4, r0
 218 0004 0D46     		mov	r5, r1
 219              		.loc 1 142 0
 220 0006 FFF7FEFF 		bl	chDbgCheckClassI
 221              	.LVL14:
 222              		.loc 1 144 0
 223 000a A269     		ldr	r2, [r4, #24]
 224 000c 6369     		ldr	r3, [r4, #20]
 225 000e 9342     		cmp	r3, r2
 226 0010 A268     		ldr	r2, [r4, #8]
 227 0012 1BD0     		beq	.L20
 228              	.L14:
ARM GAS  /tmp/ccsz4bQr.s 			page 5


 229              		.loc 1 147 0
 230 0014 0132     		adds	r2, r2, #1
 231              		.loc 1 148 0
 232 0016 591C     		adds	r1, r3, #1
 233              		.loc 1 147 0
 234 0018 A260     		str	r2, [r4, #8]
 235              		.loc 1 148 0
 236 001a 6161     		str	r1, [r4, #20]
 237 001c 1D70     		strb	r5, [r3]
 238              		.loc 1 149 0
 239 001e 6269     		ldr	r2, [r4, #20]
 240 0020 2369     		ldr	r3, [r4, #16]
 241 0022 9A42     		cmp	r2, r3
 242 0024 0BD2     		bcs	.L15
 243              		.loc 1 152 0
 244 0026 2068     		ldr	r0, [r4]
 245 0028 A042     		cmp	r0, r4
 246 002a 0DD0     		beq	.L18
 247              	.L21:
 248              	.LVL15:
 249              	.LBB18:
 250              	.LBB19:
 251              		.loc 2 62 0
 252 002c 0368     		ldr	r3, [r0]
 253 002e 2360     		str	r3, [r4]
 254 0030 5C60     		str	r4, [r3, #4]
 255              	.LBE19:
 256              	.LBE18:
 257              		.loc 1 153 0
 258 0032 FFF7FEFF 		bl	chSchReadyI
 259              	.LVL16:
 260 0036 0023     		movs	r3, #0
 261 0038 8362     		str	r3, [r0, #40]
 262              		.loc 1 155 0
 263 003a 1846     		mov	r0, r3
 264 003c 38BD     		pop	{r3, r4, r5, pc}
 265              	.LVL17:
 266              	.L15:
 267              		.loc 1 152 0
 268 003e 2068     		ldr	r0, [r4]
 269              		.loc 1 150 0
 270 0040 E368     		ldr	r3, [r4, #12]
 271 0042 6361     		str	r3, [r4, #20]
 272              		.loc 1 152 0
 273 0044 A042     		cmp	r0, r4
 274 0046 F1D1     		bne	.L21
 275              	.L18:
 276              		.loc 1 155 0
 277 0048 0020     		movs	r0, #0
 278 004a 38BD     		pop	{r3, r4, r5, pc}
 279              	.LVL18:
 280              	.L20:
 281              		.loc 1 144 0 discriminator 1
 282 004c 002A     		cmp	r2, #0
 283 004e E1D0     		beq	.L14
 284              		.loc 1 145 0
 285 0050 6FF00300 		mvn	r0, #3
ARM GAS  /tmp/ccsz4bQr.s 			page 6


 286 0054 38BD     		pop	{r3, r4, r5, pc}
 287              		.cfi_endproc
 288              	.LFE10:
 289              		.size	chIQPutI, .-chIQPutI
 290 0056 00BFAFF3 		.section	.text.chIQGetTimeout,"ax",%progbits
 290      0080AFF3 
 290      0080
 291              		.align	2
 292              		.p2align 4,,15
 293              		.global	chIQGetTimeout
 294              		.thumb
 295              		.thumb_func
 296              		.type	chIQGetTimeout, %function
 297              	chIQGetTimeout:
 298              	.LFB11:
 299              		.loc 1 178 0
 300              		.cfi_startproc
 301              		@ args = 0, pretend = 0, frame = 0
 302              		@ frame_needed = 0, uses_anonymous_args = 0
 303              	.LVL19:
 304 0000 F8B5     		push	{r3, r4, r5, r6, r7, lr}
 305              		.cfi_def_cfa_offset 24
 306              		.cfi_offset 3, -24
 307              		.cfi_offset 4, -20
 308              		.cfi_offset 5, -16
 309              		.cfi_offset 6, -12
 310              		.cfi_offset 7, -8
 311              		.cfi_offset 14, -4
 312              		.loc 1 178 0
 313 0002 0446     		mov	r4, r0
 314 0004 0E46     		mov	r6, r1
 315              	.LBB20:
 316              		.loc 1 181 0
 317 0006 2023     		movs	r3, #32
 318              	@ 181 "../../../os/kernel/src/chqueues.c" 1
 319 0008 83F31188 		msr     BASEPRI, r3
 320              	@ 0 "" 2
 321              		.thumb
 322              	.LBE20:
 323 000c FFF7FEFF 		bl	dbg_check_lock
 324              	.LVL20:
 325              		.loc 1 182 0
 326 0010 E369     		ldr	r3, [r4, #28]
 327 0012 33B1     		cbz	r3, .L25
 328              		.loc 1 183 0
 329 0014 2046     		mov	r0, r4
 330 0016 9847     		blx	r3
 331              	.LVL21:
 332 0018 03E0     		b	.L25
 333              	.LVL22:
 334              	.L27:
 335              	.LBB21:
 336              		.loc 1 187 0
 337 001a FFF7FEFF 		bl	qwait
 338              	.LVL23:
 339 001e 071E     		subs	r7, r0, #0
 340 0020 18DB     		blt	.L32
ARM GAS  /tmp/ccsz4bQr.s 			page 7


 341              	.LVL24:
 342              	.L25:
 343              	.LBE21:
 344              		.loc 1 185 0 discriminator 1
 345 0022 A568     		ldr	r5, [r4, #8]
 346              	.LBB23:
 347              		.loc 1 187 0 discriminator 1
 348 0024 2046     		mov	r0, r4
 349 0026 3146     		mov	r1, r6
 350              	.LBE23:
 351              		.loc 1 185 0 discriminator 1
 352 0028 002D     		cmp	r5, #0
 353 002a F6D0     		beq	.L27
 354              	.LVL25:
 355              		.loc 1 194 0
 356 002c A269     		ldr	r2, [r4, #24]
 357              		.loc 1 195 0
 358 002e 2169     		ldr	r1, [r4, #16]
 359              	.LVL26:
 360              		.loc 1 194 0
 361 0030 531C     		adds	r3, r2, #1
 362              		.loc 1 195 0
 363 0032 8B42     		cmp	r3, r1
 364              		.loc 1 193 0
 365 0034 05F1FF35 		add	r5, r5, #-1
 366              		.loc 1 194 0
 367 0038 A361     		str	r3, [r4, #24]
 368              		.loc 1 193 0
 369 003a A560     		str	r5, [r4, #8]
 370              		.loc 1 196 0
 371 003c 28BF     		it	cs
 372 003e E368     		ldrcs	r3, [r4, #12]
 373              		.loc 1 194 0
 374 0040 1778     		ldrb	r7, [r2]	@ zero_extendqisi2
 375              	.LVL27:
 376              		.loc 1 196 0
 377 0042 28BF     		it	cs
 378 0044 A361     		strcs	r3, [r4, #24]
 379              	.LVL28:
 380              		.loc 1 198 0
 381 0046 FFF7FEFF 		bl	dbg_check_unlock
 382              	.LVL29:
 383              	.LBB24:
 384 004a 0023     		movs	r3, #0
 385              	@ 198 "../../../os/kernel/src/chqueues.c" 1
 386 004c 83F31188 		msr     BASEPRI, r3
 387              	@ 0 "" 2
 388              		.thumb
 389              	.LBE24:
 390              		.loc 1 199 0
 391 0050 3846     		mov	r0, r7
 392              		.loc 1 200 0
 393 0052 F8BD     		pop	{r3, r4, r5, r6, r7, pc}
 394              	.LVL30:
 395              	.L32:
 396              	.LBB25:
 397              		.loc 1 188 0
ARM GAS  /tmp/ccsz4bQr.s 			page 8


 398 0054 FFF7FEFF 		bl	dbg_check_unlock
 399              	.LVL31:
 400              	.LBB22:
 401 0058 2B46     		mov	r3, r5
 402              	@ 188 "../../../os/kernel/src/chqueues.c" 1
 403 005a 83F31188 		msr     BASEPRI, r3
 404              	@ 0 "" 2
 405              		.thumb
 406              	.LBE22:
 407              		.loc 1 187 0
 408 005e 3846     		mov	r0, r7
 409              		.loc 1 189 0
 410 0060 F8BD     		pop	{r3, r4, r5, r6, r7, pc}
 411              	.LBE25:
 412              		.cfi_endproc
 413              	.LFE11:
 414              		.size	chIQGetTimeout, .-chIQGetTimeout
 415 0062 00BFAFF3 		.section	.text.chIQReadTimeout,"ax",%progbits
 415      0080AFF3 
 415      0080AFF3 
 415      0080
 416              		.align	2
 417              		.p2align 4,,15
 418              		.global	chIQReadTimeout
 419              		.thumb
 420              		.thumb_func
 421              		.type	chIQReadTimeout, %function
 422              	chIQReadTimeout:
 423              	.LFB12:
 424              		.loc 1 227 0
 425              		.cfi_startproc
 426              		@ args = 0, pretend = 0, frame = 0
 427              		@ frame_needed = 0, uses_anonymous_args = 0
 428              	.LVL32:
 429 0000 2DE9F047 		push	{r4, r5, r6, r7, r8, r9, r10, lr}
 430              		.cfi_def_cfa_offset 32
 431              		.cfi_offset 4, -32
 432              		.cfi_offset 5, -28
 433              		.cfi_offset 6, -24
 434              		.cfi_offset 7, -20
 435              		.cfi_offset 8, -16
 436              		.cfi_offset 9, -12
 437              		.cfi_offset 10, -8
 438              		.cfi_offset 14, -4
 439              		.loc 1 227 0
 440 0004 0446     		mov	r4, r0
 441              		.loc 1 231 0
 442 0006 1546     		mov	r5, r2
 443              		.loc 1 227 0
 444 0008 0F46     		mov	r7, r1
 445 000a 1E46     		mov	r6, r3
 446              		.loc 1 228 0
 447 000c D0F81C80 		ldr	r8, [r0, #28]
 448              	.LVL33:
 449              		.loc 1 231 0
 450 0010 002A     		cmp	r2, #0
 451 0012 3DD0     		beq	.L45
ARM GAS  /tmp/ccsz4bQr.s 			page 9


 452              	.LVL34:
 453              	.L34:
 454              	.LBB26:
 455              		.loc 1 233 0
 456 0014 2023     		movs	r3, #32
 457              	@ 233 "../../../os/kernel/src/chqueues.c" 1
 458 0016 83F31188 		msr     BASEPRI, r3
 459              	@ 0 "" 2
 460              		.thumb
 461              	.LBE26:
 462 001a FFF7FEFF 		bl	dbg_check_lock
 463              	.LVL35:
 464 001e 07EB050A 		add	r10, r7, r5
 465              		.loc 1 229 0
 466 0022 4FF00009 		mov	r9, #0
 467 0026 0137     		adds	r7, r7, #1
 468              	.LVL36:
 469              	.L41:
 470              		.loc 1 235 0
 471 0028 B8F1000F 		cmp	r8, #0
 472 002c 05D0     		beq	.L37
 473              		.loc 1 236 0
 474 002e 2046     		mov	r0, r4
 475 0030 C047     		blx	r8
 476              	.LVL37:
 477 0032 02E0     		b	.L37
 478              	.LVL38:
 479              	.L39:
 480              		.loc 1 239 0
 481 0034 FFF7FEFF 		bl	qwait
 482              	.LVL39:
 483 0038 10BB     		cbnz	r0, .L46
 484              	.L37:
 485              		.loc 1 238 0 discriminator 1
 486 003a A568     		ldr	r5, [r4, #8]
 487              		.loc 1 239 0 discriminator 1
 488 003c 2046     		mov	r0, r4
 489 003e 3146     		mov	r1, r6
 490              		.loc 1 238 0 discriminator 1
 491 0040 002D     		cmp	r5, #0
 492 0042 F7D0     		beq	.L39
 493              	.LVL40:
 494              		.loc 1 246 0
 495 0044 A369     		ldr	r3, [r4, #24]
 496              		.loc 1 245 0
 497 0046 013D     		subs	r5, r5, #1
 498              		.loc 1 246 0
 499 0048 5A1C     		adds	r2, r3, #1
 500 004a A261     		str	r2, [r4, #24]
 501              		.loc 1 245 0
 502 004c A560     		str	r5, [r4, #8]
 503              	.LVL41:
 504              		.loc 1 246 0
 505 004e 1B78     		ldrb	r3, [r3]	@ zero_extendqisi2
 506 0050 07F8013C 		strb	r3, [r7, #-1]
 507              		.loc 1 247 0
 508 0054 2369     		ldr	r3, [r4, #16]
ARM GAS  /tmp/ccsz4bQr.s 			page 10


 509 0056 A269     		ldr	r2, [r4, #24]
 510 0058 9A42     		cmp	r2, r3
 511              		.loc 1 248 0
 512 005a 24BF     		itt	cs
 513 005c E368     		ldrcs	r3, [r4, #12]
 514 005e A361     		strcs	r3, [r4, #24]
 515              		.loc 1 250 0
 516 0060 FFF7FEFF 		bl	dbg_check_unlock
 517              	.LVL42:
 518              	.LBB27:
 519 0064 0023     		movs	r3, #0
 520              	@ 250 "../../../os/kernel/src/chqueues.c" 1
 521 0066 83F31188 		msr     BASEPRI, r3
 522              	@ 0 "" 2
 523              		.thumb
 524              	.LBE27:
 525              		.loc 1 252 0
 526 006a 5745     		cmp	r7, r10
 527              		.loc 1 251 0
 528 006c 09F10109 		add	r9, r9, #1
 529              	.LVL43:
 530              		.loc 1 252 0
 531 0070 0BD0     		beq	.L38
 532              	.LBB28:
 533              		.loc 1 255 0
 534 0072 2023     		movs	r3, #32
 535              	@ 255 "../../../os/kernel/src/chqueues.c" 1
 536 0074 83F31188 		msr     BASEPRI, r3
 537              	@ 0 "" 2
 538              		.thumb
 539              	.LBE28:
 540 0078 FFF7FEFF 		bl	dbg_check_lock
 541              	.LVL44:
 542 007c 0137     		adds	r7, r7, #1
 543              		.loc 1 256 0
 544 007e D3E7     		b	.L41
 545              	.LVL45:
 546              	.L46:
 547              		.loc 1 240 0
 548 0080 FFF7FEFF 		bl	dbg_check_unlock
 549              	.LVL46:
 550              	.LBB29:
 551 0084 2B46     		mov	r3, r5
 552              	@ 240 "../../../os/kernel/src/chqueues.c" 1
 553 0086 83F31188 		msr     BASEPRI, r3
 554              	@ 0 "" 2
 555              	.LVL47:
 556              		.thumb
 557              	.L38:
 558              	.LBE29:
 559              		.loc 1 257 0
 560 008a 4846     		mov	r0, r9
 561 008c BDE8F087 		pop	{r4, r5, r6, r7, r8, r9, r10, pc}
 562              	.LVL48:
 563              	.L45:
 564              		.loc 1 231 0 discriminator 1
 565 0090 0148     		ldr	r0, .L47
ARM GAS  /tmp/ccsz4bQr.s 			page 11


 566              	.LVL49:
 567 0092 FFF7FEFF 		bl	chDbgPanic
 568              	.LVL50:
 569 0096 BDE7     		b	.L34
 570              	.L48:
 571              		.align	2
 572              	.L47:
 573 0098 00000000 		.word	.LC0
 574              		.cfi_endproc
 575              	.LFE12:
 576              		.size	chIQReadTimeout, .-chIQReadTimeout
 577 009c AFF30080 		.section	.text.chOQInit,"ax",%progbits
 578              		.align	2
 579              		.p2align 4,,15
 580              		.global	chOQInit
 581              		.thumb
 582              		.thumb_func
 583              		.type	chOQInit, %function
 584              	chOQInit:
 585              	.LFB13:
 586              		.loc 1 276 0
 587              		.cfi_startproc
 588              		@ args = 4, pretend = 0, frame = 0
 589              		@ frame_needed = 0, uses_anonymous_args = 0
 590              		@ link register save eliminated.
 591              	.LVL51:
 592 0000 30B4     		push	{r4, r5}
 593              		.cfi_def_cfa_offset 8
 594              		.cfi_offset 4, -8
 595              		.cfi_offset 5, -4
 596              		.loc 1 276 0
 597 0002 029C     		ldr	r4, [sp, #8]
 598              		.loc 1 283 0
 599 0004 0462     		str	r4, [r0, #32]
 600              		.loc 1 281 0
 601 0006 8D18     		adds	r5, r1, r2
 602 0008 0561     		str	r5, [r0, #16]
 603              		.loc 1 278 0
 604 000a 4060     		str	r0, [r0, #4]
 605 000c 0060     		str	r0, [r0]
 606              		.loc 1 279 0
 607 000e 8260     		str	r2, [r0, #8]
 608              		.loc 1 280 0
 609 0010 4161     		str	r1, [r0, #20]
 610 0012 8161     		str	r1, [r0, #24]
 611 0014 C160     		str	r1, [r0, #12]
 612              		.loc 1 282 0
 613 0016 C361     		str	r3, [r0, #28]
 614              		.loc 1 284 0
 615 0018 30BC     		pop	{r4, r5}
 616              	.LVL52:
 617 001a 7047     		bx	lr
 618              		.cfi_endproc
 619              	.LFE13:
 620              		.size	chOQInit, .-chOQInit
 621 001c AFF30080 		.section	.text.chOQResetI,"ax",%progbits
 622              		.align	2
ARM GAS  /tmp/ccsz4bQr.s 			page 12


 623              		.p2align 4,,15
 624              		.global	chOQResetI
 625              		.thumb
 626              		.thumb_func
 627              		.type	chOQResetI, %function
 628              	chOQResetI:
 629              	.LFB14:
 630              		.loc 1 297 0
 631              		.cfi_startproc
 632              		@ args = 0, pretend = 0, frame = 0
 633              		@ frame_needed = 0, uses_anonymous_args = 0
 634              	.LVL53:
 635 0000 38B5     		push	{r3, r4, r5, lr}
 636              		.cfi_def_cfa_offset 16
 637              		.cfi_offset 3, -16
 638              		.cfi_offset 4, -12
 639              		.cfi_offset 5, -8
 640              		.cfi_offset 14, -4
 641              		.loc 1 297 0
 642 0002 0446     		mov	r4, r0
 643              		.loc 1 299 0
 644 0004 FFF7FEFF 		bl	chDbgCheckClassI
 645              	.LVL54:
 646              		.loc 1 301 0
 647 0008 E368     		ldr	r3, [r4, #12]
 648              		.loc 1 302 0
 649 000a 2269     		ldr	r2, [r4, #16]
 650              		.loc 1 303 0
 651 000c 2068     		ldr	r0, [r4]
 652              		.loc 1 301 0
 653 000e 6361     		str	r3, [r4, #20]
 654              		.loc 1 302 0
 655 0010 D21A     		subs	r2, r2, r3
 656              		.loc 1 303 0
 657 0012 A042     		cmp	r0, r4
 658              		.loc 1 301 0
 659 0014 A361     		str	r3, [r4, #24]
 660              		.loc 1 302 0
 661 0016 A260     		str	r2, [r4, #8]
 662              		.loc 1 303 0
 663 0018 0AD0     		beq	.L50
 664              		.loc 1 304 0
 665 001a 6FF00105 		mvn	r5, #1
 666              	.L53:
 667              	.LVL55:
 668              	.LBB30:
 669              	.LBB31:
 670              		.loc 2 62 0
 671 001e 0368     		ldr	r3, [r0]
 672 0020 2360     		str	r3, [r4]
 673 0022 5C60     		str	r4, [r3, #4]
 674              	.LBE31:
 675              	.LBE30:
 676              		.loc 1 304 0
 677 0024 FFF7FEFF 		bl	chSchReadyI
 678              	.LVL56:
 679 0028 8562     		str	r5, [r0, #40]
ARM GAS  /tmp/ccsz4bQr.s 			page 13


 680              		.loc 1 303 0
 681 002a 2068     		ldr	r0, [r4]
 682 002c A042     		cmp	r0, r4
 683 002e F6D1     		bne	.L53
 684              	.LVL57:
 685              	.L50:
 686 0030 38BD     		pop	{r3, r4, r5, pc}
 687              		.cfi_endproc
 688              	.LFE14:
 689              		.size	chOQResetI, .-chOQResetI
 690 0032 00BFAFF3 		.section	.text.chOQPutTimeout,"ax",%progbits
 690      0080AFF3 
 690      0080AFF3 
 690      0080
 691              		.align	2
 692              		.p2align 4,,15
 693              		.global	chOQPutTimeout
 694              		.thumb
 695              		.thumb_func
 696              		.type	chOQPutTimeout, %function
 697              	chOQPutTimeout:
 698              	.LFB15:
 699              		.loc 1 329 0
 700              		.cfi_startproc
 701              		@ args = 0, pretend = 0, frame = 0
 702              		@ frame_needed = 0, uses_anonymous_args = 0
 703              	.LVL58:
 704 0000 2DE9F041 		push	{r4, r5, r6, r7, r8, lr}
 705              		.cfi_def_cfa_offset 24
 706              		.cfi_offset 4, -24
 707              		.cfi_offset 5, -20
 708              		.cfi_offset 6, -16
 709              		.cfi_offset 7, -12
 710              		.cfi_offset 8, -8
 711              		.cfi_offset 14, -4
 712              	.LBB32:
 713              		.loc 1 331 0
 714 0004 2023     		movs	r3, #32
 715              	.LBE32:
 716              		.loc 1 329 0
 717 0006 0446     		mov	r4, r0
 718 0008 8846     		mov	r8, r1
 719 000a 1646     		mov	r6, r2
 720              	.LBB33:
 721              		.loc 1 331 0
 722              	@ 331 "../../../os/kernel/src/chqueues.c" 1
 723 000c 83F31188 		msr     BASEPRI, r3
 724              	@ 0 "" 2
 725              		.thumb
 726              	.LBE33:
 727 0010 FFF7FEFF 		bl	dbg_check_lock
 728              	.LVL59:
 729              		.loc 1 332 0
 730 0014 03E0     		b	.L55
 731              	.LVL60:
 732              	.L58:
 733              	.LBB34:
ARM GAS  /tmp/ccsz4bQr.s 			page 14


 734              		.loc 1 335 0
 735 0016 FFF7FEFF 		bl	qwait
 736              	.LVL61:
 737 001a 071E     		subs	r7, r0, #0
 738 001c 1DDB     		blt	.L64
 739              	.LVL62:
 740              	.L55:
 741              	.LBE34:
 742              		.loc 1 332 0 discriminator 1
 743 001e A568     		ldr	r5, [r4, #8]
 744              	.LBB36:
 745              		.loc 1 335 0 discriminator 1
 746 0020 2046     		mov	r0, r4
 747 0022 3146     		mov	r1, r6
 748              	.LBE36:
 749              		.loc 1 332 0 discriminator 1
 750 0024 002D     		cmp	r5, #0
 751 0026 F6D0     		beq	.L58
 752              	.LVL63:
 753              		.loc 1 342 0
 754 0028 6369     		ldr	r3, [r4, #20]
 755              		.loc 1 341 0
 756 002a 013D     		subs	r5, r5, #1
 757              		.loc 1 342 0
 758 002c 5A1C     		adds	r2, r3, #1
 759 002e 6261     		str	r2, [r4, #20]
 760              		.loc 1 341 0
 761 0030 A560     		str	r5, [r4, #8]
 762              		.loc 1 342 0
 763 0032 83F80080 		strb	r8, [r3]
 764              		.loc 1 343 0
 765 0036 2369     		ldr	r3, [r4, #16]
 766 0038 6269     		ldr	r2, [r4, #20]
 767 003a 9A42     		cmp	r2, r3
 768              		.loc 1 344 0
 769 003c 24BF     		itt	cs
 770 003e E368     		ldrcs	r3, [r4, #12]
 771 0040 6361     		strcs	r3, [r4, #20]
 772              		.loc 1 346 0
 773 0042 E369     		ldr	r3, [r4, #28]
 774 0044 0BB1     		cbz	r3, .L60
 775              		.loc 1 347 0
 776 0046 2046     		mov	r0, r4
 777              	.LVL64:
 778 0048 9847     		blx	r3
 779              	.LVL65:
 780              	.L60:
 781              		.loc 1 349 0
 782 004a FFF7FEFF 		bl	dbg_check_unlock
 783              	.LVL66:
 784              	.LBB37:
 785 004e 0023     		movs	r3, #0
 786              	@ 349 "../../../os/kernel/src/chqueues.c" 1
 787 0050 83F31188 		msr     BASEPRI, r3
 788              	@ 0 "" 2
 789              		.thumb
 790              	.LBE37:
ARM GAS  /tmp/ccsz4bQr.s 			page 15


 791              		.loc 1 350 0
 792 0054 1846     		mov	r0, r3
 793              		.loc 1 351 0
 794 0056 BDE8F081 		pop	{r4, r5, r6, r7, r8, pc}
 795              	.LVL67:
 796              	.L64:
 797              	.LBB38:
 798              		.loc 1 336 0
 799 005a FFF7FEFF 		bl	dbg_check_unlock
 800              	.LVL68:
 801              	.LBB35:
 802 005e 2B46     		mov	r3, r5
 803              	@ 336 "../../../os/kernel/src/chqueues.c" 1
 804 0060 83F31188 		msr     BASEPRI, r3
 805              	@ 0 "" 2
 806              		.thumb
 807              	.LBE35:
 808              		.loc 1 335 0
 809 0064 3846     		mov	r0, r7
 810              		.loc 1 337 0
 811 0066 BDE8F081 		pop	{r4, r5, r6, r7, r8, pc}
 812              	.LBE38:
 813              		.cfi_endproc
 814              	.LFE15:
 815              		.size	chOQPutTimeout, .-chOQPutTimeout
 816 006a 00BFAFF3 		.section	.text.chOQGetI,"ax",%progbits
 816      0080
 817              		.align	2
 818              		.p2align 4,,15
 819              		.global	chOQGetI
 820              		.thumb
 821              		.thumb_func
 822              		.type	chOQGetI, %function
 823              	chOQGetI:
 824              	.LFB16:
 825              		.loc 1 363 0
 826              		.cfi_startproc
 827              		@ args = 0, pretend = 0, frame = 0
 828              		@ frame_needed = 0, uses_anonymous_args = 0
 829              	.LVL69:
 830 0000 38B5     		push	{r3, r4, r5, lr}
 831              		.cfi_def_cfa_offset 16
 832              		.cfi_offset 3, -16
 833              		.cfi_offset 4, -12
 834              		.cfi_offset 5, -8
 835              		.cfi_offset 14, -4
 836              		.loc 1 363 0
 837 0002 0446     		mov	r4, r0
 838              		.loc 1 366 0
 839 0004 FFF7FEFF 		bl	chDbgCheckClassI
 840              	.LVL70:
 841              		.loc 1 368 0
 842 0008 6269     		ldr	r2, [r4, #20]
 843 000a A369     		ldr	r3, [r4, #24]
 844 000c 9A42     		cmp	r2, r3
 845 000e A268     		ldr	r2, [r4, #8]
 846 0010 16D0     		beq	.L74
ARM GAS  /tmp/ccsz4bQr.s 			page 16


 847              	.L68:
 848              		.loc 1 373 0
 849 0012 2169     		ldr	r1, [r4, #16]
 850              		.loc 1 371 0
 851 0014 501C     		adds	r0, r2, #1
 852              		.loc 1 372 0
 853 0016 5A1C     		adds	r2, r3, #1
 854              		.loc 1 371 0
 855 0018 A060     		str	r0, [r4, #8]
 856              		.loc 1 372 0
 857 001a A261     		str	r2, [r4, #24]
 858              		.loc 1 373 0
 859 001c 8A42     		cmp	r2, r1
 860              		.loc 1 372 0
 861 001e 1D78     		ldrb	r5, [r3]	@ zero_extendqisi2
 862              	.LVL71:
 863              		.loc 1 373 0
 864 0020 0BD2     		bcs	.L70
 865              	.LVL72:
 866              	.L71:
 867              		.loc 1 376 0
 868 0022 2068     		ldr	r0, [r4]
 869 0024 A042     		cmp	r0, r4
 870 0026 06D0     		beq	.L69
 871              	.LVL73:
 872              	.LBB39:
 873              	.LBB40:
 874              		.loc 2 62 0
 875 0028 0368     		ldr	r3, [r0]
 876 002a 2360     		str	r3, [r4]
 877 002c 5C60     		str	r4, [r3, #4]
 878              	.LBE40:
 879              	.LBE39:
 880              		.loc 1 377 0
 881 002e FFF7FEFF 		bl	chSchReadyI
 882              	.LVL74:
 883 0032 0023     		movs	r3, #0
 884 0034 8362     		str	r3, [r0, #40]
 885              	.LVL75:
 886              	.L69:
 887              		.loc 1 379 0
 888 0036 2846     		mov	r0, r5
 889 0038 38BD     		pop	{r3, r4, r5, pc}
 890              	.LVL76:
 891              	.L70:
 892              		.loc 1 374 0
 893 003a E368     		ldr	r3, [r4, #12]
 894              	.LVL77:
 895 003c A361     		str	r3, [r4, #24]
 896              	.LVL78:
 897 003e F0E7     		b	.L71
 898              	.LVL79:
 899              	.L74:
 900              		.loc 1 368 0 discriminator 1
 901 0040 002A     		cmp	r2, #0
 902 0042 E6D0     		beq	.L68
 903              		.loc 1 369 0
ARM GAS  /tmp/ccsz4bQr.s 			page 17


 904 0044 6FF00200 		mvn	r0, #2
 905 0048 38BD     		pop	{r3, r4, r5, pc}
 906              		.cfi_endproc
 907              	.LFE16:
 908              		.size	chOQGetI, .-chOQGetI
 909 004a 00BFAFF3 		.section	.text.chOQWriteTimeout,"ax",%progbits
 909      0080
 910              		.align	2
 911              		.p2align 4,,15
 912              		.global	chOQWriteTimeout
 913              		.thumb
 914              		.thumb_func
 915              		.type	chOQWriteTimeout, %function
 916              	chOQWriteTimeout:
 917              	.LFB17:
 918              		.loc 1 407 0
 919              		.cfi_startproc
 920              		@ args = 0, pretend = 0, frame = 0
 921              		@ frame_needed = 0, uses_anonymous_args = 0
 922              	.LVL80:
 923 0000 2DE9F84F 		push	{r3, r4, r5, r6, r7, r8, r9, r10, fp, lr}
 924              		.cfi_def_cfa_offset 40
 925              		.cfi_offset 3, -40
 926              		.cfi_offset 4, -36
 927              		.cfi_offset 5, -32
 928              		.cfi_offset 6, -28
 929              		.cfi_offset 7, -24
 930              		.cfi_offset 8, -20
 931              		.cfi_offset 9, -16
 932              		.cfi_offset 10, -12
 933              		.cfi_offset 11, -8
 934              		.cfi_offset 14, -4
 935              		.loc 1 407 0
 936 0004 0446     		mov	r4, r0
 937              		.loc 1 411 0
 938 0006 1746     		mov	r7, r2
 939              		.loc 1 407 0
 940 0008 0E46     		mov	r6, r1
 941 000a 9B46     		mov	fp, r3
 942              		.loc 1 408 0
 943 000c D0F81CA0 		ldr	r10, [r0, #28]
 944              	.LVL81:
 945              		.loc 1 411 0
 946 0010 002A     		cmp	r2, #0
 947 0012 3AD0     		beq	.L92
 948              	.LVL82:
 949              	.L76:
 950              	.LBB41:
 951              		.loc 1 413 0
 952 0014 2023     		movs	r3, #32
 953              	@ 413 "../../../os/kernel/src/chqueues.c" 1
 954 0016 83F31188 		msr     BASEPRI, r3
 955              	@ 0 "" 2
 956              		.thumb
 957              	.LBE41:
 958 001a FFF7FEFF 		bl	dbg_check_lock
 959              	.LVL83:
ARM GAS  /tmp/ccsz4bQr.s 			page 18


 960              		.loc 1 409 0
 961 001e 4FF00009 		mov	r9, #0
 962              	.LVL84:
 963              	.L77:
 964              		.loc 1 415 0 discriminator 1
 965 0022 A568     		ldr	r5, [r4, #8]
 966              		.loc 1 422 0 discriminator 1
 967 0024 06F10108 		add	r8, r6, #1
 968              	.LVL85:
 969              		.loc 1 427 0 discriminator 1
 970 0028 2046     		mov	r0, r4
 971              		.loc 1 421 0 discriminator 1
 972 002a 6A1E     		subs	r2, r5, #1
 973              		.loc 1 415 0 discriminator 1
 974 002c FDB1     		cbz	r5, .L80
 975              	.LVL86:
 976              		.loc 1 422 0
 977 002e 6369     		ldr	r3, [r4, #20]
 978              		.loc 1 421 0
 979 0030 A260     		str	r2, [r4, #8]
 980              		.loc 1 422 0
 981 0032 5A1C     		adds	r2, r3, #1
 982 0034 6261     		str	r2, [r4, #20]
 983 0036 3278     		ldrb	r2, [r6]	@ zero_extendqisi2
 984 0038 1A70     		strb	r2, [r3]
 985              		.loc 1 423 0
 986 003a 2369     		ldr	r3, [r4, #16]
 987 003c 6269     		ldr	r2, [r4, #20]
 988 003e 9A42     		cmp	r2, r3
 989              		.loc 1 424 0
 990 0040 24BF     		itt	cs
 991 0042 E368     		ldrcs	r3, [r4, #12]
 992 0044 6361     		strcs	r3, [r4, #20]
 993              		.loc 1 426 0
 994 0046 BAF1000F 		cmp	r10, #0
 995 004a 00D0     		beq	.L82
 996              		.loc 1 427 0
 997 004c D047     		blx	r10
 998              	.LVL87:
 999              	.L82:
 1000              		.loc 1 429 0
 1001 004e FFF7FEFF 		bl	dbg_check_unlock
 1002              	.LVL88:
 1003              	.LBB42:
 1004 0052 0023     		movs	r3, #0
 1005              	@ 429 "../../../os/kernel/src/chqueues.c" 1
 1006 0054 83F31188 		msr     BASEPRI, r3
 1007              	@ 0 "" 2
 1008              		.thumb
 1009              	.LBE42:
 1010              		.loc 1 431 0
 1011 0058 013F     		subs	r7, r7, #1
 1012              	.LVL89:
 1013              		.loc 1 430 0
 1014 005a 09F10109 		add	r9, r9, #1
 1015              	.LVL90:
 1016              		.loc 1 431 0
ARM GAS  /tmp/ccsz4bQr.s 			page 19


 1017 005e 11D0     		beq	.L79
 1018              	.LBB43:
 1019              		.loc 1 433 0
 1020 0060 2023     		movs	r3, #32
 1021              	@ 433 "../../../os/kernel/src/chqueues.c" 1
 1022 0062 83F31188 		msr     BASEPRI, r3
 1023              	@ 0 "" 2
 1024              		.thumb
 1025              	.LBE43:
 1026 0066 FFF7FEFF 		bl	dbg_check_lock
 1027              	.LVL91:
 1028              		.loc 1 422 0
 1029 006a 4646     		mov	r6, r8
 1030              		.loc 1 434 0
 1031 006c D9E7     		b	.L77
 1032              	.LVL92:
 1033              	.L80:
 1034              		.loc 1 416 0
 1035 006e 2046     		mov	r0, r4
 1036              	.LVL93:
 1037 0070 5946     		mov	r1, fp
 1038 0072 FFF7FEFF 		bl	qwait
 1039              	.LVL94:
 1040 0076 0028     		cmp	r0, #0
 1041 0078 D3D0     		beq	.L77
 1042              		.loc 1 417 0
 1043 007a FFF7FEFF 		bl	dbg_check_unlock
 1044              	.LVL95:
 1045              	.LBB44:
 1046 007e 2B46     		mov	r3, r5
 1047              	@ 417 "../../../os/kernel/src/chqueues.c" 1
 1048 0080 83F31188 		msr     BASEPRI, r3
 1049              	@ 0 "" 2
 1050              	.LVL96:
 1051              		.thumb
 1052              	.L79:
 1053              	.LBE44:
 1054              		.loc 1 435 0
 1055 0084 4846     		mov	r0, r9
 1056 0086 BDE8F88F 		pop	{r3, r4, r5, r6, r7, r8, r9, r10, fp, pc}
 1057              	.LVL97:
 1058              	.L92:
 1059              		.loc 1 411 0 discriminator 1
 1060 008a 0248     		ldr	r0, .L93
 1061              	.LVL98:
 1062 008c FFF7FEFF 		bl	chDbgPanic
 1063              	.LVL99:
 1064 0090 C0E7     		b	.L76
 1065              	.L94:
 1066 0092 00BF     		.align	2
 1067              	.L93:
 1068 0094 14000000 		.word	.LC1
 1069              		.cfi_endproc
 1070              	.LFE17:
 1071              		.size	chOQWriteTimeout, .-chOQWriteTimeout
 1072 0098 AFF30080 		.section	.rodata.str1.4,"aMS",%progbits,1
 1072      AFF30080 
ARM GAS  /tmp/ccsz4bQr.s 			page 20


 1073              		.align	2
 1074              	.LC0:
 1075 0000 22636849 		.ascii	"\"chIQReadTimeout\"()\000"
 1075      51526561 
 1075      6454696D 
 1075      656F7574 
 1075      22282900 
 1076              	.LC1:
 1077 0014 2263684F 		.ascii	"\"chOQWriteTimeout\"()\000"
 1077      51577269 
 1077      74655469 
 1077      6D656F75 
 1077      74222829 
 1078 0029 000000   		.text
 1079              	.Letext0:
 1080              		.file 3 "/opt/ARM/lib/gcc/arm-none-eabi/4.8.4/include/stddef.h"
 1081              		.file 4 "/opt/ARM/arm-none-eabi/include/machine/_default_types.h"
 1082              		.file 5 "/opt/ARM/arm-none-eabi/include/stdint.h"
 1083              		.file 6 "../../../os/ports/GCC/ARMCMx/chtypes.h"
 1084              		.file 7 "../../../os/kernel/include/chlists.h"
 1085              		.file 8 "../../../os/kernel/include/chthreads.h"
 1086              		.file 9 "../../../os/ports/GCC/ARMCMx/chcore_v7m.h"
 1087              		.file 10 "../../../os/kernel/include/chschd.h"
 1088              		.file 11 "../../../os/kernel/include/chmtx.h"
 1089              		.file 12 "../../../os/kernel/include/chqueues.h"
 1090              		.file 13 "../../../os/kernel/include/chdebug.h"
