ARM GAS  /tmp/ccWbFbv8.s 			page 1


   1              		.syntax unified
   2              		.cpu cortex-m4
   3              		.fpu softvfp
   4              		.eabi_attribute 20, 1
   5              		.eabi_attribute 21, 1
   6              		.eabi_attribute 23, 3
   7              		.eabi_attribute 24, 1
   8              		.eabi_attribute 25, 1
   9              		.eabi_attribute 26, 1
  10              		.eabi_attribute 30, 2
  11              		.eabi_attribute 34, 1
  12              		.eabi_attribute 18, 4
  13              		.thumb
  14              		.file	"chsys.c"
  15              		.text
  16              	.Ltext0:
  17              		.cfi_sections	.debug_frame
  18              		.section	.text._idle_thread,"ax",%progbits
  19              		.align	2
  20              		.p2align 4,,15
  21              		.global	_idle_thread
  22              		.thumb
  23              		.thumb_func
  24              		.type	_idle_thread, %function
  25              	_idle_thread:
  26              	.LFB7:
  27              		.file 1 "../../../os/kernel/src/chsys.c"
  28              		.loc 1 61 0
  29              		.cfi_startproc
  30              		@ Volatile: function does not return.
  31              		@ args = 0, pretend = 0, frame = 0
  32              		@ frame_needed = 0, uses_anonymous_args = 0
  33              		@ link register save eliminated.
  34              	.LVL0:
  35              		.loc 1 64 0
  36 0000 024B     		ldr	r3, .L4
  37 0002 034A     		ldr	r2, .L4+4
  38 0004 9B69     		ldr	r3, [r3, #24]
  39 0006 9A61     		str	r2, [r3, #24]
  40              	.L2:
  41 0008 FEE7     		b	.L2
  42              	.L5:
  43 000a 00BF     		.align	2
  44              	.L4:
  45 000c 00000000 		.word	rlist
  46 0010 00000000 		.word	.LC0
  47              		.cfi_endproc
  48              	.LFE7:
  49              		.size	_idle_thread, .-_idle_thread
  50 0014 AFF30080 		.section	.text.chSysInit,"ax",%progbits
  50      AFF30080 
  50      AFF30080 
  51              		.align	2
  52              		.p2align 4,,15
  53              		.global	chSysInit
  54              		.thumb
  55              		.thumb_func
ARM GAS  /tmp/ccWbFbv8.s 			page 2


  56              		.type	chSysInit, %function
  57              	chSysInit:
  58              	.LFB8:
  59              		.loc 1 84 0
  60              		.cfi_startproc
  61              		@ args = 0, pretend = 0, frame = 0
  62              		@ frame_needed = 0, uses_anonymous_args = 0
  63 0000 30B5     		push	{r4, r5, lr}
  64              		.cfi_def_cfa_offset 12
  65              		.cfi_offset 4, -12
  66              		.cfi_offset 5, -8
  67              		.cfi_offset 14, -4
  68 0002 83B0     		sub	sp, sp, #12
  69              		.cfi_def_cfa_offset 24
  70              		.loc 1 90 0
  71 0004 FFF7FEFF 		bl	_port_init
  72              	.LVL1:
  73              		.loc 1 91 0
  74 0008 FFF7FEFF 		bl	_scheduler_init
  75              	.LVL2:
  76              		.loc 1 92 0
  77 000c FFF7FEFF 		bl	_vt_init
  78              	.LVL3:
  79              		.loc 1 94 0
  80 0010 FFF7FEFF 		bl	_core_init
  81              	.LVL4:
  82              		.loc 1 97 0
  83 0014 FFF7FEFF 		bl	_heap_init
  84              	.LVL5:
  85              		.loc 1 100 0
  86 0018 FFF7FEFF 		bl	_trace_init
  87              	.LVL6:
  88              		.loc 1 104 0
  89 001c 4021     		movs	r1, #64
  90 001e 0E48     		ldr	r0, .L7
  91 0020 0E4C     		ldr	r4, .L7+4
  92 0022 FFF7FEFF 		bl	_thread_init
  93              	.LVL7:
  94              		.loc 1 105 0
  95 0026 0125     		movs	r5, #1
  96              		.loc 1 109 0
  97 0028 0D4B     		ldr	r3, .L7+8
  98 002a C361     		str	r3, [r0, #28]
  99              		.loc 1 105 0
 100 002c 80F82050 		strb	r5, [r0, #32]
 101              		.loc 1 104 0
 102 0030 A061     		str	r0, [r4, #24]
 103              		.loc 1 111 0
 104 0032 FFF7FEFF 		bl	dbg_check_enable
 105              	.LVL8:
 106              	.LBB2:
 107 0036 0023     		movs	r3, #0
 108              	@ 111 "../../../os/kernel/src/chsys.c" 1
 109 0038 83F31188 		msr     BASEPRI, r3                    
 110 003c 62B6     		cpsie   i
 111              	@ 0 "" 2
 112              		.thumb
ARM GAS  /tmp/ccWbFbv8.s 			page 3


 113              	.LBE2:
 114              		.loc 1 115 0
 115 003e A269     		ldr	r2, [r4, #24]
 116 0040 0849     		ldr	r1, .L7+12
 117 0042 9161     		str	r1, [r2, #24]
 118              		.loc 1 121 0
 119 0044 0848     		ldr	r0, .L7+16
 120 0046 0093     		str	r3, [sp]
 121 0048 2A46     		mov	r2, r5
 122 004a 084B     		ldr	r3, .L7+20
 123 004c E021     		movs	r1, #224
 124 004e FFF7FEFF 		bl	chThdCreateStatic
 125              	.LVL9:
 126              		.loc 1 124 0
 127 0052 03B0     		add	sp, sp, #12
 128              		@ sp needed
 129 0054 30BD     		pop	{r4, r5, pc}
 130              	.L8:
 131 0056 00BF     		.align	2
 132              	.L7:
 133 0058 00000000 		.word	.LANCHOR0
 134 005c 00000000 		.word	rlist
 135 0060 00000000 		.word	__main_thread_stack_base__
 136 0064 00000000 		.word	ch_debug
 137 0068 00000000 		.word	.LANCHOR1
 138 006c 00000000 		.word	_idle_thread
 139              		.cfi_endproc
 140              	.LFE8:
 141              		.size	chSysInit, .-chSysInit
 142              		.section	.text.chSysTimerHandlerI,"ax",%progbits
 143              		.align	2
 144              		.p2align 4,,15
 145              		.global	chSysTimerHandlerI
 146              		.thumb
 147              		.thumb_func
 148              		.type	chSysTimerHandlerI, %function
 149              	chSysTimerHandlerI:
 150              	.LFB9:
 151              		.loc 1 137 0
 152              		.cfi_startproc
 153              		@ args = 0, pretend = 0, frame = 0
 154              		@ frame_needed = 0, uses_anonymous_args = 0
 155 0000 F8B5     		push	{r3, r4, r5, r6, r7, lr}
 156              		.cfi_def_cfa_offset 24
 157              		.cfi_offset 3, -24
 158              		.cfi_offset 4, -20
 159              		.cfi_offset 5, -16
 160              		.cfi_offset 6, -12
 161              		.cfi_offset 7, -8
 162              		.cfi_offset 14, -4
 163              		.loc 1 139 0
 164 0002 FFF7FEFF 		bl	chDbgCheckClassI
 165              	.LVL10:
 166              		.loc 1 143 0
 167 0006 164B     		ldr	r3, .L17
 168 0008 9B69     		ldr	r3, [r3, #24]
 169 000a 93F82320 		ldrb	r2, [r3, #35]	@ zero_extendqisi2
ARM GAS  /tmp/ccWbFbv8.s 			page 4


 170 000e 12B1     		cbz	r2, .L10
 171              		.loc 1 145 0
 172 0010 013A     		subs	r2, r2, #1
 173 0012 83F82320 		strb	r2, [r3, #35]
 174              	.L10:
 175              		.loc 1 148 0
 176 0016 5A6A     		ldr	r2, [r3, #36]
 177              		.loc 1 150 0
 178 0018 124D     		ldr	r5, .L17+4
 179              		.loc 1 148 0
 180 001a 0132     		adds	r2, r2, #1
 181 001c 5A62     		str	r2, [r3, #36]
 182              		.loc 1 150 0
 183 001e EB68     		ldr	r3, [r5, #12]
 184 0020 2C68     		ldr	r4, [r5]
 185 0022 0133     		adds	r3, r3, #1
 186 0024 AC42     		cmp	r4, r5
 187 0026 EB60     		str	r3, [r5, #12]
 188 0028 18D0     		beq	.L9
 189              	.LBB3:
 190              		.loc 1 150 0 is_stmt 0 discriminator 1
 191 002a A768     		ldr	r7, [r4, #8]
 192 002c 013F     		subs	r7, r7, #1
 193 002e A760     		str	r7, [r4, #8]
 194              	.LVL11:
 195 0030 A7B9     		cbnz	r7, .L9
 196              	.L13:
 197              	.LBB4:
 198              		.loc 1 150 0 discriminator 2
 199 0032 2368     		ldr	r3, [r4]
 200 0034 E668     		ldr	r6, [r4, #12]
 201              	.LVL12:
 202 0036 E760     		str	r7, [r4, #12]
 203 0038 5D60     		str	r5, [r3, #4]
 204 003a 2B60     		str	r3, [r5]
 205 003c FFF7FEFF 		bl	dbg_check_unlock_from_isr
 206              	.LVL13:
 207              	.LBB5:
 208 0040 0023     		movs	r3, #0
 209              	@ 150 "../../../os/kernel/src/chsys.c" 1
 210 0042 83F31188 		msr     BASEPRI, r3
 211              	@ 0 "" 2
 212              		.thumb
 213              	.LBE5:
 214 0046 2069     		ldr	r0, [r4, #16]
 215 0048 B047     		blx	r6
 216              	.LVL14:
 217              	.LBB6:
 218 004a 2023     		movs	r3, #32
 219              	@ 150 "../../../os/kernel/src/chsys.c" 1
 220 004c 83F31188 		msr     BASEPRI, r3
 221              	@ 0 "" 2
 222              		.thumb
 223              	.LBE6:
 224 0050 FFF7FEFF 		bl	dbg_check_lock_from_isr
 225              	.LVL15:
 226              	.LBE4:
ARM GAS  /tmp/ccWbFbv8.s 			page 5


 227 0054 2C68     		ldr	r4, [r5]
 228              	.LVL16:
 229 0056 A368     		ldr	r3, [r4, #8]
 230 0058 002B     		cmp	r3, #0
 231 005a EAD0     		beq	.L13
 232              	.LVL17:
 233              	.L9:
 234 005c F8BD     		pop	{r3, r4, r5, r6, r7, pc}
 235              	.L18:
 236 005e 00BF     		.align	2
 237              	.L17:
 238 0060 00000000 		.word	rlist
 239 0064 00000000 		.word	vtlist
 240              	.LBE3:
 241              		.cfi_endproc
 242              	.LFE9:
 243              		.size	chSysTimerHandlerI, .-chSysTimerHandlerI
 244              		.global	_idle_thread_wa
 245 0068 AFF30080 		.section	.rodata.str1.4,"aMS",%progbits,1
 245      AFF30080 
 246              		.align	2
 247              	.LC0:
 248 0000 69646C65 		.ascii	"idle\000"
 248      00
 249 0005 000000   		.section	.bss.mainthread.4845,"aw",%nobits
 250              		.align	2
 251              		.set	.LANCHOR0,. + 0
 252              		.type	mainthread.4845, %object
 253              		.size	mainthread.4845, 76
 254              	mainthread.4845:
 255 0000 00000000 		.space	76
 255      00000000 
 255      00000000 
 255      00000000 
 255      00000000 
 256              		.section	.bss._idle_thread_wa,"aw",%nobits
 257              		.align	3
 258              		.set	.LANCHOR1,. + 0
 259              		.type	_idle_thread_wa, %object
 260              		.size	_idle_thread_wa, 224
 261              	_idle_thread_wa:
 262 0000 00000000 		.space	224
 262      00000000 
 262      00000000 
 262      00000000 
 262      00000000 
 263              		.text
 264              	.Letext0:
 265              		.file 2 "/opt/ARM/lib/gcc/arm-none-eabi/4.8.4/include/stddef.h"
 266              		.file 3 "/opt/ARM/arm-none-eabi/include/machine/_default_types.h"
 267              		.file 4 "/opt/ARM/arm-none-eabi/include/stdint.h"
 268              		.file 5 "../../../os/ports/GCC/ARMCMx/chtypes.h"
 269              		.file 6 "../../../os/kernel/include/chlists.h"
 270              		.file 7 "../../../os/kernel/include/chthreads.h"
 271              		.file 8 "../../../os/ports/GCC/ARMCMx/chcore_v7m.h"
 272              		.file 9 "../../../os/kernel/include/chvt.h"
 273              		.file 10 "../../../os/kernel/include/chschd.h"
ARM GAS  /tmp/ccWbFbv8.s 			page 6


 274              		.file 11 "../../../os/kernel/include/chmtx.h"
 275              		.file 12 "../../../os/kernel/include/chregistry.h"
 276              		.file 13 "../../../os/kernel/include/chmemcore.h"
 277              		.file 14 "../../../os/kernel/include/chheap.h"
 278              		.file 15 "../../../os/kernel/include/chdebug.h"
