ARM GAS  /tmp/ccApdq2Q.s 			page 1


   1              		.syntax unified
   2              		.cpu cortex-m4
   3              		.fpu softvfp
   4              		.eabi_attribute 20, 1
   5              		.eabi_attribute 21, 1
   6              		.eabi_attribute 23, 3
   7              		.eabi_attribute 24, 1
   8              		.eabi_attribute 25, 1
   9              		.eabi_attribute 26, 1
  10              		.eabi_attribute 30, 2
  11              		.eabi_attribute 34, 1
  12              		.eabi_attribute 18, 4
  13              		.thumb
  14              		.file	"test.c"
  15              		.text
  16              	.Ltext0:
  17              		.cfi_sections	.debug_frame
  18              		.section	.text.tmr,"ax",%progbits
  19              		.align	2
  20              		.p2align 4,,15
  21              		.thumb
  22              		.thumb_func
  23              		.type	tmr, %function
  24              	tmr:
  25              	.LFB132:
  26              		.file 1 "../../../test/test.c"
  27              		.loc 1 261 0
  28              		.cfi_startproc
  29              		@ args = 0, pretend = 0, frame = 0
  30              		@ frame_needed = 0, uses_anonymous_args = 0
  31              		@ link register save eliminated.
  32              	.LVL0:
  33              		.loc 1 264 0
  34 0000 014B     		ldr	r3, .L2
  35 0002 0122     		movs	r2, #1
  36 0004 1A70     		strb	r2, [r3]
  37 0006 7047     		bx	lr
  38              	.L3:
  39              		.align	2
  40              	.L2:
  41 0008 00000000 		.word	.LANCHOR0
  42              		.cfi_endproc
  43              	.LFE132:
  44              		.size	tmr, .-tmr
  45 000c AFF30080 		.section	.text.print_line,"ax",%progbits
  46              		.align	2
  47              		.p2align 4,,15
  48              		.thumb
  49              		.thumb_func
  50              		.type	print_line, %function
  51              	print_line:
  52              	.LFB135:
  53              		.loc 1 300 0
  54              		.cfi_startproc
  55              		@ args = 0, pretend = 0, frame = 0
  56              		@ frame_needed = 0, uses_anonymous_args = 0
  57              	.LVL1:
ARM GAS  /tmp/ccApdq2Q.s 			page 2


  58 0000 70B5     		push	{r4, r5, r6, lr}
  59              		.cfi_def_cfa_offset 16
  60              		.cfi_offset 4, -16
  61              		.cfi_offset 5, -12
  62              		.cfi_offset 6, -8
  63              		.cfi_offset 14, -4
  64 0002 084E     		ldr	r6, .L8
  65              		.loc 1 300 0
  66 0004 4C24     		movs	r4, #76
  67              	.LVL2:
  68              	.L6:
  69              		.loc 1 304 0 discriminator 2
  70 0006 3068     		ldr	r0, [r6]
  71 0008 064D     		ldr	r5, .L8
  72 000a 0368     		ldr	r3, [r0]
  73 000c 2D21     		movs	r1, #45
  74 000e 9B68     		ldr	r3, [r3, #8]
  75 0010 9847     		blx	r3
  76              	.LVL3:
  77              		.loc 1 303 0 discriminator 2
  78 0012 013C     		subs	r4, r4, #1
  79              	.LVL4:
  80 0014 F7D1     		bne	.L6
  81              		.loc 1 305 0
  82 0016 2868     		ldr	r0, [r5]
  83 0018 0349     		ldr	r1, .L8+4
  84 001a 0368     		ldr	r3, [r0]
  85 001c 0222     		movs	r2, #2
  86 001e 1B68     		ldr	r3, [r3]
  87 0020 9847     		blx	r3
  88              	.LVL5:
  89 0022 70BD     		pop	{r4, r5, r6, pc}
  90              	.LVL6:
  91              	.L9:
  92              		.align	2
  93              	.L8:
  94 0024 00000000 		.word	.LANCHOR1
  95 0028 00000000 		.word	.LC0
  96              		.cfi_endproc
  97              	.LFE135:
  98              		.size	print_line, .-print_line
  99 002c AFF30080 		.section	.text.test_printn,"ax",%progbits
 100              		.align	2
 101              		.p2align 4,,15
 102              		.global	test_printn
 103              		.thumb
 104              		.thumb_func
 105              		.type	test_printn, %function
 106              	test_printn:
 107              	.LFB118:
 108              		.loc 1 91 0
 109              		.cfi_startproc
 110              		@ args = 0, pretend = 0, frame = 16
 111              		@ frame_needed = 0, uses_anonymous_args = 0
 112              	.LVL7:
 113 0000 70B5     		push	{r4, r5, r6, lr}
 114              		.cfi_def_cfa_offset 16
ARM GAS  /tmp/ccApdq2Q.s 			page 3


 115              		.cfi_offset 4, -16
 116              		.cfi_offset 5, -12
 117              		.cfi_offset 6, -8
 118              		.cfi_offset 14, -4
 119 0002 84B0     		sub	sp, sp, #16
 120              		.cfi_def_cfa_offset 32
 121              		.loc 1 94 0
 122 0004 18B3     		cbz	r0, .L18
 123 0006 0DF10105 		add	r5, sp, #1
 124              		.loc 1 99 0
 125 000a 154E     		ldr	r6, .L20
 126 000c 2B46     		mov	r3, r5
 127              	.LVL8:
 128              	.L14:
 129 000e A6FB0012 		umull	r1, r2, r6, r0
 130 0012 D208     		lsrs	r2, r2, #3
 131 0014 02EB8201 		add	r1, r2, r2, lsl #2
 132 0018 A0EB4101 		sub	r1, r0, r1, lsl #1
 133 001c 3031     		adds	r1, r1, #48
 134 001e C9B2     		uxtb	r1, r1
 135 0020 03F8011C 		strb	r1, [r3, #-1]
 136 0024 1C46     		mov	r4, r3
 137              	.LVL9:
 138              		.loc 1 98 0
 139 0026 1046     		mov	r0, r2
 140 0028 0133     		adds	r3, r3, #1
 141              	.LVL10:
 142 002a 002A     		cmp	r2, #0
 143 002c EFD1     		bne	.L14
 144              		.loc 1 100 0 discriminator 1
 145 002e 6B46     		mov	r3, sp
 146 0030 9C42     		cmp	r4, r3
 147 0032 0AD9     		bls	.L10
 148 0034 0B4E     		ldr	r6, .L20+4
 149 0036 02E0     		b	.L17
 150              	.LVL11:
 151              	.L19:
 152 0038 14F8021C 		ldrb	r1, [r4, #-2]	@ zero_extendqisi2
 153 003c 013C     		subs	r4, r4, #1
 154              	.LVL12:
 155              	.L17:
 156              		.loc 1 101 0
 157 003e 3068     		ldr	r0, [r6]
 158              	.LVL13:
 159 0040 0368     		ldr	r3, [r0]
 160 0042 9B68     		ldr	r3, [r3, #8]
 161 0044 9847     		blx	r3
 162              	.LVL14:
 163              		.loc 1 100 0
 164 0046 AC42     		cmp	r4, r5
 165 0048 F6D1     		bne	.L19
 166              	.LVL15:
 167              	.L10:
 168              		.loc 1 103 0
 169 004a 04B0     		add	sp, sp, #16
 170              		@ sp needed
 171 004c 70BD     		pop	{r4, r5, r6, pc}
ARM GAS  /tmp/ccApdq2Q.s 			page 4


 172              	.LVL16:
 173              	.L18:
 174              	.LBB50:
 175              	.LBB51:
 176              		.loc 1 95 0
 177 004e 054B     		ldr	r3, .L20+4
 178 0050 1868     		ldr	r0, [r3]
 179              	.LVL17:
 180 0052 0368     		ldr	r3, [r0]
 181 0054 3021     		movs	r1, #48
 182 0056 9B68     		ldr	r3, [r3, #8]
 183 0058 9847     		blx	r3
 184              	.LVL18:
 185              	.LBE51:
 186              	.LBE50:
 187              		.loc 1 103 0
 188 005a 04B0     		add	sp, sp, #16
 189              		@ sp needed
 190 005c 70BD     		pop	{r4, r5, r6, pc}
 191              	.L21:
 192 005e 00BF     		.align	2
 193              	.L20:
 194 0060 CDCCCCCC 		.word	-858993459
 195 0064 00000000 		.word	.LANCHOR1
 196              		.cfi_endproc
 197              	.LFE118:
 198              		.size	test_printn, .-test_printn
 199 0068 AFF30080 		.section	.text.test_print,"ax",%progbits
 199      AFF30080 
 200              		.align	2
 201              		.p2align 4,,15
 202              		.global	test_print
 203              		.thumb
 204              		.thumb_func
 205              		.type	test_print, %function
 206              	test_print:
 207              	.LFB119:
 208              		.loc 1 110 0
 209              		.cfi_startproc
 210              		@ args = 0, pretend = 0, frame = 0
 211              		@ frame_needed = 0, uses_anonymous_args = 0
 212              	.LVL19:
 213 0000 38B5     		push	{r3, r4, r5, lr}
 214              		.cfi_def_cfa_offset 16
 215              		.cfi_offset 3, -16
 216              		.cfi_offset 4, -12
 217              		.cfi_offset 5, -8
 218              		.cfi_offset 14, -4
 219              		.loc 1 112 0
 220 0002 0178     		ldrb	r1, [r0]	@ zero_extendqisi2
 221 0004 49B1     		cbz	r1, .L22
 222 0006 054D     		ldr	r5, .L29
 223 0008 0446     		mov	r4, r0
 224              	.LVL20:
 225              	.L25:
 226              		.loc 1 113 0
 227 000a 2868     		ldr	r0, [r5]
ARM GAS  /tmp/ccApdq2Q.s 			page 5


 228              	.LVL21:
 229 000c 0368     		ldr	r3, [r0]
 230 000e 9B68     		ldr	r3, [r3, #8]
 231 0010 9847     		blx	r3
 232              	.LVL22:
 233              		.loc 1 112 0
 234 0012 14F8011F 		ldrb	r1, [r4, #1]!	@ zero_extendqisi2
 235              	.LVL23:
 236 0016 0029     		cmp	r1, #0
 237 0018 F7D1     		bne	.L25
 238              	.LVL24:
 239              	.L22:
 240 001a 38BD     		pop	{r3, r4, r5, pc}
 241              	.L30:
 242              		.align	2
 243              	.L29:
 244 001c 00000000 		.word	.LANCHOR1
 245              		.cfi_endproc
 246              	.LFE119:
 247              		.size	test_print, .-test_print
 248              		.section	.text.test_println,"ax",%progbits
 249              		.align	2
 250              		.p2align 4,,15
 251              		.global	test_println
 252              		.thumb
 253              		.thumb_func
 254              		.type	test_println, %function
 255              	test_println:
 256              	.LFB120:
 257              		.loc 1 121 0
 258              		.cfi_startproc
 259              		@ args = 0, pretend = 0, frame = 0
 260              		@ frame_needed = 0, uses_anonymous_args = 0
 261              	.LVL25:
 262 0000 38B5     		push	{r3, r4, r5, lr}
 263              		.cfi_def_cfa_offset 16
 264              		.cfi_offset 3, -16
 265              		.cfi_offset 4, -12
 266              		.cfi_offset 5, -8
 267              		.cfi_offset 14, -4
 268              	.LBB52:
 269              	.LBB53:
 270              		.loc 1 112 0
 271 0002 0178     		ldrb	r1, [r0]	@ zero_extendqisi2
 272 0004 084D     		ldr	r5, .L39
 273 0006 0446     		mov	r4, r0
 274 0008 39B1     		cbz	r1, .L33
 275              	.LVL26:
 276              	.L34:
 277              		.loc 1 113 0
 278 000a 2868     		ldr	r0, [r5]
 279              	.LVL27:
 280 000c 0368     		ldr	r3, [r0]
 281 000e 9B68     		ldr	r3, [r3, #8]
 282 0010 9847     		blx	r3
 283              	.LVL28:
 284              		.loc 1 112 0
ARM GAS  /tmp/ccApdq2Q.s 			page 6


 285 0012 14F8011F 		ldrb	r1, [r4, #1]!	@ zero_extendqisi2
 286              	.LVL29:
 287 0016 0029     		cmp	r1, #0
 288 0018 F7D1     		bne	.L34
 289              	.LVL30:
 290              	.L33:
 291              	.LBE53:
 292              	.LBE52:
 293              		.loc 1 124 0
 294 001a 2868     		ldr	r0, [r5]
 295 001c 0349     		ldr	r1, .L39+4
 296 001e 0368     		ldr	r3, [r0]
 297 0020 0222     		movs	r2, #2
 298 0022 1B68     		ldr	r3, [r3]
 299 0024 9847     		blx	r3
 300              	.LVL31:
 301 0026 38BD     		pop	{r3, r4, r5, pc}
 302              	.L40:
 303              		.align	2
 304              	.L39:
 305 0028 00000000 		.word	.LANCHOR1
 306 002c 00000000 		.word	.LC0
 307              		.cfi_endproc
 308              	.LFE120:
 309              		.size	test_println, .-test_println
 310              		.section	.text.test_emit_token,"ax",%progbits
 311              		.align	2
 312              		.p2align 4,,15
 313              		.global	test_emit_token
 314              		.thumb
 315              		.thumb_func
 316              		.type	test_emit_token, %function
 317              	test_emit_token:
 318              	.LFB123:
 319              		.loc 1 147 0
 320              		.cfi_startproc
 321              		@ args = 0, pretend = 0, frame = 0
 322              		@ frame_needed = 0, uses_anonymous_args = 0
 323              	.LVL32:
 324 0000 10B5     		push	{r4, lr}
 325              		.cfi_def_cfa_offset 8
 326              		.cfi_offset 4, -8
 327              		.cfi_offset 14, -4
 328              	.LBB54:
 329              		.loc 1 149 0
 330 0002 2023     		movs	r3, #32
 331              	.LBE54:
 332              		.loc 1 147 0
 333 0004 0446     		mov	r4, r0
 334              	.LBB55:
 335              		.loc 1 149 0
 336              	@ 149 "../../../test/test.c" 1
 337 0006 83F31188 		msr     BASEPRI, r3
 338              	@ 0 "" 2
 339              		.thumb
 340              	.LBE55:
 341 000a FFF7FEFF 		bl	dbg_check_lock
ARM GAS  /tmp/ccApdq2Q.s 			page 7


 342              	.LVL33:
 343              		.loc 1 150 0
 344 000e 054B     		ldr	r3, .L42
 345 0010 1A68     		ldr	r2, [r3]
 346 0012 1470     		strb	r4, [r2]
 347 0014 0132     		adds	r2, r2, #1
 348 0016 1A60     		str	r2, [r3]
 349              		.loc 1 151 0
 350 0018 FFF7FEFF 		bl	dbg_check_unlock
 351              	.LVL34:
 352              	.LBB56:
 353 001c 0023     		movs	r3, #0
 354              	@ 151 "../../../test/test.c" 1
 355 001e 83F31188 		msr     BASEPRI, r3
 356              	@ 0 "" 2
 357              		.thumb
 358 0022 10BD     		pop	{r4, pc}
 359              	.L43:
 360              		.align	2
 361              	.L42:
 362 0024 00000000 		.word	.LANCHOR2
 363              	.LBE56:
 364              		.cfi_endproc
 365              	.LFE123:
 366              		.size	test_emit_token, .-test_emit_token
 367 0028 AFF30080 		.section	.text._test_fail,"ax",%progbits
 367      AFF30080 
 368              		.align	2
 369              		.p2align 4,,15
 370              		.global	_test_fail
 371              		.thumb
 372              		.thumb_func
 373              		.type	_test_fail, %function
 374              	_test_fail:
 375              	.LFB124:
 376              		.loc 1 157 0
 377              		.cfi_startproc
 378              		@ args = 0, pretend = 0, frame = 0
 379              		@ frame_needed = 0, uses_anonymous_args = 0
 380              		@ link register save eliminated.
 381              	.LVL35:
 382              		.loc 1 161 0
 383 0000 0349     		ldr	r1, .L45
 384              		.loc 1 159 0
 385 0002 044A     		ldr	r2, .L45+4
 386              		.loc 1 160 0
 387 0004 044B     		ldr	r3, .L45+8
 388              		.loc 1 161 0
 389 0006 0860     		str	r0, [r1]
 390              		.loc 1 159 0
 391 0008 0120     		movs	r0, #1
 392              	.LVL36:
 393 000a 1070     		strb	r0, [r2]
 394              		.loc 1 160 0
 395 000c 1870     		strb	r0, [r3]
 396              		.loc 1 163 0
 397 000e 7047     		bx	lr
ARM GAS  /tmp/ccApdq2Q.s 			page 8


 398              	.L46:
 399              		.align	2
 400              	.L45:
 401 0010 00000000 		.word	.LANCHOR5
 402 0014 00000000 		.word	.LANCHOR3
 403 0018 00000000 		.word	.LANCHOR4
 404              		.cfi_endproc
 405              	.LFE124:
 406              		.size	_test_fail, .-_test_fail
 407 001c AFF30080 		.section	.text._test_assert,"ax",%progbits
 408              		.align	2
 409              		.p2align 4,,15
 410              		.global	_test_assert
 411              		.thumb
 412              		.thumb_func
 413              		.type	_test_assert, %function
 414              	_test_assert:
 415              	.LFB125:
 416              		.loc 1 165 0
 417              		.cfi_startproc
 418              		@ args = 0, pretend = 0, frame = 0
 419              		@ frame_needed = 0, uses_anonymous_args = 0
 420              		@ link register save eliminated.
 421              	.LVL37:
 422 0000 10B4     		push	{r4}
 423              		.cfi_def_cfa_offset 4
 424              		.cfi_offset 4, -4
 425              		.loc 1 167 0
 426 0002 51B9     		cbnz	r1, .L49
 427              	.LVL38:
 428              	.LBB57:
 429              	.LBB58:
 430              		.loc 1 159 0
 431 0004 074C     		ldr	r4, .L50
 432              		.loc 1 160 0
 433 0006 0849     		ldr	r1, .L50+4
 434              	.LVL39:
 435              		.loc 1 161 0
 436 0008 084A     		ldr	r2, .L50+8
 437              		.loc 1 159 0
 438 000a 0123     		movs	r3, #1
 439 000c 2370     		strb	r3, [r4]
 440              		.loc 1 161 0
 441 000e 1060     		str	r0, [r2]
 442              		.loc 1 160 0
 443 0010 0B70     		strb	r3, [r1]
 444              	.LBE58:
 445              	.LBE57:
 446              		.loc 1 170 0
 447 0012 1846     		mov	r0, r3
 448              	.LVL40:
 449 0014 5DF8044B 		ldr	r4, [sp], #4
 450 0018 7047     		bx	lr
 451              	.LVL41:
 452              	.L49:
 453              		.loc 1 169 0
 454 001a 0023     		movs	r3, #0
ARM GAS  /tmp/ccApdq2Q.s 			page 9


 455              		.loc 1 170 0
 456 001c 1846     		mov	r0, r3
 457              	.LVL42:
 458 001e 5DF8044B 		ldr	r4, [sp], #4
 459 0022 7047     		bx	lr
 460              	.L51:
 461              		.align	2
 462              	.L50:
 463 0024 00000000 		.word	.LANCHOR3
 464 0028 00000000 		.word	.LANCHOR4
 465 002c 00000000 		.word	.LANCHOR5
 466              		.cfi_endproc
 467              	.LFE125:
 468              		.size	_test_assert, .-_test_assert
 469              		.section	.text._test_assert_sequence,"ax",%progbits
 470              		.align	2
 471              		.p2align 4,,15
 472              		.global	_test_assert_sequence
 473              		.thumb
 474              		.thumb_func
 475              		.type	_test_assert_sequence, %function
 476              	_test_assert_sequence:
 477              	.LFB126:
 478              		.loc 1 172 0
 479              		.cfi_startproc
 480              		@ args = 0, pretend = 0, frame = 0
 481              		@ frame_needed = 0, uses_anonymous_args = 0
 482              		@ link register save eliminated.
 483              	.LVL43:
 484 0000 F0B4     		push	{r4, r5, r6, r7}
 485              		.cfi_def_cfa_offset 16
 486              		.cfi_offset 4, -16
 487              		.cfi_offset 5, -12
 488              		.cfi_offset 6, -8
 489              		.cfi_offset 7, -4
 490 0002 0E4E     		ldr	r6, .L58
 491              		.loc 1 173 0
 492 0004 0E4F     		ldr	r7, .L58+4
 493 0006 3568     		ldr	r5, [r6]
 494 0008 3B46     		mov	r3, r7
 495              		.loc 1 174 0
 496 000a 05E0     		b	.L53
 497              	.LVL44:
 498              	.L56:
 499              		.loc 1 175 0
 500 000c 13F8014B 		ldrb	r4, [r3], #1	@ zero_extendqisi2
 501              	.LVL45:
 502 0010 11F8012B 		ldrb	r2, [r1], #1	@ zero_extendqisi2
 503              	.LVL46:
 504 0014 9442     		cmp	r4, r2
 505 0016 07D1     		bne	.L57
 506              	.LVL47:
 507              	.L53:
 508              		.loc 1 174 0 discriminator 1
 509 0018 AB42     		cmp	r3, r5
 510 001a F7D3     		bcc	.L56
 511              		.loc 1 178 0
ARM GAS  /tmp/ccApdq2Q.s 			page 10


 512 001c 0B78     		ldrb	r3, [r1]	@ zero_extendqisi2
 513              	.LVL48:
 514 001e 1BB9     		cbnz	r3, .L57
 515              	.LBB59:
 516              	.LBB60:
 517              		.loc 1 132 0
 518 0020 3760     		str	r7, [r6]
 519              	.LBE60:
 520              	.LBE59:
 521              		.loc 1 182 0
 522 0022 1846     		mov	r0, r3
 523              	.LVL49:
 524 0024 F0BC     		pop	{r4, r5, r6, r7}
 525 0026 7047     		bx	lr
 526              	.LVL50:
 527              	.L57:
 528              	.LBB61:
 529              	.LBB62:
 530              		.loc 1 159 0
 531 0028 064C     		ldr	r4, .L58+8
 532              		.loc 1 160 0
 533 002a 0749     		ldr	r1, .L58+12
 534              		.loc 1 161 0
 535 002c 074A     		ldr	r2, .L58+16
 536              		.loc 1 159 0
 537 002e 0123     		movs	r3, #1
 538 0030 2370     		strb	r3, [r4]
 539              		.loc 1 161 0
 540 0032 1060     		str	r0, [r2]
 541              		.loc 1 160 0
 542 0034 0B70     		strb	r3, [r1]
 543              	.LBE62:
 544              	.LBE61:
 545              		.loc 1 182 0
 546 0036 1846     		mov	r0, r3
 547              	.LVL51:
 548 0038 F0BC     		pop	{r4, r5, r6, r7}
 549 003a 7047     		bx	lr
 550              	.L59:
 551              		.align	2
 552              	.L58:
 553 003c 00000000 		.word	.LANCHOR2
 554 0040 00000000 		.word	.LANCHOR6
 555 0044 00000000 		.word	.LANCHOR3
 556 0048 00000000 		.word	.LANCHOR4
 557 004c 00000000 		.word	.LANCHOR5
 558              		.cfi_endproc
 559              	.LFE126:
 560              		.size	_test_assert_sequence, .-_test_assert_sequence
 561              		.section	.text._test_assert_time_window,"ax",%progbits
 562              		.align	2
 563              		.p2align 4,,15
 564              		.global	_test_assert_time_window
 565              		.thumb
 566              		.thumb_func
 567              		.type	_test_assert_time_window, %function
 568              	_test_assert_time_window:
ARM GAS  /tmp/ccApdq2Q.s 			page 11


 569              	.LFB127:
 570              		.loc 1 184 0
 571              		.cfi_startproc
 572              		@ args = 0, pretend = 0, frame = 0
 573              		@ frame_needed = 0, uses_anonymous_args = 0
 574              		@ link register save eliminated.
 575              	.LVL52:
 576              		.loc 1 186 0
 577 0000 0B4B     		ldr	r3, .L63
 578 0002 DB68     		ldr	r3, [r3, #12]
 579 0004 521A     		subs	r2, r2, r1
 580              	.LVL53:
 581 0006 591A     		subs	r1, r3, r1
 582              	.LVL54:
 583              	.LBB63:
 584              	.LBB64:
 585              		.loc 1 167 0
 586 0008 9142     		cmp	r1, r2
 587              	.LBE64:
 588              	.LBE63:
 589              		.loc 1 184 0
 590 000a 10B4     		push	{r4}
 591              		.cfi_def_cfa_offset 4
 592              		.cfi_offset 4, -4
 593              	.LBB69:
 594              	.LBB67:
 595              		.loc 1 167 0
 596 000c 0AD3     		bcc	.L62
 597              	.LVL55:
 598              	.LBB65:
 599              	.LBB66:
 600              		.loc 1 159 0
 601 000e 094C     		ldr	r4, .L63+4
 602              		.loc 1 160 0
 603 0010 0949     		ldr	r1, .L63+8
 604              		.loc 1 161 0
 605 0012 0A4A     		ldr	r2, .L63+12
 606              		.loc 1 159 0
 607 0014 0123     		movs	r3, #1
 608              	.LVL56:
 609 0016 2370     		strb	r3, [r4]
 610              		.loc 1 161 0
 611 0018 1060     		str	r0, [r2]
 612              		.loc 1 160 0
 613 001a 0B70     		strb	r3, [r1]
 614              	.LBE66:
 615              	.LBE65:
 616              	.LBE67:
 617              	.LBE69:
 618              		.loc 1 187 0
 619 001c 1846     		mov	r0, r3
 620              	.LVL57:
 621 001e 5DF8044B 		ldr	r4, [sp], #4
 622 0022 7047     		bx	lr
 623              	.LVL58:
 624              	.L62:
 625              	.LBB70:
ARM GAS  /tmp/ccApdq2Q.s 			page 12


 626              	.LBB68:
 627              		.loc 1 169 0
 628 0024 0023     		movs	r3, #0
 629              	.LVL59:
 630              	.LBE68:
 631              	.LBE70:
 632              		.loc 1 187 0
 633 0026 1846     		mov	r0, r3
 634              	.LVL60:
 635 0028 5DF8044B 		ldr	r4, [sp], #4
 636 002c 7047     		bx	lr
 637              	.L64:
 638 002e 00BF     		.align	2
 639              	.L63:
 640 0030 00000000 		.word	vtlist
 641 0034 00000000 		.word	.LANCHOR3
 642 0038 00000000 		.word	.LANCHOR4
 643 003c 00000000 		.word	.LANCHOR5
 644              		.cfi_endproc
 645              	.LFE127:
 646              		.size	_test_assert_time_window, .-_test_assert_time_window
 647              		.section	.text.test_terminate_threads,"ax",%progbits
 648              		.align	2
 649              		.p2align 4,,15
 650              		.global	test_terminate_threads
 651              		.thumb
 652              		.thumb_func
 653              		.type	test_terminate_threads, %function
 654              	test_terminate_threads:
 655              	.LFB128:
 656              		.loc 1 196 0
 657              		.cfi_startproc
 658              		@ args = 0, pretend = 0, frame = 0
 659              		@ frame_needed = 0, uses_anonymous_args = 0
 660              	.LVL61:
 661 0000 38B5     		push	{r3, r4, r5, lr}
 662              		.cfi_def_cfa_offset 16
 663              		.cfi_offset 3, -16
 664              		.cfi_offset 4, -12
 665              		.cfi_offset 5, -8
 666              		.cfi_offset 14, -4
 667 0002 064C     		ldr	r4, .L72
 668 0004 04F11405 		add	r5, r4, #20
 669              	.LVL62:
 670              	.L68:
 671              		.loc 1 200 0
 672 0008 54F8043F 		ldr	r3, [r4, #4]!
 673              		.loc 1 201 0
 674 000c 1846     		mov	r0, r3
 675              		.loc 1 200 0
 676 000e 0BB1     		cbz	r3, .L66
 677              		.loc 1 201 0
 678 0010 FFF7FEFF 		bl	chThdTerminate
 679              	.LVL63:
 680              	.L66:
 681              		.loc 1 199 0
 682 0014 AC42     		cmp	r4, r5
ARM GAS  /tmp/ccApdq2Q.s 			page 13


 683 0016 F7D1     		bne	.L68
 684              		.loc 1 202 0
 685 0018 38BD     		pop	{r3, r4, r5, pc}
 686              	.L73:
 687 001a 00BF     		.align	2
 688              	.L72:
 689 001c FCFFFFFF 		.word	.LANCHOR7-4
 690              		.cfi_endproc
 691              	.LFE128:
 692              		.size	test_terminate_threads, .-test_terminate_threads
 693              		.section	.text.test_wait_threads,"ax",%progbits
 694              		.align	2
 695              		.p2align 4,,15
 696              		.global	test_wait_threads
 697              		.thumb
 698              		.thumb_func
 699              		.type	test_wait_threads, %function
 700              	test_wait_threads:
 701              	.LFB129:
 702              		.loc 1 207 0
 703              		.cfi_startproc
 704              		@ args = 0, pretend = 0, frame = 0
 705              		@ frame_needed = 0, uses_anonymous_args = 0
 706              	.LVL64:
 707 0000 70B5     		push	{r4, r5, r6, lr}
 708              		.cfi_def_cfa_offset 16
 709              		.cfi_offset 4, -16
 710              		.cfi_offset 5, -12
 711              		.cfi_offset 6, -8
 712              		.cfi_offset 14, -4
 713 0002 074C     		ldr	r4, .L81
 714              		.loc 1 213 0
 715 0004 0026     		movs	r6, #0
 716 0006 04F11405 		add	r5, r4, #20
 717              	.LVL65:
 718              	.L77:
 719              		.loc 1 211 0
 720 000a 54F8043B 		ldr	r3, [r4], #4
 721              		.loc 1 212 0
 722 000e 1846     		mov	r0, r3
 723              		.loc 1 211 0
 724 0010 1BB1     		cbz	r3, .L75
 725              		.loc 1 212 0
 726 0012 FFF7FEFF 		bl	chThdWait
 727              	.LVL66:
 728              		.loc 1 213 0
 729 0016 44F8046C 		str	r6, [r4, #-4]
 730              	.L75:
 731              		.loc 1 210 0
 732 001a AC42     		cmp	r4, r5
 733 001c F5D1     		bne	.L77
 734              		.loc 1 215 0
 735 001e 70BD     		pop	{r4, r5, r6, pc}
 736              	.L82:
 737              		.align	2
 738              	.L81:
 739 0020 00000000 		.word	.LANCHOR7
ARM GAS  /tmp/ccApdq2Q.s 			page 14


 740              		.cfi_endproc
 741              	.LFE129:
 742              		.size	test_wait_threads, .-test_wait_threads
 743 0024 AFF30080 		.section	.text.test_cpu_pulse,"ax",%progbits
 743      AFF30080 
 743      AFF30080 
 744              		.align	2
 745              		.p2align 4,,15
 746              		.global	test_cpu_pulse
 747              		.thumb
 748              		.thumb_func
 749              		.type	test_cpu_pulse, %function
 750              	test_cpu_pulse:
 751              	.LFB130:
 752              		.loc 1 224 0
 753              		.cfi_startproc
 754              		@ args = 0, pretend = 0, frame = 0
 755              		@ frame_needed = 0, uses_anonymous_args = 0
 756              		@ link register save eliminated.
 757              	.LVL67:
 758              		.loc 1 227 0
 759 0000 124A     		ldr	r2, .L94
 760              		.loc 1 228 0
 761 0002 134B     		ldr	r3, .L94+4
 762              		.loc 1 224 0
 763 0004 30B4     		push	{r4, r5}
 764              		.cfi_def_cfa_offset 8
 765              		.cfi_offset 4, -8
 766              		.cfi_offset 5, -4
 767              		.loc 1 227 0
 768 0006 9469     		ldr	r4, [r2, #24]
 769              		.loc 1 228 0
 770 0008 4FF47A71 		mov	r1, #1000
 771 000c 01FB00F0 		mul	r0, r1, r0
 772              	.LVL68:
 773              		.loc 1 227 0
 774 0010 626A     		ldr	r2, [r4, #36]
 775              	.LVL69:
 776              		.loc 1 228 0
 777 0012 411E     		subs	r1, r0, #1
 778 0014 A3FB0151 		umull	r5, r1, r3, r1
 779 0018 501C     		adds	r0, r2, #1
 780 001a 00EB9111 		add	r1, r0, r1, lsr #6
 781              	.LVL70:
 782              	.L89:
 783              		.loc 1 235 0
 784 001e 8A42     		cmp	r2, r1
 785              		.loc 1 230 0
 786 0020 636A     		ldr	r3, [r4, #36]
 787              	.LVL71:
 788              		.loc 1 235 0
 789 0022 0DD2     		bcs	.L84
 790              		.loc 1 235 0 is_stmt 0 discriminator 1
 791 0024 9A42     		cmp	r2, r3
 792 0026 04D9     		bls	.L92
 793 0028 0023     		movs	r3, #0
 794              	.LVL72:
ARM GAS  /tmp/ccApdq2Q.s 			page 15


 795              		.loc 1 236 0 is_stmt 1
 796 002a 002B     		cmp	r3, #0
 797 002c F7D1     		bne	.L89
 798              	.L93:
 799              		.loc 1 237 0
 800 002e 30BC     		pop	{r4, r5}
 801 0030 7047     		bx	lr
 802              	.LVL73:
 803              	.L92:
 804              		.loc 1 236 0 discriminator 2
 805 0032 9942     		cmp	r1, r3
 806 0034 94BF     		ite	ls
 807 0036 0023     		movls	r3, #0
 808              	.LVL74:
 809 0038 0123     		movhi	r3, #1
 810 003a 002B     		cmp	r3, #0
 811 003c EFD1     		bne	.L89
 812 003e F6E7     		b	.L93
 813              	.LVL75:
 814              	.L84:
 815              		.loc 1 236 0 is_stmt 0
 816 0040 9A42     		cmp	r2, r3
 817 0042 F6D8     		bhi	.L92
 818 0044 0123     		movs	r3, #1
 819              	.LVL76:
 820 0046 002B     		cmp	r3, #0
 821 0048 E9D1     		bne	.L89
 822 004a F0E7     		b	.L93
 823              	.L95:
 824              		.align	2
 825              	.L94:
 826 004c 00000000 		.word	rlist
 827 0050 D34D6210 		.word	274877907
 828              		.cfi_endproc
 829              	.LFE130:
 830              		.size	test_cpu_pulse, .-test_cpu_pulse
 831 0054 AFF30080 		.section	.text.test_wait_tick,"ax",%progbits
 831      AFF30080 
 831      AFF30080 
 832              		.align	2
 833              		.p2align 4,,15
 834              		.global	test_wait_tick
 835              		.thumb
 836              		.thumb_func
 837              		.type	test_wait_tick, %function
 838              	test_wait_tick:
 839              	.LFB131:
 840              		.loc 1 245 0 is_stmt 1
 841              		.cfi_startproc
 842              		@ args = 0, pretend = 0, frame = 0
 843              		@ frame_needed = 0, uses_anonymous_args = 0
 844 0000 08B5     		push	{r3, lr}
 845              		.cfi_def_cfa_offset 8
 846              		.cfi_offset 3, -8
 847              		.cfi_offset 14, -4
 848              		.loc 1 247 0
 849 0002 0120     		movs	r0, #1
ARM GAS  /tmp/ccApdq2Q.s 			page 16


 850 0004 FFF7FEFF 		bl	chThdSleep
 851              	.LVL77:
 852              		.loc 1 248 0
 853 0008 014B     		ldr	r3, .L97
 854 000a D868     		ldr	r0, [r3, #12]
 855              		.loc 1 249 0
 856 000c 08BD     		pop	{r3, pc}
 857              	.L98:
 858 000e 00BF     		.align	2
 859              	.L97:
 860 0010 00000000 		.word	vtlist
 861              		.cfi_endproc
 862              	.LFE131:
 863              		.size	test_wait_tick, .-test_wait_tick
 864 0014 AFF30080 		.section	.text.test_start_timer,"ax",%progbits
 864      AFF30080 
 864      AFF30080 
 865              		.align	2
 866              		.p2align 4,,15
 867              		.global	test_start_timer
 868              		.thumb
 869              		.thumb_func
 870              		.type	test_start_timer, %function
 871              	test_start_timer:
 872              	.LFB133:
 873              		.loc 1 272 0
 874              		.cfi_startproc
 875              		@ args = 0, pretend = 0, frame = 0
 876              		@ frame_needed = 0, uses_anonymous_args = 0
 877              	.LVL78:
 878 0000 38B5     		push	{r3, r4, r5, lr}
 879              		.cfi_def_cfa_offset 16
 880              		.cfi_offset 3, -16
 881              		.cfi_offset 4, -12
 882              		.cfi_offset 5, -8
 883              		.cfi_offset 14, -4
 884              		.loc 1 275 0
 885 0002 0F4B     		ldr	r3, .L100
 886 0004 0024     		movs	r4, #0
 887 0006 1C70     		strb	r4, [r3]
 888              		.loc 1 272 0
 889 0008 0546     		mov	r5, r0
 890              	.LVL79:
 891              	.LBB71:
 892              		.loc 1 276 0
 893 000a 2023     		movs	r3, #32
 894              	@ 276 "../../../test/test.c" 1
 895 000c 83F31188 		msr     BASEPRI, r3
 896              	@ 0 "" 2
 897              		.thumb
 898              	.LBE71:
 899 0010 FFF7FEFF 		bl	dbg_check_lock
 900              	.LVL80:
 901              		.loc 1 274 0
 902 0014 4FF47A71 		mov	r1, #1000
 903 0018 01FB05F1 		mul	r1, r1, r5
 904 001c 094B     		ldr	r3, .L100+4
ARM GAS  /tmp/ccApdq2Q.s 			page 17


 905              		.loc 1 276 0
 906 001e 0A48     		ldr	r0, .L100+8
 907 0020 0A4A     		ldr	r2, .L100+12
 908              		.loc 1 274 0
 909 0022 0139     		subs	r1, r1, #1
 910 0024 A3FB0151 		umull	r5, r1, r3, r1
 911              	.LVL81:
 912 0028 8909     		lsrs	r1, r1, #6
 913              		.loc 1 276 0
 914 002a 2346     		mov	r3, r4
 915 002c 0131     		adds	r1, r1, #1
 916 002e FFF7FEFF 		bl	chVTSetI
 917              	.LVL82:
 918 0032 FFF7FEFF 		bl	dbg_check_unlock
 919              	.LVL83:
 920              	.LBB72:
 921 0036 2346     		mov	r3, r4
 922              	@ 276 "../../../test/test.c" 1
 923 0038 83F31188 		msr     BASEPRI, r3
 924              	@ 0 "" 2
 925              		.thumb
 926 003c 38BD     		pop	{r3, r4, r5, pc}
 927              	.L101:
 928 003e 00BF     		.align	2
 929              	.L100:
 930 0040 00000000 		.word	.LANCHOR0
 931 0044 D34D6210 		.word	274877907
 932 0048 00000000 		.word	.LANCHOR8
 933 004c 00000000 		.word	tmr
 934              	.LBE72:
 935              		.cfi_endproc
 936              	.LFE133:
 937              		.size	test_start_timer, .-test_start_timer
 938              		.section	.text.TestThread,"ax",%progbits
 939              		.align	2
 940              		.p2align 4,,15
 941              		.global	TestThread
 942              		.thumb
 943              		.thumb_func
 944              		.type	TestThread, %function
 945              	TestThread:
 946              	.LFB136:
 947              		.loc 1 314 0
 948              		.cfi_startproc
 949              		@ args = 0, pretend = 0, frame = 16
 950              		@ frame_needed = 0, uses_anonymous_args = 0
 951              	.LVL84:
 952 0000 2DE9F04F 		push	{r4, r5, r6, r7, r8, r9, r10, fp, lr}
 953              		.cfi_def_cfa_offset 36
 954              		.cfi_offset 4, -36
 955              		.cfi_offset 5, -32
 956              		.cfi_offset 6, -28
 957              		.cfi_offset 7, -24
 958              		.cfi_offset 8, -20
 959              		.cfi_offset 9, -16
 960              		.cfi_offset 10, -12
 961              		.cfi_offset 11, -8
ARM GAS  /tmp/ccApdq2Q.s 			page 18


 962              		.cfi_offset 14, -4
 963              		.loc 1 317 0
 964 0004 9E4C     		ldr	r4, .L169
 965 0006 9F4D     		ldr	r5, .L169+4
 966 0008 2060     		str	r0, [r4]
 967              		.loc 1 314 0
 968 000a 85B0     		sub	sp, sp, #20
 969              		.cfi_def_cfa_offset 56
 970              		.loc 1 318 0
 971 000c 9E48     		ldr	r0, .L169+8
 972              	.LVL85:
 973 000e FFF7FEFF 		bl	test_println
 974              	.LVL86:
 975              		.loc 1 319 0
 976 0012 9E48     		ldr	r0, .L169+12
 977 0014 FFF7FEFF 		bl	test_println
 978              	.LVL87:
 979              		.loc 1 320 0
 980 0018 9D48     		ldr	r0, .L169+16
 981 001a FFF7FEFF 		bl	test_println
 982              	.LVL88:
 983              	.LBB109:
 984              	.LBB110:
 985              		.loc 1 112 0
 986 001e 2A21     		movs	r1, #42
 987              	.LVL89:
 988              	.L104:
 989              		.loc 1 113 0
 990 0020 2068     		ldr	r0, [r4]
 991              	.LVL90:
 992 0022 0368     		ldr	r3, [r0]
 993 0024 9B68     		ldr	r3, [r3, #8]
 994 0026 9847     		blx	r3
 995              	.LVL91:
 996              		.loc 1 112 0
 997 0028 15F8011F 		ldrb	r1, [r5, #1]!	@ zero_extendqisi2
 998              	.LVL92:
 999 002c 0029     		cmp	r1, #0
 1000 002e F7D1     		bne	.L104
 1001              	.LBE110:
 1002              	.LBE109:
 1003              		.loc 1 322 0
 1004 0030 9848     		ldr	r0, .L169+20
 1005 0032 994D     		ldr	r5, .L169+24
 1006              	.LVL93:
 1007 0034 FFF7FEFF 		bl	test_println
 1008              	.LVL94:
 1009              	.LBB111:
 1010              	.LBB112:
 1011              		.loc 1 112 0
 1012 0038 2A21     		movs	r1, #42
 1013              	.LVL95:
 1014              	.L142:
 1015              		.loc 1 113 0
 1016 003a 2068     		ldr	r0, [r4]
 1017              	.LVL96:
 1018 003c 0368     		ldr	r3, [r0]
ARM GAS  /tmp/ccApdq2Q.s 			page 19


 1019 003e 9B68     		ldr	r3, [r3, #8]
 1020 0040 9847     		blx	r3
 1021              	.LVL97:
 1022              		.loc 1 112 0
 1023 0042 15F8011F 		ldrb	r1, [r5, #1]!	@ zero_extendqisi2
 1024              	.LVL98:
 1025 0046 0029     		cmp	r1, #0
 1026 0048 F7D1     		bne	.L142
 1027              	.LBE112:
 1028              	.LBE111:
 1029              		.loc 1 324 0
 1030 004a 9448     		ldr	r0, .L169+28
 1031 004c 944D     		ldr	r5, .L169+32
 1032              	.LVL99:
 1033 004e FFF7FEFF 		bl	test_println
 1034              	.LVL100:
 1035              	.LBB113:
 1036              	.LBB114:
 1037              		.loc 1 112 0
 1038 0052 2A21     		movs	r1, #42
 1039              	.LVL101:
 1040              	.L143:
 1041              		.loc 1 113 0
 1042 0054 2068     		ldr	r0, [r4]
 1043              	.LVL102:
 1044 0056 0368     		ldr	r3, [r0]
 1045 0058 9B68     		ldr	r3, [r3, #8]
 1046 005a 9847     		blx	r3
 1047              	.LVL103:
 1048              		.loc 1 112 0
 1049 005c 15F8011F 		ldrb	r1, [r5, #1]!	@ zero_extendqisi2
 1050              	.LVL104:
 1051 0060 0029     		cmp	r1, #0
 1052 0062 F7D1     		bne	.L143
 1053              	.LBE114:
 1054              	.LBE113:
 1055              		.loc 1 327 0
 1056 0064 8F48     		ldr	r0, .L169+36
 1057 0066 904D     		ldr	r5, .L169+40
 1058              	.LVL105:
 1059 0068 FFF7FEFF 		bl	test_println
 1060              	.LVL106:
 1061              	.LBB115:
 1062              	.LBB116:
 1063              		.loc 1 112 0
 1064 006c 2A21     		movs	r1, #42
 1065              	.LVL107:
 1066              	.L144:
 1067              		.loc 1 113 0
 1068 006e 2068     		ldr	r0, [r4]
 1069              	.LVL108:
 1070 0070 0368     		ldr	r3, [r0]
 1071 0072 9B68     		ldr	r3, [r3, #8]
 1072 0074 9847     		blx	r3
 1073              	.LVL109:
 1074              		.loc 1 112 0
 1075 0076 15F8011F 		ldrb	r1, [r5, #1]!	@ zero_extendqisi2
ARM GAS  /tmp/ccApdq2Q.s 			page 20


 1076              	.LVL110:
 1077 007a 0029     		cmp	r1, #0
 1078 007c F7D1     		bne	.L144
 1079              	.LBE116:
 1080              	.LBE115:
 1081              		.loc 1 330 0
 1082 007e 8B48     		ldr	r0, .L169+44
 1083 0080 8B4D     		ldr	r5, .L169+48
 1084              	.LVL111:
 1085 0082 FFF7FEFF 		bl	test_println
 1086              	.LVL112:
 1087              	.LBB117:
 1088              	.LBB118:
 1089              		.loc 1 112 0
 1090 0086 2A21     		movs	r1, #42
 1091              	.LVL113:
 1092              	.L145:
 1093              		.loc 1 113 0
 1094 0088 2068     		ldr	r0, [r4]
 1095              	.LVL114:
 1096 008a 0368     		ldr	r3, [r0]
 1097 008c 9B68     		ldr	r3, [r3, #8]
 1098 008e 9847     		blx	r3
 1099              	.LVL115:
 1100              		.loc 1 112 0
 1101 0090 15F8011F 		ldrb	r1, [r5, #1]!	@ zero_extendqisi2
 1102              	.LVL116:
 1103 0094 0029     		cmp	r1, #0
 1104 0096 F7D1     		bne	.L145
 1105              	.LBE118:
 1106              	.LBE117:
 1107              		.loc 1 333 0
 1108 0098 8648     		ldr	r0, .L169+52
 1109 009a 874D     		ldr	r5, .L169+56
 1110              	.LVL117:
 1111 009c FFF7FEFF 		bl	test_println
 1112              	.LVL118:
 1113              	.LBB119:
 1114              	.LBB120:
 1115              		.loc 1 112 0
 1116 00a0 2A21     		movs	r1, #42
 1117              	.LVL119:
 1118              	.L146:
 1119              		.loc 1 113 0
 1120 00a2 2068     		ldr	r0, [r4]
 1121              	.LVL120:
 1122 00a4 0368     		ldr	r3, [r0]
 1123 00a6 9B68     		ldr	r3, [r3, #8]
 1124 00a8 9847     		blx	r3
 1125              	.LVL121:
 1126              		.loc 1 112 0
 1127 00aa 15F8011F 		ldrb	r1, [r5, #1]!	@ zero_extendqisi2
 1128              	.LVL122:
 1129 00ae 0029     		cmp	r1, #0
 1130 00b0 F7D1     		bne	.L146
 1131              	.LBE120:
 1132              	.LBE119:
ARM GAS  /tmp/ccApdq2Q.s 			page 21


 1133              		.loc 1 337 0
 1134 00b2 8248     		ldr	r0, .L169+60
 1135 00b4 824D     		ldr	r5, .L169+64
 1136              	.LVL123:
 1137 00b6 FFF7FEFF 		bl	test_println
 1138              	.LVL124:
 1139              	.LBB121:
 1140              	.LBB122:
 1141              		.loc 1 112 0
 1142 00ba 2A21     		movs	r1, #42
 1143              	.LVL125:
 1144              	.L147:
 1145              		.loc 1 113 0
 1146 00bc 2068     		ldr	r0, [r4]
 1147              	.LVL126:
 1148 00be 0368     		ldr	r3, [r0]
 1149 00c0 9B68     		ldr	r3, [r3, #8]
 1150 00c2 9847     		blx	r3
 1151              	.LVL127:
 1152              		.loc 1 112 0
 1153 00c4 15F8011F 		ldrb	r1, [r5, #1]!	@ zero_extendqisi2
 1154              	.LVL128:
 1155 00c8 0029     		cmp	r1, #0
 1156 00ca F7D1     		bne	.L147
 1157              	.LBE122:
 1158              	.LBE121:
 1159              		.loc 1 341 0
 1160 00cc 7D48     		ldr	r0, .L169+68
 1161 00ce 7E4D     		ldr	r5, .L169+72
 1162              	.LVL129:
 1163 00d0 FFF7FEFF 		bl	test_println
 1164              	.LVL130:
 1165              	.LBB123:
 1166              	.LBB124:
 1167              		.loc 1 112 0
 1168 00d4 2A21     		movs	r1, #42
 1169              	.LVL131:
 1170              	.L148:
 1171              		.loc 1 113 0
 1172 00d6 2068     		ldr	r0, [r4]
 1173              	.LVL132:
 1174 00d8 0368     		ldr	r3, [r0]
 1175 00da 9B68     		ldr	r3, [r3, #8]
 1176 00dc 9847     		blx	r3
 1177              	.LVL133:
 1178              		.loc 1 112 0
 1179 00de 15F8011F 		ldrb	r1, [r5, #1]!	@ zero_extendqisi2
 1180              	.LVL134:
 1181 00e2 0029     		cmp	r1, #0
 1182 00e4 F7D1     		bne	.L148
 1183 00e6 794A     		ldr	r2, .L169+76
 1184              	.LBE124:
 1185              	.LBE123:
 1186              		.loc 1 345 0
 1187 00e8 7948     		ldr	r0, .L169+80
 1188 00ea 0191     		str	r1, [sp, #4]
 1189 00ec 0392     		str	r2, [sp, #12]
ARM GAS  /tmp/ccApdq2Q.s 			page 22


 1190 00ee FFF7FEFF 		bl	test_println
 1191              	.LVL135:
 1192              		.loc 1 347 0
 1193 00f2 6548     		ldr	r0, .L169+8
 1194              	.LBB125:
 1195              	.LBB126:
 1196              		.loc 1 113 0
 1197 00f4 DFF888B1 		ldr	fp, .L169
 1198              	.LBE126:
 1199              	.LBE125:
 1200              		.loc 1 349 0
 1201 00f8 764F     		ldr	r7, .L169+84
 1202              		.loc 1 347 0
 1203 00fa FFF7FEFF 		bl	test_println
 1204              	.LVL136:
 1205              		.loc 1 349 0
 1206 00fe 764B     		ldr	r3, .L169+88
 1207              		.loc 1 350 0
 1208 0100 0199     		ldr	r1, [sp, #4]
 1209 0102 0291     		str	r1, [sp, #8]
 1210              		.loc 1 349 0
 1211 0104 1970     		strb	r1, [r3]
 1212              	.LVL137:
 1213              	.L149:
 1214 0106 029B     		ldr	r3, [sp, #8]
 1215 0108 0133     		adds	r3, r3, #1
 1216 010a 0293     		str	r3, [sp, #8]
 1217              	.LVL138:
 1218              	.LBB128:
 1219              	.LBB129:
 1220              		.loc 1 112 0 discriminator 1
 1221 010c 4FF00008 		mov	r8, #0
 1222              	.LVL139:
 1223              	.L138:
 1224              	.LBE129:
 1225              	.LBE128:
 1226              		.loc 1 353 0 discriminator 1
 1227 0110 57F8043B 		ldr	r3, [r7], #4
 1228 0114 002B     		cmp	r3, #0
 1229 0116 00F08680 		beq	.L167
 1230              	.L136:
 1231 011a 704D     		ldr	r5, .L169+92
 1232              		.loc 1 354 0
 1233 011c FFF7FEFF 		bl	print_line
 1234              	.LVL140:
 1235              	.LBB131:
 1236              	.LBB127:
 1237              		.loc 1 112 0
 1238 0120 2D21     		movs	r1, #45
 1239              	.LVL141:
 1240              	.L120:
 1241              		.loc 1 113 0
 1242 0122 2068     		ldr	r0, [r4]
 1243              	.LVL142:
 1244 0124 0368     		ldr	r3, [r0]
 1245 0126 9B68     		ldr	r3, [r3, #8]
 1246 0128 9847     		blx	r3
ARM GAS  /tmp/ccApdq2Q.s 			page 23


 1247              	.LVL143:
 1248              		.loc 1 112 0
 1249 012a 15F8011F 		ldrb	r1, [r5, #1]!	@ zero_extendqisi2
 1250              	.LVL144:
 1251 012e 0029     		cmp	r1, #0
 1252 0130 F7D1     		bne	.L120
 1253              	.LBE127:
 1254              	.LBE131:
 1255              		.loc 1 356 0
 1256 0132 0298     		ldr	r0, [sp, #8]
 1257 0134 6A4D     		ldr	r5, .L169+96
 1258              	.LVL145:
 1259 0136 FFF7FEFF 		bl	test_printn
 1260              	.LVL146:
 1261              	.LBB132:
 1262              	.LBB133:
 1263              		.loc 1 113 0
 1264 013a DBF80000 		ldr	r0, [fp]
 1265              	.LVL147:
 1266 013e 0368     		ldr	r3, [r0]
 1267 0140 2E21     		movs	r1, #46
 1268 0142 9B68     		ldr	r3, [r3, #8]
 1269              	.LBE133:
 1270              	.LBE132:
 1271              		.loc 1 358 0
 1272 0144 08F10108 		add	r8, r8, #1
 1273              	.LVL148:
 1274              	.LBB135:
 1275              	.LBB134:
 1276              		.loc 1 113 0
 1277 0148 9847     		blx	r3
 1278              	.LVL149:
 1279              	.LBE134:
 1280              	.LBE135:
 1281              		.loc 1 358 0
 1282 014a 4046     		mov	r0, r8
 1283 014c FFF7FEFF 		bl	test_printn
 1284              	.LVL150:
 1285              	.LBB136:
 1286              	.LBB137:
 1287              		.loc 1 112 0
 1288 0150 2021     		movs	r1, #32
 1289              	.LVL151:
 1290              	.L150:
 1291              		.loc 1 113 0
 1292 0152 2068     		ldr	r0, [r4]
 1293              	.LVL152:
 1294 0154 0368     		ldr	r3, [r0]
 1295 0156 9B68     		ldr	r3, [r3, #8]
 1296 0158 9847     		blx	r3
 1297              	.LVL153:
 1298              		.loc 1 112 0
 1299 015a 15F8011F 		ldrb	r1, [r5, #1]!	@ zero_extendqisi2
 1300              	.LVL154:
 1301 015e 0029     		cmp	r1, #0
 1302 0160 F7D1     		bne	.L150
 1303              	.LBE137:
ARM GAS  /tmp/ccApdq2Q.s 			page 24


 1304              	.LBE136:
 1305              		.loc 1 360 0
 1306 0162 57F8043C 		ldr	r3, [r7, #-4]
 1307 0166 1D68     		ldr	r5, [r3]
 1308              	.LVL155:
 1309              	.LBB138:
 1310              	.LBB139:
 1311              		.loc 1 112 0
 1312 0168 2978     		ldrb	r1, [r5]	@ zero_extendqisi2
 1313 016a 39B1     		cbz	r1, .L125
 1314              	.LVL156:
 1315              	.L126:
 1316              		.loc 1 113 0
 1317 016c 2068     		ldr	r0, [r4]
 1318              	.LVL157:
 1319 016e 0368     		ldr	r3, [r0]
 1320 0170 9B68     		ldr	r3, [r3, #8]
 1321 0172 9847     		blx	r3
 1322              	.LVL158:
 1323              		.loc 1 112 0
 1324 0174 15F8011F 		ldrb	r1, [r5, #1]!	@ zero_extendqisi2
 1325              	.LVL159:
 1326 0178 0029     		cmp	r1, #0
 1327 017a F7D1     		bne	.L126
 1328              	.LVL160:
 1329              	.L125:
 1330              	.LBE139:
 1331              	.LBE138:
 1332              		.loc 1 361 0
 1333 017c 5948     		ldr	r0, .L169+100
 1334              	.LBB140:
 1335              	.LBB141:
 1336              		.loc 1 287 0
 1337 017e 5A4D     		ldr	r5, .L169+104
 1338              	.LBB142:
 1339              	.LBB143:
 1340              		.loc 1 132 0
 1341 0180 5A4E     		ldr	r6, .L169+108
 1342 0182 DFF89491 		ldr	r9, .L169+152
 1343              	.LBE143:
 1344              	.LBE142:
 1345              	.LBE141:
 1346              	.LBE140:
 1347              		.loc 1 361 0
 1348 0186 FFF7FEFF 		bl	test_println
 1349              	.LVL161:
 1350              		.loc 1 363 0
 1351 018a C820     		movs	r0, #200
 1352 018c FFF7FEFF 		bl	chThdSleep
 1353              	.LVL162:
 1354              	.LBB148:
 1355              	.LBB146:
 1356              		.loc 1 289 0
 1357 0190 574A     		ldr	r2, .L169+112
 1358              	.LBE146:
 1359              	.LBE148:
 1360              		.loc 1 365 0
ARM GAS  /tmp/ccApdq2Q.s 			page 25


 1361 0192 57F804AC 		ldr	r10, [r7, #-4]
 1362              	.LVL163:
 1363              	.LBB149:
 1364              	.LBB147:
 1365              	.LBB145:
 1366              	.LBB144:
 1367              		.loc 1 132 0
 1368 0196 C6F80090 		str	r9, [r6]
 1369              	.LBE144:
 1370              	.LBE145:
 1371              		.loc 1 287 0
 1372 019a 0023     		movs	r3, #0
 1373              		.loc 1 289 0
 1374 019c 1360     		str	r3, [r2]
 1375 019e 5360     		str	r3, [r2, #4]
 1376 01a0 9360     		str	r3, [r2, #8]
 1377 01a2 D360     		str	r3, [r2, #12]
 1378 01a4 1361     		str	r3, [r2, #16]
 1379              		.loc 1 291 0
 1380 01a6 DAF80420 		ldr	r2, [r10, #4]
 1381              		.loc 1 287 0
 1382 01aa 2B70     		strb	r3, [r5]
 1383              	.LVL164:
 1384              		.loc 1 291 0
 1385 01ac 02B1     		cbz	r2, .L124
 1386              		.loc 1 292 0
 1387 01ae 9047     		blx	r2
 1388              	.LVL165:
 1389              	.L124:
 1390              		.loc 1 293 0
 1391 01b0 DAF80C30 		ldr	r3, [r10, #12]
 1392 01b4 9847     		blx	r3
 1393              	.LVL166:
 1394              		.loc 1 294 0
 1395 01b6 DAF80830 		ldr	r3, [r10, #8]
 1396 01ba 03B1     		cbz	r3, .L127
 1397              		.loc 1 295 0
 1398 01bc 9847     		blx	r3
 1399              	.LVL167:
 1400              	.L127:
 1401              		.loc 1 297 0
 1402 01be FFF7FEFF 		bl	test_wait_threads
 1403              	.LVL168:
 1404              	.LBE147:
 1405              	.LBE149:
 1406              		.loc 1 366 0
 1407 01c2 2B78     		ldrb	r3, [r5]	@ zero_extendqisi2
 1408 01c4 002B     		cmp	r3, #0
 1409 01c6 4FD0     		beq	.L128
 1410 01c8 4A4D     		ldr	r5, .L169+116
 1411              	.LBB150:
 1412              	.LBB151:
 1413              		.loc 1 112 0
 1414 01ca 2D21     		movs	r1, #45
 1415              	.L130:
 1416              	.LVL169:
 1417              		.loc 1 113 0
ARM GAS  /tmp/ccApdq2Q.s 			page 26


 1418 01cc 2068     		ldr	r0, [r4]
 1419              	.LVL170:
 1420 01ce 0368     		ldr	r3, [r0]
 1421 01d0 9B68     		ldr	r3, [r3, #8]
 1422 01d2 9847     		blx	r3
 1423              	.LVL171:
 1424              		.loc 1 112 0
 1425 01d4 15F8011F 		ldrb	r1, [r5, #1]!	@ zero_extendqisi2
 1426              	.LVL172:
 1427 01d8 0029     		cmp	r1, #0
 1428 01da F7D1     		bne	.L130
 1429              	.LBE151:
 1430              	.LBE150:
 1431              		.loc 1 368 0
 1432 01dc 464B     		ldr	r3, .L169+120
 1433 01de 474D     		ldr	r5, .L169+124
 1434              	.LVL173:
 1435 01e0 1868     		ldr	r0, [r3]
 1436 01e2 FFF7FEFF 		bl	test_printn
 1437              	.LVL174:
 1438              	.LBB152:
 1439              	.LBB130:
 1440              		.loc 1 112 0
 1441 01e6 2021     		movs	r1, #32
 1442              	.LVL175:
 1443              	.L151:
 1444              		.loc 1 113 0
 1445 01e8 2068     		ldr	r0, [r4]
 1446              	.LVL176:
 1447 01ea 0368     		ldr	r3, [r0]
 1448 01ec 9B68     		ldr	r3, [r3, #8]
 1449 01ee 9847     		blx	r3
 1450              	.LVL177:
 1451              		.loc 1 112 0
 1452 01f0 15F8011F 		ldrb	r1, [r5, #1]!	@ zero_extendqisi2
 1453              	.LVL178:
 1454 01f4 0029     		cmp	r1, #0
 1455 01f6 F7D1     		bne	.L151
 1456              	.LVL179:
 1457              	.LBE130:
 1458              	.LBE152:
 1459              	.LBB153:
 1460              	.LBB154:
 1461              		.loc 1 138 0
 1462 01f8 3368     		ldr	r3, [r6]
 1463 01fa 4B45     		cmp	r3, r9
 1464 01fc 0BD9     		bls	.L134
 1465 01fe 404D     		ldr	r5, .L169+128
 1466              	.LVL180:
 1467              	.L135:
 1468              		.loc 1 139 0
 1469 0200 2068     		ldr	r0, [r4]
 1470 0202 15F8011C 		ldrb	r1, [r5, #-1]	@ zero_extendqisi2
 1471 0206 0368     		ldr	r3, [r0]
 1472 0208 9B68     		ldr	r3, [r3, #8]
 1473 020a 9847     		blx	r3
 1474              	.LVL181:
ARM GAS  /tmp/ccApdq2Q.s 			page 27


 1475              		.loc 1 138 0
 1476 020c 3368     		ldr	r3, [r6]
 1477              	.LVL182:
 1478 020e 9D42     		cmp	r5, r3
 1479 0210 05F10105 		add	r5, r5, #1
 1480              	.LVL183:
 1481 0214 F4D3     		bcc	.L135
 1482              	.LVL184:
 1483              	.L134:
 1484              	.LBE154:
 1485              	.LBE153:
 1486              		.loc 1 371 0
 1487 0216 3B48     		ldr	r0, .L169+132
 1488 0218 FFF7FEFF 		bl	test_println
 1489              	.LVL185:
 1490              		.loc 1 353 0
 1491 021c 57F8043B 		ldr	r3, [r7], #4
 1492 0220 002B     		cmp	r3, #0
 1493 0222 7FF47AAF 		bne	.L136
 1494              	.LVL186:
 1495              	.L167:
 1496              		.loc 1 351 0
 1497 0226 039A     		ldr	r2, [sp, #12]
 1498 0228 52F8047F 		ldr	r7, [r2, #4]!
 1499 022c 0392     		str	r2, [sp, #12]
 1500 022e 002F     		cmp	r7, #0
 1501 0230 7FF469AF 		bne	.L149
 1502              		.loc 1 379 0
 1503 0234 FFF7FEFF 		bl	print_line
 1504              	.LVL187:
 1505 0238 334D     		ldr	r5, .L169+136
 1506              		.loc 1 380 0
 1507 023a 1348     		ldr	r0, .L169+8
 1508 023c FFF7FEFF 		bl	test_println
 1509              	.LVL188:
 1510              	.LBB155:
 1511              	.LBB156:
 1512              		.loc 1 112 0
 1513 0240 4621     		movs	r1, #70
 1514              	.LVL189:
 1515              	.L152:
 1516              		.loc 1 113 0
 1517 0242 2068     		ldr	r0, [r4]
 1518              	.LVL190:
 1519 0244 0368     		ldr	r3, [r0]
 1520 0246 9B68     		ldr	r3, [r3, #8]
 1521 0248 9847     		blx	r3
 1522              	.LVL191:
 1523              		.loc 1 112 0
 1524 024a 15F8011F 		ldrb	r1, [r5, #1]!	@ zero_extendqisi2
 1525              	.LVL192:
 1526 024e 0029     		cmp	r1, #0
 1527 0250 F7D1     		bne	.L152
 1528              	.LBE156:
 1529              	.LBE155:
 1530              		.loc 1 382 0
 1531 0252 214A     		ldr	r2, .L169+88
ARM GAS  /tmp/ccApdq2Q.s 			page 28


 1532 0254 1378     		ldrb	r3, [r2]	@ zero_extendqisi2
 1533 0256 5BB9     		cbnz	r3, .L168
 1534              		.loc 1 385 0
 1535 0258 2C48     		ldr	r0, .L169+140
 1536 025a FFF7FEFF 		bl	test_println
 1537              	.LVL193:
 1538              		.loc 1 387 0
 1539 025e 1E4B     		ldr	r3, .L169+88
 1540 0260 1878     		ldrb	r0, [r3]	@ zero_extendqisi2
 1541              		.loc 1 388 0
 1542 0262 05B0     		add	sp, sp, #20
 1543              		@ sp needed
 1544 0264 BDE8F08F 		pop	{r4, r5, r6, r7, r8, r9, r10, fp, pc}
 1545              	.LVL194:
 1546              	.L128:
 1547              		.loc 1 374 0
 1548 0268 2948     		ldr	r0, .L169+144
 1549 026a FFF7FEFF 		bl	test_println
 1550              	.LVL195:
 1551 026e 4FE7     		b	.L138
 1552              	.LVL196:
 1553              	.L168:
 1554              		.loc 1 383 0
 1555 0270 2848     		ldr	r0, .L169+148
 1556 0272 FFF7FEFF 		bl	test_println
 1557              	.LVL197:
 1558              		.loc 1 387 0
 1559 0276 184B     		ldr	r3, .L169+88
 1560 0278 1878     		ldrb	r0, [r3]	@ zero_extendqisi2
 1561              		.loc 1 388 0
 1562 027a 05B0     		add	sp, sp, #20
 1563              		@ sp needed
 1564 027c BDE8F08F 		pop	{r4, r5, r6, r7, r8, r9, r10, fp, pc}
 1565              	.LVL198:
 1566              	.L170:
 1567              		.align	2
 1568              	.L169:
 1569 0280 00000000 		.word	.LANCHOR1
 1570 0284 28000000 		.word	.LC4
 1571 0288 04000000 		.word	.LC1
 1572 028c 08000000 		.word	.LC2
 1573 0290 24000000 		.word	.LC3
 1574 0294 90000000 		.word	.LC12
 1575 0298 98000000 		.word	.LC13
 1576 029c AC000000 		.word	.LC14
 1577 02a0 C4000000 		.word	.LC15
 1578 02a4 D8000000 		.word	.LC16
 1579 02a8 20010000 		.word	.LC17
 1580 02ac 34010000 		.word	.LC18
 1581 02b0 40010000 		.word	.LC19
 1582 02b4 54010000 		.word	.LC20
 1583 02b8 60010000 		.word	.LC21
 1584 02bc 74010000 		.word	.LC22
 1585 02c0 8C010000 		.word	.LC23
 1586 02c4 A0010000 		.word	.LC24
 1587 02c8 D4010000 		.word	.LC25
 1588 02cc 00000000 		.word	.LANCHOR9
ARM GAS  /tmp/ccApdq2Q.s 			page 29


 1589 02d0 E8010000 		.word	.LC26
 1590 02d4 00000000 		.word	patternthd
 1591 02d8 00000000 		.word	.LANCHOR4
 1592 02dc 3C000000 		.word	.LC5
 1593 02e0 FC010000 		.word	.LC27
 1594 02e4 4C000000 		.word	.LC6
 1595 02e8 00000000 		.word	.LANCHOR3
 1596 02ec 00000000 		.word	.LANCHOR2
 1597 02f0 00000000 		.word	.LANCHOR7
 1598 02f4 50000000 		.word	.LC7
 1599 02f8 00000000 		.word	.LANCHOR5
 1600 02fc 00020000 		.word	.LC28
 1601 0300 01000000 		.word	.LANCHOR6+1
 1602 0304 68000000 		.word	.LC8
 1603 0308 04020000 		.word	.LC29
 1604 030c 88000000 		.word	.LC11
 1605 0310 6C000000 		.word	.LC9
 1606 0314 80000000 		.word	.LC10
 1607 0318 00000000 		.word	.LANCHOR6
 1608              		.cfi_endproc
 1609              	.LFE136:
 1610              		.size	TestThread, .-TestThread
 1611              		.global	test_timer_done
 1612              		.global	wa
 1613              		.global	threads
 1614              		.global	test
 1615 031c AFF30080 		.section	.bss.test,"aw",%nobits
 1616              		.align	3
 1617              		.type	test, %object
 1618              		.size	test, 1680
 1619              	test:
 1620 0000 00000000 		.space	1680
 1620      00000000 
 1620      00000000 
 1620      00000000 
 1620      00000000 
 1621              		.section	.bss.failpoint,"aw",%nobits
 1622              		.align	2
 1623              		.set	.LANCHOR5,. + 0
 1624              		.type	failpoint, %object
 1625              		.size	failpoint, 4
 1626              	failpoint:
 1627 0000 00000000 		.space	4
 1628              		.section	.bss.local_fail,"aw",%nobits
 1629              		.set	.LANCHOR3,. + 0
 1630              		.type	local_fail, %object
 1631              		.size	local_fail, 1
 1632              	local_fail:
 1633 0000 00       		.space	1
 1634              		.section	.bss.test_timer_done,"aw",%nobits
 1635              		.set	.LANCHOR0,. + 0
 1636              		.type	test_timer_done, %object
 1637              		.size	test_timer_done, 1
 1638              	test_timer_done:
 1639 0000 00       		.space	1
 1640              		.section	.rodata.wa,"a",%progbits
 1641              		.align	2
ARM GAS  /tmp/ccApdq2Q.s 			page 30


 1642              		.type	wa, %object
 1643              		.size	wa, 20
 1644              	wa:
 1645 0000 00000000 		.word	test
 1646 0004 50010000 		.word	test+336
 1647 0008 A0020000 		.word	test+672
 1648 000c F0030000 		.word	test+1008
 1649 0010 40050000 		.word	test+1344
 1650              		.section	.bss.tokp,"aw",%nobits
 1651              		.align	2
 1652              		.set	.LANCHOR2,. + 0
 1653              		.type	tokp, %object
 1654              		.size	tokp, 4
 1655              	tokp:
 1656 0000 00000000 		.space	4
 1657              		.section	.bss.global_fail,"aw",%nobits
 1658              		.set	.LANCHOR4,. + 0
 1659              		.type	global_fail, %object
 1660              		.size	global_fail, 1
 1661              	global_fail:
 1662 0000 00       		.space	1
 1663              		.section	.rodata.str1.4,"aMS",%progbits,1
 1664              		.align	2
 1665              	.LC0:
 1666 0000 0D0A00   		.ascii	"\015\012\000"
 1667 0003 00       		.space	1
 1668              	.LC1:
 1669 0004 00       		.ascii	"\000"
 1670 0005 000000   		.space	3
 1671              	.LC2:
 1672 0008 2A2A2A20 		.ascii	"*** ChibiOS/RT test suite\000"
 1672      43686962 
 1672      694F532F 
 1672      52542074 
 1672      65737420 
 1673 0022 0000     		.space	2
 1674              	.LC3:
 1675 0024 2A2A2A00 		.ascii	"***\000"
 1676              	.LC4:
 1677 0028 2A2A2A20 		.ascii	"*** Kernel:       \000"
 1677      4B65726E 
 1677      656C3A20 
 1677      20202020 
 1677      202000
 1678 003b 00       		.space	1
 1679              	.LC5:
 1680 003c 2D2D2D20 		.ascii	"--- Test Case \000"
 1680      54657374 
 1680      20436173 
 1680      652000
 1681 004b 00       		.space	1
 1682              	.LC6:
 1683 004c 2900     		.ascii	")\000"
 1684 004e 0000     		.space	2
 1685              	.LC7:
 1686 0050 2D2D2D20 		.ascii	"--- Result: FAILURE (#\000"
 1686      52657375 
ARM GAS  /tmp/ccApdq2Q.s 			page 31


 1686      6C743A20 
 1686      4641494C 
 1686      55524520 
 1687 0067 00       		.space	1
 1688              	.LC8:
 1689 0068 5D2900   		.ascii	"])\000"
 1690 006b 00       		.space	1
 1691              	.LC9:
 1692 006c 2D2D2D20 		.ascii	"--- Result: SUCCESS\000"
 1692      52657375 
 1692      6C743A20 
 1692      53554343 
 1692      45535300 
 1693              	.LC10:
 1694 0080 4641494C 		.ascii	"FAILURE\000"
 1694      55524500 
 1695              	.LC11:
 1696 0088 53554343 		.ascii	"SUCCESS\000"
 1696      45535300 
 1697              	.LC12:
 1698 0090 322E362E 		.ascii	"2.6.5\000"
 1698      3500
 1699 0096 0000     		.space	2
 1700              	.LC13:
 1701 0098 2A2A2A20 		.ascii	"*** Compiled:     \000"
 1701      436F6D70 
 1701      696C6564 
 1701      3A202020 
 1701      202000
 1702 00ab 00       		.space	1
 1703              	.LC14:
 1704 00ac 41756720 		.ascii	"Aug 22 2014 - 07:45:34\000"
 1704      32322032 
 1704      30313420 
 1704      2D203037 
 1704      3A34353A 
 1705 00c3 00       		.space	1
 1706              	.LC15:
 1707 00c4 2A2A2A20 		.ascii	"*** Compiler:     \000"
 1707      436F6D70 
 1707      696C6572 
 1707      3A202020 
 1707      202000
 1708 00d7 00       		.space	1
 1709              	.LC16:
 1710 00d8 47434320 		.ascii	"GCC 4.8.4 20140526 (release) [ARM/embedded-4_8-bran"
 1710      342E382E 
 1710      34203230 
 1710      31343035 
 1710      32362028 
 1711 010b 63682072 		.ascii	"ch revision 211358]\000"
 1711      65766973 
 1711      696F6E20 
 1711      32313133 
 1711      35385D00 
 1712 011f 00       		.space	1
 1713              	.LC17:
ARM GAS  /tmp/ccApdq2Q.s 			page 32


 1714 0120 2A2A2A20 		.ascii	"*** Architecture: \000"
 1714      41726368 
 1714      69746563 
 1714      74757265 
 1714      3A2000
 1715 0133 00       		.space	1
 1716              	.LC18:
 1717 0134 41524D76 		.ascii	"ARMv7-ME\000"
 1717      372D4D45 
 1717      00
 1718 013d 000000   		.space	3
 1719              	.LC19:
 1720 0140 2A2A2A20 		.ascii	"*** Core Variant: \000"
 1720      436F7265 
 1720      20566172 
 1720      69616E74 
 1720      3A2000
 1721 0153 00       		.space	1
 1722              	.LC20:
 1723 0154 436F7274 		.ascii	"Cortex-M4\000"
 1723      65782D4D 
 1723      3400
 1724 015e 0000     		.space	2
 1725              	.LC21:
 1726 0160 2A2A2A20 		.ascii	"*** Port Info:    \000"
 1726      506F7274 
 1726      20496E66 
 1726      6F3A2020 
 1726      202000
 1727 0173 00       		.space	1
 1728              	.LC22:
 1729 0174 41647661 		.ascii	"Advanced kernel mode\000"
 1729      6E636564 
 1729      206B6572 
 1729      6E656C20 
 1729      6D6F6465 
 1730 0189 000000   		.space	3
 1731              	.LC23:
 1732 018c 2A2A2A20 		.ascii	"*** Platform:     \000"
 1732      506C6174 
 1732      666F726D 
 1732      3A202020 
 1732      202000
 1733 019f 00       		.space	1
 1734              	.LC24:
 1735 01a0 53544D33 		.ascii	"STM32F407/F417 High Performance with DSP and FPU\000"
 1735      32463430 
 1735      372F4634 
 1735      31372048 
 1735      69676820 
 1736 01d1 000000   		.space	3
 1737              	.LC25:
 1738 01d4 2A2A2A20 		.ascii	"*** Test Board:   \000"
 1738      54657374 
 1738      20426F61 
 1738      72643A20 
 1738      202000
ARM GAS  /tmp/ccApdq2Q.s 			page 33


 1739 01e7 00       		.space	1
 1740              	.LC26:
 1741 01e8 4F6C696D 		.ascii	"Olimex STM32-E407\000"
 1741      65782053 
 1741      544D3332 
 1741      2D453430 
 1741      3700
 1742 01fa 0000     		.space	2
 1743              	.LC27:
 1744 01fc 202800   		.ascii	" (\000"
 1745 01ff 00       		.space	1
 1746              	.LC28:
 1747 0200 205B00   		.ascii	" [\000"
 1748 0203 00       		.space	1
 1749              	.LC29:
 1750 0204 46696E61 		.ascii	"Final result: \000"
 1750      6C207265 
 1750      73756C74 
 1750      3A2000
 1751 0213 00       		.section	.bss.vt,"aw",%nobits
 1752              		.align	2
 1753              		.set	.LANCHOR8,. + 0
 1754              		.type	vt, %object
 1755              		.size	vt, 20
 1756              	vt:
 1757 0000 00000000 		.space	20
 1757      00000000 
 1757      00000000 
 1757      00000000 
 1757      00000000 
 1758              		.section	.bss.threads,"aw",%nobits
 1759              		.align	2
 1760              		.set	.LANCHOR7,. + 0
 1761              		.type	threads, %object
 1762              		.size	threads, 20
 1763              	threads:
 1764 0000 00000000 		.space	20
 1764      00000000 
 1764      00000000 
 1764      00000000 
 1764      00000000 
 1765              		.section	.rodata.patterns,"a",%progbits
 1766              		.align	2
 1767              		.set	.LANCHOR9,. + 0
 1768              		.type	patterns, %object
 1769              		.size	patterns, 48
 1770              	patterns:
 1771 0000 00000000 		.word	patternthd
 1772 0004 00000000 		.word	patternsem
 1773 0008 00000000 		.word	patternmtx
 1774 000c 00000000 		.word	patternmsg
 1775 0010 00000000 		.word	patternmbox
 1776 0014 00000000 		.word	patternevt
 1777 0018 00000000 		.word	patternheap
 1778 001c 00000000 		.word	patternpools
 1779 0020 00000000 		.word	patterndyn
 1780 0024 00000000 		.word	patternqueues
ARM GAS  /tmp/ccApdq2Q.s 			page 34


 1781 0028 00000000 		.word	patternbmk
 1782 002c 00000000 		.word	0
 1783              		.section	.bss.chp,"aw",%nobits
 1784              		.align	2
 1785              		.set	.LANCHOR1,. + 0
 1786              		.type	chp, %object
 1787              		.size	chp, 4
 1788              	chp:
 1789 0000 00000000 		.space	4
 1790              		.section	.bss.tokens_buffer,"aw",%nobits
 1791              		.align	2
 1792              		.set	.LANCHOR6,. + 0
 1793              		.type	tokens_buffer, %object
 1794              		.size	tokens_buffer, 16
 1795              	tokens_buffer:
 1796 0000 00000000 		.space	16
 1796      00000000 
 1796      00000000 
 1796      00000000 
 1797              		.text
 1798              	.Letext0:
 1799              		.file 2 "/opt/ARM/lib/gcc/arm-none-eabi/4.8.4/include/stddef.h"
 1800              		.file 3 "/opt/ARM/arm-none-eabi/include/machine/_default_types.h"
 1801              		.file 4 "/opt/ARM/arm-none-eabi/include/stdint.h"
 1802              		.file 5 "../../../os/ports/GCC/ARMCMx/chtypes.h"
 1803              		.file 6 "../../../os/kernel/include/chlists.h"
 1804              		.file 7 "../../../os/kernel/include/chthreads.h"
 1805              		.file 8 "../../../os/ports/GCC/ARMCMx/chcore_v7m.h"
 1806              		.file 9 "../../../os/kernel/include/chvt.h"
 1807              		.file 10 "../../../os/kernel/include/chschd.h"
 1808              		.file 11 "../../../os/kernel/include/chmtx.h"
 1809              		.file 12 "../../../os/kernel/include/chstreams.h"
 1810              		.file 13 "../../../test/test.h"
 1811              		.file 14 "../../../os/ports/common/ARMCMx/CMSIS/include/core_cm4.h"
 1812              		.file 15 "../../../test/testthd.h"
 1813              		.file 16 "../../../test/testsem.h"
 1814              		.file 17 "../../../test/testmtx.h"
 1815              		.file 18 "../../../test/testmsg.h"
 1816              		.file 19 "../../../test/testmbox.h"
 1817              		.file 20 "../../../test/testevt.h"
 1818              		.file 21 "../../../test/testheap.h"
 1819              		.file 22 "../../../test/testpools.h"
 1820              		.file 23 "../../../test/testdyn.h"
 1821              		.file 24 "../../../test/testqueues.h"
 1822              		.file 25 "../../../test/testbmk.h"
 1823              		.file 26 "../../../os/kernel/include/chdebug.h"
