ARM GAS  /tmp/ccBvmeYq.s 			page 1


   1              		.syntax unified
   2              		.cpu cortex-m4
   3              		.fpu softvfp
   4              		.eabi_attribute 20, 1
   5              		.eabi_attribute 21, 1
   6              		.eabi_attribute 23, 3
   7              		.eabi_attribute 24, 1
   8              		.eabi_attribute 25, 1
   9              		.eabi_attribute 26, 1
  10              		.eabi_attribute 30, 2
  11              		.eabi_attribute 34, 1
  12              		.eabi_attribute 18, 4
  13              		.thumb
  14              		.file	"testsem.c"
  15              		.text
  16              	.Ltext0:
  17              		.cfi_sections	.debug_frame
  18              		.section	.text.sem1_execute,"ax",%progbits
  19              		.align	2
  20              		.p2align 4,,15
  21              		.thumb
  22              		.thumb_func
  23              		.type	sem1_execute, %function
  24              	sem1_execute:
  25              	.LFB9:
  26              		.file 1 "../../../test/testsem.c"
  27              		.loc 1 84 0
  28              		.cfi_startproc
  29              		@ args = 0, pretend = 0, frame = 0
  30              		@ frame_needed = 0, uses_anonymous_args = 0
  31 0000 2DE9F043 		push	{r4, r5, r6, r7, r8, r9, lr}
  32              		.cfi_def_cfa_offset 28
  33              		.cfi_offset 4, -28
  34              		.cfi_offset 5, -24
  35              		.cfi_offset 6, -20
  36              		.cfi_offset 7, -16
  37              		.cfi_offset 8, -12
  38              		.cfi_offset 9, -8
  39              		.cfi_offset 14, -4
  40              		.loc 1 86 0
  41 0004 454E     		ldr	r6, .L5
  42 0006 464F     		ldr	r7, .L5+4
  43 0008 B369     		ldr	r3, [r6, #24]
  44 000a D7F80080 		ldr	r8, [r7]
  45 000e 9A68     		ldr	r2, [r3, #8]
  46 0010 DFF83091 		ldr	r9, .L5+40
  47 0014 434B     		ldr	r3, .L5+8
  48 0016 444D     		ldr	r5, .L5+12
  49              		.loc 1 91 0
  50 0018 444C     		ldr	r4, .L5+16
  51              		.loc 1 84 0
  52 001a 83B0     		sub	sp, sp, #12
  53              		.cfi_def_cfa_offset 40
  54              		.loc 1 86 0
  55 001c 0532     		adds	r2, r2, #5
  56 001e 4FF4A871 		mov	r1, #336
  57 0022 CDF80090 		str	r9, [sp]
ARM GAS  /tmp/ccBvmeYq.s 			page 2


  58 0026 4046     		mov	r0, r8
  59 0028 FFF7FEFF 		bl	chThdCreateStatic
  60              	.LVL0:
  61              		.loc 1 87 0
  62 002c B269     		ldr	r2, [r6, #24]
  63 002e 7B68     		ldr	r3, [r7, #4]
  64 0030 9268     		ldr	r2, [r2, #8]
  65 0032 3F49     		ldr	r1, .L5+20
  66              		.loc 1 86 0
  67 0034 2860     		str	r0, [r5]
  68              		.loc 1 87 0
  69 0036 0132     		adds	r2, r2, #1
  70 0038 1846     		mov	r0, r3
  71 003a 0091     		str	r1, [sp]
  72 003c 394B     		ldr	r3, .L5+8
  73 003e 4FF4A871 		mov	r1, #336
  74 0042 FFF7FEFF 		bl	chThdCreateStatic
  75              	.LVL1:
  76              		.loc 1 88 0
  77 0046 B269     		ldr	r2, [r6, #24]
  78 0048 BB68     		ldr	r3, [r7, #8]
  79 004a 9268     		ldr	r2, [r2, #8]
  80 004c 3949     		ldr	r1, .L5+24
  81              		.loc 1 87 0
  82 004e 6860     		str	r0, [r5, #4]
  83              		.loc 1 88 0
  84 0050 0332     		adds	r2, r2, #3
  85 0052 1846     		mov	r0, r3
  86 0054 0091     		str	r1, [sp]
  87 0056 334B     		ldr	r3, .L5+8
  88 0058 4FF4A871 		mov	r1, #336
  89 005c FFF7FEFF 		bl	chThdCreateStatic
  90              	.LVL2:
  91              		.loc 1 89 0
  92 0060 B269     		ldr	r2, [r6, #24]
  93 0062 FB68     		ldr	r3, [r7, #12]
  94 0064 9268     		ldr	r2, [r2, #8]
  95 0066 3449     		ldr	r1, .L5+28
  96              		.loc 1 88 0
  97 0068 A860     		str	r0, [r5, #8]
  98              		.loc 1 89 0
  99 006a 0432     		adds	r2, r2, #4
 100 006c 1846     		mov	r0, r3
 101 006e 0091     		str	r1, [sp]
 102 0070 2C4B     		ldr	r3, .L5+8
 103 0072 4FF4A871 		mov	r1, #336
 104 0076 FFF7FEFF 		bl	chThdCreateStatic
 105              	.LVL3:
 106              		.loc 1 90 0
 107 007a B269     		ldr	r2, [r6, #24]
 108 007c 3B69     		ldr	r3, [r7, #16]
 109 007e 9268     		ldr	r2, [r2, #8]
 110 0080 2E49     		ldr	r1, .L5+32
 111              		.loc 1 89 0
 112 0082 E860     		str	r0, [r5, #12]
 113              		.loc 1 90 0
 114 0084 0232     		adds	r2, r2, #2
ARM GAS  /tmp/ccBvmeYq.s 			page 3


 115 0086 1846     		mov	r0, r3
 116 0088 0091     		str	r1, [sp]
 117 008a 264B     		ldr	r3, .L5+8
 118 008c 4FF4A871 		mov	r1, #336
 119 0090 FFF7FEFF 		bl	chThdCreateStatic
 120              	.LVL4:
 121 0094 2861     		str	r0, [r5, #16]
 122              		.loc 1 91 0
 123 0096 2046     		mov	r0, r4
 124 0098 FFF7FEFF 		bl	chSemSignal
 125              	.LVL5:
 126              		.loc 1 92 0
 127 009c 2046     		mov	r0, r4
 128 009e FFF7FEFF 		bl	chSemSignal
 129              	.LVL6:
 130              		.loc 1 93 0
 131 00a2 2046     		mov	r0, r4
 132 00a4 FFF7FEFF 		bl	chSemSignal
 133              	.LVL7:
 134              		.loc 1 94 0
 135 00a8 2046     		mov	r0, r4
 136 00aa FFF7FEFF 		bl	chSemSignal
 137              	.LVL8:
 138              		.loc 1 95 0
 139 00ae 2046     		mov	r0, r4
 140 00b0 FFF7FEFF 		bl	chSemSignal
 141              	.LVL9:
 142              		.loc 1 96 0
 143 00b4 FFF7FEFF 		bl	test_wait_threads
 144              	.LVL10:
 145              		.loc 1 100 0
 146 00b8 0120     		movs	r0, #1
 147 00ba 2149     		ldr	r1, .L5+36
 148 00bc FFF7FEFF 		bl	_test_assert_sequence
 149              	.LVL11:
 150 00c0 0746     		mov	r7, r0
 151 00c2 10B1     		cbz	r0, .L4
 152              		.loc 1 109 0
 153 00c4 03B0     		add	sp, sp, #12
 154              		@ sp needed
 155 00c6 BDE8F083 		pop	{r4, r5, r6, r7, r8, r9, pc}
 156              	.L4:
 157              		.loc 1 102 0
 158 00ca B269     		ldr	r2, [r6, #24]
 159 00cc 154B     		ldr	r3, .L5+8
 160 00ce 9268     		ldr	r2, [r2, #8]
 161 00d0 CDF80090 		str	r9, [sp]
 162 00d4 0532     		adds	r2, r2, #5
 163 00d6 4046     		mov	r0, r8
 164 00d8 4FF4A871 		mov	r1, #336
 165 00dc FFF7FEFF 		bl	chThdCreateStatic
 166              	.LVL12:
 167              	.LBB2:
 168              		.loc 1 103 0
 169 00e0 2023     		movs	r3, #32
 170              	.LBE2:
 171              		.loc 1 102 0
ARM GAS  /tmp/ccBvmeYq.s 			page 4


 172 00e2 2860     		str	r0, [r5]
 173              	.LBB3:
 174              		.loc 1 103 0
 175              	@ 103 "../../../test/testsem.c" 1
 176 00e4 83F31188 		msr     BASEPRI, r3
 177              	@ 0 "" 2
 178              		.thumb
 179              	.LBE3:
 180 00e8 FFF7FEFF 		bl	dbg_check_lock
 181              	.LVL13:
 182              		.loc 1 104 0
 183 00ec 2046     		mov	r0, r4
 184 00ee 0221     		movs	r1, #2
 185 00f0 FFF7FEFF 		bl	chSemAddCounterI
 186              	.LVL14:
 187              		.loc 1 105 0
 188 00f4 FFF7FEFF 		bl	chSchRescheduleS
 189              	.LVL15:
 190              		.loc 1 106 0
 191 00f8 FFF7FEFF 		bl	dbg_check_unlock
 192              	.LVL16:
 193              	.LBB4:
 194 00fc 3B46     		mov	r3, r7
 195              	@ 106 "../../../test/testsem.c" 1
 196 00fe 83F31188 		msr     BASEPRI, r3
 197              	@ 0 "" 2
 198              		.thumb
 199              	.LBE4:
 200              		.loc 1 107 0
 201 0102 FFF7FEFF 		bl	test_wait_threads
 202              	.LVL17:
 203              		.loc 1 108 0
 204 0106 A168     		ldr	r1, [r4, #8]
 205 0108 4B1E     		subs	r3, r1, #1
 206 010a 5942     		rsbs	r1, r3, #0
 207 010c 4FF00200 		mov	r0, #2
 208 0110 5941     		adcs	r1, r1, r3
 209              		.loc 1 109 0
 210 0112 03B0     		add	sp, sp, #12
 211              		@ sp needed
 212 0114 BDE8F043 		pop	{r4, r5, r6, r7, r8, r9, lr}
 213              		.loc 1 108 0
 214 0118 FFF7FEBF 		b	_test_assert
 215              	.LVL18:
 216              	.L6:
 217              		.align	2
 218              	.L5:
 219 011c 00000000 		.word	rlist
 220 0120 00000000 		.word	wa
 221 0124 00000000 		.word	thread1
 222 0128 00000000 		.word	threads
 223 012c 00000000 		.word	.LANCHOR0
 224 0130 04000000 		.word	.LC1
 225 0134 08000000 		.word	.LC2
 226 0138 0C000000 		.word	.LC3
 227 013c 10000000 		.word	.LC4
 228 0140 14000000 		.word	.LC5
ARM GAS  /tmp/ccBvmeYq.s 			page 5


 229 0144 00000000 		.word	.LC0
 230              		.cfi_endproc
 231              	.LFE9:
 232              		.size	sem1_execute, .-sem1_execute
 233 0148 AFF30080 		.section	.text.thread3,"ax",%progbits
 233      AFF30080 
 234              		.align	2
 235              		.p2align 4,,15
 236              		.thumb
 237              		.thumb_func
 238              		.type	thread3, %function
 239              	thread3:
 240              	.LFB14:
 241              		.loc 1 210 0
 242              		.cfi_startproc
 243              		@ args = 0, pretend = 0, frame = 0
 244              		@ frame_needed = 0, uses_anonymous_args = 0
 245              	.LVL19:
 246 0000 10B5     		push	{r4, lr}
 247              		.cfi_def_cfa_offset 8
 248              		.cfi_offset 4, -8
 249              		.cfi_offset 14, -4
 250              		.loc 1 213 0
 251 0002 044C     		ldr	r4, .L8
 252 0004 2046     		mov	r0, r4
 253              	.LVL20:
 254 0006 FFF7FEFF 		bl	chSemWait
 255              	.LVL21:
 256              		.loc 1 214 0
 257 000a 2046     		mov	r0, r4
 258 000c FFF7FEFF 		bl	chSemSignal
 259              	.LVL22:
 260              		.loc 1 216 0
 261 0010 0020     		movs	r0, #0
 262 0012 10BD     		pop	{r4, pc}
 263              	.L9:
 264              		.align	2
 265              	.L8:
 266 0014 00000000 		.word	.LANCHOR0
 267              		.cfi_endproc
 268              	.LFE14:
 269              		.size	thread3, .-thread3
 270 0018 AFF30080 		.section	.text.thread1,"ax",%progbits
 270      AFF30080 
 271              		.align	2
 272              		.p2align 4,,15
 273              		.thumb
 274              		.thumb_func
 275              		.type	thread1, %function
 276              	thread1:
 277              	.LFB8:
 278              		.loc 1 77 0
 279              		.cfi_startproc
 280              		@ args = 0, pretend = 0, frame = 0
 281              		@ frame_needed = 0, uses_anonymous_args = 0
 282              	.LVL23:
 283 0000 10B5     		push	{r4, lr}
ARM GAS  /tmp/ccBvmeYq.s 			page 6


 284              		.cfi_def_cfa_offset 8
 285              		.cfi_offset 4, -8
 286              		.cfi_offset 14, -4
 287              		.loc 1 77 0
 288 0002 0446     		mov	r4, r0
 289              		.loc 1 79 0
 290 0004 0348     		ldr	r0, .L11
 291              	.LVL24:
 292 0006 FFF7FEFF 		bl	chSemWait
 293              	.LVL25:
 294              		.loc 1 80 0
 295 000a 2078     		ldrb	r0, [r4]	@ zero_extendqisi2
 296 000c FFF7FEFF 		bl	test_emit_token
 297              	.LVL26:
 298              		.loc 1 82 0
 299 0010 0020     		movs	r0, #0
 300 0012 10BD     		pop	{r4, pc}
 301              	.LVL27:
 302              	.L12:
 303              		.align	2
 304              	.L11:
 305 0014 00000000 		.word	.LANCHOR0
 306              		.cfi_endproc
 307              	.LFE8:
 308              		.size	thread1, .-thread1
 309 0018 AFF30080 		.section	.text.sem1_setup,"ax",%progbits
 309      AFF30080 
 310              		.align	2
 311              		.p2align 4,,15
 312              		.thumb
 313              		.thumb_func
 314              		.type	sem1_setup, %function
 315              	sem1_setup:
 316              	.LFB7:
 317              		.loc 1 72 0
 318              		.cfi_startproc
 319              		@ args = 0, pretend = 0, frame = 0
 320              		@ frame_needed = 0, uses_anonymous_args = 0
 321              		@ link register save eliminated.
 322              		.loc 1 74 0
 323 0000 0148     		ldr	r0, .L14
 324 0002 0021     		movs	r1, #0
 325 0004 FFF7FEBF 		b	chSemInit
 326              	.LVL28:
 327              	.L15:
 328              		.align	2
 329              	.L14:
 330 0008 00000000 		.word	.LANCHOR0
 331              		.cfi_endproc
 332              	.LFE7:
 333              		.size	sem1_setup, .-sem1_setup
 334 000c AFF30080 		.section	.text.sem2_setup,"ax",%progbits
 335              		.align	2
 336              		.p2align 4,,15
 337              		.thumb
 338              		.thumb_func
 339              		.type	sem2_setup, %function
ARM GAS  /tmp/ccBvmeYq.s 			page 7


 340              	sem2_setup:
 341              	.LFB10:
 342              		.loc 1 129 0
 343              		.cfi_startproc
 344              		@ args = 0, pretend = 0, frame = 0
 345              		@ frame_needed = 0, uses_anonymous_args = 0
 346              		@ link register save eliminated.
 347              		.loc 1 131 0
 348 0000 0148     		ldr	r0, .L17
 349 0002 0021     		movs	r1, #0
 350 0004 FFF7FEBF 		b	chSemInit
 351              	.LVL29:
 352              	.L18:
 353              		.align	2
 354              	.L17:
 355 0008 00000000 		.word	.LANCHOR0
 356              		.cfi_endproc
 357              	.LFE10:
 358              		.size	sem2_setup, .-sem2_setup
 359 000c AFF30080 		.section	.text.sem3_setup,"ax",%progbits
 360              		.align	2
 361              		.p2align 4,,15
 362              		.thumb
 363              		.thumb_func
 364              		.type	sem3_setup, %function
 365              	sem3_setup:
 366              	.LFB13:
 367              		.loc 1 205 0
 368              		.cfi_startproc
 369              		@ args = 0, pretend = 0, frame = 0
 370              		@ frame_needed = 0, uses_anonymous_args = 0
 371              		@ link register save eliminated.
 372              		.loc 1 207 0
 373 0000 0148     		ldr	r0, .L20
 374 0002 0021     		movs	r1, #0
 375 0004 FFF7FEBF 		b	chSemInit
 376              	.LVL30:
 377              	.L21:
 378              		.align	2
 379              	.L20:
 380 0008 00000000 		.word	.LANCHOR0
 381              		.cfi_endproc
 382              	.LFE13:
 383              		.size	sem3_setup, .-sem3_setup
 384 000c AFF30080 		.section	.text.thread2,"ax",%progbits
 385              		.align	2
 386              		.p2align 4,,15
 387              		.thumb
 388              		.thumb_func
 389              		.type	thread2, %function
 390              	thread2:
 391              	.LFB11:
 392              		.loc 1 134 0
 393              		.cfi_startproc
 394              		@ args = 0, pretend = 0, frame = 0
 395              		@ frame_needed = 0, uses_anonymous_args = 0
 396              	.LVL31:
ARM GAS  /tmp/ccBvmeYq.s 			page 8


 397 0000 08B5     		push	{r3, lr}
 398              		.cfi_def_cfa_offset 8
 399              		.cfi_offset 3, -8
 400              		.cfi_offset 14, -4
 401              		.loc 1 137 0
 402 0002 3220     		movs	r0, #50
 403              	.LVL32:
 404 0004 FFF7FEFF 		bl	chThdSleep
 405              	.LVL33:
 406              	.LBB5:
 407              		.loc 1 138 0
 408 0008 2023     		movs	r3, #32
 409              	@ 138 "../../../test/testsem.c" 1
 410 000a 83F31188 		msr     BASEPRI, r3
 411              	@ 0 "" 2
 412              		.thumb
 413              	.LBE5:
 414 000e FFF7FEFF 		bl	dbg_check_lock
 415              	.LVL34:
 416              		.loc 1 139 0
 417 0012 0648     		ldr	r0, .L23
 418 0014 FFF7FEFF 		bl	chSemSignalI
 419              	.LVL35:
 420              		.loc 1 140 0
 421 0018 FFF7FEFF 		bl	chSchRescheduleS
 422              	.LVL36:
 423              		.loc 1 141 0
 424 001c FFF7FEFF 		bl	dbg_check_unlock
 425              	.LVL37:
 426              	.LBB6:
 427 0020 0023     		movs	r3, #0
 428              	@ 141 "../../../test/testsem.c" 1
 429 0022 83F31188 		msr     BASEPRI, r3
 430              	@ 0 "" 2
 431              		.thumb
 432              	.LBE6:
 433              		.loc 1 143 0
 434 0026 1846     		mov	r0, r3
 435 0028 08BD     		pop	{r3, pc}
 436              	.L24:
 437 002a 00BF     		.align	2
 438              	.L23:
 439 002c 00000000 		.word	.LANCHOR0
 440              		.cfi_endproc
 441              	.LFE11:
 442              		.size	thread2, .-thread2
 443              		.section	.text.thread4,"ax",%progbits
 444              		.align	2
 445              		.p2align 4,,15
 446              		.thumb
 447              		.thumb_func
 448              		.type	thread4, %function
 449              	thread4:
 450              	.LFB16:
 451              		.loc 1 246 0
 452              		.cfi_startproc
 453              		@ args = 0, pretend = 0, frame = 0
ARM GAS  /tmp/ccBvmeYq.s 			page 9


 454              		@ frame_needed = 0, uses_anonymous_args = 0
 455              	.LVL38:
 456 0000 10B5     		push	{r4, lr}
 457              		.cfi_def_cfa_offset 8
 458              		.cfi_offset 4, -8
 459              		.cfi_offset 14, -4
 460              	.LBB7:
 461              		.loc 1 248 0
 462 0002 2023     		movs	r3, #32
 463              	.LBE7:
 464              		.loc 1 246 0
 465 0004 0446     		mov	r4, r0
 466              	.LBB8:
 467              		.loc 1 248 0
 468              	@ 248 "../../../test/testsem.c" 1
 469 0006 83F31188 		msr     BASEPRI, r3
 470              	@ 0 "" 2
 471              		.thumb
 472              	.LBE8:
 473 000a FFF7FEFF 		bl	dbg_check_lock
 474              	.LVL39:
 475 000e A368     		ldr	r3, [r4, #8]
 476 0010 002B     		cmp	r3, #0
 477 0012 08DD     		ble	.L27
 478              	.L26:
 479              		.loc 1 248 0 is_stmt 0 discriminator 2
 480 0014 FFF7FEFF 		bl	chSchRescheduleS
 481              	.LVL40:
 482 0018 FFF7FEFF 		bl	dbg_check_unlock
 483              	.LVL41:
 484              	.LBB9:
 485 001c 0023     		movs	r3, #0
 486              	@ 248 "../../../test/testsem.c" 1
 487 001e 83F31188 		msr     BASEPRI, r3
 488              	@ 0 "" 2
 489              		.thumb
 490              	.LBE9:
 491              		.loc 1 250 0 is_stmt 1 discriminator 2
 492 0022 1846     		mov	r0, r3
 493 0024 10BD     		pop	{r4, pc}
 494              	.LVL42:
 495              	.L27:
 496              		.loc 1 248 0 discriminator 1
 497 0026 2046     		mov	r0, r4
 498 0028 FFF7FEFF 		bl	chSemSignalI
 499              	.LVL43:
 500 002c F2E7     		b	.L26
 501              		.cfi_endproc
 502              	.LFE16:
 503              		.size	thread4, .-thread4
 504 002e 00BF     		.section	.text.sem4_execute,"ax",%progbits
 505              		.align	2
 506              		.p2align 4,,15
 507              		.thumb
 508              		.thumb_func
 509              		.type	sem4_execute, %function
 510              	sem4_execute:
ARM GAS  /tmp/ccBvmeYq.s 			page 10


 511              	.LFB17:
 512              		.loc 1 252 0
 513              		.cfi_startproc
 514              		@ args = 0, pretend = 0, frame = 16
 515              		@ frame_needed = 0, uses_anonymous_args = 0
 516 0000 00B5     		push	{lr}
 517              		.cfi_def_cfa_offset 4
 518              		.cfi_offset 14, -4
 519 0002 87B0     		sub	sp, sp, #28
 520              		.cfi_def_cfa_offset 32
 521              		.loc 1 256 0
 522 0004 03A8     		add	r0, sp, #12
 523 0006 0021     		movs	r1, #0
 524 0008 FFF7FEFF 		bl	chSemInit
 525              	.LVL44:
 526              		.loc 1 257 0
 527 000c 03A8     		add	r0, sp, #12
 528 000e 0021     		movs	r1, #0
 529 0010 FFF7FEFF 		bl	chSemReset
 530              	.LVL45:
 531              		.loc 1 258 0
 532 0014 0599     		ldr	r1, [sp, #20]
 533 0016 0029     		cmp	r1, #0
 534 0018 CCBF     		ite	gt
 535 001a 0021     		movgt	r1, #0
 536 001c 0121     		movle	r1, #1
 537 001e 0120     		movs	r0, #1
 538 0020 FFF7FEFF 		bl	_test_assert
 539              	.LVL46:
 540 0024 10B1     		cbz	r0, .L33
 541              	.L28:
 542              		.loc 1 280 0
 543 0026 07B0     		add	sp, sp, #28
 544              		@ sp needed
 545 0028 5DF804FB 		ldr	pc, [sp], #4
 546              	.L33:
 547              		.loc 1 262 0
 548 002c 334B     		ldr	r3, .L36
 549              		.loc 1 261 0
 550 002e 344A     		ldr	r2, .L36+4
 551              		.loc 1 262 0
 552 0030 9B69     		ldr	r3, [r3, #24]
 553              		.loc 1 261 0
 554 0032 1068     		ldr	r0, [r2]
 555 0034 9A68     		ldr	r2, [r3, #8]
 556 0036 334B     		ldr	r3, .L36+8
 557 0038 03A9     		add	r1, sp, #12
 558 003a 0091     		str	r1, [sp]
 559 003c 013A     		subs	r2, r2, #1
 560 003e 4FF4A871 		mov	r1, #336
 561 0042 FFF7FEFF 		bl	chThdCreateStatic
 562              	.LVL47:
 563 0046 304B     		ldr	r3, .L36+12
 564 0048 1860     		str	r0, [r3]
 565              		.loc 1 265 0
 566 004a 03A8     		add	r0, sp, #12
 567 004c FFF7FEFF 		bl	chSemWait
ARM GAS  /tmp/ccBvmeYq.s 			page 11


 568              	.LVL48:
 569              		.loc 1 268 0
 570 0050 0599     		ldr	r1, [sp, #20]
 571 0052 0029     		cmp	r1, #0
 572 0054 CCBF     		ite	gt
 573 0056 0021     		movgt	r1, #0
 574 0058 0121     		movle	r1, #1
 575 005a 0220     		movs	r0, #2
 576 005c FFF7FEFF 		bl	_test_assert
 577              	.LVL49:
 578 0060 0028     		cmp	r0, #0
 579 0062 E0D1     		bne	.L28
 580              	.LBB10:
 581              		.loc 1 272 0
 582 0064 2023     		movs	r3, #32
 583              	@ 272 "../../../test/testsem.c" 1
 584 0066 83F31188 		msr     BASEPRI, r3
 585              	@ 0 "" 2
 586              		.thumb
 587              	.LBE10:
 588 006a FFF7FEFF 		bl	dbg_check_lock
 589              	.LVL50:
 590 006e 059B     		ldr	r3, [sp, #20]
 591 0070 002B     		cmp	r3, #0
 592 0072 3ADD     		ble	.L34
 593              	.L30:
 594              		.loc 1 272 0 is_stmt 0 discriminator 2
 595 0074 FFF7FEFF 		bl	chSchRescheduleS
 596              	.LVL51:
 597 0078 FFF7FEFF 		bl	dbg_check_unlock
 598              	.LVL52:
 599              	.LBB11:
 600 007c 0023     		movs	r3, #0
 601              	@ 272 "../../../test/testsem.c" 1
 602 007e 83F31188 		msr     BASEPRI, r3
 603              	@ 0 "" 2
 604              		.thumb
 605              	.LBE11:
 606              		.loc 1 273 0 is_stmt 1 discriminator 2
 607 0082 0599     		ldr	r1, [sp, #20]
 608 0084 9942     		cmp	r1, r3
 609 0086 D4BF     		ite	le
 610 0088 0021     		movle	r1, #0
 611 008a 0121     		movgt	r1, #1
 612 008c 0320     		movs	r0, #3
 613 008e FFF7FEFF 		bl	_test_assert
 614              	.LVL53:
 615 0092 0028     		cmp	r0, #0
 616 0094 C7D1     		bne	.L28
 617              		.loc 1 274 0
 618 0096 0599     		ldr	r1, [sp, #20]
 619 0098 4A1E     		subs	r2, r1, #1
 620 009a 5142     		rsbs	r1, r2, #0
 621 009c 5141     		adcs	r1, r1, r2
 622 009e 0420     		movs	r0, #4
 623 00a0 FFF7FEFF 		bl	_test_assert
 624              	.LVL54:
ARM GAS  /tmp/ccBvmeYq.s 			page 12


 625 00a4 0028     		cmp	r0, #0
 626 00a6 BED1     		bne	.L28
 627              	.LBB12:
 628              		.loc 1 277 0
 629 00a8 2023     		movs	r3, #32
 630              	@ 277 "../../../test/testsem.c" 1
 631 00aa 83F31188 		msr     BASEPRI, r3
 632              	@ 0 "" 2
 633              		.thumb
 634              	.LBE12:
 635 00ae FFF7FEFF 		bl	dbg_check_lock
 636              	.LVL55:
 637 00b2 059B     		ldr	r3, [sp, #20]
 638 00b4 002B     		cmp	r3, #0
 639 00b6 1CDD     		ble	.L35
 640              	.L31:
 641              		.loc 1 277 0 is_stmt 0 discriminator 2
 642 00b8 FFF7FEFF 		bl	chSchRescheduleS
 643              	.LVL56:
 644 00bc FFF7FEFF 		bl	dbg_check_unlock
 645              	.LVL57:
 646              	.LBB13:
 647 00c0 0023     		movs	r3, #0
 648              	@ 277 "../../../test/testsem.c" 1
 649 00c2 83F31188 		msr     BASEPRI, r3
 650              	@ 0 "" 2
 651              		.thumb
 652              	.LBE13:
 653              		.loc 1 278 0 is_stmt 1 discriminator 2
 654 00c6 0599     		ldr	r1, [sp, #20]
 655 00c8 9942     		cmp	r1, r3
 656 00ca D4BF     		ite	le
 657 00cc 0021     		movle	r1, #0
 658 00ce 0121     		movgt	r1, #1
 659 00d0 0320     		movs	r0, #3
 660 00d2 FFF7FEFF 		bl	_test_assert
 661              	.LVL58:
 662 00d6 0028     		cmp	r0, #0
 663 00d8 A5D1     		bne	.L28
 664              		.loc 1 279 0
 665 00da 0599     		ldr	r1, [sp, #20]
 666 00dc 4B1E     		subs	r3, r1, #1
 667 00de 5942     		rsbs	r1, r3, #0
 668 00e0 5941     		adcs	r1, r1, r3
 669 00e2 0520     		movs	r0, #5
 670 00e4 FFF7FEFF 		bl	_test_assert
 671              	.LVL59:
 672 00e8 9DE7     		b	.L28
 673              	.L34:
 674              		.loc 1 272 0 discriminator 1
 675 00ea 03A8     		add	r0, sp, #12
 676 00ec FFF7FEFF 		bl	chSemSignalI
 677              	.LVL60:
 678 00f0 C0E7     		b	.L30
 679              	.L35:
 680              		.loc 1 277 0 discriminator 1
 681 00f2 03A8     		add	r0, sp, #12
ARM GAS  /tmp/ccBvmeYq.s 			page 13


 682 00f4 FFF7FEFF 		bl	chSemSignalI
 683              	.LVL61:
 684 00f8 DEE7     		b	.L31
 685              	.L37:
 686 00fa 00BF     		.align	2
 687              	.L36:
 688 00fc 00000000 		.word	rlist
 689 0100 00000000 		.word	wa
 690 0104 00000000 		.word	thread4
 691 0108 00000000 		.word	threads
 692              		.cfi_endproc
 693              	.LFE17:
 694              		.size	sem4_execute, .-sem4_execute
 695 010c AFF30080 		.section	.text.sem2_execute,"ax",%progbits
 696              		.align	2
 697              		.p2align 4,,15
 698              		.thumb
 699              		.thumb_func
 700              		.type	sem2_execute, %function
 701              	sem2_execute:
 702              	.LFB12:
 703              		.loc 1 145 0
 704              		.cfi_startproc
 705              		@ args = 0, pretend = 0, frame = 0
 706              		@ frame_needed = 0, uses_anonymous_args = 0
 707 0000 70B5     		push	{r4, r5, r6, lr}
 708              		.cfi_def_cfa_offset 16
 709              		.cfi_offset 4, -16
 710              		.cfi_offset 5, -12
 711              		.cfi_offset 6, -8
 712              		.cfi_offset 14, -4
 713              		.loc 1 153 0
 714 0002 4B4C     		ldr	r4, .L45
 715              		.loc 1 145 0
 716 0004 82B0     		sub	sp, sp, #8
 717              		.cfi_def_cfa_offset 24
 718              		.loc 1 153 0
 719 0006 0021     		movs	r1, #0
 720 0008 2046     		mov	r0, r4
 721 000a FFF7FEFF 		bl	chSemWaitTimeout
 722              	.LVL62:
 723              		.loc 1 154 0
 724 000e B0F1FF3E 		subs	lr, r0, #-1
 725 0012 DEF10001 		rsbs	r1, lr, #0
 726 0016 51EB0E01 		adcs	r1, r1, lr
 727 001a 0120     		movs	r0, #1
 728              	.LVL63:
 729 001c FFF7FEFF 		bl	_test_assert
 730              	.LVL64:
 731 0020 08B1     		cbz	r0, .L44
 732              	.L38:
 733              		.loc 1 183 0
 734 0022 02B0     		add	sp, sp, #8
 735              		@ sp needed
 736 0024 70BD     		pop	{r4, r5, r6, pc}
 737              	.L44:
 738              		.loc 1 155 0
ARM GAS  /tmp/ccBvmeYq.s 			page 14


 739 0026 2168     		ldr	r1, [r4]
 740 0028 0E1B     		subs	r6, r1, r4
 741 002a 7142     		rsbs	r1, r6, #0
 742 002c 7141     		adcs	r1, r1, r6
 743 002e 0220     		movs	r0, #2
 744 0030 FFF7FEFF 		bl	_test_assert
 745              	.LVL65:
 746 0034 0028     		cmp	r0, #0
 747 0036 F4D1     		bne	.L38
 748              		.loc 1 156 0
 749 0038 A168     		ldr	r1, [r4, #8]
 750 003a D1F10101 		rsbs	r1, r1, #1
 751 003e 38BF     		it	cc
 752 0040 0021     		movcc	r1, #0
 753 0042 0320     		movs	r0, #3
 754 0044 FFF7FEFF 		bl	_test_assert
 755              	.LVL66:
 756 0048 0028     		cmp	r0, #0
 757 004a EAD1     		bne	.L38
 758              	.LBB16:
 759              	.LBB17:
 760              		.loc 1 161 0
 761 004c 394B     		ldr	r3, .L45+4
 762 004e 3A4A     		ldr	r2, .L45+8
 763 0050 9B69     		ldr	r3, [r3, #24]
 764 0052 1168     		ldr	r1, [r2]
 765 0054 9A68     		ldr	r2, [r3, #8]
 766 0056 394B     		ldr	r3, .L45+12
 767 0058 0090     		str	r0, [sp]
 768 005a 013A     		subs	r2, r2, #1
 769 005c 0846     		mov	r0, r1
 770 005e 4FF4A871 		mov	r1, #336
 771 0062 FFF7FEFF 		bl	chThdCreateStatic
 772              	.LVL67:
 773 0066 364B     		ldr	r3, .L45+16
 774              		.loc 1 163 0
 775 0068 4FF4FA71 		mov	r1, #500
 776              		.loc 1 161 0
 777 006c 1860     		str	r0, [r3]
 778              		.loc 1 163 0
 779 006e 2046     		mov	r0, r4
 780 0070 FFF7FEFF 		bl	chSemWaitTimeout
 781              	.LVL68:
 782 0074 0546     		mov	r5, r0
 783              	.LVL69:
 784              		.loc 1 164 0
 785 0076 FFF7FEFF 		bl	test_wait_threads
 786              	.LVL70:
 787              		.loc 1 165 0
 788 007a D5F10101 		rsbs	r1, r5, #1
 789 007e 38BF     		it	cc
 790 0080 0021     		movcc	r1, #0
 791 0082 0420     		movs	r0, #4
 792 0084 FFF7FEFF 		bl	_test_assert
 793              	.LVL71:
 794 0088 0028     		cmp	r0, #0
 795 008a CAD1     		bne	.L38
ARM GAS  /tmp/ccBvmeYq.s 			page 15


 796              		.loc 1 166 0
 797 008c 2168     		ldr	r1, [r4]
 798 008e 0D1B     		subs	r5, r1, r4
 799              	.LVL72:
 800 0090 6942     		rsbs	r1, r5, #0
 801 0092 6941     		adcs	r1, r1, r5
 802 0094 0520     		movs	r0, #5
 803 0096 FFF7FEFF 		bl	_test_assert
 804              	.LVL73:
 805 009a 0028     		cmp	r0, #0
 806 009c C1D1     		bne	.L38
 807              		.loc 1 167 0
 808 009e A168     		ldr	r1, [r4, #8]
 809 00a0 D1F10101 		rsbs	r1, r1, #1
 810 00a4 38BF     		it	cc
 811 00a6 0021     		movcc	r1, #0
 812 00a8 0620     		movs	r0, #6
 813 00aa FFF7FEFF 		bl	_test_assert
 814              	.LVL74:
 815 00ae 0028     		cmp	r0, #0
 816 00b0 B7D1     		bne	.L38
 817              		.loc 1 172 0
 818 00b2 FFF7FEFF 		bl	test_wait_tick
 819              	.LVL75:
 820              		.loc 1 173 0
 821 00b6 234B     		ldr	r3, .L45+20
 822 00b8 DE68     		ldr	r6, [r3, #12]
 823              	.LVL76:
 824 00ba 4125     		movs	r5, #65
 825              	.LVL77:
 826              	.L43:
 827              		.loc 1 175 0
 828 00bc 2846     		mov	r0, r5
 829 00be FFF7FEFF 		bl	test_emit_token
 830              	.LVL78:
 831              		.loc 1 176 0
 832 00c2 4FF4FA71 		mov	r1, #500
 833 00c6 1A48     		ldr	r0, .L45
 834 00c8 FFF7FEFF 		bl	chSemWaitTimeout
 835              	.LVL79:
 836              		.loc 1 177 0
 837 00cc B0F1FF32 		subs	r2, r0, #-1
 838 00d0 5142     		rsbs	r1, r2, #0
 839 00d2 5141     		adcs	r1, r1, r2
 840 00d4 0720     		movs	r0, #7
 841              	.LVL80:
 842 00d6 FFF7FEFF 		bl	_test_assert
 843              	.LVL81:
 844 00da 0028     		cmp	r0, #0
 845 00dc A1D1     		bne	.L38
 846              		.loc 1 178 0
 847 00de 2168     		ldr	r1, [r4]
 848 00e0 0B1B     		subs	r3, r1, r4
 849 00e2 5942     		rsbs	r1, r3, #0
 850 00e4 5941     		adcs	r1, r1, r3
 851 00e6 0820     		movs	r0, #8
 852 00e8 FFF7FEFF 		bl	_test_assert
ARM GAS  /tmp/ccBvmeYq.s 			page 16


 853              	.LVL82:
 854 00ec 0028     		cmp	r0, #0
 855 00ee 98D1     		bne	.L38
 856              		.loc 1 179 0
 857 00f0 A168     		ldr	r1, [r4, #8]
 858 00f2 D1F10101 		rsbs	r1, r1, #1
 859 00f6 4FF00900 		mov	r0, #9
 860 00fa 38BF     		it	cc
 861 00fc 0021     		movcc	r1, #0
 862 00fe FFF7FEFF 		bl	_test_assert
 863              	.LVL83:
 864 0102 0135     		adds	r5, r5, #1
 865 0104 EDB2     		uxtb	r5, r5
 866 0106 0028     		cmp	r0, #0
 867 0108 8BD1     		bne	.L38
 868              		.loc 1 174 0
 869 010a 462D     		cmp	r5, #70
 870 010c D6D1     		bne	.L43
 871              		.loc 1 181 0
 872 010e 0A20     		movs	r0, #10
 873 0110 0D49     		ldr	r1, .L45+24
 874 0112 FFF7FEFF 		bl	_test_assert_sequence
 875              	.LVL84:
 876 0116 0028     		cmp	r0, #0
 877 0118 83D1     		bne	.L38
 878              		.loc 1 182 0
 879 011a 0B20     		movs	r0, #11
 880 011c 06F6C411 		addw	r1, r6, #2500
 881 0120 06F6C912 		addw	r2, r6, #2505
 882              	.LBE17:
 883              	.LBE16:
 884              		.loc 1 183 0
 885 0124 02B0     		add	sp, sp, #8
 886              		@ sp needed
 887 0126 BDE87040 		pop	{r4, r5, r6, lr}
 888              	.LVL85:
 889              	.LBB19:
 890              	.LBB18:
 891              		.loc 1 182 0
 892 012a FFF7FEBF 		b	_test_assert_time_window
 893              	.LVL86:
 894              	.L46:
 895 012e 00BF     		.align	2
 896              	.L45:
 897 0130 00000000 		.word	.LANCHOR0
 898 0134 00000000 		.word	rlist
 899 0138 00000000 		.word	wa
 900 013c 00000000 		.word	thread2
 901 0140 00000000 		.word	threads
 902 0144 00000000 		.word	vtlist
 903 0148 14000000 		.word	.LC5
 904              	.LBE18:
 905              	.LBE19:
 906              		.cfi_endproc
 907              	.LFE12:
 908              		.size	sem2_execute, .-sem2_execute
 909 014c AFF30080 		.section	.text.sem3_execute,"ax",%progbits
ARM GAS  /tmp/ccBvmeYq.s 			page 17


 910              		.align	2
 911              		.p2align 4,,15
 912              		.thumb
 913              		.thumb_func
 914              		.type	sem3_execute, %function
 915              	sem3_execute:
 916              	.LFB15:
 917              		.loc 1 218 0
 918              		.cfi_startproc
 919              		@ args = 0, pretend = 0, frame = 0
 920              		@ frame_needed = 0, uses_anonymous_args = 0
 921 0000 10B5     		push	{r4, lr}
 922              		.cfi_def_cfa_offset 8
 923              		.cfi_offset 4, -8
 924              		.cfi_offset 14, -4
 925              		.loc 1 220 0
 926 0002 214B     		ldr	r3, .L52
 927 0004 214A     		ldr	r2, .L52+4
 928 0006 9B69     		ldr	r3, [r3, #24]
 929 0008 1068     		ldr	r0, [r2]
 930 000a 9A68     		ldr	r2, [r3, #8]
 931 000c 204B     		ldr	r3, .L52+8
 932              		.loc 1 221 0
 933 000e 214C     		ldr	r4, .L52+12
 934              		.loc 1 218 0
 935 0010 82B0     		sub	sp, sp, #8
 936              		.cfi_def_cfa_offset 16
 937              		.loc 1 220 0
 938 0012 0021     		movs	r1, #0
 939 0014 0132     		adds	r2, r2, #1
 940 0016 0091     		str	r1, [sp]
 941 0018 4FF4A871 		mov	r1, #336
 942 001c FFF7FEFF 		bl	chThdCreateStatic
 943              	.LVL87:
 944 0020 1D4B     		ldr	r3, .L52+16
 945              		.loc 1 221 0
 946 0022 2146     		mov	r1, r4
 947              		.loc 1 220 0
 948 0024 1860     		str	r0, [r3]
 949              		.loc 1 221 0
 950 0026 2046     		mov	r0, r4
 951 0028 FFF7FEFF 		bl	chSemSignalWait
 952              	.LVL88:
 953              		.loc 1 222 0
 954 002c 2168     		ldr	r1, [r4]
 955 002e 0A1B     		subs	r2, r1, r4
 956 0030 5142     		rsbs	r1, r2, #0
 957 0032 5141     		adcs	r1, r1, r2
 958 0034 0120     		movs	r0, #1
 959 0036 FFF7FEFF 		bl	_test_assert
 960              	.LVL89:
 961 003a 08B1     		cbz	r0, .L51
 962              	.L47:
 963              		.loc 1 228 0
 964 003c 02B0     		add	sp, sp, #8
 965              		@ sp needed
 966 003e 10BD     		pop	{r4, pc}
ARM GAS  /tmp/ccBvmeYq.s 			page 18


 967              	.L51:
 968              		.loc 1 223 0
 969 0040 A168     		ldr	r1, [r4, #8]
 970 0042 D1F10101 		rsbs	r1, r1, #1
 971 0046 38BF     		it	cc
 972 0048 0021     		movcc	r1, #0
 973 004a 0220     		movs	r0, #2
 974 004c FFF7FEFF 		bl	_test_assert
 975              	.LVL90:
 976 0050 0028     		cmp	r0, #0
 977 0052 F3D1     		bne	.L47
 978              	.LBB22:
 979              	.LBB23:
 980              		.loc 1 225 0
 981 0054 2146     		mov	r1, r4
 982 0056 2046     		mov	r0, r4
 983 0058 FFF7FEFF 		bl	chSemSignalWait
 984              	.LVL91:
 985              		.loc 1 226 0
 986 005c 2168     		ldr	r1, [r4]
 987 005e 0B1B     		subs	r3, r1, r4
 988 0060 5942     		rsbs	r1, r3, #0
 989 0062 5941     		adcs	r1, r1, r3
 990 0064 0320     		movs	r0, #3
 991 0066 FFF7FEFF 		bl	_test_assert
 992              	.LVL92:
 993 006a 0028     		cmp	r0, #0
 994 006c E6D1     		bne	.L47
 995              		.loc 1 227 0
 996 006e A168     		ldr	r1, [r4, #8]
 997 0070 D1F10101 		rsbs	r1, r1, #1
 998 0074 4FF00400 		mov	r0, #4
 999 0078 38BF     		it	cc
 1000 007a 0021     		movcc	r1, #0
 1001              	.LBE23:
 1002              	.LBE22:
 1003              		.loc 1 228 0
 1004 007c 02B0     		add	sp, sp, #8
 1005              		@ sp needed
 1006 007e BDE81040 		pop	{r4, lr}
 1007              	.LBB25:
 1008              	.LBB24:
 1009              		.loc 1 227 0
 1010 0082 FFF7FEBF 		b	_test_assert
 1011              	.LVL93:
 1012              	.L53:
 1013 0086 00BF     		.align	2
 1014              	.L52:
 1015 0088 00000000 		.word	rlist
 1016 008c 00000000 		.word	wa
 1017 0090 00000000 		.word	thread3
 1018 0094 00000000 		.word	.LANCHOR0
 1019 0098 00000000 		.word	threads
 1020              	.LBE24:
 1021              	.LBE25:
 1022              		.cfi_endproc
 1023              	.LFE15:
ARM GAS  /tmp/ccBvmeYq.s 			page 19


 1024              		.size	sem3_execute, .-sem3_execute
 1025              		.global	patternsem
 1026              		.global	testsem4
 1027              		.global	testsem3
 1028              		.global	testsem2
 1029              		.global	testsem1
 1030 009c AFF30080 		.section	.rodata.testsem1,"a",%progbits
 1031              		.align	2
 1032              		.type	testsem1, %object
 1033              		.size	testsem1, 16
 1034              	testsem1:
 1035 0000 74000000 		.word	.LC9
 1036 0004 00000000 		.word	sem1_setup
 1037 0008 00000000 		.word	0
 1038 000c 00000000 		.word	sem1_execute
 1039              		.section	.rodata.testsem2,"a",%progbits
 1040              		.align	2
 1041              		.type	testsem2, %object
 1042              		.size	testsem2, 16
 1043              	testsem2:
 1044 0000 60000000 		.word	.LC8
 1045 0004 00000000 		.word	sem2_setup
 1046 0008 00000000 		.word	0
 1047 000c 00000000 		.word	sem2_execute
 1048              		.section	.rodata.testsem3,"a",%progbits
 1049              		.align	2
 1050              		.type	testsem3, %object
 1051              		.size	testsem3, 16
 1052              	testsem3:
 1053 0000 40000000 		.word	.LC7
 1054 0004 00000000 		.word	sem3_setup
 1055 0008 00000000 		.word	0
 1056 000c 00000000 		.word	sem3_execute
 1057              		.section	.rodata.testsem4,"a",%progbits
 1058              		.align	2
 1059              		.type	testsem4, %object
 1060              		.size	testsem4, 16
 1061              	testsem4:
 1062 0000 1C000000 		.word	.LC6
 1063 0004 00000000 		.word	0
 1064 0008 00000000 		.word	0
 1065 000c 00000000 		.word	sem4_execute
 1066              		.section	.data.sem1,"aw",%progbits
 1067              		.align	2
 1068              		.set	.LANCHOR0,. + 0
 1069              		.type	sem1, %object
 1070              		.size	sem1, 12
 1071              	sem1:
 1072 0000 00000000 		.word	sem1
 1073 0004 00000000 		.word	sem1
 1074 0008 00000000 		.word	0
 1075              		.section	.rodata.patternsem,"a",%progbits
 1076              		.align	2
 1077              		.type	patternsem, %object
 1078              		.size	patternsem, 20
 1079              	patternsem:
 1080 0000 00000000 		.word	testsem1
ARM GAS  /tmp/ccBvmeYq.s 			page 20


 1081 0004 00000000 		.word	testsem2
 1082 0008 00000000 		.word	testsem3
 1083 000c 00000000 		.word	testsem4
 1084 0010 00000000 		.word	0
 1085              		.section	.rodata.str1.4,"aMS",%progbits,1
 1086              		.align	2
 1087              	.LC0:
 1088 0000 4100     		.ascii	"A\000"
 1089 0002 0000     		.space	2
 1090              	.LC1:
 1091 0004 4200     		.ascii	"B\000"
 1092 0006 0000     		.space	2
 1093              	.LC2:
 1094 0008 4300     		.ascii	"C\000"
 1095 000a 0000     		.space	2
 1096              	.LC3:
 1097 000c 4400     		.ascii	"D\000"
 1098 000e 0000     		.space	2
 1099              	.LC4:
 1100 0010 4500     		.ascii	"E\000"
 1101 0012 0000     		.space	2
 1102              	.LC5:
 1103 0014 41424344 		.ascii	"ABCDE\000"
 1103      4500
 1104 001a 0000     		.space	2
 1105              	.LC6:
 1106 001c 42696E61 		.ascii	"Binary Semaphores, functionality\000"
 1106      72792053 
 1106      656D6170 
 1106      686F7265 
 1106      732C2066 
 1107 003d 000000   		.space	3
 1108              	.LC7:
 1109 0040 53656D61 		.ascii	"Semaphores, atomic signal-wait\000"
 1109      70686F72 
 1109      65732C20 
 1109      61746F6D 
 1109      69632073 
 1110 005f 00       		.space	1
 1111              	.LC8:
 1112 0060 53656D61 		.ascii	"Semaphores, timeout\000"
 1112      70686F72 
 1112      65732C20 
 1112      74696D65 
 1112      6F757400 
 1113              	.LC9:
 1114 0074 53656D61 		.ascii	"Semaphores, enqueuing\000"
 1114      70686F72 
 1114      65732C20 
 1114      656E7175 
 1114      6575696E 
 1115 008a 0000     		.text
 1116              	.Letext0:
 1117              		.file 2 "/opt/ARM/lib/gcc/arm-none-eabi/4.8.4/include/stddef.h"
 1118              		.file 3 "/opt/ARM/arm-none-eabi/include/machine/_default_types.h"
 1119              		.file 4 "/opt/ARM/arm-none-eabi/include/stdint.h"
 1120              		.file 5 "../../../os/ports/GCC/ARMCMx/chtypes.h"
ARM GAS  /tmp/ccBvmeYq.s 			page 21


 1121              		.file 6 "../../../os/kernel/include/chlists.h"
 1122              		.file 7 "../../../os/kernel/include/chthreads.h"
 1123              		.file 8 "../../../os/ports/GCC/ARMCMx/chcore_v7m.h"
 1124              		.file 9 "../../../os/kernel/include/chvt.h"
 1125              		.file 10 "../../../os/kernel/include/chschd.h"
 1126              		.file 11 "../../../os/kernel/include/chsem.h"
 1127              		.file 12 "../../../os/kernel/include/chbsem.h"
 1128              		.file 13 "../../../os/kernel/include/chmtx.h"
 1129              		.file 14 "../../../test/test.h"
 1130              		.file 15 "../../../os/kernel/include/chdebug.h"
