ARM GAS  /tmp/cc5iJmuY.s 			page 1


   1              		.syntax unified
   2              		.cpu cortex-m4
   3              		.fpu softvfp
   4              		.eabi_attribute 20, 1
   5              		.eabi_attribute 21, 1
   6              		.eabi_attribute 23, 3
   7              		.eabi_attribute 24, 1
   8              		.eabi_attribute 25, 1
   9              		.eabi_attribute 26, 1
  10              		.eabi_attribute 30, 2
  11              		.eabi_attribute 34, 1
  12              		.eabi_attribute 18, 4
  13              		.thumb
  14              		.file	"testmbox.c"
  15              		.text
  16              	.Ltext0:
  17              		.cfi_sections	.debug_frame
  18              		.section	.text.mbox1_execute,"ax",%progbits
  19              		.align	2
  20              		.p2align 4,,15
  21              		.thumb
  22              		.thumb_func
  23              		.type	mbox1_execute, %function
  24              	mbox1_execute:
  25              	.LFB8:
  26              		.file 1 "../../../test/testmbox.c"
  27              		.loc 1 76 0
  28              		.cfi_startproc
  29              		@ args = 0, pretend = 0, frame = 8
  30              		@ frame_needed = 0, uses_anonymous_args = 0
  31 0000 F0B5     		push	{r4, r5, r6, r7, lr}
  32              		.cfi_def_cfa_offset 20
  33              		.cfi_offset 4, -20
  34              		.cfi_offset 5, -16
  35              		.cfi_offset 6, -12
  36              		.cfi_offset 7, -8
  37              		.cfi_offset 14, -4
  38              		.loc 1 83 0
  39 0002 4B4E     		ldr	r6, .L31
  40 0004 716A     		ldr	r1, [r6, #36]
  41 0006 B1F1050E 		subs	lr, r1, #5
  42 000a DEF10001 		rsbs	r1, lr, #0
  43              		.loc 1 76 0
  44 000e 83B0     		sub	sp, sp, #12
  45              		.cfi_def_cfa_offset 32
  46              		.loc 1 83 0
  47 0010 51EB0E01 		adcs	r1, r1, lr
  48 0014 0120     		movs	r0, #1
  49 0016 FFF7FEFF 		bl	_test_assert
  50              	.LVL0:
  51 001a 00BB     		cbnz	r0, .L1
  52 001c 4224     		movs	r4, #66
  53              	.L4:
  54              	.LVL1:
  55              		.loc 1 89 0
  56 001e 444D     		ldr	r5, .L31
  57 0020 2146     		mov	r1, r4
ARM GAS  /tmp/cc5iJmuY.s 			page 2


  58 0022 2846     		mov	r0, r5
  59 0024 4FF0FF32 		mov	r2, #-1
  60 0028 FFF7FEFF 		bl	chMBPost
  61              	.LVL2:
  62              		.loc 1 90 0
  63 002c D0F10101 		rsbs	r1, r0, #1
  64 0030 38BF     		it	cc
  65 0032 0021     		movcc	r1, #0
  66 0034 0220     		movs	r0, #2
  67              	.LVL3:
  68 0036 0134     		adds	r4, r4, #1
  69              	.LVL4:
  70 0038 FFF7FEFF 		bl	_test_assert
  71              	.LVL5:
  72 003c 78B9     		cbnz	r0, .L1
  73              		.loc 1 88 0
  74 003e 462C     		cmp	r4, #70
  75 0040 EDD1     		bne	.L4
  76              		.loc 1 92 0
  77 0042 4121     		movs	r1, #65
  78 0044 2846     		mov	r0, r5
  79 0046 4FF0FF32 		mov	r2, #-1
  80 004a FFF7FEFF 		bl	chMBPostAhead
  81              	.LVL6:
  82              		.loc 1 93 0
  83 004e D0F10101 		rsbs	r1, r0, #1
  84 0052 38BF     		it	cc
  85 0054 0021     		movcc	r1, #0
  86 0056 0320     		movs	r0, #3
  87              	.LVL7:
  88 0058 FFF7FEFF 		bl	_test_assert
  89              	.LVL8:
  90 005c 08B1     		cbz	r0, .L30
  91              	.L1:
  92              		.loc 1 220 0
  93 005e 03B0     		add	sp, sp, #12
  94              		@ sp needed
  95 0060 F0BD     		pop	{r4, r5, r6, r7, pc}
  96              	.L30:
  97              		.loc 1 98 0
  98 0062 5821     		movs	r1, #88
  99 0064 0122     		movs	r2, #1
 100 0066 2846     		mov	r0, r5
 101 0068 FFF7FEFF 		bl	chMBPost
 102              	.LVL9:
 103              		.loc 1 99 0
 104 006c B0F1FF37 		subs	r7, r0, #-1
 105 0070 7942     		rsbs	r1, r7, #0
 106 0072 7941     		adcs	r1, r1, r7
 107 0074 0420     		movs	r0, #4
 108              	.LVL10:
 109 0076 FFF7FEFF 		bl	_test_assert
 110              	.LVL11:
 111 007a 0446     		mov	r4, r0
 112 007c 0028     		cmp	r0, #0
 113 007e EED1     		bne	.L1
 114              	.LBB2:
ARM GAS  /tmp/cc5iJmuY.s 			page 3


 115              		.loc 1 100 0
 116 0080 2023     		movs	r3, #32
 117              	@ 100 "../../../test/testmbox.c" 1
 118 0082 83F31188 		msr     BASEPRI, r3
 119              	@ 0 "" 2
 120              		.thumb
 121              	.LBE2:
 122 0086 FFF7FEFF 		bl	dbg_check_lock
 123              	.LVL12:
 124              		.loc 1 101 0
 125 008a 5821     		movs	r1, #88
 126 008c 2846     		mov	r0, r5
 127 008e FFF7FEFF 		bl	chMBPostI
 128              	.LVL13:
 129 0092 0746     		mov	r7, r0
 130              	.LVL14:
 131              		.loc 1 102 0
 132 0094 FFF7FEFF 		bl	dbg_check_unlock
 133              	.LVL15:
 134              	.LBB3:
 135 0098 2346     		mov	r3, r4
 136              	@ 102 "../../../test/testmbox.c" 1
 137 009a 83F31188 		msr     BASEPRI, r3
 138              	@ 0 "" 2
 139              		.thumb
 140              	.LBE3:
 141              		.loc 1 103 0
 142 009e B7F1FF34 		subs	r4, r7, #-1
 143 00a2 6142     		rsbs	r1, r4, #0
 144 00a4 6141     		adcs	r1, r1, r4
 145 00a6 0520     		movs	r0, #5
 146 00a8 FFF7FEFF 		bl	_test_assert
 147              	.LVL16:
 148 00ac 0028     		cmp	r0, #0
 149 00ae D6D1     		bne	.L1
 150              		.loc 1 104 0
 151 00b0 5821     		movs	r1, #88
 152 00b2 0122     		movs	r2, #1
 153 00b4 2846     		mov	r0, r5
 154 00b6 FFF7FEFF 		bl	chMBPostAhead
 155              	.LVL17:
 156              		.loc 1 105 0
 157 00ba B0F1FF30 		subs	r0, r0, #-1
 158              	.LVL18:
 159 00be 4142     		rsbs	r1, r0, #0
 160 00c0 4141     		adcs	r1, r1, r0
 161 00c2 0620     		movs	r0, #6
 162              	.LVL19:
 163 00c4 FFF7FEFF 		bl	_test_assert
 164              	.LVL20:
 165 00c8 0446     		mov	r4, r0
 166 00ca 0028     		cmp	r0, #0
 167 00cc C7D1     		bne	.L1
 168              	.LBB4:
 169              		.loc 1 106 0
 170 00ce 2023     		movs	r3, #32
 171              	@ 106 "../../../test/testmbox.c" 1
ARM GAS  /tmp/cc5iJmuY.s 			page 4


 172 00d0 83F31188 		msr     BASEPRI, r3
 173              	@ 0 "" 2
 174              		.thumb
 175              	.LBE4:
 176 00d4 FFF7FEFF 		bl	dbg_check_lock
 177              	.LVL21:
 178              		.loc 1 107 0
 179 00d8 5821     		movs	r1, #88
 180 00da 2846     		mov	r0, r5
 181 00dc FFF7FEFF 		bl	chMBPostAheadI
 182              	.LVL22:
 183 00e0 0746     		mov	r7, r0
 184              	.LVL23:
 185              		.loc 1 108 0
 186 00e2 FFF7FEFF 		bl	dbg_check_unlock
 187              	.LVL24:
 188              	.LBB5:
 189 00e6 2346     		mov	r3, r4
 190              	@ 108 "../../../test/testmbox.c" 1
 191 00e8 83F31188 		msr     BASEPRI, r3
 192              	@ 0 "" 2
 193              		.thumb
 194              	.LBE5:
 195              		.loc 1 109 0
 196 00ec B7F1FF32 		subs	r2, r7, #-1
 197 00f0 5142     		rsbs	r1, r2, #0
 198 00f2 4FF00700 		mov	r0, #7
 199 00f6 5141     		adcs	r1, r1, r2
 200 00f8 FFF7FEFF 		bl	_test_assert
 201              	.LVL25:
 202 00fc 0746     		mov	r7, r0
 203              	.LVL26:
 204 00fe 0028     		cmp	r0, #0
 205 0100 ADD1     		bne	.L1
 206              	.LBB6:
 207              		.loc 1 114 0
 208 0102 2023     		movs	r3, #32
 209              	@ 114 "../../../test/testmbox.c" 1
 210 0104 83F31188 		msr     BASEPRI, r3
 211              	@ 0 "" 2
 212              		.thumb
 213              	.LBE6:
 214 0108 FFF7FEFF 		bl	dbg_check_lock
 215              	.LVL27:
 216 010c 696A     		ldr	r1, [r5, #36]
 217 010e D1F10101 		rsbs	r1, r1, #1
 218 0112 4FF00800 		mov	r0, #8
 219 0116 38BF     		it	cc
 220 0118 0021     		movcc	r1, #0
 221 011a FFF7FEFF 		bl	_test_assert
 222              	.LVL28:
 223 011e 0446     		mov	r4, r0
 224 0120 40B1     		cbz	r0, .L5
 225              		.loc 1 114 0 is_stmt 0 discriminator 1
 226 0122 FFF7FEFF 		bl	dbg_check_unlock
 227              	.LVL29:
 228              	.LBB7:
ARM GAS  /tmp/cc5iJmuY.s 			page 5


 229 0126 3B46     		mov	r3, r7
 230              	@ 114 "../../../test/testmbox.c" 1
 231 0128 83F31188 		msr     BASEPRI, r3
 232              	@ 0 "" 2
 233              		.thumb
 234              	.LBE7:
 235 012c 97E7     		b	.L1
 236              	.L32:
 237 012e 00BF     		.align	2
 238              	.L31:
 239 0130 00000000 		.word	.LANCHOR0
 240              	.L5:
 241              		.loc 1 114 0 discriminator 2
 242 0134 FFF7FEFF 		bl	dbg_check_unlock
 243              	.LVL30:
 244              	.LBB8:
 245 0138 2346     		mov	r3, r4
 246              	@ 114 "../../../test/testmbox.c" 1
 247 013a 83F31188 		msr     BASEPRI, r3
 248              	@ 0 "" 2
 249              		.thumb
 250              	.LBE8:
 251              	.LBB9:
 252              		.loc 1 115 0 is_stmt 1 discriminator 2
 253 013e 2023     		movs	r3, #32
 254              	@ 115 "../../../test/testmbox.c" 1
 255 0140 83F31188 		msr     BASEPRI, r3
 256              	@ 0 "" 2
 257              		.thumb
 258              	.LBE9:
 259 0144 FFF7FEFF 		bl	dbg_check_lock
 260              	.LVL31:
 261 0148 A969     		ldr	r1, [r5, #24]
 262 014a 4B1F     		subs	r3, r1, #5
 263 014c 5942     		rsbs	r1, r3, #0
 264 014e 4FF00900 		mov	r0, #9
 265 0152 5941     		adcs	r1, r1, r3
 266 0154 FFF7FEFF 		bl	_test_assert
 267              	.LVL32:
 268 0158 0746     		mov	r7, r0
 269 015a 0028     		cmp	r0, #0
 270 015c 40F0AF82 		bne	.L27
 271 0160 FFF7FEFF 		bl	dbg_check_unlock
 272              	.LVL33:
 273              	.LBB10:
 274 0164 3B46     		mov	r3, r7
 275              	@ 115 "../../../test/testmbox.c" 1
 276 0166 83F31188 		msr     BASEPRI, r3
 277              	@ 0 "" 2
 278              		.thumb
 279              	.LBE10:
 280              	.LBB11:
 281              		.loc 1 116 0 discriminator 2
 282 016a 2023     		movs	r3, #32
 283              	@ 116 "../../../test/testmbox.c" 1
 284 016c 83F31188 		msr     BASEPRI, r3
 285              	@ 0 "" 2
ARM GAS  /tmp/cc5iJmuY.s 			page 6


 286              		.thumb
 287              	.LBE11:
 288 0170 FFF7FEFF 		bl	dbg_check_lock
 289              	.LVL34:
 290 0174 E968     		ldr	r1, [r5, #12]
 291 0176 AB68     		ldr	r3, [r5, #8]
 292 0178 B1EB030C 		subs	ip, r1, r3
 293 017c DCF10001 		rsbs	r1, ip, #0
 294 0180 51EB0C01 		adcs	r1, r1, ip
 295 0184 0A20     		movs	r0, #10
 296 0186 FFF7FEFF 		bl	_test_assert
 297              	.LVL35:
 298 018a 0028     		cmp	r0, #0
 299 018c 40F09182 		bne	.L25
 300 0190 FFF7FEFF 		bl	dbg_check_unlock
 301              	.LVL36:
 302              	.LBB12:
 303 0194 0023     		movs	r3, #0
 304              	@ 116 "../../../test/testmbox.c" 1
 305 0196 83F31188 		msr     BASEPRI, r3
 306              	@ 0 "" 2
 307              	.LVL37:
 308              		.thumb
 309 019a 0525     		movs	r5, #5
 310              	.LVL38:
 311              	.L10:
 312              	.LBE12:
 313              		.loc 1 122 0
 314 019c B84C     		ldr	r4, .L33
 315 019e 01A9     		add	r1, sp, #4
 316 01a0 2046     		mov	r0, r4
 317 01a2 4FF0FF32 		mov	r2, #-1
 318 01a6 FFF7FEFF 		bl	chMBFetch
 319              	.LVL39:
 320              		.loc 1 123 0
 321 01aa D0F10101 		rsbs	r1, r0, #1
 322 01ae 38BF     		it	cc
 323 01b0 0021     		movcc	r1, #0
 324 01b2 0B20     		movs	r0, #11
 325              	.LVL40:
 326 01b4 FFF7FEFF 		bl	_test_assert
 327              	.LVL41:
 328 01b8 0028     		cmp	r0, #0
 329 01ba 7FF450AF 		bne	.L1
 330              		.loc 1 124 0
 331 01be 9DF80400 		ldrb	r0, [sp, #4]	@ zero_extendqisi2
 332 01c2 FFF7FEFF 		bl	test_emit_token
 333              	.LVL42:
 334              		.loc 1 121 0
 335 01c6 013D     		subs	r5, r5, #1
 336              	.LVL43:
 337 01c8 E8D1     		bne	.L10
 338              		.loc 1 126 0
 339 01ca 0C20     		movs	r0, #12
 340 01cc AD49     		ldr	r1, .L33+4
 341 01ce FFF7FEFF 		bl	_test_assert_sequence
 342              	.LVL44:
ARM GAS  /tmp/cc5iJmuY.s 			page 7


 343 01d2 0028     		cmp	r0, #0
 344 01d4 7FF443AF 		bne	.L1
 345              		.loc 1 131 0
 346 01d8 4721     		movs	r1, #71
 347 01da 2046     		mov	r0, r4
 348 01dc 4FF0FF32 		mov	r2, #-1
 349 01e0 FFF7FEFF 		bl	chMBPost
 350              	.LVL45:
 351              		.loc 1 132 0
 352 01e4 D0F10101 		rsbs	r1, r0, #1
 353 01e8 38BF     		it	cc
 354 01ea 0021     		movcc	r1, #0
 355 01ec 0D20     		movs	r0, #13
 356              	.LVL46:
 357 01ee FFF7FEFF 		bl	_test_assert
 358              	.LVL47:
 359 01f2 0028     		cmp	r0, #0
 360 01f4 7FF433AF 		bne	.L1
 361              		.loc 1 133 0
 362 01f8 01A9     		add	r1, sp, #4
 363 01fa 2046     		mov	r0, r4
 364 01fc 4FF0FF32 		mov	r2, #-1
 365 0200 FFF7FEFF 		bl	chMBFetch
 366              	.LVL48:
 367              		.loc 1 134 0
 368 0204 D0F10101 		rsbs	r1, r0, #1
 369 0208 38BF     		it	cc
 370 020a 0021     		movcc	r1, #0
 371 020c 0E20     		movs	r0, #14
 372              	.LVL49:
 373 020e FFF7FEFF 		bl	_test_assert
 374              	.LVL50:
 375 0212 0028     		cmp	r0, #0
 376 0214 7FF423AF 		bne	.L1
 377              		.loc 1 135 0
 378 0218 2168     		ldr	r1, [r4]
 379 021a A368     		ldr	r3, [r4, #8]
 380 021c B1EB030E 		subs	lr, r1, r3
 381 0220 DEF10001 		rsbs	r1, lr, #0
 382 0224 51EB0E01 		adcs	r1, r1, lr
 383 0228 0F20     		movs	r0, #15
 384 022a FFF7FEFF 		bl	_test_assert
 385              	.LVL51:
 386 022e 0028     		cmp	r0, #0
 387 0230 7FF415AF 		bne	.L1
 388              		.loc 1 136 0
 389 0234 2168     		ldr	r1, [r4]
 390 0236 E368     		ldr	r3, [r4, #12]
 391 0238 CF1A     		subs	r7, r1, r3
 392 023a 7942     		rsbs	r1, r7, #0
 393 023c 7941     		adcs	r1, r1, r7
 394 023e 1020     		movs	r0, #16
 395 0240 FFF7FEFF 		bl	_test_assert
 396              	.LVL52:
 397 0244 0028     		cmp	r0, #0
 398 0246 7FF40AAF 		bne	.L1
 399              		.loc 1 141 0
ARM GAS  /tmp/cc5iJmuY.s 			page 8


 400 024a 01A9     		add	r1, sp, #4
 401 024c 2046     		mov	r0, r4
 402 024e 0122     		movs	r2, #1
 403 0250 FFF7FEFF 		bl	chMBFetch
 404              	.LVL53:
 405              		.loc 1 142 0
 406 0254 B0F1FF30 		subs	r0, r0, #-1
 407              	.LVL54:
 408 0258 4142     		rsbs	r1, r0, #0
 409 025a 4141     		adcs	r1, r1, r0
 410 025c 1120     		movs	r0, #17
 411              	.LVL55:
 412 025e FFF7FEFF 		bl	_test_assert
 413              	.LVL56:
 414 0262 0028     		cmp	r0, #0
 415 0264 7FF4FBAE 		bne	.L1
 416              	.LBB13:
 417              		.loc 1 143 0
 418 0268 2023     		movs	r3, #32
 419              	@ 143 "../../../test/testmbox.c" 1
 420 026a 83F31188 		msr     BASEPRI, r3
 421              	@ 0 "" 2
 422              		.thumb
 423              	.LBE13:
 424 026e FFF7FEFF 		bl	dbg_check_lock
 425              	.LVL57:
 426              		.loc 1 144 0
 427 0272 01A9     		add	r1, sp, #4
 428 0274 2046     		mov	r0, r4
 429 0276 FFF7FEFF 		bl	chMBFetchI
 430              	.LVL58:
 431 027a 0746     		mov	r7, r0
 432              	.LVL59:
 433              		.loc 1 145 0
 434 027c FFF7FEFF 		bl	dbg_check_unlock
 435              	.LVL60:
 436              	.LBB14:
 437 0280 2B46     		mov	r3, r5
 438              	@ 145 "../../../test/testmbox.c" 1
 439 0282 83F31188 		msr     BASEPRI, r3
 440              	@ 0 "" 2
 441              		.thumb
 442              	.LBE14:
 443              		.loc 1 146 0
 444 0286 B7F1FF32 		subs	r2, r7, #-1
 445 028a 5142     		rsbs	r1, r2, #0
 446 028c 5141     		adcs	r1, r1, r2
 447 028e 1220     		movs	r0, #18
 448 0290 FFF7FEFF 		bl	_test_assert
 449              	.LVL61:
 450 0294 0028     		cmp	r0, #0
 451 0296 7FF4E2AE 		bne	.L1
 452              	.LBB15:
 453              		.loc 1 151 0
 454 029a 2023     		movs	r3, #32
 455              	@ 151 "../../../test/testmbox.c" 1
 456 029c 83F31188 		msr     BASEPRI, r3
ARM GAS  /tmp/cc5iJmuY.s 			page 9


 457              	@ 0 "" 2
 458              		.thumb
 459              	.LBE15:
 460 02a0 FFF7FEFF 		bl	dbg_check_lock
 461              	.LVL62:
 462 02a4 616A     		ldr	r1, [r4, #36]
 463 02a6 4B1F     		subs	r3, r1, #5
 464 02a8 5942     		rsbs	r1, r3, #0
 465 02aa 5941     		adcs	r1, r1, r3
 466 02ac 1320     		movs	r0, #19
 467 02ae FFF7FEFF 		bl	_test_assert
 468              	.LVL63:
 469 02b2 0028     		cmp	r0, #0
 470 02b4 40F0FD81 		bne	.L25
 471              		.loc 1 151 0 is_stmt 0 discriminator 2
 472 02b8 FFF7FEFF 		bl	dbg_check_unlock
 473              	.LVL64:
 474              	.LBB16:
 475 02bc 0023     		movs	r3, #0
 476              	@ 151 "../../../test/testmbox.c" 1
 477 02be 83F31188 		msr     BASEPRI, r3
 478              	@ 0 "" 2
 479              		.thumb
 480              	.LBE16:
 481              	.LBB17:
 482              		.loc 1 152 0 is_stmt 1 discriminator 2
 483 02c2 2023     		movs	r3, #32
 484              	@ 152 "../../../test/testmbox.c" 1
 485 02c4 83F31188 		msr     BASEPRI, r3
 486              	@ 0 "" 2
 487              		.thumb
 488              	.LBE17:
 489 02c8 FFF7FEFF 		bl	dbg_check_lock
 490              	.LVL65:
 491 02cc B169     		ldr	r1, [r6, #24]
 492 02ce 6C4C     		ldr	r4, .L33
 493 02d0 D1F10101 		rsbs	r1, r1, #1
 494 02d4 38BF     		it	cc
 495 02d6 0021     		movcc	r1, #0
 496 02d8 1420     		movs	r0, #20
 497 02da FFF7FEFF 		bl	_test_assert
 498              	.LVL66:
 499 02de 0546     		mov	r5, r0
 500              	.LVL67:
 501 02e0 0028     		cmp	r0, #0
 502 02e2 40F0E681 		bne	.L25
 503 02e6 FFF7FEFF 		bl	dbg_check_unlock
 504              	.LVL68:
 505              	.LBB18:
 506 02ea 2B46     		mov	r3, r5
 507              	@ 152 "../../../test/testmbox.c" 1
 508 02ec 83F31188 		msr     BASEPRI, r3
 509              	@ 0 "" 2
 510              		.thumb
 511              	.LBE18:
 512              	.LBB19:
 513              		.loc 1 153 0 discriminator 2
ARM GAS  /tmp/cc5iJmuY.s 			page 10


 514 02f0 2023     		movs	r3, #32
 515              	@ 153 "../../../test/testmbox.c" 1
 516 02f2 83F31188 		msr     BASEPRI, r3
 517              	@ 0 "" 2
 518              		.thumb
 519              	.LBE19:
 520 02f6 FFF7FEFF 		bl	dbg_check_lock
 521              	.LVL69:
 522 02fa E168     		ldr	r1, [r4, #12]
 523 02fc A368     		ldr	r3, [r4, #8]
 524 02fe B1EB030C 		subs	ip, r1, r3
 525 0302 DCF10001 		rsbs	r1, ip, #0
 526 0306 4FF01500 		mov	r0, #21
 527 030a 51EB0C01 		adcs	r1, r1, ip
 528 030e FFF7FEFF 		bl	_test_assert
 529              	.LVL70:
 530 0312 0646     		mov	r6, r0
 531 0314 0028     		cmp	r0, #0
 532 0316 40F0AC80 		bne	.L28
 533 031a FFF7FEFF 		bl	dbg_check_unlock
 534              	.LVL71:
 535              	.LBB20:
 536 031e 3346     		mov	r3, r6
 537              	@ 153 "../../../test/testmbox.c" 1
 538 0320 83F31188 		msr     BASEPRI, r3
 539              	@ 0 "" 2
 540              		.thumb
 541              	.LBE20:
 542              	.LBB21:
 543              		.loc 1 158 0 discriminator 2
 544 0324 2023     		movs	r3, #32
 545              	@ 158 "../../../test/testmbox.c" 1
 546 0326 83F31188 		msr     BASEPRI, r3
 547              	@ 0 "" 2
 548              		.thumb
 549              	.LBE21:
 550 032a FFF7FEFF 		bl	dbg_check_lock
 551              	.LVL72:
 552              		.loc 1 159 0 discriminator 2
 553 032e 4121     		movs	r1, #65
 554 0330 2046     		mov	r0, r4
 555 0332 FFF7FEFF 		bl	chMBPostI
 556              	.LVL73:
 557              		.loc 1 160 0 discriminator 2
 558 0336 D0F10101 		rsbs	r1, r0, #1
 559 033a 38BF     		it	cc
 560 033c 0021     		movcc	r1, #0
 561 033e 1620     		movs	r0, #22
 562              	.LVL74:
 563 0340 FFF7FEFF 		bl	_test_assert
 564              	.LVL75:
 565 0344 0028     		cmp	r0, #0
 566 0346 7FF48AAE 		bne	.L1
 567              		.loc 1 161 0
 568 034a 4221     		movs	r1, #66
 569 034c 2046     		mov	r0, r4
 570 034e FFF7FEFF 		bl	chMBPostI
ARM GAS  /tmp/cc5iJmuY.s 			page 11


 571              	.LVL76:
 572              		.loc 1 162 0
 573 0352 D0F10101 		rsbs	r1, r0, #1
 574 0356 38BF     		it	cc
 575 0358 0021     		movcc	r1, #0
 576 035a 1720     		movs	r0, #23
 577              	.LVL77:
 578 035c FFF7FEFF 		bl	_test_assert
 579              	.LVL78:
 580 0360 0028     		cmp	r0, #0
 581 0362 7FF47CAE 		bne	.L1
 582              		.loc 1 163 0
 583 0366 4321     		movs	r1, #67
 584 0368 2046     		mov	r0, r4
 585 036a FFF7FEFF 		bl	chMBPostI
 586              	.LVL79:
 587              		.loc 1 164 0
 588 036e D0F10101 		rsbs	r1, r0, #1
 589 0372 38BF     		it	cc
 590 0374 0021     		movcc	r1, #0
 591 0376 1820     		movs	r0, #24
 592              	.LVL80:
 593 0378 FFF7FEFF 		bl	_test_assert
 594              	.LVL81:
 595 037c 0028     		cmp	r0, #0
 596 037e 7FF46EAE 		bne	.L1
 597              		.loc 1 165 0
 598 0382 4421     		movs	r1, #68
 599 0384 2046     		mov	r0, r4
 600 0386 FFF7FEFF 		bl	chMBPostI
 601              	.LVL82:
 602              		.loc 1 166 0
 603 038a D0F10101 		rsbs	r1, r0, #1
 604 038e 38BF     		it	cc
 605 0390 0021     		movcc	r1, #0
 606 0392 1920     		movs	r0, #25
 607              	.LVL83:
 608 0394 FFF7FEFF 		bl	_test_assert
 609              	.LVL84:
 610 0398 0546     		mov	r5, r0
 611 039a 0028     		cmp	r0, #0
 612 039c 7FF45FAE 		bne	.L1
 613              		.loc 1 167 0
 614 03a0 4521     		movs	r1, #69
 615 03a2 2046     		mov	r0, r4
 616 03a4 FFF7FEFF 		bl	chMBPostI
 617              	.LVL85:
 618 03a8 0646     		mov	r6, r0
 619              	.LVL86:
 620              		.loc 1 168 0
 621 03aa FFF7FEFF 		bl	dbg_check_unlock
 622              	.LVL87:
 623              	.LBB22:
 624 03ae 2B46     		mov	r3, r5
 625              	@ 168 "../../../test/testmbox.c" 1
 626 03b0 83F31188 		msr     BASEPRI, r3
 627              	@ 0 "" 2
ARM GAS  /tmp/cc5iJmuY.s 			page 12


 628              		.thumb
 629              	.LBE22:
 630              		.loc 1 169 0
 631 03b4 D6F10101 		rsbs	r1, r6, #1
 632 03b8 38BF     		it	cc
 633 03ba 0021     		movcc	r1, #0
 634 03bc 1A20     		movs	r0, #26
 635 03be FFF7FEFF 		bl	_test_assert
 636              	.LVL88:
 637 03c2 0028     		cmp	r0, #0
 638 03c4 7FF44BAE 		bne	.L1
 639              		.loc 1 170 0
 640 03c8 E168     		ldr	r1, [r4, #12]
 641 03ca A368     		ldr	r3, [r4, #8]
 642 03cc B1EB030E 		subs	lr, r1, r3
 643 03d0 DEF10001 		rsbs	r1, lr, #0
 644 03d4 51EB0E01 		adcs	r1, r1, lr
 645 03d8 1B20     		movs	r0, #27
 646 03da FFF7FEFF 		bl	_test_assert
 647              	.LVL89:
 648 03de 0028     		cmp	r0, #0
 649 03e0 7FF43DAE 		bne	.L1
 650 03e4 0525     		movs	r5, #5
 651              	.L15:
 652              	.LVL90:
 653              	.LBB23:
 654              		.loc 1 172 0
 655 03e6 2023     		movs	r3, #32
 656              	@ 172 "../../../test/testmbox.c" 1
 657 03e8 83F31188 		msr     BASEPRI, r3
 658              	@ 0 "" 2
 659              		.thumb
 660              	.LBE23:
 661              		.loc 1 173 0
 662 03ec 244C     		ldr	r4, .L33
 663              		.loc 1 172 0
 664 03ee FFF7FEFF 		bl	dbg_check_lock
 665              	.LVL91:
 666              		.loc 1 173 0
 667 03f2 01A9     		add	r1, sp, #4
 668 03f4 2046     		mov	r0, r4
 669 03f6 FFF7FEFF 		bl	chMBFetchI
 670              	.LVL92:
 671 03fa 0646     		mov	r6, r0
 672              	.LVL93:
 673              		.loc 1 174 0
 674 03fc FFF7FEFF 		bl	dbg_check_unlock
 675              	.LVL94:
 676              	.LBB24:
 677 0400 0023     		movs	r3, #0
 678              	@ 174 "../../../test/testmbox.c" 1
 679 0402 83F31188 		msr     BASEPRI, r3
 680              	@ 0 "" 2
 681              		.thumb
 682              	.LBE24:
 683              		.loc 1 175 0
 684 0406 F71A     		subs	r7, r6, r3
ARM GAS  /tmp/cc5iJmuY.s 			page 13


 685 0408 7942     		rsbs	r1, r7, #0
 686 040a 7941     		adcs	r1, r1, r7
 687 040c 1C20     		movs	r0, #28
 688 040e FFF7FEFF 		bl	_test_assert
 689              	.LVL95:
 690 0412 0028     		cmp	r0, #0
 691 0414 7FF423AE 		bne	.L1
 692              		.loc 1 176 0
 693 0418 9DF80400 		ldrb	r0, [sp, #4]	@ zero_extendqisi2
 694 041c FFF7FEFF 		bl	test_emit_token
 695              	.LVL96:
 696              		.loc 1 171 0
 697 0420 013D     		subs	r5, r5, #1
 698              	.LVL97:
 699 0422 E0D1     		bne	.L15
 700              		.loc 1 178 0
 701 0424 1D20     		movs	r0, #29
 702 0426 1749     		ldr	r1, .L33+4
 703 0428 FFF7FEFF 		bl	_test_assert_sequence
 704              	.LVL98:
 705 042c 0028     		cmp	r0, #0
 706 042e 7FF416AE 		bne	.L1
 707              	.LBB25:
 708              		.loc 1 179 0
 709 0432 2023     		movs	r3, #32
 710              	@ 179 "../../../test/testmbox.c" 1
 711 0434 83F31188 		msr     BASEPRI, r3
 712              	@ 0 "" 2
 713              		.thumb
 714              	.LBE25:
 715 0438 FFF7FEFF 		bl	dbg_check_lock
 716              	.LVL99:
 717 043c 616A     		ldr	r1, [r4, #36]
 718 043e 4E1F     		subs	r6, r1, #5
 719              	.LVL100:
 720 0440 7142     		rsbs	r1, r6, #0
 721 0442 7141     		adcs	r1, r1, r6
 722 0444 1E20     		movs	r0, #30
 723 0446 FFF7FEFF 		bl	_test_assert
 724              	.LVL101:
 725 044a 90B9     		cbnz	r0, .L28
 726              		.loc 1 179 0 is_stmt 0 discriminator 2
 727 044c FFF7FEFF 		bl	dbg_check_unlock
 728              	.LVL102:
 729              	.LBB26:
 730 0450 2B46     		mov	r3, r5
 731              	@ 179 "../../../test/testmbox.c" 1
 732 0452 83F31188 		msr     BASEPRI, r3
 733              	@ 0 "" 2
 734              		.thumb
 735              	.LBE26:
 736              	.LBB27:
 737              		.loc 1 180 0 is_stmt 1 discriminator 2
 738 0456 2023     		movs	r3, #32
 739              	@ 180 "../../../test/testmbox.c" 1
 740 0458 83F31188 		msr     BASEPRI, r3
 741              	@ 0 "" 2
ARM GAS  /tmp/cc5iJmuY.s 			page 14


 742              		.thumb
 743              	.LBE27:
 744 045c FFF7FEFF 		bl	dbg_check_lock
 745              	.LVL103:
 746 0460 A169     		ldr	r1, [r4, #24]
 747 0462 D1F10101 		rsbs	r1, r1, #1
 748 0466 38BF     		it	cc
 749 0468 0021     		movcc	r1, #0
 750 046a 1F20     		movs	r0, #31
 751 046c FFF7FEFF 		bl	_test_assert
 752              	.LVL104:
 753 0470 50B1     		cbz	r0, .L17
 754              	.LVL105:
 755              	.L28:
 756              		.loc 1 180 0 is_stmt 0 discriminator 1
 757 0472 FFF7FEFF 		bl	dbg_check_unlock
 758              	.LVL106:
 759              	.LBB28:
 760 0476 2B46     		mov	r3, r5
 761              	@ 180 "../../../test/testmbox.c" 1
 762 0478 83F31188 		msr     BASEPRI, r3
 763              	@ 0 "" 2
 764              		.thumb
 765              	.LBE28:
 766 047c EFE5     		b	.L1
 767              	.L34:
 768 047e 00BF     		.align	2
 769              	.L33:
 770 0480 00000000 		.word	.LANCHOR0
 771 0484 00000000 		.word	.LC0
 772              	.LVL107:
 773              	.L17:
 774              		.loc 1 180 0 discriminator 2
 775 0488 FFF7FEFF 		bl	dbg_check_unlock
 776              	.LVL108:
 777              	.LBB29:
 778 048c 2B46     		mov	r3, r5
 779              	@ 180 "../../../test/testmbox.c" 1
 780 048e 83F31188 		msr     BASEPRI, r3
 781              	@ 0 "" 2
 782              		.thumb
 783              	.LBE29:
 784              		.loc 1 181 0 is_stmt 1 discriminator 2
 785 0492 E168     		ldr	r1, [r4, #12]
 786 0494 A368     		ldr	r3, [r4, #8]
 787 0496 CD1A     		subs	r5, r1, r3
 788              	.LVL109:
 789 0498 6942     		rsbs	r1, r5, #0
 790 049a 6941     		adcs	r1, r1, r5
 791 049c 2020     		movs	r0, #32
 792 049e FFF7FEFF 		bl	_test_assert
 793              	.LVL110:
 794 04a2 0028     		cmp	r0, #0
 795 04a4 7FF4DBAD 		bne	.L1
 796              	.LBB30:
 797              		.loc 1 183 0
 798 04a8 2023     		movs	r3, #32
ARM GAS  /tmp/cc5iJmuY.s 			page 15


 799              	@ 183 "../../../test/testmbox.c" 1
 800 04aa 83F31188 		msr     BASEPRI, r3
 801              	@ 0 "" 2
 802              		.thumb
 803              	.LBE30:
 804 04ae FFF7FEFF 		bl	dbg_check_lock
 805              	.LVL111:
 806              		.loc 1 184 0
 807 04b2 4521     		movs	r1, #69
 808 04b4 2046     		mov	r0, r4
 809 04b6 FFF7FEFF 		bl	chMBPostAheadI
 810              	.LVL112:
 811              		.loc 1 185 0
 812 04ba D0F10101 		rsbs	r1, r0, #1
 813 04be 38BF     		it	cc
 814 04c0 0021     		movcc	r1, #0
 815 04c2 2120     		movs	r0, #33
 816              	.LVL113:
 817 04c4 FFF7FEFF 		bl	_test_assert
 818              	.LVL114:
 819 04c8 0028     		cmp	r0, #0
 820 04ca 7FF4C8AD 		bne	.L1
 821              		.loc 1 186 0
 822 04ce 4421     		movs	r1, #68
 823 04d0 2046     		mov	r0, r4
 824 04d2 FFF7FEFF 		bl	chMBPostAheadI
 825              	.LVL115:
 826              		.loc 1 187 0
 827 04d6 D0F10101 		rsbs	r1, r0, #1
 828 04da 38BF     		it	cc
 829 04dc 0021     		movcc	r1, #0
 830 04de 2220     		movs	r0, #34
 831              	.LVL116:
 832 04e0 FFF7FEFF 		bl	_test_assert
 833              	.LVL117:
 834 04e4 0028     		cmp	r0, #0
 835 04e6 7FF4BAAD 		bne	.L1
 836              		.loc 1 188 0
 837 04ea 4321     		movs	r1, #67
 838 04ec 2046     		mov	r0, r4
 839 04ee FFF7FEFF 		bl	chMBPostAheadI
 840              	.LVL118:
 841              		.loc 1 189 0
 842 04f2 D0F10101 		rsbs	r1, r0, #1
 843 04f6 38BF     		it	cc
 844 04f8 0021     		movcc	r1, #0
 845 04fa 2320     		movs	r0, #35
 846              	.LVL119:
 847 04fc FFF7FEFF 		bl	_test_assert
 848              	.LVL120:
 849 0500 0028     		cmp	r0, #0
 850 0502 7FF4ACAD 		bne	.L1
 851              		.loc 1 190 0
 852 0506 4221     		movs	r1, #66
 853 0508 2046     		mov	r0, r4
 854 050a FFF7FEFF 		bl	chMBPostAheadI
 855              	.LVL121:
ARM GAS  /tmp/cc5iJmuY.s 			page 16


 856              		.loc 1 191 0
 857 050e D0F10101 		rsbs	r1, r0, #1
 858 0512 38BF     		it	cc
 859 0514 0021     		movcc	r1, #0
 860 0516 2420     		movs	r0, #36
 861              	.LVL122:
 862 0518 FFF7FEFF 		bl	_test_assert
 863              	.LVL123:
 864 051c 0028     		cmp	r0, #0
 865 051e 7FF49EAD 		bne	.L1
 866              		.loc 1 192 0
 867 0522 6A4C     		ldr	r4, .L35
 868 0524 4121     		movs	r1, #65
 869 0526 2046     		mov	r0, r4
 870 0528 FFF7FEFF 		bl	chMBPostAheadI
 871              	.LVL124:
 872 052c 0546     		mov	r5, r0
 873              	.LVL125:
 874              		.loc 1 193 0
 875 052e FFF7FEFF 		bl	dbg_check_unlock
 876              	.LVL126:
 877              	.LBB31:
 878 0532 0023     		movs	r3, #0
 879              	@ 193 "../../../test/testmbox.c" 1
 880 0534 83F31188 		msr     BASEPRI, r3
 881              	@ 0 "" 2
 882              		.thumb
 883              	.LBE31:
 884              		.loc 1 194 0
 885 0538 EA1A     		subs	r2, r5, r3
 886 053a 5142     		rsbs	r1, r2, #0
 887 053c 5141     		adcs	r1, r1, r2
 888 053e 2520     		movs	r0, #37
 889 0540 FFF7FEFF 		bl	_test_assert
 890              	.LVL127:
 891 0544 0028     		cmp	r0, #0
 892 0546 7FF48AAD 		bne	.L1
 893              		.loc 1 195 0
 894 054a E168     		ldr	r1, [r4, #12]
 895 054c A368     		ldr	r3, [r4, #8]
 896 054e CB1A     		subs	r3, r1, r3
 897 0550 5942     		rsbs	r1, r3, #0
 898 0552 5941     		adcs	r1, r1, r3
 899 0554 2620     		movs	r0, #38
 900 0556 FFF7FEFF 		bl	_test_assert
 901              	.LVL128:
 902 055a 0028     		cmp	r0, #0
 903 055c 7FF47FAD 		bne	.L1
 904 0560 0524     		movs	r4, #5
 905              	.LVL129:
 906              	.L19:
 907              	.LBB32:
 908              		.loc 1 197 0
 909 0562 2023     		movs	r3, #32
 910              	@ 197 "../../../test/testmbox.c" 1
 911 0564 83F31188 		msr     BASEPRI, r3
 912              	@ 0 "" 2
ARM GAS  /tmp/cc5iJmuY.s 			page 17


 913              		.thumb
 914              	.LBE32:
 915              		.loc 1 198 0
 916 0568 584D     		ldr	r5, .L35
 917              		.loc 1 197 0
 918 056a FFF7FEFF 		bl	dbg_check_lock
 919              	.LVL130:
 920              		.loc 1 198 0
 921 056e 01A9     		add	r1, sp, #4
 922 0570 2846     		mov	r0, r5
 923 0572 FFF7FEFF 		bl	chMBFetchI
 924              	.LVL131:
 925 0576 0646     		mov	r6, r0
 926              	.LVL132:
 927              		.loc 1 199 0
 928 0578 FFF7FEFF 		bl	dbg_check_unlock
 929              	.LVL133:
 930              	.LBB33:
 931 057c 0023     		movs	r3, #0
 932              	@ 199 "../../../test/testmbox.c" 1
 933 057e 83F31188 		msr     BASEPRI, r3
 934              	@ 0 "" 2
 935              		.thumb
 936              	.LBE33:
 937              		.loc 1 200 0
 938 0582 B6EB030C 		subs	ip, r6, r3
 939 0586 DCF10001 		rsbs	r1, ip, #0
 940 058a 51EB0C01 		adcs	r1, r1, ip
 941 058e 2720     		movs	r0, #39
 942 0590 FFF7FEFF 		bl	_test_assert
 943              	.LVL134:
 944 0594 0028     		cmp	r0, #0
 945 0596 7FF462AD 		bne	.L1
 946              		.loc 1 201 0
 947 059a 9DF80400 		ldrb	r0, [sp, #4]	@ zero_extendqisi2
 948 059e FFF7FEFF 		bl	test_emit_token
 949              	.LVL135:
 950              		.loc 1 196 0
 951 05a2 013C     		subs	r4, r4, #1
 952              	.LVL136:
 953 05a4 DDD1     		bne	.L19
 954              		.loc 1 203 0
 955 05a6 2820     		movs	r0, #40
 956 05a8 4949     		ldr	r1, .L35+4
 957 05aa FFF7FEFF 		bl	_test_assert_sequence
 958              	.LVL137:
 959 05ae 0028     		cmp	r0, #0
 960 05b0 7FF455AD 		bne	.L1
 961              	.LBB34:
 962              		.loc 1 204 0
 963 05b4 2023     		movs	r3, #32
 964              	@ 204 "../../../test/testmbox.c" 1
 965 05b6 83F31188 		msr     BASEPRI, r3
 966              	@ 0 "" 2
 967              		.thumb
 968              	.LBE34:
 969 05ba FFF7FEFF 		bl	dbg_check_lock
ARM GAS  /tmp/cc5iJmuY.s 			page 18


 970              	.LVL138:
 971 05be 696A     		ldr	r1, [r5, #36]
 972 05c0 B1F1050E 		subs	lr, r1, #5
 973 05c4 DEF10001 		rsbs	r1, lr, #0
 974 05c8 51EB0E01 		adcs	r1, r1, lr
 975 05cc 2920     		movs	r0, #41
 976 05ce FFF7FEFF 		bl	_test_assert
 977              	.LVL139:
 978 05d2 0028     		cmp	r0, #0
 979 05d4 73D1     		bne	.L27
 980              		.loc 1 204 0 is_stmt 0 discriminator 2
 981 05d6 FFF7FEFF 		bl	dbg_check_unlock
 982              	.LVL140:
 983              	.LBB35:
 984 05da 2346     		mov	r3, r4
 985              	@ 204 "../../../test/testmbox.c" 1
 986 05dc 83F31188 		msr     BASEPRI, r3
 987              	@ 0 "" 2
 988              		.thumb
 989              	.LBE35:
 990              	.LBB36:
 991              		.loc 1 205 0 is_stmt 1 discriminator 2
 992 05e0 2023     		movs	r3, #32
 993              	@ 205 "../../../test/testmbox.c" 1
 994 05e2 83F31188 		msr     BASEPRI, r3
 995              	@ 0 "" 2
 996              		.thumb
 997              	.LBE36:
 998 05e6 FFF7FEFF 		bl	dbg_check_lock
 999              	.LVL141:
 1000 05ea A969     		ldr	r1, [r5, #24]
 1001 05ec D1F10101 		rsbs	r1, r1, #1
 1002 05f0 38BF     		it	cc
 1003 05f2 0021     		movcc	r1, #0
 1004 05f4 2A20     		movs	r0, #42
 1005 05f6 FFF7FEFF 		bl	_test_assert
 1006              	.LVL142:
 1007 05fa 0028     		cmp	r0, #0
 1008 05fc 5FD1     		bne	.L27
 1009 05fe FFF7FEFF 		bl	dbg_check_unlock
 1010              	.LVL143:
 1011              	.LBB37:
 1012 0602 2346     		mov	r3, r4
 1013              	@ 205 "../../../test/testmbox.c" 1
 1014 0604 83F31188 		msr     BASEPRI, r3
 1015              	@ 0 "" 2
 1016              		.thumb
 1017              	.LBE37:
 1018              		.loc 1 206 0 discriminator 2
 1019 0608 E968     		ldr	r1, [r5, #12]
 1020 060a AB68     		ldr	r3, [r5, #8]
 1021 060c CF1A     		subs	r7, r1, r3
 1022 060e 7942     		rsbs	r1, r7, #0
 1023 0610 7941     		adcs	r1, r1, r7
 1024 0612 2B20     		movs	r0, #43
 1025 0614 FFF7FEFF 		bl	_test_assert
 1026              	.LVL144:
ARM GAS  /tmp/cc5iJmuY.s 			page 19


 1027 0618 0028     		cmp	r0, #0
 1028 061a 7FF420AD 		bne	.L1
 1029              		.loc 1 211 0
 1030 061e 2846     		mov	r0, r5
 1031 0620 FFF7FEFF 		bl	chMBReset
 1032              	.LVL145:
 1033              	.LBB38:
 1034              		.loc 1 216 0
 1035 0624 2023     		movs	r3, #32
 1036              	@ 216 "../../../test/testmbox.c" 1
 1037 0626 83F31188 		msr     BASEPRI, r3
 1038              	@ 0 "" 2
 1039              		.thumb
 1040              	.LBE38:
 1041 062a FFF7FEFF 		bl	dbg_check_lock
 1042              	.LVL146:
 1043 062e 696A     		ldr	r1, [r5, #36]
 1044 0630 4E1F     		subs	r6, r1, #5
 1045              	.LVL147:
 1046 0632 7142     		rsbs	r1, r6, #0
 1047 0634 7141     		adcs	r1, r1, r6
 1048 0636 2C20     		movs	r0, #44
 1049 0638 FFF7FEFF 		bl	_test_assert
 1050              	.LVL148:
 1051 063c 0028     		cmp	r0, #0
 1052 063e 3ED1     		bne	.L27
 1053              		.loc 1 216 0 is_stmt 0 discriminator 2
 1054 0640 FFF7FEFF 		bl	dbg_check_unlock
 1055              	.LVL149:
 1056              	.LBB39:
 1057 0644 2346     		mov	r3, r4
 1058              	@ 216 "../../../test/testmbox.c" 1
 1059 0646 83F31188 		msr     BASEPRI, r3
 1060              	@ 0 "" 2
 1061              		.thumb
 1062              	.LBE39:
 1063              	.LBB40:
 1064              		.loc 1 217 0 is_stmt 1 discriminator 2
 1065 064a 2023     		movs	r3, #32
 1066              	@ 217 "../../../test/testmbox.c" 1
 1067 064c 83F31188 		msr     BASEPRI, r3
 1068              	@ 0 "" 2
 1069              		.thumb
 1070              	.LBE40:
 1071 0650 FFF7FEFF 		bl	dbg_check_lock
 1072              	.LVL150:
 1073 0654 A969     		ldr	r1, [r5, #24]
 1074 0656 D1F10101 		rsbs	r1, r1, #1
 1075 065a 38BF     		it	cc
 1076 065c 0021     		movcc	r1, #0
 1077 065e 2D20     		movs	r0, #45
 1078 0660 FFF7FEFF 		bl	_test_assert
 1079              	.LVL151:
 1080 0664 58BB     		cbnz	r0, .L27
 1081 0666 FFF7FEFF 		bl	dbg_check_unlock
 1082              	.LVL152:
 1083              	.LBB41:
ARM GAS  /tmp/cc5iJmuY.s 			page 20


 1084 066a 2346     		mov	r3, r4
 1085              	@ 217 "../../../test/testmbox.c" 1
 1086 066c 83F31188 		msr     BASEPRI, r3
 1087              	@ 0 "" 2
 1088              		.thumb
 1089              	.LBE41:
 1090              	.LBB42:
 1091              		.loc 1 218 0 discriminator 2
 1092 0670 2023     		movs	r3, #32
 1093              	@ 218 "../../../test/testmbox.c" 1
 1094 0672 83F31188 		msr     BASEPRI, r3
 1095              	@ 0 "" 2
 1096              		.thumb
 1097              	.LBE42:
 1098 0676 FFF7FEFF 		bl	dbg_check_lock
 1099              	.LVL153:
 1100 067a 2968     		ldr	r1, [r5]
 1101 067c AB68     		ldr	r3, [r5, #8]
 1102 067e CA1A     		subs	r2, r1, r3
 1103 0680 5142     		rsbs	r1, r2, #0
 1104 0682 5141     		adcs	r1, r1, r2
 1105 0684 2E20     		movs	r0, #46
 1106 0686 FFF7FEFF 		bl	_test_assert
 1107              	.LVL154:
 1108 068a C0B9     		cbnz	r0, .L27
 1109 068c FFF7FEFF 		bl	dbg_check_unlock
 1110              	.LVL155:
 1111              	.LBB43:
 1112 0690 2346     		mov	r3, r4
 1113              	@ 218 "../../../test/testmbox.c" 1
 1114 0692 83F31188 		msr     BASEPRI, r3
 1115              	@ 0 "" 2
 1116              		.thumb
 1117              	.LBE43:
 1118              	.LBB44:
 1119              		.loc 1 219 0 discriminator 2
 1120 0696 2023     		movs	r3, #32
 1121              	@ 219 "../../../test/testmbox.c" 1
 1122 0698 83F31188 		msr     BASEPRI, r3
 1123              	@ 0 "" 2
 1124              		.thumb
 1125              	.LBE44:
 1126 069c FFF7FEFF 		bl	dbg_check_lock
 1127              	.LVL156:
 1128 06a0 2968     		ldr	r1, [r5]
 1129 06a2 EB68     		ldr	r3, [r5, #12]
 1130 06a4 CB1A     		subs	r3, r1, r3
 1131 06a6 5942     		rsbs	r1, r3, #0
 1132 06a8 4FF02F00 		mov	r0, #47
 1133 06ac 5941     		adcs	r1, r1, r3
 1134 06ae FFF7FEFF 		bl	_test_assert
 1135              	.LVL157:
 1136              	.L25:
 1137 06b2 FFF7FEFF 		bl	dbg_check_unlock
 1138              	.LVL158:
 1139              	.LBB45:
 1140 06b6 0023     		movs	r3, #0
ARM GAS  /tmp/cc5iJmuY.s 			page 21


 1141              	@ 219 "../../../test/testmbox.c" 1
 1142 06b8 83F31188 		msr     BASEPRI, r3
 1143              	@ 0 "" 2
 1144              		.thumb
 1145              	.LBE45:
 1146 06bc CFE4     		b	.L1
 1147              	.L27:
 1148              		.loc 1 218 0 discriminator 1
 1149 06be FFF7FEFF 		bl	dbg_check_unlock
 1150              	.LVL159:
 1151              	.LBB46:
 1152 06c2 2346     		mov	r3, r4
 1153              	@ 218 "../../../test/testmbox.c" 1
 1154 06c4 83F31188 		msr     BASEPRI, r3
 1155              	@ 0 "" 2
 1156              		.thumb
 1157              	.LBE46:
 1158 06c8 C9E4     		b	.L1
 1159              	.L36:
 1160 06ca 00BF     		.align	2
 1161              	.L35:
 1162 06cc 00000000 		.word	.LANCHOR0
 1163 06d0 00000000 		.word	.LC0
 1164              		.cfi_endproc
 1165              	.LFE8:
 1166              		.size	mbox1_execute, .-mbox1_execute
 1167 06d4 AFF30080 		.section	.text.mbox1_setup,"ax",%progbits
 1167      AFF30080 
 1167      AFF30080 
 1168              		.align	2
 1169              		.p2align 4,,15
 1170              		.thumb
 1171              		.thumb_func
 1172              		.type	mbox1_setup, %function
 1173              	mbox1_setup:
 1174              	.LFB7:
 1175              		.loc 1 71 0
 1176              		.cfi_startproc
 1177              		@ args = 0, pretend = 0, frame = 0
 1178              		@ frame_needed = 0, uses_anonymous_args = 0
 1179              		@ link register save eliminated.
 1180              		.loc 1 73 0
 1181 0000 0248     		ldr	r0, .L38
 1182 0002 0349     		ldr	r1, .L38+4
 1183 0004 0522     		movs	r2, #5
 1184 0006 FFF7FEBF 		b	chMBInit
 1185              	.LVL160:
 1186              	.L39:
 1187 000a 00BF     		.align	2
 1188              	.L38:
 1189 000c 00000000 		.word	.LANCHOR0
 1190 0010 00000000 		.word	test
 1191              		.cfi_endproc
 1192              	.LFE7:
 1193              		.size	mbox1_setup, .-mbox1_setup
 1194              		.global	patternmbox
 1195              		.global	testmbox1
ARM GAS  /tmp/cc5iJmuY.s 			page 22


 1196 0014 AFF30080 		.section	.data.mb1,"aw",%progbits
 1196      AFF30080 
 1196      AFF30080 
 1197              		.align	2
 1198              		.set	.LANCHOR0,. + 0
 1199              		.type	mb1, %object
 1200              		.size	mb1, 40
 1201              	mb1:
 1202 0000 00000000 		.word	test
 1203 0004 14000000 		.word	test+20
 1204 0008 00000000 		.word	test
 1205 000c 00000000 		.word	test
 1206 0010 10000000 		.word	mb1+16
 1207 0014 10000000 		.word	mb1+16
 1208 0018 00000000 		.word	0
 1209 001c 1C000000 		.word	mb1+28
 1210 0020 1C000000 		.word	mb1+28
 1211 0024 05000000 		.word	5
 1212              		.section	.rodata.patternmbox,"a",%progbits
 1213              		.align	2
 1214              		.type	patternmbox, %object
 1215              		.size	patternmbox, 8
 1216              	patternmbox:
 1217 0000 00000000 		.word	testmbox1
 1218 0004 00000000 		.word	0
 1219              		.section	.rodata.str1.4,"aMS",%progbits,1
 1220              		.align	2
 1221              	.LC0:
 1222 0000 41424344 		.ascii	"ABCDE\000"
 1222      4500
 1223 0006 0000     		.space	2
 1224              	.LC1:
 1225 0008 4D61696C 		.ascii	"Mailboxes, queuing and timeouts\000"
 1225      626F7865 
 1225      732C2071 
 1225      75657569 
 1225      6E672061 
 1226              		.section	.rodata.testmbox1,"a",%progbits
 1227              		.align	2
 1228              		.type	testmbox1, %object
 1229              		.size	testmbox1, 16
 1230              	testmbox1:
 1231 0000 08000000 		.word	.LC1
 1232 0004 00000000 		.word	mbox1_setup
 1233 0008 00000000 		.word	0
 1234 000c 00000000 		.word	mbox1_execute
 1235              		.text
 1236              	.Letext0:
 1237              		.file 2 "/opt/ARM/arm-none-eabi/include/machine/_default_types.h"
 1238              		.file 3 "/opt/ARM/arm-none-eabi/include/stdint.h"
 1239              		.file 4 "../../../os/ports/GCC/ARMCMx/chtypes.h"
 1240              		.file 5 "../../../os/kernel/include/chlists.h"
 1241              		.file 6 "../../../os/kernel/include/chthreads.h"
 1242              		.file 7 "../../../os/ports/GCC/ARMCMx/chcore_v7m.h"
 1243              		.file 8 "../../../os/kernel/include/chsem.h"
 1244              		.file 9 "../../../os/kernel/include/chmtx.h"
 1245              		.file 10 "../../../os/kernel/include/chmboxes.h"
ARM GAS  /tmp/cc5iJmuY.s 			page 23


 1246              		.file 11 "../../../test/test.h"
 1247              		.file 12 "../../../os/kernel/include/chdebug.h"
