ARM GAS  /tmp/cceMQQMf.s 			page 1


   1              		.syntax unified
   2              		.cpu cortex-m4
   3              		.fpu softvfp
   4              		.eabi_attribute 20, 1
   5              		.eabi_attribute 21, 1
   6              		.eabi_attribute 23, 3
   7              		.eabi_attribute 24, 1
   8              		.eabi_attribute 25, 1
   9              		.eabi_attribute 26, 1
  10              		.eabi_attribute 30, 2
  11              		.eabi_attribute 34, 1
  12              		.eabi_attribute 18, 4
  13              		.thumb
  14              		.file	"chevents.c"
  15              		.text
  16              	.Ltext0:
  17              		.cfi_sections	.debug_frame
  18              		.section	.text.chEvtRegisterMask,"ax",%progbits
  19              		.align	2
  20              		.p2align 4,,15
  21              		.global	chEvtRegisterMask
  22              		.thumb
  23              		.thumb_func
  24              		.type	chEvtRegisterMask, %function
  25              	chEvtRegisterMask:
  26              	.LFB7:
  27              		.file 1 "../../../os/kernel/src/chevents.c"
  28              		.loc 1 85 0
  29              		.cfi_startproc
  30              		@ args = 0, pretend = 0, frame = 0
  31              		@ frame_needed = 0, uses_anonymous_args = 0
  32              	.LVL0:
  33 0000 F8B5     		push	{r3, r4, r5, r6, r7, lr}
  34              		.cfi_def_cfa_offset 24
  35              		.cfi_offset 3, -24
  36              		.cfi_offset 4, -20
  37              		.cfi_offset 5, -16
  38              		.cfi_offset 6, -12
  39              		.cfi_offset 7, -8
  40              		.cfi_offset 14, -4
  41              		.loc 1 87 0
  42 0002 0546     		mov	r5, r0
  43              		.loc 1 85 0
  44 0004 0C46     		mov	r4, r1
  45 0006 1746     		mov	r7, r2
  46              		.loc 1 87 0
  47 0008 A0B1     		cbz	r0, .L2
  48              		.loc 1 87 0 is_stmt 0 discriminator 2
  49 000a 99B1     		cbz	r1, .L2
  50              	.LVL1:
  51              	.L3:
  52              	.LBB2:
  53              		.loc 1 89 0 is_stmt 1
  54 000c 2023     		movs	r3, #32
  55              	@ 89 "../../../os/kernel/src/chevents.c" 1
  56 000e 83F31188 		msr     BASEPRI, r3
  57              	@ 0 "" 2
ARM GAS  /tmp/cceMQQMf.s 			page 2


  58              		.thumb
  59              	.LBE2:
  60 0012 FFF7FEFF 		bl	dbg_check_lock
  61              	.LVL2:
  62              		.loc 1 92 0
  63 0016 094A     		ldr	r2, .L8
  64              		.loc 1 90 0
  65 0018 2B68     		ldr	r3, [r5]
  66              		.loc 1 92 0
  67 001a 9269     		ldr	r2, [r2, #24]
  68              		.loc 1 90 0
  69 001c 2360     		str	r3, [r4]
  70              		.loc 1 94 0
  71 001e 0026     		movs	r6, #0
  72              		.loc 1 91 0
  73 0020 2C60     		str	r4, [r5]
  74              		.loc 1 92 0
  75 0022 6260     		str	r2, [r4, #4]
  76              		.loc 1 93 0
  77 0024 A760     		str	r7, [r4, #8]
  78              		.loc 1 94 0
  79 0026 E660     		str	r6, [r4, #12]
  80              		.loc 1 95 0
  81 0028 FFF7FEFF 		bl	dbg_check_unlock
  82              	.LVL3:
  83              	.LBB3:
  84 002c 3346     		mov	r3, r6
  85              	@ 95 "../../../os/kernel/src/chevents.c" 1
  86 002e 83F31188 		msr     BASEPRI, r3
  87              	@ 0 "" 2
  88              		.thumb
  89 0032 F8BD     		pop	{r3, r4, r5, r6, r7, pc}
  90              	.LVL4:
  91              	.L2:
  92              	.LBE3:
  93              		.loc 1 87 0 discriminator 1
  94 0034 0248     		ldr	r0, .L8+4
  95              	.LVL5:
  96 0036 FFF7FEFF 		bl	chDbgPanic
  97              	.LVL6:
  98 003a E7E7     		b	.L3
  99              	.L9:
 100              		.align	2
 101              	.L8:
 102 003c 00000000 		.word	rlist
 103 0040 00000000 		.word	.LC0
 104              		.cfi_endproc
 105              	.LFE7:
 106              		.size	chEvtRegisterMask, .-chEvtRegisterMask
 107 0044 AFF30080 		.section	.text.chEvtUnregister,"ax",%progbits
 107      AFF30080 
 107      AFF30080 
 108              		.align	2
 109              		.p2align 4,,15
 110              		.global	chEvtUnregister
 111              		.thumb
 112              		.thumb_func
ARM GAS  /tmp/cceMQQMf.s 			page 3


 113              		.type	chEvtUnregister, %function
 114              	chEvtUnregister:
 115              	.LFB8:
 116              		.loc 1 111 0
 117              		.cfi_startproc
 118              		@ args = 0, pretend = 0, frame = 0
 119              		@ frame_needed = 0, uses_anonymous_args = 0
 120              	.LVL7:
 121 0000 38B5     		push	{r3, r4, r5, lr}
 122              		.cfi_def_cfa_offset 16
 123              		.cfi_offset 3, -16
 124              		.cfi_offset 4, -12
 125              		.cfi_offset 5, -8
 126              		.cfi_offset 14, -4
 127              		.loc 1 114 0
 128 0002 0446     		mov	r4, r0
 129              		.loc 1 111 0
 130 0004 0D46     		mov	r5, r1
 131              		.loc 1 114 0
 132 0006 D8B1     		cbz	r0, .L11
 133              		.loc 1 114 0 is_stmt 0 discriminator 2
 134 0008 D1B1     		cbz	r1, .L11
 135              	.LVL8:
 136              	.L12:
 137              	.LBB4:
 138              		.loc 1 117 0 is_stmt 1
 139 000a 2023     		movs	r3, #32
 140              	@ 117 "../../../os/kernel/src/chevents.c" 1
 141 000c 83F31188 		msr     BASEPRI, r3
 142              	@ 0 "" 2
 143              		.thumb
 144              	.LBE4:
 145 0010 FFF7FEFF 		bl	dbg_check_lock
 146              	.LVL9:
 147              		.loc 1 118 0
 148 0014 2246     		mov	r2, r4
 149 0016 02E0     		b	.L13
 150              	.LVL10:
 151              	.L16:
 152              		.loc 1 119 0
 153 0018 9D42     		cmp	r5, r3
 154 001a 09D0     		beq	.L20
 155 001c 1A46     		mov	r2, r3
 156              	.LVL11:
 157              	.L13:
 158              		.loc 1 118 0 discriminator 1
 159 001e 1368     		ldr	r3, [r2]
 160 0020 A342     		cmp	r3, r4
 161 0022 F9D1     		bne	.L16
 162              		.loc 1 125 0
 163 0024 FFF7FEFF 		bl	dbg_check_unlock
 164              	.LVL12:
 165              	.LBB5:
 166 0028 0023     		movs	r3, #0
 167              	@ 125 "../../../os/kernel/src/chevents.c" 1
 168 002a 83F31188 		msr     BASEPRI, r3
 169              	@ 0 "" 2
ARM GAS  /tmp/cceMQQMf.s 			page 4


 170              		.thumb
 171 002e 38BD     		pop	{r3, r4, r5, pc}
 172              	.LVL13:
 173              	.L20:
 174              	.LBE5:
 175              		.loc 1 120 0
 176 0030 2B68     		ldr	r3, [r5]
 177 0032 1360     		str	r3, [r2]
 178              		.loc 1 125 0
 179 0034 FFF7FEFF 		bl	dbg_check_unlock
 180              	.LVL14:
 181              	.LBB6:
 182 0038 0023     		movs	r3, #0
 183              	@ 125 "../../../os/kernel/src/chevents.c" 1
 184 003a 83F31188 		msr     BASEPRI, r3
 185              	@ 0 "" 2
 186              		.thumb
 187 003e 38BD     		pop	{r3, r4, r5, pc}
 188              	.LVL15:
 189              	.L11:
 190              	.LBE6:
 191              		.loc 1 114 0 discriminator 1
 192 0040 0148     		ldr	r0, .L21
 193              	.LVL16:
 194 0042 FFF7FEFF 		bl	chDbgPanic
 195              	.LVL17:
 196 0046 E0E7     		b	.L12
 197              	.L22:
 198              		.align	2
 199              	.L21:
 200 0048 18000000 		.word	.LC1
 201              		.cfi_endproc
 202              	.LFE8:
 203              		.size	chEvtUnregister, .-chEvtUnregister
 204 004c AFF30080 		.section	.text.chEvtGetAndClearEvents,"ax",%progbits
 205              		.align	2
 206              		.p2align 4,,15
 207              		.global	chEvtGetAndClearEvents
 208              		.thumb
 209              		.thumb_func
 210              		.type	chEvtGetAndClearEvents, %function
 211              	chEvtGetAndClearEvents:
 212              	.LFB9:
 213              		.loc 1 136 0
 214              		.cfi_startproc
 215              		@ args = 0, pretend = 0, frame = 0
 216              		@ frame_needed = 0, uses_anonymous_args = 0
 217              	.LVL18:
 218 0000 10B5     		push	{r4, lr}
 219              		.cfi_def_cfa_offset 8
 220              		.cfi_offset 4, -8
 221              		.cfi_offset 14, -4
 222              	.LBB7:
 223              		.loc 1 139 0
 224 0002 2023     		movs	r3, #32
 225              	.LBE7:
 226              		.loc 1 136 0
ARM GAS  /tmp/cceMQQMf.s 			page 5


 227 0004 0446     		mov	r4, r0
 228              	.LBB8:
 229              		.loc 1 139 0
 230              	@ 139 "../../../os/kernel/src/chevents.c" 1
 231 0006 83F31188 		msr     BASEPRI, r3
 232              	@ 0 "" 2
 233              		.thumb
 234              	.LBE8:
 235 000a FFF7FEFF 		bl	dbg_check_lock
 236              	.LVL19:
 237              		.loc 1 141 0
 238 000e 074B     		ldr	r3, .L24
 239 0010 9B69     		ldr	r3, [r3, #24]
 240 0012 D86B     		ldr	r0, [r3, #60]
 241              		.loc 1 142 0
 242 0014 20EA0402 		bic	r2, r0, r4
 243 0018 DA63     		str	r2, [r3, #60]
 244              		.loc 1 141 0
 245 001a 0440     		ands	r4, r4, r0
 246              	.LVL20:
 247              		.loc 1 144 0
 248 001c FFF7FEFF 		bl	dbg_check_unlock
 249              	.LVL21:
 250              	.LBB9:
 251 0020 0023     		movs	r3, #0
 252              	@ 144 "../../../os/kernel/src/chevents.c" 1
 253 0022 83F31188 		msr     BASEPRI, r3
 254              	@ 0 "" 2
 255              		.thumb
 256              	.LBE9:
 257              		.loc 1 146 0
 258 0026 2046     		mov	r0, r4
 259 0028 10BD     		pop	{r4, pc}
 260              	.LVL22:
 261              	.L25:
 262 002a 00BF     		.align	2
 263              	.L24:
 264 002c 00000000 		.word	rlist
 265              		.cfi_endproc
 266              	.LFE9:
 267              		.size	chEvtGetAndClearEvents, .-chEvtGetAndClearEvents
 268              		.section	.text.chEvtAddEvents,"ax",%progbits
 269              		.align	2
 270              		.p2align 4,,15
 271              		.global	chEvtAddEvents
 272              		.thumb
 273              		.thumb_func
 274              		.type	chEvtAddEvents, %function
 275              	chEvtAddEvents:
 276              	.LFB10:
 277              		.loc 1 157 0
 278              		.cfi_startproc
 279              		@ args = 0, pretend = 0, frame = 0
 280              		@ frame_needed = 0, uses_anonymous_args = 0
 281              	.LVL23:
 282 0000 10B5     		push	{r4, lr}
 283              		.cfi_def_cfa_offset 8
ARM GAS  /tmp/cceMQQMf.s 			page 6


 284              		.cfi_offset 4, -8
 285              		.cfi_offset 14, -4
 286              	.LBB10:
 287              		.loc 1 159 0
 288 0002 2023     		movs	r3, #32
 289              	.LBE10:
 290              		.loc 1 157 0
 291 0004 0446     		mov	r4, r0
 292              	.LBB11:
 293              		.loc 1 159 0
 294              	@ 159 "../../../os/kernel/src/chevents.c" 1
 295 0006 83F31188 		msr     BASEPRI, r3
 296              	@ 0 "" 2
 297              		.thumb
 298              	.LBE11:
 299 000a FFF7FEFF 		bl	dbg_check_lock
 300              	.LVL24:
 301              		.loc 1 161 0
 302 000e 064B     		ldr	r3, .L27
 303 0010 9B69     		ldr	r3, [r3, #24]
 304 0012 DA6B     		ldr	r2, [r3, #60]
 305 0014 1443     		orrs	r4, r4, r2
 306              	.LVL25:
 307 0016 DC63     		str	r4, [r3, #60]
 308              	.LVL26:
 309              		.loc 1 163 0
 310 0018 FFF7FEFF 		bl	dbg_check_unlock
 311              	.LVL27:
 312              	.LBB12:
 313 001c 0023     		movs	r3, #0
 314              	@ 163 "../../../os/kernel/src/chevents.c" 1
 315 001e 83F31188 		msr     BASEPRI, r3
 316              	@ 0 "" 2
 317              		.thumb
 318              	.LBE12:
 319              		.loc 1 165 0
 320 0022 2046     		mov	r0, r4
 321 0024 10BD     		pop	{r4, pc}
 322              	.LVL28:
 323              	.L28:
 324 0026 00BF     		.align	2
 325              	.L27:
 326 0028 00000000 		.word	rlist
 327              		.cfi_endproc
 328              	.LFE10:
 329              		.size	chEvtAddEvents, .-chEvtAddEvents
 330 002c AFF30080 		.section	.text.chEvtGetAndClearFlags,"ax",%progbits
 331              		.align	2
 332              		.p2align 4,,15
 333              		.global	chEvtGetAndClearFlags
 334              		.thumb
 335              		.thumb_func
 336              		.type	chEvtGetAndClearFlags, %function
 337              	chEvtGetAndClearFlags:
 338              	.LFB12:
 339              		.loc 1 209 0
 340              		.cfi_startproc
ARM GAS  /tmp/cceMQQMf.s 			page 7


 341              		@ args = 0, pretend = 0, frame = 0
 342              		@ frame_needed = 0, uses_anonymous_args = 0
 343              	.LVL29:
 344 0000 70B5     		push	{r4, r5, r6, lr}
 345              		.cfi_def_cfa_offset 16
 346              		.cfi_offset 4, -16
 347              		.cfi_offset 5, -12
 348              		.cfi_offset 6, -8
 349              		.cfi_offset 14, -4
 350              	.LBB13:
 351              		.loc 1 212 0
 352 0002 2023     		movs	r3, #32
 353              	.LBE13:
 354              		.loc 1 209 0
 355 0004 0546     		mov	r5, r0
 356              	.LBB14:
 357              		.loc 1 212 0
 358              	@ 212 "../../../os/kernel/src/chevents.c" 1
 359 0006 83F31188 		msr     BASEPRI, r3
 360              	@ 0 "" 2
 361              		.thumb
 362              	.LBE14:
 363              		.loc 1 215 0
 364 000a 0024     		movs	r4, #0
 365              		.loc 1 212 0
 366 000c FFF7FEFF 		bl	dbg_check_lock
 367              	.LVL30:
 368              		.loc 1 214 0
 369 0010 EE68     		ldr	r6, [r5, #12]
 370              	.LVL31:
 371              		.loc 1 215 0
 372 0012 EC60     		str	r4, [r5, #12]
 373              		.loc 1 217 0
 374 0014 FFF7FEFF 		bl	dbg_check_unlock
 375              	.LVL32:
 376              	.LBB15:
 377 0018 2346     		mov	r3, r4
 378              	@ 217 "../../../os/kernel/src/chevents.c" 1
 379 001a 83F31188 		msr     BASEPRI, r3
 380              	@ 0 "" 2
 381              		.thumb
 382              	.LBE15:
 383              		.loc 1 219 0
 384 001e 3046     		mov	r0, r6
 385 0020 70BD     		pop	{r4, r5, r6, pc}
 386              		.cfi_endproc
 387              	.LFE12:
 388              		.size	chEvtGetAndClearFlags, .-chEvtGetAndClearFlags
 389 0022 00BFAFF3 		.section	.text.chEvtSignalI,"ax",%progbits
 389      0080AFF3 
 389      0080AFF3 
 389      0080
 390              		.align	2
 391              		.p2align 4,,15
 392              		.global	chEvtSignalI
 393              		.thumb
 394              		.thumb_func
ARM GAS  /tmp/cceMQQMf.s 			page 8


 395              		.type	chEvtSignalI, %function
 396              	chEvtSignalI:
 397              	.LFB14:
 398              		.loc 1 251 0
 399              		.cfi_startproc
 400              		@ args = 0, pretend = 0, frame = 0
 401              		@ frame_needed = 0, uses_anonymous_args = 0
 402              	.LVL33:
 403 0000 38B5     		push	{r3, r4, r5, lr}
 404              		.cfi_def_cfa_offset 16
 405              		.cfi_offset 3, -16
 406              		.cfi_offset 4, -12
 407              		.cfi_offset 5, -8
 408              		.cfi_offset 14, -4
 409              		.loc 1 251 0
 410 0002 0446     		mov	r4, r0
 411 0004 0D46     		mov	r5, r1
 412              		.loc 1 253 0
 413 0006 FFF7FEFF 		bl	chDbgCheckClassI
 414              	.LVL34:
 415              		.loc 1 254 0
 416 000a C4B1     		cbz	r4, .L35
 417              	.L31:
 418              		.loc 1 256 0
 419 000c E26B     		ldr	r2, [r4, #60]
 420              		.loc 1 258 0
 421 000e 94F82030 		ldrb	r3, [r4, #32]	@ zero_extendqisi2
 422              		.loc 1 256 0
 423 0012 45EA0201 		orr	r1, r5, r2
 424              		.loc 1 258 0
 425 0016 082B     		cmp	r3, #8
 426              		.loc 1 256 0
 427 0018 E163     		str	r1, [r4, #60]
 428              		.loc 1 258 0
 429 001a 0CD0     		beq	.L36
 430              		.loc 1 259 0
 431 001c 092B     		cmp	r3, #9
 432 001e 00D0     		beq	.L37
 433              	.L30:
 434 0020 38BD     		pop	{r3, r4, r5, pc}
 435              	.LVL35:
 436              	.L37:
 437              		.loc 1 261 0
 438 0022 A36A     		ldr	r3, [r4, #40]
 439 0024 1940     		ands	r1, r1, r3
 440              		.loc 1 260 0
 441 0026 8B42     		cmp	r3, r1
 442 0028 FAD1     		bne	.L30
 443              	.L33:
 444              	.LVL36:
 445              	.LBB18:
 446              	.LBB19:
 447              		.loc 1 262 0
 448 002a 2046     		mov	r0, r4
 449 002c FFF7FEFF 		bl	chSchReadyI
 450              	.LVL37:
 451 0030 0023     		movs	r3, #0
ARM GAS  /tmp/cceMQQMf.s 			page 9


 452 0032 8362     		str	r3, [r0, #40]
 453 0034 38BD     		pop	{r3, r4, r5, pc}
 454              	.LVL38:
 455              	.L36:
 456              	.LBE19:
 457              	.LBE18:
 458              		.loc 1 259 0 discriminator 1
 459 0036 A36A     		ldr	r3, [r4, #40]
 460              		.loc 1 258 0 discriminator 1
 461 0038 1942     		tst	r1, r3
 462 003a F6D1     		bne	.L33
 463 003c 38BD     		pop	{r3, r4, r5, pc}
 464              	.LVL39:
 465              	.L35:
 466              		.loc 1 254 0 discriminator 1
 467 003e 0248     		ldr	r0, .L38
 468 0040 FFF7FEFF 		bl	chDbgPanic
 469              	.LVL40:
 470 0044 E2E7     		b	.L31
 471              	.L39:
 472 0046 00BF     		.align	2
 473              	.L38:
 474 0048 2C000000 		.word	.LC2
 475              		.cfi_endproc
 476              	.LFE14:
 477              		.size	chEvtSignalI, .-chEvtSignalI
 478 004c AFF30080 		.section	.text.chEvtBroadcastFlagsI,"ax",%progbits
 479              		.align	2
 480              		.p2align 4,,15
 481              		.global	chEvtBroadcastFlagsI
 482              		.thumb
 483              		.thumb_func
 484              		.type	chEvtBroadcastFlagsI, %function
 485              	chEvtBroadcastFlagsI:
 486              	.LFB11:
 487              		.loc 1 184 0
 488              		.cfi_startproc
 489              		@ args = 0, pretend = 0, frame = 0
 490              		@ frame_needed = 0, uses_anonymous_args = 0
 491              	.LVL41:
 492 0000 70B5     		push	{r4, r5, r6, lr}
 493              		.cfi_def_cfa_offset 16
 494              		.cfi_offset 4, -16
 495              		.cfi_offset 5, -12
 496              		.cfi_offset 6, -8
 497              		.cfi_offset 14, -4
 498              		.loc 1 184 0
 499 0002 0546     		mov	r5, r0
 500 0004 0E46     		mov	r6, r1
 501              		.loc 1 187 0
 502 0006 FFF7FEFF 		bl	chDbgCheckClassI
 503              	.LVL42:
 504              		.loc 1 188 0
 505 000a 65B1     		cbz	r5, .L45
 506              	.L41:
 507              		.loc 1 190 0
 508 000c 2C68     		ldr	r4, [r5]
ARM GAS  /tmp/cceMQQMf.s 			page 10


 509              	.LVL43:
 510              		.loc 1 191 0
 511 000e A542     		cmp	r5, r4
 512 0010 08D0     		beq	.L40
 513              	.L44:
 514              		.loc 1 193 0
 515 0012 201D     		adds	r0, r4, #4
 516 0014 0BC8     		ldmia	r0, {r0, r1, r3}
 517              		.loc 1 192 0
 518 0016 3343     		orrs	r3, r3, r6
 519 0018 E360     		str	r3, [r4, #12]
 520              		.loc 1 193 0
 521 001a FFF7FEFF 		bl	chEvtSignalI
 522              	.LVL44:
 523              		.loc 1 194 0
 524 001e 2468     		ldr	r4, [r4]
 525              	.LVL45:
 526              		.loc 1 191 0
 527 0020 A542     		cmp	r5, r4
 528 0022 F6D1     		bne	.L44
 529              	.L40:
 530 0024 70BD     		pop	{r4, r5, r6, pc}
 531              	.LVL46:
 532              	.L45:
 533              		.loc 1 188 0 discriminator 1
 534 0026 0248     		ldr	r0, .L46
 535 0028 FFF7FEFF 		bl	chDbgPanic
 536              	.LVL47:
 537 002c EEE7     		b	.L41
 538              	.L47:
 539 002e 00BF     		.align	2
 540              	.L46:
 541 0030 40000000 		.word	.LC3
 542              		.cfi_endproc
 543              	.LFE11:
 544              		.size	chEvtBroadcastFlagsI, .-chEvtBroadcastFlagsI
 545 0034 AFF30080 		.section	.text.chEvtSignal,"ax",%progbits
 545      AFF30080 
 545      AFF30080 
 546              		.align	2
 547              		.p2align 4,,15
 548              		.global	chEvtSignal
 549              		.thumb
 550              		.thumb_func
 551              		.type	chEvtSignal, %function
 552              	chEvtSignal:
 553              	.LFB13:
 554              		.loc 1 229 0
 555              		.cfi_startproc
 556              		@ args = 0, pretend = 0, frame = 0
 557              		@ frame_needed = 0, uses_anonymous_args = 0
 558              	.LVL48:
 559 0000 38B5     		push	{r3, r4, r5, lr}
 560              		.cfi_def_cfa_offset 16
 561              		.cfi_offset 3, -16
 562              		.cfi_offset 4, -12
 563              		.cfi_offset 5, -8
ARM GAS  /tmp/cceMQQMf.s 			page 11


 564              		.cfi_offset 14, -4
 565              		.loc 1 231 0
 566 0002 0446     		mov	r4, r0
 567              		.loc 1 229 0
 568 0004 0D46     		mov	r5, r1
 569              		.loc 1 231 0
 570 0006 80B1     		cbz	r0, .L50
 571              	.LVL49:
 572              	.L49:
 573              	.LBB20:
 574              		.loc 1 233 0
 575 0008 2023     		movs	r3, #32
 576              	@ 233 "../../../os/kernel/src/chevents.c" 1
 577 000a 83F31188 		msr     BASEPRI, r3
 578              	@ 0 "" 2
 579              		.thumb
 580              	.LBE20:
 581 000e FFF7FEFF 		bl	dbg_check_lock
 582              	.LVL50:
 583              		.loc 1 234 0
 584 0012 2046     		mov	r0, r4
 585 0014 2946     		mov	r1, r5
 586 0016 FFF7FEFF 		bl	chEvtSignalI
 587              	.LVL51:
 588              		.loc 1 235 0
 589 001a FFF7FEFF 		bl	chSchRescheduleS
 590              	.LVL52:
 591              		.loc 1 236 0
 592 001e FFF7FEFF 		bl	dbg_check_unlock
 593              	.LVL53:
 594              	.LBB21:
 595 0022 0023     		movs	r3, #0
 596              	@ 236 "../../../os/kernel/src/chevents.c" 1
 597 0024 83F31188 		msr     BASEPRI, r3
 598              	@ 0 "" 2
 599              		.thumb
 600 0028 38BD     		pop	{r3, r4, r5, pc}
 601              	.LVL54:
 602              	.L50:
 603              	.LBE21:
 604              		.loc 1 231 0 discriminator 1
 605 002a 0248     		ldr	r0, .L51
 606              	.LVL55:
 607 002c FFF7FEFF 		bl	chDbgPanic
 608              	.LVL56:
 609 0030 EAE7     		b	.L49
 610              	.L52:
 611 0032 00BF     		.align	2
 612              	.L51:
 613 0034 58000000 		.word	.LC4
 614              		.cfi_endproc
 615              	.LFE13:
 616              		.size	chEvtSignal, .-chEvtSignal
 617 0038 AFF30080 		.section	.text.chEvtBroadcastFlags,"ax",%progbits
 617      AFF30080 
 618              		.align	2
 619              		.p2align 4,,15
ARM GAS  /tmp/cceMQQMf.s 			page 12


 620              		.global	chEvtBroadcastFlags
 621              		.thumb
 622              		.thumb_func
 623              		.type	chEvtBroadcastFlags, %function
 624              	chEvtBroadcastFlags:
 625              	.LFB15:
 626              		.loc 1 278 0
 627              		.cfi_startproc
 628              		@ args = 0, pretend = 0, frame = 0
 629              		@ frame_needed = 0, uses_anonymous_args = 0
 630              	.LVL57:
 631 0000 38B5     		push	{r3, r4, r5, lr}
 632              		.cfi_def_cfa_offset 16
 633              		.cfi_offset 3, -16
 634              		.cfi_offset 4, -12
 635              		.cfi_offset 5, -8
 636              		.cfi_offset 14, -4
 637              		.loc 1 278 0
 638 0002 0546     		mov	r5, r0
 639 0004 0C46     		mov	r4, r1
 640              	.LBB22:
 641              		.loc 1 280 0
 642 0006 2023     		movs	r3, #32
 643              	@ 280 "../../../os/kernel/src/chevents.c" 1
 644 0008 83F31188 		msr     BASEPRI, r3
 645              	@ 0 "" 2
 646              		.thumb
 647              	.LBE22:
 648 000c FFF7FEFF 		bl	dbg_check_lock
 649              	.LVL58:
 650              		.loc 1 281 0
 651 0010 2846     		mov	r0, r5
 652 0012 2146     		mov	r1, r4
 653 0014 FFF7FEFF 		bl	chEvtBroadcastFlagsI
 654              	.LVL59:
 655              		.loc 1 282 0
 656 0018 FFF7FEFF 		bl	chSchRescheduleS
 657              	.LVL60:
 658              		.loc 1 283 0
 659 001c FFF7FEFF 		bl	dbg_check_unlock
 660              	.LVL61:
 661              	.LBB23:
 662 0020 0023     		movs	r3, #0
 663              	@ 283 "../../../os/kernel/src/chevents.c" 1
 664 0022 83F31188 		msr     BASEPRI, r3
 665              	@ 0 "" 2
 666              		.thumb
 667 0026 38BD     		pop	{r3, r4, r5, pc}
 668              	.LBE23:
 669              		.cfi_endproc
 670              	.LFE15:
 671              		.size	chEvtBroadcastFlags, .-chEvtBroadcastFlags
 672 0028 AFF30080 		.section	.text.chEvtGetAndClearFlagsI,"ax",%progbits
 672      AFF30080 
 673              		.align	2
 674              		.p2align 4,,15
 675              		.global	chEvtGetAndClearFlagsI
ARM GAS  /tmp/cceMQQMf.s 			page 13


 676              		.thumb
 677              		.thumb_func
 678              		.type	chEvtGetAndClearFlagsI, %function
 679              	chEvtGetAndClearFlagsI:
 680              	.LFB16:
 681              		.loc 1 297 0
 682              		.cfi_startproc
 683              		@ args = 0, pretend = 0, frame = 0
 684              		@ frame_needed = 0, uses_anonymous_args = 0
 685              		@ link register save eliminated.
 686              	.LVL62:
 687              		.loc 1 297 0
 688 0000 0346     		mov	r3, r0
 689              		.loc 1 301 0
 690 0002 0022     		movs	r2, #0
 691              		.loc 1 300 0
 692 0004 C068     		ldr	r0, [r0, #12]
 693              	.LVL63:
 694              		.loc 1 301 0
 695 0006 DA60     		str	r2, [r3, #12]
 696              		.loc 1 304 0
 697 0008 7047     		bx	lr
 698              		.cfi_endproc
 699              	.LFE16:
 700              		.size	chEvtGetAndClearFlagsI, .-chEvtGetAndClearFlagsI
 701 000a 00BFAFF3 		.section	.text.chEvtDispatch,"ax",%progbits
 701      0080
 702              		.align	2
 703              		.p2align 4,,15
 704              		.global	chEvtDispatch
 705              		.thumb
 706              		.thumb_func
 707              		.type	chEvtDispatch, %function
 708              	chEvtDispatch:
 709              	.LFB17:
 710              		.loc 1 315 0
 711              		.cfi_startproc
 712              		@ args = 0, pretend = 0, frame = 0
 713              		@ frame_needed = 0, uses_anonymous_args = 0
 714              	.LVL64:
 715 0000 2DE9F843 		push	{r3, r4, r5, r6, r7, r8, r9, lr}
 716              		.cfi_def_cfa_offset 32
 717              		.cfi_offset 3, -32
 718              		.cfi_offset 4, -28
 719              		.cfi_offset 5, -24
 720              		.cfi_offset 6, -20
 721              		.cfi_offset 7, -16
 722              		.cfi_offset 8, -12
 723              		.cfi_offset 9, -8
 724              		.cfi_offset 14, -4
 725              		.loc 1 318 0
 726 0004 8146     		mov	r9, r0
 727              		.loc 1 315 0
 728 0006 0D46     		mov	r5, r1
 729              		.loc 1 318 0
 730 0008 D8B1     		cbz	r0, .L69
 731              	.LVL65:
ARM GAS  /tmp/cceMQQMf.s 			page 14


 732              	.L56:
 733              		.loc 1 321 0 discriminator 1
 734 000a 95B1     		cbz	r5, .L55
 735              		.loc 1 321 0 is_stmt 0
 736 000c 0026     		movs	r6, #0
 737 000e 3446     		mov	r4, r6
 738              		.loc 1 322 0 is_stmt 1
 739 0010 4FF00108 		mov	r8, #1
 740              	.LVL66:
 741              	.L61:
 742 0014 08FA04F7 		lsl	r7, r8, r4
 743 0018 2F42     		tst	r7, r5
 744 001a 06D0     		beq	.L58
 745              		.loc 1 323 0
 746 001c 59F80630 		ldr	r3, [r9, r6]
 747 0020 4BB1     		cbz	r3, .L70
 748              	.L59:
 749              		.loc 1 327 0
 750 0022 2046     		mov	r0, r4
 751              		.loc 1 326 0
 752 0024 25EA0705 		bic	r5, r5, r7
 753              	.LVL67:
 754              		.loc 1 327 0
 755 0028 9847     		blx	r3
 756              	.LVL68:
 757              	.L58:
 758              		.loc 1 329 0
 759 002a 0134     		adds	r4, r4, #1
 760              	.LVL69:
 761 002c 0436     		adds	r6, r6, #4
 762              		.loc 1 321 0
 763 002e 002D     		cmp	r5, #0
 764 0030 F0D1     		bne	.L61
 765              	.LVL70:
 766              	.L55:
 767 0032 BDE8F883 		pop	{r3, r4, r5, r6, r7, r8, r9, pc}
 768              	.LVL71:
 769              	.L70:
 770              		.loc 1 323 0 discriminator 1
 771 0036 0548     		ldr	r0, .L71
 772 0038 FFF7FEFF 		bl	chDbgPanic
 773              	.LVL72:
 774 003c 59F80630 		ldr	r3, [r9, r6]
 775 0040 EFE7     		b	.L59
 776              	.LVL73:
 777              	.L69:
 778              		.loc 1 318 0 discriminator 1
 779 0042 0348     		ldr	r0, .L71+4
 780              	.LVL74:
 781 0044 FFF7FEFF 		bl	chDbgPanic
 782              	.LVL75:
 783 0048 DFE7     		b	.L56
 784              	.L72:
 785 004a 00BF     		.align	2
 786              	.L71:
 787 004c 7C000000 		.word	.LC6
 788 0050 68000000 		.word	.LC5
ARM GAS  /tmp/cceMQQMf.s 			page 15


 789              		.cfi_endproc
 790              	.LFE17:
 791              		.size	chEvtDispatch, .-chEvtDispatch
 792 0054 AFF30080 		.section	.text.chEvtWaitOne,"ax",%progbits
 792      AFF30080 
 792      AFF30080 
 793              		.align	2
 794              		.p2align 4,,15
 795              		.global	chEvtWaitOne
 796              		.thumb
 797              		.thumb_func
 798              		.type	chEvtWaitOne, %function
 799              	chEvtWaitOne:
 800              	.LFB18:
 801              		.loc 1 350 0
 802              		.cfi_startproc
 803              		@ args = 0, pretend = 0, frame = 0
 804              		@ frame_needed = 0, uses_anonymous_args = 0
 805              	.LVL76:
 806 0000 38B5     		push	{r3, r4, r5, lr}
 807              		.cfi_def_cfa_offset 16
 808              		.cfi_offset 3, -16
 809              		.cfi_offset 4, -12
 810              		.cfi_offset 5, -8
 811              		.cfi_offset 14, -4
 812              		.loc 1 351 0
 813 0002 0F4B     		ldr	r3, .L75
 814              		.loc 1 350 0
 815 0004 0446     		mov	r4, r0
 816              		.loc 1 351 0
 817 0006 9D69     		ldr	r5, [r3, #24]
 818              	.LVL77:
 819              	.LBB24:
 820              		.loc 1 354 0
 821 0008 2023     		movs	r3, #32
 822              	@ 354 "../../../os/kernel/src/chevents.c" 1
 823 000a 83F31188 		msr     BASEPRI, r3
 824              	@ 0 "" 2
 825              		.thumb
 826              	.LBE24:
 827 000e FFF7FEFF 		bl	dbg_check_lock
 828              	.LVL78:
 829              		.loc 1 356 0
 830 0012 EB6B     		ldr	r3, [r5, #60]
 831              	.LVL79:
 832 0014 14EA0302 		ands	r2, r4, r3
 833              	.LVL80:
 834 0018 06D1     		bne	.L74
 835              		.loc 1 357 0
 836 001a AC62     		str	r4, [r5, #40]
 837              		.loc 1 358 0
 838 001c 0820     		movs	r0, #8
 839 001e FFF7FEFF 		bl	chSchGoSleepS
 840              	.LVL81:
 841              		.loc 1 359 0
 842 0022 EB6B     		ldr	r3, [r5, #60]
 843 0024 04EA0302 		and	r2, r4, r3
ARM GAS  /tmp/cceMQQMf.s 			page 16


 844              	.LVL82:
 845              	.L74:
 846              		.loc 1 361 0
 847 0028 5442     		negs	r4, r2
 848              	.LVL83:
 849 002a 1440     		ands	r4, r4, r2
 850              	.LVL84:
 851              		.loc 1 362 0
 852 002c 23EA0403 		bic	r3, r3, r4
 853 0030 EB63     		str	r3, [r5, #60]
 854              		.loc 1 364 0
 855 0032 FFF7FEFF 		bl	dbg_check_unlock
 856              	.LVL85:
 857              	.LBB25:
 858 0036 0023     		movs	r3, #0
 859              	@ 364 "../../../os/kernel/src/chevents.c" 1
 860 0038 83F31188 		msr     BASEPRI, r3
 861              	@ 0 "" 2
 862              		.thumb
 863              	.LBE25:
 864              		.loc 1 366 0
 865 003c 2046     		mov	r0, r4
 866 003e 38BD     		pop	{r3, r4, r5, pc}
 867              	.LVL86:
 868              	.L76:
 869              		.align	2
 870              	.L75:
 871 0040 00000000 		.word	rlist
 872              		.cfi_endproc
 873              	.LFE18:
 874              		.size	chEvtWaitOne, .-chEvtWaitOne
 875 0044 AFF30080 		.section	.text.chEvtWaitAny,"ax",%progbits
 875      AFF30080 
 875      AFF30080 
 876              		.align	2
 877              		.p2align 4,,15
 878              		.global	chEvtWaitAny
 879              		.thumb
 880              		.thumb_func
 881              		.type	chEvtWaitAny, %function
 882              	chEvtWaitAny:
 883              	.LFB19:
 884              		.loc 1 379 0
 885              		.cfi_startproc
 886              		@ args = 0, pretend = 0, frame = 0
 887              		@ frame_needed = 0, uses_anonymous_args = 0
 888              	.LVL87:
 889              		.loc 1 380 0
 890 0000 0E4B     		ldr	r3, .L79
 891              		.loc 1 379 0
 892 0002 70B5     		push	{r4, r5, r6, lr}
 893              		.cfi_def_cfa_offset 16
 894              		.cfi_offset 4, -16
 895              		.cfi_offset 5, -12
 896              		.cfi_offset 6, -8
 897              		.cfi_offset 14, -4
 898              		.loc 1 380 0
ARM GAS  /tmp/cceMQQMf.s 			page 17


 899 0004 9D69     		ldr	r5, [r3, #24]
 900              	.LVL88:
 901              		.loc 1 379 0
 902 0006 0446     		mov	r4, r0
 903              	.LBB26:
 904              		.loc 1 383 0
 905 0008 2023     		movs	r3, #32
 906              	@ 383 "../../../os/kernel/src/chevents.c" 1
 907 000a 83F31188 		msr     BASEPRI, r3
 908              	@ 0 "" 2
 909              		.thumb
 910              	.LBE26:
 911 000e FFF7FEFF 		bl	dbg_check_lock
 912              	.LVL89:
 913              		.loc 1 385 0
 914 0012 EB6B     		ldr	r3, [r5, #60]
 915              	.LVL90:
 916 0014 14EA0306 		ands	r6, r4, r3
 917              	.LVL91:
 918 0018 06D1     		bne	.L78
 919              		.loc 1 386 0
 920 001a AC62     		str	r4, [r5, #40]
 921              		.loc 1 387 0
 922 001c 0820     		movs	r0, #8
 923 001e FFF7FEFF 		bl	chSchGoSleepS
 924              	.LVL92:
 925              		.loc 1 388 0
 926 0022 EB6B     		ldr	r3, [r5, #60]
 927 0024 04EA0306 		and	r6, r4, r3
 928              	.LVL93:
 929              	.L78:
 930              		.loc 1 390 0
 931 0028 23EA0603 		bic	r3, r3, r6
 932 002c EB63     		str	r3, [r5, #60]
 933              		.loc 1 392 0
 934 002e FFF7FEFF 		bl	dbg_check_unlock
 935              	.LVL94:
 936              	.LBB27:
 937 0032 0023     		movs	r3, #0
 938              	@ 392 "../../../os/kernel/src/chevents.c" 1
 939 0034 83F31188 		msr     BASEPRI, r3
 940              	@ 0 "" 2
 941              		.thumb
 942              	.LBE27:
 943              		.loc 1 394 0
 944 0038 3046     		mov	r0, r6
 945 003a 70BD     		pop	{r4, r5, r6, pc}
 946              	.LVL95:
 947              	.L80:
 948              		.align	2
 949              	.L79:
 950 003c 00000000 		.word	rlist
 951              		.cfi_endproc
 952              	.LFE19:
 953              		.size	chEvtWaitAny, .-chEvtWaitAny
 954              		.section	.text.chEvtWaitAll,"ax",%progbits
 955              		.align	2
ARM GAS  /tmp/cceMQQMf.s 			page 18


 956              		.p2align 4,,15
 957              		.global	chEvtWaitAll
 958              		.thumb
 959              		.thumb_func
 960              		.type	chEvtWaitAll, %function
 961              	chEvtWaitAll:
 962              	.LFB20:
 963              		.loc 1 407 0
 964              		.cfi_startproc
 965              		@ args = 0, pretend = 0, frame = 0
 966              		@ frame_needed = 0, uses_anonymous_args = 0
 967              	.LVL96:
 968 0000 38B5     		push	{r3, r4, r5, lr}
 969              		.cfi_def_cfa_offset 16
 970              		.cfi_offset 3, -16
 971              		.cfi_offset 4, -12
 972              		.cfi_offset 5, -8
 973              		.cfi_offset 14, -4
 974              		.loc 1 408 0
 975 0002 0E4B     		ldr	r3, .L83
 976              		.loc 1 407 0
 977 0004 0446     		mov	r4, r0
 978              		.loc 1 408 0
 979 0006 9D69     		ldr	r5, [r3, #24]
 980              	.LVL97:
 981              	.LBB28:
 982              		.loc 1 410 0
 983 0008 2023     		movs	r3, #32
 984              	@ 410 "../../../os/kernel/src/chevents.c" 1
 985 000a 83F31188 		msr     BASEPRI, r3
 986              	@ 0 "" 2
 987              		.thumb
 988              	.LBE28:
 989 000e FFF7FEFF 		bl	dbg_check_lock
 990              	.LVL98:
 991              		.loc 1 412 0
 992 0012 EB6B     		ldr	r3, [r5, #60]
 993 0014 04EA0302 		and	r2, r4, r3
 994 0018 A242     		cmp	r2, r4
 995 001a 04D0     		beq	.L82
 996              		.loc 1 413 0
 997 001c AC62     		str	r4, [r5, #40]
 998              		.loc 1 414 0
 999 001e 0920     		movs	r0, #9
 1000 0020 FFF7FEFF 		bl	chSchGoSleepS
 1001              	.LVL99:
 1002 0024 EB6B     		ldr	r3, [r5, #60]
 1003              	.L82:
 1004              		.loc 1 416 0
 1005 0026 23EA0403 		bic	r3, r3, r4
 1006 002a EB63     		str	r3, [r5, #60]
 1007              		.loc 1 418 0
 1008 002c FFF7FEFF 		bl	dbg_check_unlock
 1009              	.LVL100:
 1010              	.LBB29:
 1011 0030 0023     		movs	r3, #0
 1012              	@ 418 "../../../os/kernel/src/chevents.c" 1
ARM GAS  /tmp/cceMQQMf.s 			page 19


 1013 0032 83F31188 		msr     BASEPRI, r3
 1014              	@ 0 "" 2
 1015              		.thumb
 1016              	.LBE29:
 1017              		.loc 1 420 0
 1018 0036 2046     		mov	r0, r4
 1019 0038 38BD     		pop	{r3, r4, r5, pc}
 1020              	.LVL101:
 1021              	.L84:
 1022 003a 00BF     		.align	2
 1023              	.L83:
 1024 003c 00000000 		.word	rlist
 1025              		.cfi_endproc
 1026              	.LFE20:
 1027              		.size	chEvtWaitAll, .-chEvtWaitAll
 1028              		.section	.text.chEvtWaitOneTimeout,"ax",%progbits
 1029              		.align	2
 1030              		.p2align 4,,15
 1031              		.global	chEvtWaitOneTimeout
 1032              		.thumb
 1033              		.thumb_func
 1034              		.type	chEvtWaitOneTimeout, %function
 1035              	chEvtWaitOneTimeout:
 1036              	.LFB21:
 1037              		.loc 1 446 0
 1038              		.cfi_startproc
 1039              		@ args = 0, pretend = 0, frame = 0
 1040              		@ frame_needed = 0, uses_anonymous_args = 0
 1041              	.LVL102:
 1042 0000 F8B5     		push	{r3, r4, r5, r6, r7, lr}
 1043              		.cfi_def_cfa_offset 24
 1044              		.cfi_offset 3, -24
 1045              		.cfi_offset 4, -20
 1046              		.cfi_offset 5, -16
 1047              		.cfi_offset 6, -12
 1048              		.cfi_offset 7, -8
 1049              		.cfi_offset 14, -4
 1050              		.loc 1 447 0
 1051 0002 194B     		ldr	r3, .L92
 1052              		.loc 1 446 0
 1053 0004 0446     		mov	r4, r0
 1054              		.loc 1 447 0
 1055 0006 9D69     		ldr	r5, [r3, #24]
 1056              	.LVL103:
 1057              		.loc 1 446 0
 1058 0008 0F46     		mov	r7, r1
 1059              	.LBB30:
 1060              		.loc 1 450 0
 1061 000a 2023     		movs	r3, #32
 1062              	@ 450 "../../../os/kernel/src/chevents.c" 1
 1063 000c 83F31188 		msr     BASEPRI, r3
 1064              	@ 0 "" 2
 1065              		.thumb
 1066              	.LBE30:
 1067 0010 FFF7FEFF 		bl	dbg_check_lock
 1068              	.LVL104:
 1069              		.loc 1 452 0
ARM GAS  /tmp/cceMQQMf.s 			page 20


 1070 0014 EA6B     		ldr	r2, [r5, #60]
 1071              	.LVL105:
 1072 0016 14EA0206 		ands	r6, r4, r2
 1073              	.LVL106:
 1074 001a 0AD1     		bne	.L86
 1075              		.loc 1 453 0
 1076 001c AFB1     		cbz	r7, .L90
 1077              		.loc 1 457 0
 1078 001e AC62     		str	r4, [r5, #40]
 1079              		.loc 1 458 0
 1080 0020 3946     		mov	r1, r7
 1081 0022 0820     		movs	r0, #8
 1082 0024 FFF7FEFF 		bl	chSchGoSleepTimeoutS
 1083              	.LVL107:
 1084 0028 0028     		cmp	r0, #0
 1085 002a 15DB     		blt	.L91
 1086              		.loc 1 462 0
 1087 002c EA6B     		ldr	r2, [r5, #60]
 1088 002e 04EA0206 		and	r6, r4, r2
 1089              	.LVL108:
 1090              	.L86:
 1091              		.loc 1 464 0
 1092 0032 7342     		negs	r3, r6
 1093 0034 1E40     		ands	r6, r6, r3
 1094              	.LVL109:
 1095              		.loc 1 465 0
 1096 0036 22EA0602 		bic	r2, r2, r6
 1097 003a EA63     		str	r2, [r5, #60]
 1098              		.loc 1 467 0
 1099 003c FFF7FEFF 		bl	dbg_check_unlock
 1100              	.LVL110:
 1101              	.LBB31:
 1102 0040 0023     		movs	r3, #0
 1103              	@ 467 "../../../os/kernel/src/chevents.c" 1
 1104 0042 83F31188 		msr     BASEPRI, r3
 1105              	@ 0 "" 2
 1106              		.thumb
 1107              	.LBE31:
 1108              		.loc 1 468 0
 1109 0046 3046     		mov	r0, r6
 1110              		.loc 1 469 0
 1111 0048 F8BD     		pop	{r3, r4, r5, r6, r7, pc}
 1112              	.LVL111:
 1113              	.L90:
 1114              		.loc 1 454 0
 1115 004a FFF7FEFF 		bl	dbg_check_unlock
 1116              	.LVL112:
 1117              	.LBB32:
 1118 004e 3B46     		mov	r3, r7
 1119              	@ 454 "../../../os/kernel/src/chevents.c" 1
 1120 0050 83F31188 		msr     BASEPRI, r3
 1121              	@ 0 "" 2
 1122              		.thumb
 1123              	.LBE32:
 1124              		.loc 1 455 0
 1125 0054 3846     		mov	r0, r7
 1126 0056 F8BD     		pop	{r3, r4, r5, r6, r7, pc}
ARM GAS  /tmp/cceMQQMf.s 			page 21


 1127              	.LVL113:
 1128              	.L91:
 1129              		.loc 1 459 0
 1130 0058 FFF7FEFF 		bl	dbg_check_unlock
 1131              	.LVL114:
 1132              	.LBB33:
 1133 005c 3346     		mov	r3, r6
 1134              	@ 459 "../../../os/kernel/src/chevents.c" 1
 1135 005e 83F31188 		msr     BASEPRI, r3
 1136              	@ 0 "" 2
 1137              		.thumb
 1138              	.LBE33:
 1139              		.loc 1 460 0
 1140 0062 3046     		mov	r0, r6
 1141 0064 F8BD     		pop	{r3, r4, r5, r6, r7, pc}
 1142              	.LVL115:
 1143              	.L93:
 1144 0066 00BF     		.align	2
 1145              	.L92:
 1146 0068 00000000 		.word	rlist
 1147              		.cfi_endproc
 1148              	.LFE21:
 1149              		.size	chEvtWaitOneTimeout, .-chEvtWaitOneTimeout
 1150 006c AFF30080 		.section	.text.chEvtWaitAnyTimeout,"ax",%progbits
 1151              		.align	2
 1152              		.p2align 4,,15
 1153              		.global	chEvtWaitAnyTimeout
 1154              		.thumb
 1155              		.thumb_func
 1156              		.type	chEvtWaitAnyTimeout, %function
 1157              	chEvtWaitAnyTimeout:
 1158              	.LFB22:
 1159              		.loc 1 489 0
 1160              		.cfi_startproc
 1161              		@ args = 0, pretend = 0, frame = 0
 1162              		@ frame_needed = 0, uses_anonymous_args = 0
 1163              	.LVL116:
 1164 0000 F8B5     		push	{r3, r4, r5, r6, r7, lr}
 1165              		.cfi_def_cfa_offset 24
 1166              		.cfi_offset 3, -24
 1167              		.cfi_offset 4, -20
 1168              		.cfi_offset 5, -16
 1169              		.cfi_offset 6, -12
 1170              		.cfi_offset 7, -8
 1171              		.cfi_offset 14, -4
 1172              		.loc 1 490 0
 1173 0002 184B     		ldr	r3, .L101
 1174              		.loc 1 489 0
 1175 0004 0446     		mov	r4, r0
 1176              		.loc 1 490 0
 1177 0006 9D69     		ldr	r5, [r3, #24]
 1178              	.LVL117:
 1179              		.loc 1 489 0
 1180 0008 0F46     		mov	r7, r1
 1181              	.LBB34:
 1182              		.loc 1 493 0
 1183 000a 2023     		movs	r3, #32
ARM GAS  /tmp/cceMQQMf.s 			page 22


 1184              	@ 493 "../../../os/kernel/src/chevents.c" 1
 1185 000c 83F31188 		msr     BASEPRI, r3
 1186              	@ 0 "" 2
 1187              		.thumb
 1188              	.LBE34:
 1189 0010 FFF7FEFF 		bl	dbg_check_lock
 1190              	.LVL118:
 1191              		.loc 1 495 0
 1192 0014 EA6B     		ldr	r2, [r5, #60]
 1193              	.LVL119:
 1194 0016 14EA0206 		ands	r6, r4, r2
 1195              	.LVL120:
 1196 001a 0AD1     		bne	.L95
 1197              		.loc 1 496 0
 1198 001c 9FB1     		cbz	r7, .L99
 1199              		.loc 1 500 0
 1200 001e AC62     		str	r4, [r5, #40]
 1201              		.loc 1 501 0
 1202 0020 3946     		mov	r1, r7
 1203 0022 0820     		movs	r0, #8
 1204 0024 FFF7FEFF 		bl	chSchGoSleepTimeoutS
 1205              	.LVL121:
 1206 0028 0028     		cmp	r0, #0
 1207 002a 13DB     		blt	.L100
 1208              		.loc 1 505 0
 1209 002c EA6B     		ldr	r2, [r5, #60]
 1210 002e 04EA0206 		and	r6, r4, r2
 1211              	.LVL122:
 1212              	.L95:
 1213              		.loc 1 507 0
 1214 0032 22EA0602 		bic	r2, r2, r6
 1215 0036 EA63     		str	r2, [r5, #60]
 1216              		.loc 1 509 0
 1217 0038 FFF7FEFF 		bl	dbg_check_unlock
 1218              	.LVL123:
 1219              	.LBB35:
 1220 003c 0023     		movs	r3, #0
 1221              	@ 509 "../../../os/kernel/src/chevents.c" 1
 1222 003e 83F31188 		msr     BASEPRI, r3
 1223              	@ 0 "" 2
 1224              		.thumb
 1225              	.LBE35:
 1226              		.loc 1 510 0
 1227 0042 3046     		mov	r0, r6
 1228              		.loc 1 511 0
 1229 0044 F8BD     		pop	{r3, r4, r5, r6, r7, pc}
 1230              	.LVL124:
 1231              	.L99:
 1232              		.loc 1 497 0
 1233 0046 FFF7FEFF 		bl	dbg_check_unlock
 1234              	.LVL125:
 1235              	.LBB36:
 1236 004a 3B46     		mov	r3, r7
 1237              	@ 497 "../../../os/kernel/src/chevents.c" 1
 1238 004c 83F31188 		msr     BASEPRI, r3
 1239              	@ 0 "" 2
 1240              		.thumb
ARM GAS  /tmp/cceMQQMf.s 			page 23


 1241              	.LBE36:
 1242              		.loc 1 498 0
 1243 0050 3846     		mov	r0, r7
 1244 0052 F8BD     		pop	{r3, r4, r5, r6, r7, pc}
 1245              	.LVL126:
 1246              	.L100:
 1247              		.loc 1 502 0
 1248 0054 FFF7FEFF 		bl	dbg_check_unlock
 1249              	.LVL127:
 1250              	.LBB37:
 1251 0058 3346     		mov	r3, r6
 1252              	@ 502 "../../../os/kernel/src/chevents.c" 1
 1253 005a 83F31188 		msr     BASEPRI, r3
 1254              	@ 0 "" 2
 1255              		.thumb
 1256              	.LBE37:
 1257              		.loc 1 503 0
 1258 005e 3046     		mov	r0, r6
 1259 0060 F8BD     		pop	{r3, r4, r5, r6, r7, pc}
 1260              	.LVL128:
 1261              	.L102:
 1262 0062 00BF     		.align	2
 1263              	.L101:
 1264 0064 00000000 		.word	rlist
 1265              		.cfi_endproc
 1266              	.LFE22:
 1267              		.size	chEvtWaitAnyTimeout, .-chEvtWaitAnyTimeout
 1268 0068 AFF30080 		.section	.text.chEvtWaitAllTimeout,"ax",%progbits
 1268      AFF30080 
 1269              		.align	2
 1270              		.p2align 4,,15
 1271              		.global	chEvtWaitAllTimeout
 1272              		.thumb
 1273              		.thumb_func
 1274              		.type	chEvtWaitAllTimeout, %function
 1275              	chEvtWaitAllTimeout:
 1276              	.LFB23:
 1277              		.loc 1 530 0
 1278              		.cfi_startproc
 1279              		@ args = 0, pretend = 0, frame = 0
 1280              		@ frame_needed = 0, uses_anonymous_args = 0
 1281              	.LVL129:
 1282              		.loc 1 531 0
 1283 0000 174B     		ldr	r3, .L109
 1284              		.loc 1 530 0
 1285 0002 70B5     		push	{r4, r5, r6, lr}
 1286              		.cfi_def_cfa_offset 16
 1287              		.cfi_offset 4, -16
 1288              		.cfi_offset 5, -12
 1289              		.cfi_offset 6, -8
 1290              		.cfi_offset 14, -4
 1291              		.loc 1 531 0
 1292 0004 9D69     		ldr	r5, [r3, #24]
 1293              	.LVL130:
 1294              		.loc 1 530 0
 1295 0006 0446     		mov	r4, r0
 1296 0008 0E46     		mov	r6, r1
ARM GAS  /tmp/cceMQQMf.s 			page 24


 1297              	.LBB38:
 1298              		.loc 1 533 0
 1299 000a 2023     		movs	r3, #32
 1300              	@ 533 "../../../os/kernel/src/chevents.c" 1
 1301 000c 83F31188 		msr     BASEPRI, r3
 1302              	@ 0 "" 2
 1303              		.thumb
 1304              	.LBE38:
 1305 0010 FFF7FEFF 		bl	dbg_check_lock
 1306              	.LVL131:
 1307              		.loc 1 535 0
 1308 0014 EA6B     		ldr	r2, [r5, #60]
 1309 0016 04EA0203 		and	r3, r4, r2
 1310 001a A342     		cmp	r3, r4
 1311 001c 08D0     		beq	.L104
 1312              		.loc 1 536 0
 1313 001e 8EB1     		cbz	r6, .L108
 1314              		.loc 1 540 0
 1315 0020 AC62     		str	r4, [r5, #40]
 1316              		.loc 1 541 0
 1317 0022 3146     		mov	r1, r6
 1318 0024 0920     		movs	r0, #9
 1319 0026 FFF7FEFF 		bl	chSchGoSleepTimeoutS
 1320              	.LVL132:
 1321 002a 0028     		cmp	r0, #0
 1322 002c 11DB     		blt	.L107
 1323 002e EA6B     		ldr	r2, [r5, #60]
 1324              	.L104:
 1325              		.loc 1 546 0
 1326 0030 22EA0402 		bic	r2, r2, r4
 1327 0034 EA63     		str	r2, [r5, #60]
 1328              		.loc 1 548 0
 1329 0036 FFF7FEFF 		bl	dbg_check_unlock
 1330              	.LVL133:
 1331              	.LBB39:
 1332 003a 0023     		movs	r3, #0
 1333              	@ 548 "../../../os/kernel/src/chevents.c" 1
 1334 003c 83F31188 		msr     BASEPRI, r3
 1335              	@ 0 "" 2
 1336              		.thumb
 1337              	.LBE39:
 1338              		.loc 1 549 0
 1339 0040 2046     		mov	r0, r4
 1340              		.loc 1 550 0
 1341 0042 70BD     		pop	{r4, r5, r6, pc}
 1342              	.LVL134:
 1343              	.L108:
 1344              		.loc 1 537 0
 1345 0044 FFF7FEFF 		bl	dbg_check_unlock
 1346              	.LVL135:
 1347              	.LBB40:
 1348 0048 3346     		mov	r3, r6
 1349              	@ 537 "../../../os/kernel/src/chevents.c" 1
 1350 004a 83F31188 		msr     BASEPRI, r3
 1351              	@ 0 "" 2
 1352              		.thumb
 1353              	.LBE40:
ARM GAS  /tmp/cceMQQMf.s 			page 25


 1354              		.loc 1 538 0
 1355 004e 3046     		mov	r0, r6
 1356 0050 70BD     		pop	{r4, r5, r6, pc}
 1357              	.LVL136:
 1358              	.L107:
 1359              		.loc 1 542 0
 1360 0052 FFF7FEFF 		bl	dbg_check_unlock
 1361              	.LVL137:
 1362              	.LBB41:
 1363 0056 0023     		movs	r3, #0
 1364              	@ 542 "../../../os/kernel/src/chevents.c" 1
 1365 0058 83F31188 		msr     BASEPRI, r3
 1366              	@ 0 "" 2
 1367              		.thumb
 1368              	.LBE41:
 1369              		.loc 1 543 0
 1370 005c 1846     		mov	r0, r3
 1371 005e 70BD     		pop	{r4, r5, r6, pc}
 1372              	.LVL138:
 1373              	.L110:
 1374              		.align	2
 1375              	.L109:
 1376 0060 00000000 		.word	rlist
 1377              		.cfi_endproc
 1378              	.LFE23:
 1379              		.size	chEvtWaitAllTimeout, .-chEvtWaitAllTimeout
 1380 0064 AFF30080 		.section	.rodata.str1.4,"aMS",%progbits,1
 1380      AFF30080 
 1380      AFF30080 
 1381              		.align	2
 1382              	.LC0:
 1383 0000 22636845 		.ascii	"\"chEvtRegisterMask\"()\000"
 1383      76745265 
 1383      67697374 
 1383      65724D61 
 1383      736B2228 
 1384 0016 0000     		.space	2
 1385              	.LC1:
 1386 0018 22636845 		.ascii	"\"chEvtUnregister\"()\000"
 1386      7674556E 
 1386      72656769 
 1386      73746572 
 1386      22282900 
 1387              	.LC2:
 1388 002c 22636845 		.ascii	"\"chEvtSignalI\"()\000"
 1388      76745369 
 1388      676E616C 
 1388      49222829 
 1388      00
 1389 003d 000000   		.space	3
 1390              	.LC3:
 1391 0040 22636845 		.ascii	"\"chEvtBroadcastMaskI\"()\000"
 1391      76744272 
 1391      6F616463 
 1391      6173744D 
 1391      61736B49 
 1392              	.LC4:
ARM GAS  /tmp/cceMQQMf.s 			page 26


 1393 0058 22636845 		.ascii	"\"chEvtSignal\"()\000"
 1393      76745369 
 1393      676E616C 
 1393      22282900 
 1394              	.LC5:
 1395 0068 22636845 		.ascii	"\"chEvtDispatch\"()\000"
 1395      76744469 
 1395      73706174 
 1395      63682228 
 1395      2900
 1396 007a 0000     		.space	2
 1397              	.LC6:
 1398 007c 63684576 		.ascii	"chEvtDispatch(), #1\000"
 1398      74446973 
 1398      70617463 
 1398      6828292C 
 1398      20233100 
 1399              		.text
 1400              	.Letext0:
 1401              		.file 2 "/opt/ARM/arm-none-eabi/include/machine/_default_types.h"
 1402              		.file 3 "/opt/ARM/arm-none-eabi/include/stdint.h"
 1403              		.file 4 "../../../os/ports/GCC/ARMCMx/chtypes.h"
 1404              		.file 5 "../../../os/kernel/include/chlists.h"
 1405              		.file 6 "../../../os/kernel/include/chthreads.h"
 1406              		.file 7 "../../../os/ports/GCC/ARMCMx/chcore_v7m.h"
 1407              		.file 8 "../../../os/kernel/include/chschd.h"
 1408              		.file 9 "../../../os/kernel/include/chmtx.h"
 1409              		.file 10 "../../../os/kernel/include/chevents.h"
 1410              		.file 11 "../../../os/kernel/include/chdebug.h"
