ARM GAS  /tmp/cc2HFAFr.s 			page 1


   1              		.syntax unified
   2              		.cpu cortex-m4
   3              		.fpu softvfp
   4              		.eabi_attribute 20, 1
   5              		.eabi_attribute 21, 1
   6              		.eabi_attribute 23, 3
   7              		.eabi_attribute 24, 1
   8              		.eabi_attribute 25, 1
   9              		.eabi_attribute 26, 1
  10              		.eabi_attribute 30, 2
  11              		.eabi_attribute 34, 1
  12              		.eabi_attribute 18, 4
  13              		.thumb
  14              		.file	"chvt.c"
  15              		.text
  16              	.Ltext0:
  17              		.cfi_sections	.debug_frame
  18              		.section	.text._vt_init,"ax",%progbits
  19              		.align	2
  20              		.p2align 4,,15
  21              		.global	_vt_init
  22              		.thumb
  23              		.thumb_func
  24              		.type	_vt_init, %function
  25              	_vt_init:
  26              	.LFB7:
  27              		.file 1 "../../../os/kernel/src/chvt.c"
  28              		.loc 1 50 0
  29              		.cfi_startproc
  30              		@ args = 0, pretend = 0, frame = 0
  31              		@ frame_needed = 0, uses_anonymous_args = 0
  32              		@ link register save eliminated.
  33              		.loc 1 52 0
  34 0000 044B     		ldr	r3, .L2
  35              		.loc 1 53 0
  36 0002 4FF0FF31 		mov	r1, #-1
  37              		.loc 1 54 0
  38 0006 0022     		movs	r2, #0
  39              		.loc 1 52 0
  40 0008 5B60     		str	r3, [r3, #4]
  41 000a 1B60     		str	r3, [r3]
  42              		.loc 1 53 0
  43 000c 9960     		str	r1, [r3, #8]
  44              		.loc 1 54 0
  45 000e DA60     		str	r2, [r3, #12]
  46 0010 7047     		bx	lr
  47              	.L3:
  48 0012 00BF     		.align	2
  49              	.L2:
  50 0014 00000000 		.word	.LANCHOR0
  51              		.cfi_endproc
  52              	.LFE7:
  53              		.size	_vt_init, .-_vt_init
  54 0018 AFF30080 		.section	.text.chVTSetI,"ax",%progbits
  54      AFF30080 
  55              		.align	2
  56              		.p2align 4,,15
ARM GAS  /tmp/cc2HFAFr.s 			page 2


  57              		.global	chVTSetI
  58              		.thumb
  59              		.thumb_func
  60              		.type	chVTSetI, %function
  61              	chVTSetI:
  62              	.LFB8:
  63              		.loc 1 76 0
  64              		.cfi_startproc
  65              		@ args = 0, pretend = 0, frame = 0
  66              		@ frame_needed = 0, uses_anonymous_args = 0
  67              	.LVL0:
  68 0000 F8B5     		push	{r3, r4, r5, r6, r7, lr}
  69              		.cfi_def_cfa_offset 24
  70              		.cfi_offset 3, -24
  71              		.cfi_offset 4, -20
  72              		.cfi_offset 5, -16
  73              		.cfi_offset 6, -12
  74              		.cfi_offset 7, -8
  75              		.cfi_offset 14, -4
  76              		.loc 1 76 0
  77 0002 0546     		mov	r5, r0
  78 0004 0C46     		mov	r4, r1
  79 0006 1646     		mov	r6, r2
  80 0008 1F46     		mov	r7, r3
  81              		.loc 1 79 0
  82 000a FFF7FEFF 		bl	chDbgCheckClassI
  83              	.LVL1:
  84              		.loc 1 80 0
  85 000e CDB1     		cbz	r5, .L5
  86              		.loc 1 80 0 is_stmt 0 discriminator 2
  87 0010 C6B1     		cbz	r6, .L5
  88              		.loc 1 80 0 discriminator 1
  89 0012 BCB1     		cbz	r4, .L5
  90              	.L6:
  91              		.loc 1 85 0 is_stmt 1
  92 0014 0D49     		ldr	r1, .L17
  93              		.loc 1 83 0
  94 0016 2F61     		str	r7, [r5, #16]
  95              		.loc 1 85 0
  96 0018 0B68     		ldr	r3, [r1]
  97              	.LVL2:
  98              		.loc 1 84 0
  99 001a EE60     		str	r6, [r5, #12]
 100              		.loc 1 86 0
 101 001c 9A68     		ldr	r2, [r3, #8]
 102 001e 9442     		cmp	r4, r2
 103 0020 04D9     		bls	.L7
 104              	.L8:
 105              		.loc 1 88 0
 106 0022 1B68     		ldr	r3, [r3]
 107              	.LVL3:
 108              		.loc 1 87 0
 109 0024 A41A     		subs	r4, r4, r2
 110              	.LVL4:
 111              		.loc 1 86 0
 112 0026 9A68     		ldr	r2, [r3, #8]
 113 0028 A242     		cmp	r2, r4
ARM GAS  /tmp/cc2HFAFr.s 			page 3


 114 002a FAD3     		bcc	.L8
 115              	.L7:
 116              		.loc 1 91 0
 117 002c 5A68     		ldr	r2, [r3, #4]
 118 002e 6A60     		str	r2, [r5, #4]
 119              		.loc 1 94 0
 120 0030 8B42     		cmp	r3, r1
 121              		.loc 1 91 0
 122 0032 2B60     		str	r3, [r5]
 123              		.loc 1 92 0
 124 0034 5D60     		str	r5, [r3, #4]
 125 0036 1560     		str	r5, [r2]
 126              		.loc 1 93 0
 127 0038 AC60     		str	r4, [r5, #8]
 128              		.loc 1 94 0
 129 003a 02D0     		beq	.L4
 130              		.loc 1 95 0
 131 003c 9A68     		ldr	r2, [r3, #8]
 132 003e 141B     		subs	r4, r2, r4
 133              	.LVL5:
 134 0040 9C60     		str	r4, [r3, #8]
 135              	.LVL6:
 136              	.L4:
 137 0042 F8BD     		pop	{r3, r4, r5, r6, r7, pc}
 138              	.LVL7:
 139              	.L5:
 140              		.loc 1 80 0 discriminator 1
 141 0044 0248     		ldr	r0, .L17+4
 142 0046 FFF7FEFF 		bl	chDbgPanic
 143              	.LVL8:
 144 004a E3E7     		b	.L6
 145              	.L18:
 146              		.align	2
 147              	.L17:
 148 004c 00000000 		.word	.LANCHOR0
 149 0050 00000000 		.word	.LC0
 150              		.cfi_endproc
 151              	.LFE8:
 152              		.size	chVTSetI, .-chVTSetI
 153 0054 AFF30080 		.section	.text.chVTResetI,"ax",%progbits
 153      AFF30080 
 153      AFF30080 
 154              		.align	2
 155              		.p2align 4,,15
 156              		.global	chVTResetI
 157              		.thumb
 158              		.thumb_func
 159              		.type	chVTResetI, %function
 160              	chVTResetI:
 161              	.LFB9:
 162              		.loc 1 106 0
 163              		.cfi_startproc
 164              		@ args = 0, pretend = 0, frame = 0
 165              		@ frame_needed = 0, uses_anonymous_args = 0
 166              	.LVL9:
 167 0000 10B5     		push	{r4, lr}
 168              		.cfi_def_cfa_offset 8
ARM GAS  /tmp/cc2HFAFr.s 			page 4


 169              		.cfi_offset 4, -8
 170              		.cfi_offset 14, -4
 171              		.loc 1 106 0
 172 0002 0446     		mov	r4, r0
 173              		.loc 1 108 0
 174 0004 FFF7FEFF 		bl	chDbgCheckClassI
 175              	.LVL10:
 176              		.loc 1 109 0
 177 0008 84B1     		cbz	r4, .L23
 178              	.L20:
 179              		.loc 1 110 0
 180 000a E368     		ldr	r3, [r4, #12]
 181 000c 93B1     		cbz	r3, .L24
 182              	.L21:
 183              		.loc 1 114 0
 184 000e 2368     		ldr	r3, [r4]
 185 0010 0A4A     		ldr	r2, .L25
 186 0012 9342     		cmp	r3, r2
 187 0014 03D0     		beq	.L22
 188              		.loc 1 115 0
 189 0016 9968     		ldr	r1, [r3, #8]
 190 0018 A268     		ldr	r2, [r4, #8]
 191 001a 0A44     		add	r2, r2, r1
 192 001c 9A60     		str	r2, [r3, #8]
 193              	.L22:
 194              		.loc 1 116 0
 195 001e 6268     		ldr	r2, [r4, #4]
 196 0020 1360     		str	r3, [r2]
 197              		.loc 1 117 0
 198 0022 2368     		ldr	r3, [r4]
 199              		.loc 1 118 0
 200 0024 0021     		movs	r1, #0
 201              		.loc 1 117 0
 202 0026 5A60     		str	r2, [r3, #4]
 203              		.loc 1 118 0
 204 0028 E160     		str	r1, [r4, #12]
 205 002a 10BD     		pop	{r4, pc}
 206              	.LVL11:
 207              	.L23:
 208              		.loc 1 109 0 discriminator 1
 209 002c 0448     		ldr	r0, .L25+4
 210 002e FFF7FEFF 		bl	chDbgPanic
 211              	.LVL12:
 212 0032 EAE7     		b	.L20
 213              	.L24:
 214              		.loc 1 110 0 discriminator 1
 215 0034 0348     		ldr	r0, .L25+8
 216 0036 FFF7FEFF 		bl	chDbgPanic
 217              	.LVL13:
 218 003a E8E7     		b	.L21
 219              	.L26:
 220              		.align	2
 221              	.L25:
 222 003c 00000000 		.word	.LANCHOR0
 223 0040 10000000 		.word	.LC1
 224 0044 20000000 		.word	.LC2
 225              		.cfi_endproc
ARM GAS  /tmp/cc2HFAFr.s 			page 5


 226              	.LFE9:
 227              		.size	chVTResetI, .-chVTResetI
 228              		.global	vtlist
 229 0048 AFF30080 		.section	.bss.vtlist,"aw",%nobits
 229      AFF30080 
 230              		.align	2
 231              		.set	.LANCHOR0,. + 0
 232              		.type	vtlist, %object
 233              		.size	vtlist, 16
 234              	vtlist:
 235 0000 00000000 		.space	16
 235      00000000 
 235      00000000 
 235      00000000 
 236              		.section	.rodata.str1.4,"aMS",%progbits,1
 237              		.align	2
 238              	.LC0:
 239 0000 22636856 		.ascii	"\"chVTSetI\"()\000"
 239      54536574 
 239      49222829 
 239      00
 240 000d 000000   		.space	3
 241              	.LC1:
 242 0010 22636856 		.ascii	"\"chVTResetI\"()\000"
 242      54526573 
 242      65744922 
 242      282900
 243 001f 00       		.space	1
 244              	.LC2:
 245 0020 63685654 		.ascii	"chVTResetI(), #1\000"
 245      52657365 
 245      74492829 
 245      2C202331 
 245      00
 246 0031 000000   		.text
 247              	.Letext0:
 248              		.file 2 "/opt/ARM/arm-none-eabi/include/machine/_default_types.h"
 249              		.file 3 "/opt/ARM/arm-none-eabi/include/stdint.h"
 250              		.file 4 "../../../os/ports/GCC/ARMCMx/chtypes.h"
 251              		.file 5 "../../../os/kernel/include/chvt.h"
 252              		.file 6 "../../../os/kernel/include/chdebug.h"
