ARM GAS  /tmp/ccQE7KB2.s 			page 1


   1              		.syntax unified
   2              		.cpu cortex-m4
   3              		.fpu softvfp
   4              		.eabi_attribute 20, 1
   5              		.eabi_attribute 21, 1
   6              		.eabi_attribute 23, 3
   7              		.eabi_attribute 24, 1
   8              		.eabi_attribute 25, 1
   9              		.eabi_attribute 26, 1
  10              		.eabi_attribute 30, 2
  11              		.eabi_attribute 34, 1
  12              		.eabi_attribute 18, 4
  13              		.thumb
  14              		.file	"hal.c"
  15              		.text
  16              	.Ltext0:
  17              		.cfi_sections	.debug_frame
  18              		.section	.text.halInit,"ax",%progbits
  19              		.align	2
  20              		.p2align 4,,15
  21              		.global	halInit
  22              		.thumb
  23              		.thumb_func
  24              		.type	halInit, %function
  25              	halInit:
  26              	.LFB118:
  27              		.file 1 "../../../os/hal/src/hal.c"
  28              		.loc 1 68 0
  29              		.cfi_startproc
  30              		@ args = 0, pretend = 0, frame = 0
  31              		@ frame_needed = 0, uses_anonymous_args = 0
  32 0000 08B5     		push	{r3, lr}
  33              		.cfi_def_cfa_offset 8
  34              		.cfi_offset 3, -8
  35              		.cfi_offset 14, -4
  36              		.loc 1 70 0
  37 0002 FFF7FEFF 		bl	hal_lld_init
  38              	.LVL0:
  39              		.loc 1 73 0
  40 0006 FFF7FEFF 		bl	tmInit
  41              	.LVL1:
  42              		.loc 1 76 0
  43 000a 0548     		ldr	r0, .L2
  44 000c FFF7FEFF 		bl	_pal_lld_init
  45              	.LVL2:
  46              		.loc 1 94 0
  47 0010 FFF7FEFF 		bl	icuInit
  48              	.LVL3:
  49              		.loc 1 100 0
  50 0014 FFF7FEFF 		bl	pwmInit
  51              	.LVL4:
  52              		.loc 1 128 0
  53 0018 BDE80840 		pop	{r3, lr}
  54              		.loc 1 127 0
  55 001c FFF7FEBF 		b	boardInit
  56              	.LVL5:
  57              	.L3:
ARM GAS  /tmp/ccQE7KB2.s 			page 2


  58              		.align	2
  59              	.L2:
  60 0020 00000000 		.word	pal_default_config
  61              		.cfi_endproc
  62              	.LFE118:
  63              		.size	halInit, .-halInit
  64 0024 AFF30080 		.section	.text.halIsCounterWithin,"ax",%progbits
  64      AFF30080 
  64      AFF30080 
  65              		.align	2
  66              		.p2align 4,,15
  67              		.global	halIsCounterWithin
  68              		.thumb
  69              		.thumb_func
  70              		.type	halIsCounterWithin, %function
  71              	halIsCounterWithin:
  72              	.LFB119:
  73              		.loc 1 174 0
  74              		.cfi_startproc
  75              		@ args = 0, pretend = 0, frame = 0
  76              		@ frame_needed = 0, uses_anonymous_args = 0
  77              		@ link register save eliminated.
  78              	.LVL6:
  79              		.loc 1 175 0
  80 0000 084B     		ldr	r3, .L13
  81              		.loc 1 177 0
  82 0002 8142     		cmp	r1, r0
  83              		.loc 1 175 0
  84 0004 5B68     		ldr	r3, [r3, #4]
  85              	.LVL7:
  86              		.loc 1 177 0
  87 0006 06D9     		bls	.L5
  88              		.loc 1 177 0 is_stmt 0 discriminator 1
  89 0008 8342     		cmp	r3, r0
  90 000a 08D3     		bcc	.L9
  91              	.L11:
  92 000c 8B42     		cmp	r3, r1
  93 000e 2CBF     		ite	cs
  94 0010 0020     		movcs	r0, #0
  95              	.LVL8:
  96 0012 0120     		movcc	r0, #1
  97 0014 7047     		bx	lr
  98              	.LVL9:
  99              	.L5:
 100              		.loc 1 178 0 is_stmt 1
 101 0016 8342     		cmp	r3, r0
 102 0018 F8D3     		bcc	.L11
 103 001a 0120     		movs	r0, #1
 104              	.LVL10:
 105              		.loc 1 179 0
 106 001c 7047     		bx	lr
 107              	.LVL11:
 108              	.L9:
 109 001e 0020     		movs	r0, #0
 110              	.LVL12:
 111 0020 7047     		bx	lr
 112              	.L14:
ARM GAS  /tmp/ccQE7KB2.s 			page 3


 113 0022 00BF     		.align	2
 114              	.L13:
 115 0024 001000E0 		.word	-536866816
 116              		.cfi_endproc
 117              	.LFE119:
 118              		.size	halIsCounterWithin, .-halIsCounterWithin
 119 0028 AFF30080 		.section	.text.halPolledDelay,"ax",%progbits
 119      AFF30080 
 120              		.align	2
 121              		.p2align 4,,15
 122              		.global	halPolledDelay
 123              		.thumb
 124              		.thumb_func
 125              		.type	halPolledDelay, %function
 126              	halPolledDelay:
 127              	.LFB120:
 128              		.loc 1 193 0
 129              		.cfi_startproc
 130              		@ args = 0, pretend = 0, frame = 0
 131              		@ frame_needed = 0, uses_anonymous_args = 0
 132              		@ link register save eliminated.
 133              	.LVL13:
 134              		.loc 1 194 0
 135 0000 0C49     		ldr	r1, .L26
 136 0002 4A68     		ldr	r2, [r1, #4]
 137              	.LVL14:
 138              		.loc 1 195 0
 139 0004 1044     		add	r0, r0, r2
 140              	.LVL15:
 141              	.L21:
 142              	.LBB4:
 143              	.LBB5:
 144              		.loc 1 177 0 discriminator 1
 145 0006 8242     		cmp	r2, r0
 146              		.loc 1 175 0 discriminator 1
 147 0008 4B68     		ldr	r3, [r1, #4]
 148              	.LVL16:
 149              		.loc 1 177 0 discriminator 1
 150 000a 0CD2     		bcs	.L16
 151              		.loc 1 177 0 is_stmt 0
 152 000c 9A42     		cmp	r2, r3
 153 000e 03D9     		bls	.L24
 154 0010 0023     		movs	r3, #0
 155              	.LVL17:
 156              	.LBE5:
 157              	.LBE4:
 158              		.loc 1 196 0 is_stmt 1
 159 0012 002B     		cmp	r3, #0
 160 0014 F7D1     		bne	.L21
 161              	.L25:
 162              		.loc 1 198 0
 163 0016 7047     		bx	lr
 164              	.LVL18:
 165              	.L24:
 166 0018 9842     		cmp	r0, r3
 167 001a 94BF     		ite	ls
 168 001c 0023     		movls	r3, #0
ARM GAS  /tmp/ccQE7KB2.s 			page 4


 169              	.LVL19:
 170 001e 0123     		movhi	r3, #1
 171              		.loc 1 196 0
 172 0020 002B     		cmp	r3, #0
 173 0022 F0D1     		bne	.L21
 174 0024 F7E7     		b	.L25
 175              	.LVL20:
 176              	.L16:
 177              	.LBB7:
 178              	.LBB6:
 179              		.loc 1 178 0
 180 0026 9A42     		cmp	r2, r3
 181 0028 F6D8     		bhi	.L24
 182 002a 0123     		movs	r3, #1
 183              	.LVL21:
 184              	.LBE6:
 185              	.LBE7:
 186              		.loc 1 196 0
 187 002c 002B     		cmp	r3, #0
 188 002e EAD1     		bne	.L21
 189 0030 F1E7     		b	.L25
 190              	.L27:
 191 0032 00BF     		.align	2
 192              	.L26:
 193 0034 001000E0 		.word	-536866816
 194              		.cfi_endproc
 195              	.LFE120:
 196              		.size	halPolledDelay, .-halPolledDelay
 197 0038 AFF30080 		.text
 197      AFF30080 
 198              	.Letext0:
 199              		.file 2 "/opt/ARM/arm-none-eabi/include/machine/_default_types.h"
 200              		.file 3 "/opt/ARM/arm-none-eabi/include/stdint.h"
 201              		.file 4 "../../../os/ports/GCC/ARMCMx/chtypes.h"
 202              		.file 5 "../../../os/ports/common/ARMCMx/nvic.h"
 203              		.file 6 "../../../os/hal/platforms/STM32F4xx/hal_lld.h"
 204              		.file 7 "../../../os/hal/platforms/STM32/GPIOv2/pal_lld.h"
 205              		.file 8 "../../../os/ports/common/ARMCMx/CMSIS/include/core_cm4.h"
 206              		.file 9 "../../../os/hal/include/tm.h"
 207              		.file 10 "../../../os/hal/include/icu.h"
 208              		.file 11 "../../../os/hal/include/pwm.h"
 209              		.file 12 "../../../boards/ST_STM32F4_DISCOVERY/board.h"
