ARM GAS  /tmp/ccTVLo7g.s 			page 1


   1              		.syntax unified
   2              		.cpu cortex-m4
   3              		.fpu softvfp
   4              		.eabi_attribute 20, 1
   5              		.eabi_attribute 21, 1
   6              		.eabi_attribute 23, 3
   7              		.eabi_attribute 24, 1
   8              		.eabi_attribute 25, 1
   9              		.eabi_attribute 26, 1
  10              		.eabi_attribute 30, 2
  11              		.eabi_attribute 34, 1
  12              		.eabi_attribute 18, 4
  13              		.thumb
  14              		.file	"pwm_lld.c"
  15              		.text
  16              	.Ltext0:
  17              		.cfi_sections	.debug_frame
  18              		.section	.text.VectorB0,"ax",%progbits
  19              		.align	2
  20              		.p2align 4,,15
  21              		.global	VectorB0
  22              		.thumb
  23              		.thumb_func
  24              		.type	VectorB0, %function
  25              	VectorB0:
  26              	.LFB119:
  27              		.file 1 "../../../os/hal/platforms/STM32/TIMv1/pwm_lld.c"
  28              		.loc 1 197 0
  29              		.cfi_startproc
  30              		@ args = 0, pretend = 0, frame = 0
  31              		@ frame_needed = 0, uses_anonymous_args = 0
  32 0000 38B5     		push	{r3, r4, r5, lr}
  33              		.cfi_def_cfa_offset 16
  34              		.cfi_offset 3, -16
  35              		.cfi_offset 4, -12
  36              		.cfi_offset 5, -8
  37              		.cfi_offset 14, -4
  38              	.LBB4:
  39              	.LBB5:
  40              		.loc 1 115 0
  41 0002 194D     		ldr	r5, .L27
  42              	.LBE5:
  43              	.LBE4:
  44              		.loc 1 199 0
  45 0004 FFF7FEFF 		bl	dbg_check_enter_isr
  46              	.LVL0:
  47              	.LBB8:
  48              	.LBB6:
  49              		.loc 1 115 0
  50 0008 2B69     		ldr	r3, [r5, #16]
  51 000a 1A69     		ldr	r2, [r3, #16]
  52              	.LVL1:
  53              		.loc 1 116 0
  54 000c DC68     		ldr	r4, [r3, #12]
  55 000e 1440     		ands	r4, r4, r2
  56 0010 A4B2     		uxth	r4, r4
  57              	.LVL2:
ARM GAS  /tmp/ccTVLo7g.s 			page 2


  58              		.loc 1 117 0
  59 0012 E2B2     		uxtb	r2, r4
  60 0014 D243     		mvns	r2, r2
  61 0016 1A61     		str	r2, [r3, #16]
  62              		.loc 1 118 0
  63 0018 A307     		lsls	r3, r4, #30
  64 001a 20D4     		bmi	.L23
  65              	.L2:
  66              		.loc 1 120 0
  67 001c 6007     		lsls	r0, r4, #29
  68 001e 19D4     		bmi	.L24
  69              	.L3:
  70              		.loc 1 122 0
  71 0020 2107     		lsls	r1, r4, #28
  72 0022 12D4     		bmi	.L25
  73              	.L4:
  74              		.loc 1 124 0
  75 0024 E206     		lsls	r2, r4, #27
  76 0026 0BD4     		bmi	.L26
  77              	.L5:
  78              		.loc 1 126 0
  79 0028 E307     		lsls	r3, r4, #31
  80 002a 03D5     		bpl	.L6
  81              		.loc 1 127 0
  82 002c 6B68     		ldr	r3, [r5, #4]
  83 002e 0E48     		ldr	r0, .L27
  84 0030 9B68     		ldr	r3, [r3, #8]
  85 0032 9847     		blx	r3
  86              	.LVL3:
  87              	.L6:
  88              	.LBE6:
  89              	.LBE8:
  90              		.loc 1 203 0
  91 0034 FFF7FEFF 		bl	dbg_check_leave_isr
  92              	.LVL4:
  93              		.loc 1 204 0
  94 0038 BDE83840 		pop	{r3, r4, r5, lr}
  95              	.LVL5:
  96              		.loc 1 203 0
  97 003c FFF7FEBF 		b	_port_irq_epilogue
  98              	.LVL6:
  99              	.L26:
 100              	.LBB9:
 101              	.LBB7:
 102              		.loc 1 125 0
 103 0040 6B68     		ldr	r3, [r5, #4]
 104 0042 0948     		ldr	r0, .L27
 105 0044 9B6A     		ldr	r3, [r3, #40]
 106 0046 9847     		blx	r3
 107              	.LVL7:
 108 0048 EEE7     		b	.L5
 109              	.L25:
 110              		.loc 1 123 0
 111 004a 6B68     		ldr	r3, [r5, #4]
 112 004c 0648     		ldr	r0, .L27
 113 004e 1B6A     		ldr	r3, [r3, #32]
 114 0050 9847     		blx	r3
ARM GAS  /tmp/ccTVLo7g.s 			page 3


 115              	.LVL8:
 116 0052 E7E7     		b	.L4
 117              	.L24:
 118              		.loc 1 121 0
 119 0054 6B68     		ldr	r3, [r5, #4]
 120 0056 0448     		ldr	r0, .L27
 121 0058 9B69     		ldr	r3, [r3, #24]
 122 005a 9847     		blx	r3
 123              	.LVL9:
 124 005c E0E7     		b	.L3
 125              	.L23:
 126              		.loc 1 119 0
 127 005e 6B68     		ldr	r3, [r5, #4]
 128 0060 2846     		mov	r0, r5
 129 0062 1B69     		ldr	r3, [r3, #16]
 130 0064 9847     		blx	r3
 131              	.LVL10:
 132 0066 D9E7     		b	.L2
 133              	.L28:
 134              		.align	2
 135              	.L27:
 136 0068 00000000 		.word	.LANCHOR0
 137              	.LBE7:
 138              	.LBE9:
 139              		.cfi_endproc
 140              	.LFE119:
 141              		.size	VectorB0, .-VectorB0
 142 006c AFF30080 		.section	.text.pwm_lld_init,"ax",%progbits
 143              		.align	2
 144              		.p2align 4,,15
 145              		.global	pwm_lld_init
 146              		.thumb
 147              		.thumb_func
 148              		.type	pwm_lld_init, %function
 149              	pwm_lld_init:
 150              	.LFB120:
 151              		.loc 1 345 0
 152              		.cfi_startproc
 153              		@ args = 0, pretend = 0, frame = 0
 154              		@ frame_needed = 0, uses_anonymous_args = 0
 155 0000 10B5     		push	{r4, lr}
 156              		.cfi_def_cfa_offset 8
 157              		.cfi_offset 4, -8
 158              		.cfi_offset 14, -4
 159              		.loc 1 355 0
 160 0002 044C     		ldr	r4, .L30
 161 0004 2046     		mov	r0, r4
 162 0006 FFF7FEFF 		bl	pwmObjectInit
 163              	.LVL11:
 164              		.loc 1 356 0
 165 000a 4FF08043 		mov	r3, #1073741824
 166 000e 2361     		str	r3, [r4, #16]
 167 0010 10BD     		pop	{r4, pc}
 168              	.L31:
 169 0012 00BF     		.align	2
 170              	.L30:
 171 0014 00000000 		.word	.LANCHOR0
ARM GAS  /tmp/ccTVLo7g.s 			page 4


 172              		.cfi_endproc
 173              	.LFE120:
 174              		.size	pwm_lld_init, .-pwm_lld_init
 175 0018 AFF30080 		.section	.text.pwm_lld_start,"ax",%progbits
 175      AFF30080 
 176              		.align	2
 177              		.p2align 4,,15
 178              		.global	pwm_lld_start
 179              		.thumb
 180              		.thumb_func
 181              		.type	pwm_lld_start, %function
 182              	pwm_lld_start:
 183              	.LFB121:
 184              		.loc 1 399 0
 185              		.cfi_startproc
 186              		@ args = 0, pretend = 0, frame = 0
 187              		@ frame_needed = 0, uses_anonymous_args = 0
 188              	.LVL12:
 189              		.loc 1 403 0
 190 0000 0378     		ldrb	r3, [r0]	@ zero_extendqisi2
 191 0002 012B     		cmp	r3, #1
 192              		.loc 1 399 0
 193 0004 70B5     		push	{r4, r5, r6, lr}
 194              		.cfi_def_cfa_offset 16
 195              		.cfi_offset 4, -16
 196              		.cfi_offset 5, -12
 197              		.cfi_offset 6, -8
 198              		.cfi_offset 14, -4
 199              		.loc 1 399 0
 200 0006 0446     		mov	r4, r0
 201              		.loc 1 403 0
 202 0008 62D0     		beq	.L61
 203              		.loc 1 492 0
 204 000a 4268     		ldr	r2, [r0, #4]
 205              		.loc 1 491 0
 206 000c 0369     		ldr	r3, [r0, #16]
 207              		.loc 1 492 0
 208 000e 106B     		ldr	r0, [r2, #48]
 209              	.LVL13:
 210              		.loc 1 491 0
 211 0010 0021     		movs	r1, #0
 212              		.loc 1 492 0
 213 0012 20F0FF00 		bic	r0, r0, #255
 214              		.loc 1 491 0
 215 0016 1960     		str	r1, [r3]
 216              		.loc 1 492 0
 217 0018 D860     		str	r0, [r3, #12]
 218              		.loc 1 494 0
 219 001a 1961     		str	r1, [r3, #16]
 220              		.loc 1 495 0
 221 001c 5963     		str	r1, [r3, #52]
 222              		.loc 1 496 0
 223 001e 9963     		str	r1, [r3, #56]
 224              		.loc 1 497 0
 225 0020 D963     		str	r1, [r3, #60]
 226              		.loc 1 498 0
 227 0022 1964     		str	r1, [r3, #64]
ARM GAS  /tmp/ccTVLo7g.s 			page 5


 228              		.loc 1 499 0
 229 0024 5962     		str	r1, [r3, #36]
 230              	.L35:
 231              		.loc 1 503 0
 232 0026 E168     		ldr	r1, [r4, #12]
 233 0028 1668     		ldr	r6, [r2]
 234 002a B1FBF6F0 		udiv	r0, r1, r6
 235 002e 451E     		subs	r5, r0, #1
 236              	.LVL14:
 237              		.loc 1 504 0
 238 0030 B5F5803F 		cmp	r5, #65536
 239 0034 03D2     		bcs	.L36
 240              		.loc 1 504 0 is_stmt 0 discriminator 2
 241 0036 06FB00F0 		mul	r0, r6, r0
 242 003a 8142     		cmp	r1, r0
 243 003c 04D0     		beq	.L37
 244              	.L36:
 245              		.loc 1 504 0 discriminator 1
 246 003e 3248     		ldr	r0, .L65
 247 0040 FFF7FEFF 		bl	chDbgPanic
 248              	.LVL15:
 249 0044 6268     		ldr	r2, [r4, #4]
 250 0046 2369     		ldr	r3, [r4, #16]
 251              	.L37:
 252              		.loc 1 508 0 is_stmt 1
 253 0048 2489     		ldrh	r4, [r4, #8]
 254              	.LVL16:
 255              		.loc 1 513 0
 256 004a D168     		ldr	r1, [r2, #12]
 257              		.loc 1 509 0
 258 004c D06A     		ldr	r0, [r2, #44]
 259              		.loc 1 508 0
 260 004e 013C     		subs	r4, r4, #1
 261              		.loc 1 513 0
 262 0050 01F00F01 		and	r1, r1, #15
 263              		.loc 1 508 0
 264 0054 A4B2     		uxth	r4, r4
 265              		.loc 1 507 0
 266 0056 ADB2     		uxth	r5, r5
 267              	.LVL17:
 268              		.loc 1 513 0
 269 0058 0129     		cmp	r1, #1
 270              		.loc 1 507 0
 271 005a 9D62     		str	r5, [r3, #40]
 272              		.loc 1 508 0
 273 005c DC62     		str	r4, [r3, #44]
 274              		.loc 1 509 0
 275 005e 5860     		str	r0, [r3, #4]
 276              	.LVL18:
 277              		.loc 1 513 0
 278 0060 03D0     		beq	.L38
 279              		.loc 1 512 0
 280 0062 0229     		cmp	r1, #2
 281 0064 0CBF     		ite	eq
 282 0066 0321     		moveq	r1, #3
 283 0068 0021     		movne	r1, #0
 284              	.L38:
ARM GAS  /tmp/ccTVLo7g.s 			page 6


 285              	.LVL19:
 286              		.loc 1 521 0
 287 006a 5069     		ldr	r0, [r2, #20]
 288 006c 00F00F00 		and	r0, r0, #15
 289 0070 0128     		cmp	r0, #1
 290 0072 2AD0     		beq	.L42
 291 0074 0228     		cmp	r0, #2
 292 0076 26D0     		beq	.L62
 293              	.LVL20:
 294              	.L41:
 295              		.loc 1 529 0
 296 0078 D069     		ldr	r0, [r2, #28]
 297 007a 00F00F00 		and	r0, r0, #15
 298 007e 0128     		cmp	r0, #1
 299 0080 1ED0     		beq	.L45
 300 0082 0228     		cmp	r0, #2
 301 0084 1AD0     		beq	.L63
 302              	.LVL21:
 303              	.L44:
 304              		.loc 1 537 0
 305 0086 506A     		ldr	r0, [r2, #36]
 306 0088 00F00F00 		and	r0, r0, #15
 307 008c 0128     		cmp	r0, #1
 308 008e 03D0     		beq	.L48
 309 0090 0228     		cmp	r0, #2
 310 0092 03D1     		bne	.L47
 311              		.loc 1 539 0
 312 0094 41F40051 		orr	r1, r1, #8192
 313              	.LVL22:
 314              	.L48:
 315              		.loc 1 541 0
 316 0098 41F48051 		orr	r1, r1, #4096
 317              	.LVL23:
 318              	.L47:
 319              		.loc 1 583 0
 320 009c 0120     		movs	r0, #1
 321              		.loc 1 582 0
 322 009e 1962     		str	r1, [r3, #32]
 323              		.loc 1 583 0
 324 00a0 5861     		str	r0, [r3, #20]
 325              		.loc 1 584 0
 326 00a2 9068     		ldr	r0, [r2, #8]
 327 00a4 DA68     		ldr	r2, [r3, #12]
 328              		.loc 1 585 0
 329 00a6 0021     		movs	r1, #0
 330              	.LVL24:
 331              		.loc 1 584 0
 332 00a8 8842     		cmp	r0, r1
 333 00aa 0CBF     		ite	eq
 334 00ac 1046     		moveq	r0, r2
 335 00ae 42F00100 		orrne	r0, r2, #1
 336              		.loc 1 594 0
 337 00b2 8522     		movs	r2, #133
 338              		.loc 1 584 0
 339 00b4 D860     		str	r0, [r3, #12]
 340              		.loc 1 585 0
 341 00b6 1961     		str	r1, [r3, #16]
ARM GAS  /tmp/ccTVLo7g.s 			page 7


 342              		.loc 1 594 0
 343 00b8 1A60     		str	r2, [r3]
 344 00ba 70BD     		pop	{r4, r5, r6, pc}
 345              	.LVL25:
 346              	.L63:
 347              		.loc 1 531 0
 348 00bc 41F40071 		orr	r1, r1, #512
 349              	.LVL26:
 350              	.L45:
 351              		.loc 1 533 0
 352 00c0 41F48071 		orr	r1, r1, #256
 353              	.LVL27:
 354 00c4 DFE7     		b	.L44
 355              	.L62:
 356              		.loc 1 523 0
 357 00c6 41F02001 		orr	r1, r1, #32
 358              	.LVL28:
 359              	.L42:
 360              		.loc 1 525 0
 361 00ca 41F01001 		orr	r1, r1, #16
 362              	.LVL29:
 363 00ce D3E7     		b	.L41
 364              	.LVL30:
 365              	.L61:
 366              		.loc 1 421 0
 367 00d0 0E4B     		ldr	r3, .L65+4
 368 00d2 9842     		cmp	r0, r3
 369 00d4 06D0     		beq	.L64
 370              	.LVL31:
 371              	.L34:
 372              		.loc 1 484 0
 373 00d6 2369     		ldr	r3, [r4, #16]
 374 00d8 6268     		ldr	r2, [r4, #4]
 375 00da 46F66801 		movw	r1, #26728
 376 00de 9961     		str	r1, [r3, #24]
 377              		.loc 1 486 0
 378 00e0 D961     		str	r1, [r3, #28]
 379 00e2 A0E7     		b	.L35
 380              	.LVL32:
 381              	.L64:
 382              		.loc 1 422 0
 383 00e4 0A4B     		ldr	r3, .L65+8
 384 00e6 1A6C     		ldr	r2, [r3, #64]
 385 00e8 42F00102 		orr	r2, r2, #1
 386 00ec 1A64     		str	r2, [r3, #64]
 387              		.loc 1 423 0
 388 00ee 196A     		ldr	r1, [r3, #32]
 389 00f0 0022     		movs	r2, #0
 390 00f2 41F00101 		orr	r1, r1, #1
 391 00f6 1962     		str	r1, [r3, #32]
 392              		.loc 1 424 0
 393 00f8 1C20     		movs	r0, #28
 394              	.LVL33:
 395              		.loc 1 423 0
 396 00fa 1A62     		str	r2, [r3, #32]
 397              		.loc 1 424 0
 398 00fc 7021     		movs	r1, #112
ARM GAS  /tmp/ccTVLo7g.s 			page 8


 399 00fe FFF7FEFF 		bl	nvicEnableVector
 400              	.LVL34:
 401              		.loc 1 426 0
 402 0102 044B     		ldr	r3, .L65+12
 403 0104 E360     		str	r3, [r4, #12]
 404 0106 E6E7     		b	.L34
 405              	.L66:
 406              		.align	2
 407              	.L65:
 408 0108 00000000 		.word	.LC0
 409 010c 00000000 		.word	.LANCHOR0
 410 0110 00380240 		.word	1073887232
 411 0114 00BD0105 		.word	84000000
 412              		.cfi_endproc
 413              	.LFE121:
 414              		.size	pwm_lld_start, .-pwm_lld_start
 415 0118 AFF30080 		.section	.text.pwm_lld_stop,"ax",%progbits
 415      AFF30080 
 416              		.align	2
 417              		.p2align 4,,15
 418              		.global	pwm_lld_stop
 419              		.thumb
 420              		.thumb_func
 421              		.type	pwm_lld_stop, %function
 422              	pwm_lld_stop:
 423              	.LFB122:
 424              		.loc 1 605 0
 425              		.cfi_startproc
 426              		@ args = 0, pretend = 0, frame = 0
 427              		@ frame_needed = 0, uses_anonymous_args = 0
 428              	.LVL35:
 429 0000 08B5     		push	{r3, lr}
 430              		.cfi_def_cfa_offset 8
 431              		.cfi_offset 3, -8
 432              		.cfi_offset 14, -4
 433              		.loc 1 608 0
 434 0002 0378     		ldrb	r3, [r0]	@ zero_extendqisi2
 435 0004 022B     		cmp	r3, #2
 436 0006 00D0     		beq	.L71
 437              	.LVL36:
 438              	.L67:
 439 0008 08BD     		pop	{r3, pc}
 440              	.LVL37:
 441              	.L71:
 442              		.loc 1 624 0
 443 000a 0849     		ldr	r1, .L72
 444              		.loc 1 609 0
 445 000c 0369     		ldr	r3, [r0, #16]
 446 000e 0022     		movs	r2, #0
 447              		.loc 1 624 0
 448 0010 8842     		cmp	r0, r1
 449              		.loc 1 609 0
 450 0012 1A60     		str	r2, [r3]
 451              		.loc 1 610 0
 452 0014 DA60     		str	r2, [r3, #12]
 453              		.loc 1 611 0
 454 0016 1A61     		str	r2, [r3, #16]
ARM GAS  /tmp/ccTVLo7g.s 			page 9


 455              		.loc 1 624 0
 456 0018 F6D1     		bne	.L67
 457              		.loc 1 625 0
 458 001a 1C20     		movs	r0, #28
 459              	.LVL38:
 460 001c FFF7FEFF 		bl	nvicDisableVector
 461              	.LVL39:
 462              		.loc 1 626 0
 463 0020 034B     		ldr	r3, .L72+4
 464 0022 1A6C     		ldr	r2, [r3, #64]
 465 0024 22F00102 		bic	r2, r2, #1
 466 0028 1A64     		str	r2, [r3, #64]
 467 002a EDE7     		b	.L67
 468              	.L73:
 469              		.align	2
 470              	.L72:
 471 002c 00000000 		.word	.LANCHOR0
 472 0030 00380240 		.word	1073887232
 473              		.cfi_endproc
 474              	.LFE122:
 475              		.size	pwm_lld_stop, .-pwm_lld_stop
 476 0034 AFF30080 		.section	.text.pwm_lld_enable_channel,"ax",%progbits
 476      AFF30080 
 476      AFF30080 
 477              		.align	2
 478              		.p2align 4,,15
 479              		.global	pwm_lld_enable_channel
 480              		.thumb
 481              		.thumb_func
 482              		.type	pwm_lld_enable_channel, %function
 483              	pwm_lld_enable_channel:
 484              	.LFB123:
 485              		.loc 1 677 0
 486              		.cfi_startproc
 487              		@ args = 0, pretend = 0, frame = 0
 488              		@ frame_needed = 0, uses_anonymous_args = 0
 489              		@ link register save eliminated.
 490              	.LVL40:
 491 0000 10B4     		push	{r4}
 492              		.cfi_def_cfa_offset 4
 493              		.cfi_offset 4, -4
 494              		.loc 1 682 0
 495 0002 4468     		ldr	r4, [r0, #4]
 496              		.loc 1 679 0
 497 0004 0369     		ldr	r3, [r0, #16]
 498              		.loc 1 682 0
 499 0006 04EBC100 		add	r0, r4, r1, lsl #3
 500              	.LVL41:
 501              		.loc 1 679 0
 502 000a 01F10C04 		add	r4, r1, #12
 503              		.loc 1 682 0
 504 000e 0069     		ldr	r0, [r0, #16]
 505              		.loc 1 679 0
 506 0010 03EB8404 		add	r4, r3, r4, lsl #2
 507 0014 6260     		str	r2, [r4, #4]
 508              		.loc 1 682 0
 509 0016 48B1     		cbz	r0, .L74
ARM GAS  /tmp/ccTVLo7g.s 			page 10


 510              	.LBB10:
 511              		.loc 1 686 0
 512 0018 0220     		movs	r0, #2
 513              		.loc 1 683 0
 514 001a DA68     		ldr	r2, [r3, #12]
 515              	.LVL42:
 516              		.loc 1 686 0
 517 001c 00FA01F1 		lsl	r1, r0, r1
 518              	.LVL43:
 519 0020 1142     		tst	r1, r2
 520 0022 03D1     		bne	.L74
 521              		.loc 1 687 0
 522 0024 0A43     		orrs	r2, r2, r1
 523              	.LVL44:
 524              		.loc 1 688 0
 525 0026 C943     		mvns	r1, r1
 526              		.loc 1 687 0
 527 0028 DA60     		str	r2, [r3, #12]
 528              		.loc 1 688 0
 529 002a 1961     		str	r1, [r3, #16]
 530              	.L74:
 531              	.LBE10:
 532              		.loc 1 691 0
 533 002c 5DF8044B 		ldr	r4, [sp], #4
 534 0030 7047     		bx	lr
 535              		.cfi_endproc
 536              	.LFE123:
 537              		.size	pwm_lld_enable_channel, .-pwm_lld_enable_channel
 538 0032 00BFAFF3 		.section	.text.pwm_lld_disable_channel,"ax",%progbits
 538      0080AFF3 
 538      0080AFF3 
 538      0080
 539              		.align	2
 540              		.p2align 4,,15
 541              		.global	pwm_lld_disable_channel
 542              		.thumb
 543              		.thumb_func
 544              		.type	pwm_lld_disable_channel, %function
 545              	pwm_lld_disable_channel:
 546              	.LFB124:
 547              		.loc 1 705 0
 548              		.cfi_startproc
 549              		@ args = 0, pretend = 0, frame = 0
 550              		@ frame_needed = 0, uses_anonymous_args = 0
 551              		@ link register save eliminated.
 552              	.LVL45:
 553              		.loc 1 707 0
 554 0000 0369     		ldr	r3, [r0, #16]
 555 0002 01F10C02 		add	r2, r1, #12
 556 0006 03EB8202 		add	r2, r3, r2, lsl #2
 557 000a 0020     		movs	r0, #0
 558              	.LVL46:
 559 000c 5060     		str	r0, [r2, #4]
 560              		.loc 1 708 0
 561 000e DA68     		ldr	r2, [r3, #12]
 562 0010 0220     		movs	r0, #2
 563 0012 00FA01F1 		lsl	r1, r0, r1
ARM GAS  /tmp/ccTVLo7g.s 			page 11


 564              	.LVL47:
 565 0016 22EA0101 		bic	r1, r2, r1
 566 001a D960     		str	r1, [r3, #12]
 567 001c 7047     		bx	lr
 568              		.cfi_endproc
 569              	.LFE124:
 570              		.size	pwm_lld_disable_channel, .-pwm_lld_disable_channel
 571              		.global	PWMD2
 572 001e 00BF     		.section	.bss.PWMD2,"aw",%nobits
 573              		.align	2
 574              		.set	.LANCHOR0,. + 0
 575              		.type	PWMD2, %object
 576              		.size	PWMD2, 20
 577              	PWMD2:
 578 0000 00000000 		.space	20
 578      00000000 
 578      00000000 
 578      00000000 
 578      00000000 
 579              		.section	.rodata.str1.4,"aMS",%progbits,1
 580              		.align	2
 581              	.LC0:
 582 0000 70776D5F 		.ascii	"pwm_lld_start(), #1\000"
 582      6C6C645F 
 582      73746172 
 582      7428292C 
 582      20233100 
 583              		.text
 584              	.Letext0:
 585              		.file 2 "/opt/ARM/arm-none-eabi/include/machine/_default_types.h"
 586              		.file 3 "/opt/ARM/arm-none-eabi/include/stdint.h"
 587              		.file 4 "../../../os/hal/platforms/STM32F4xx/stm32f4xx.h"
 588              		.file 5 "../../../os/hal/platforms/STM32/TIMv1/stm32_tim.h"
 589              		.file 6 "../../../os/hal/include/pwm.h"
 590              		.file 7 "../../../os/hal/platforms/STM32/TIMv1/pwm_lld.h"
 591              		.file 8 "../../../os/ports/common/ARMCMx/CMSIS/include/core_cm4.h"
 592              		.file 9 "../../../os/kernel/include/chdebug.h"
 593              		.file 10 "../../../os/ports/GCC/ARMCMx/chcore_v7m.h"
 594              		.file 11 "../../../os/ports/common/ARMCMx/nvic.h"
