ARM GAS  /tmp/ccEepdba.s 			page 1


   1              		.syntax unified
   2              		.cpu cortex-m4
   3              		.fpu softvfp
   4              		.eabi_attribute 20, 1
   5              		.eabi_attribute 21, 1
   6              		.eabi_attribute 23, 3
   7              		.eabi_attribute 24, 1
   8              		.eabi_attribute 25, 1
   9              		.eabi_attribute 26, 1
  10              		.eabi_attribute 30, 2
  11              		.eabi_attribute 34, 1
  12              		.eabi_attribute 18, 4
  13              		.thumb
  14              		.file	"testmsg.c"
  15              		.text
  16              	.Ltext0:
  17              		.cfi_sections	.debug_frame
  18              		.section	.text.msg1_execute,"ax",%progbits
  19              		.align	2
  20              		.p2align 4,,15
  21              		.thumb
  22              		.thumb_func
  23              		.type	msg1_execute, %function
  24              	msg1_execute:
  25              	.LFB8:
  26              		.file 1 "../../../test/testmsg.c"
  27              		.loc 1 67 0
  28              		.cfi_startproc
  29              		@ args = 0, pretend = 0, frame = 0
  30              		@ frame_needed = 0, uses_anonymous_args = 0
  31 0000 10B5     		push	{r4, lr}
  32              		.cfi_def_cfa_offset 8
  33              		.cfi_offset 4, -8
  34              		.cfi_offset 14, -4
  35              		.loc 1 74 0
  36 0002 184A     		ldr	r2, .L2
  37 0004 184B     		ldr	r3, .L2+4
  38 0006 9169     		ldr	r1, [r2, #24]
  39 0008 1868     		ldr	r0, [r3]
  40 000a 8A68     		ldr	r2, [r1, #8]
  41 000c 174B     		ldr	r3, .L2+8
  42              		.loc 1 67 0
  43 000e 82B0     		sub	sp, sp, #8
  44              		.cfi_def_cfa_offset 16
  45              		.loc 1 74 0
  46 0010 0132     		adds	r2, r2, #1
  47 0012 0091     		str	r1, [sp]
  48 0014 4FF4A871 		mov	r1, #336
  49 0018 FFF7FEFF 		bl	chThdCreateStatic
  50              	.LVL0:
  51 001c 144B     		ldr	r3, .L2+12
  52 001e 1860     		str	r0, [r3]
  53              		.loc 1 76 0
  54 0020 FFF7FEFF 		bl	chMsgWait
  55              	.LVL1:
  56              		.loc 1 77 0
  57 0024 846B     		ldr	r4, [r0, #56]
ARM GAS  /tmp/ccEepdba.s 			page 2


  58              	.LVL2:
  59              		.loc 1 78 0
  60 0026 2146     		mov	r1, r4
  61 0028 FFF7FEFF 		bl	chMsgRelease
  62              	.LVL3:
  63              		.loc 1 79 0
  64 002c E0B2     		uxtb	r0, r4
  65 002e FFF7FEFF 		bl	test_emit_token
  66              	.LVL4:
  67              		.loc 1 80 0
  68 0032 FFF7FEFF 		bl	chMsgWait
  69              	.LVL5:
  70              		.loc 1 81 0
  71 0036 846B     		ldr	r4, [r0, #56]
  72              	.LVL6:
  73              		.loc 1 82 0
  74 0038 2146     		mov	r1, r4
  75 003a FFF7FEFF 		bl	chMsgRelease
  76              	.LVL7:
  77              		.loc 1 83 0
  78 003e E0B2     		uxtb	r0, r4
  79 0040 FFF7FEFF 		bl	test_emit_token
  80              	.LVL8:
  81              		.loc 1 84 0
  82 0044 FFF7FEFF 		bl	chMsgWait
  83              	.LVL9:
  84              		.loc 1 85 0
  85 0048 846B     		ldr	r4, [r0, #56]
  86              	.LVL10:
  87              		.loc 1 86 0
  88 004a 2146     		mov	r1, r4
  89 004c FFF7FEFF 		bl	chMsgRelease
  90              	.LVL11:
  91              		.loc 1 87 0
  92 0050 E0B2     		uxtb	r0, r4
  93 0052 FFF7FEFF 		bl	test_emit_token
  94              	.LVL12:
  95              		.loc 1 88 0
  96 0056 0749     		ldr	r1, .L2+16
  97 0058 0120     		movs	r0, #1
  98              		.loc 1 89 0
  99 005a 02B0     		add	sp, sp, #8
 100              		@ sp needed
 101 005c BDE81040 		pop	{r4, lr}
 102              	.LVL13:
 103              		.loc 1 88 0
 104 0060 FFF7FEBF 		b	_test_assert_sequence
 105              	.LVL14:
 106              	.L3:
 107              		.align	2
 108              	.L2:
 109 0064 00000000 		.word	rlist
 110 0068 00000000 		.word	wa
 111 006c 00000000 		.word	thread
 112 0070 00000000 		.word	threads
 113 0074 00000000 		.word	.LC0
 114              		.cfi_endproc
ARM GAS  /tmp/ccEepdba.s 			page 3


 115              	.LFE8:
 116              		.size	msg1_execute, .-msg1_execute
 117 0078 AFF30080 		.section	.text.thread,"ax",%progbits
 117      AFF30080 
 118              		.align	2
 119              		.p2align 4,,15
 120              		.thumb
 121              		.thumb_func
 122              		.type	thread, %function
 123              	thread:
 124              	.LFB7:
 125              		.loc 1 59 0
 126              		.cfi_startproc
 127              		@ args = 0, pretend = 0, frame = 0
 128              		@ frame_needed = 0, uses_anonymous_args = 0
 129              	.LVL15:
 130 0000 10B5     		push	{r4, lr}
 131              		.cfi_def_cfa_offset 8
 132              		.cfi_offset 4, -8
 133              		.cfi_offset 14, -4
 134              		.loc 1 61 0
 135 0002 4121     		movs	r1, #65
 136              		.loc 1 59 0
 137 0004 0446     		mov	r4, r0
 138              		.loc 1 61 0
 139 0006 FFF7FEFF 		bl	chMsgSend
 140              	.LVL16:
 141              		.loc 1 62 0
 142 000a 2046     		mov	r0, r4
 143 000c 4221     		movs	r1, #66
 144 000e FFF7FEFF 		bl	chMsgSend
 145              	.LVL17:
 146              		.loc 1 63 0
 147 0012 2046     		mov	r0, r4
 148 0014 4321     		movs	r1, #67
 149 0016 FFF7FEFF 		bl	chMsgSend
 150              	.LVL18:
 151              		.loc 1 65 0
 152 001a 0020     		movs	r0, #0
 153 001c 10BD     		pop	{r4, pc}
 154              		.cfi_endproc
 155              	.LFE7:
 156              		.size	thread, .-thread
 157              		.global	patternmsg
 158              		.global	testmsg1
 159 001e 00BF     		.section	.rodata.testmsg1,"a",%progbits
 160              		.align	2
 161              		.type	testmsg1, %object
 162              		.size	testmsg1, 16
 163              	testmsg1:
 164 0000 04000000 		.word	.LC1
 165 0004 00000000 		.word	0
 166 0008 00000000 		.word	0
 167 000c 00000000 		.word	msg1_execute
 168              		.section	.rodata.str1.4,"aMS",%progbits,1
 169              		.align	2
 170              	.LC0:
ARM GAS  /tmp/ccEepdba.s 			page 4


 171 0000 41424300 		.ascii	"ABC\000"
 172              	.LC1:
 173 0004 4D657373 		.ascii	"Messages, loop\000"
 173      61676573 
 173      2C206C6F 
 173      6F7000
 174 0013 00       		.section	.rodata.patternmsg,"a",%progbits
 175              		.align	2
 176              		.type	patternmsg, %object
 177              		.size	patternmsg, 8
 178              	patternmsg:
 179 0000 00000000 		.word	testmsg1
 180 0004 00000000 		.word	0
 181              		.text
 182              	.Letext0:
 183              		.file 2 "/opt/ARM/lib/gcc/arm-none-eabi/4.8.4/include/stddef.h"
 184              		.file 3 "/opt/ARM/arm-none-eabi/include/machine/_default_types.h"
 185              		.file 4 "/opt/ARM/arm-none-eabi/include/stdint.h"
 186              		.file 5 "../../../os/ports/GCC/ARMCMx/chtypes.h"
 187              		.file 6 "../../../os/kernel/include/chlists.h"
 188              		.file 7 "../../../os/kernel/include/chthreads.h"
 189              		.file 8 "../../../os/ports/GCC/ARMCMx/chcore_v7m.h"
 190              		.file 9 "../../../os/kernel/include/chschd.h"
 191              		.file 10 "../../../os/kernel/include/chmtx.h"
 192              		.file 11 "../../../test/test.h"
 193              		.file 12 "../../../os/kernel/include/chmsg.h"
