ARM GAS  /tmp/ccjVH6oK.s 			page 1


   1              		.syntax unified
   2              		.cpu cortex-m4
   3              		.fpu softvfp
   4              		.eabi_attribute 20, 1
   5              		.eabi_attribute 21, 1
   6              		.eabi_attribute 23, 3
   7              		.eabi_attribute 24, 1
   8              		.eabi_attribute 25, 1
   9              		.eabi_attribute 26, 1
  10              		.eabi_attribute 30, 2
  11              		.eabi_attribute 34, 1
  12              		.eabi_attribute 18, 4
  13              		.thumb
  14              		.file	"testthd.c"
  15              		.text
  16              	.Ltext0:
  17              		.cfi_sections	.debug_frame
  18              		.section	.text.thd1_execute,"ax",%progbits
  19              		.align	2
  20              		.p2align 4,,15
  21              		.thumb
  22              		.thumb_func
  23              		.type	thd1_execute, %function
  24              	thd1_execute:
  25              	.LFB8:
  26              		.file 1 "../../../test/testthd.c"
  27              		.loc 1 66 0
  28              		.cfi_startproc
  29              		@ args = 0, pretend = 0, frame = 0
  30              		@ frame_needed = 0, uses_anonymous_args = 0
  31 0000 F0B5     		push	{r4, r5, r6, r7, lr}
  32              		.cfi_def_cfa_offset 20
  33              		.cfi_offset 4, -20
  34              		.cfi_offset 5, -16
  35              		.cfi_offset 6, -12
  36              		.cfi_offset 7, -8
  37              		.cfi_offset 14, -4
  38              		.loc 1 68 0
  39 0002 274F     		ldr	r7, .L2
  40 0004 274E     		ldr	r6, .L2+4
  41 0006 BB69     		ldr	r3, [r7, #24]
  42 0008 274D     		ldr	r5, .L2+8
  43 000a 9A68     		ldr	r2, [r3, #8]
  44 000c 274B     		ldr	r3, .L2+12
  45 000e 3068     		ldr	r0, [r6]
  46 0010 274C     		ldr	r4, .L2+16
  47              		.loc 1 66 0
  48 0012 83B0     		sub	sp, sp, #12
  49              		.cfi_def_cfa_offset 32
  50              		.loc 1 68 0
  51 0014 053A     		subs	r2, r2, #5
  52 0016 0093     		str	r3, [sp]
  53 0018 4FF4A871 		mov	r1, #336
  54 001c 2B46     		mov	r3, r5
  55 001e FFF7FEFF 		bl	chThdCreateStatic
  56              	.LVL0:
  57              		.loc 1 69 0
ARM GAS  /tmp/ccjVH6oK.s 			page 2


  58 0022 BB69     		ldr	r3, [r7, #24]
  59 0024 2349     		ldr	r1, .L2+20
  60 0026 9A68     		ldr	r2, [r3, #8]
  61 0028 7368     		ldr	r3, [r6, #4]
  62              		.loc 1 68 0
  63 002a 2060     		str	r0, [r4]
  64              		.loc 1 69 0
  65 002c 0091     		str	r1, [sp]
  66 002e 043A     		subs	r2, r2, #4
  67 0030 1846     		mov	r0, r3
  68 0032 4FF4A871 		mov	r1, #336
  69 0036 2B46     		mov	r3, r5
  70 0038 FFF7FEFF 		bl	chThdCreateStatic
  71              	.LVL1:
  72              		.loc 1 70 0
  73 003c BA69     		ldr	r2, [r7, #24]
  74 003e B368     		ldr	r3, [r6, #8]
  75 0040 9268     		ldr	r2, [r2, #8]
  76 0042 1D49     		ldr	r1, .L2+24
  77              		.loc 1 69 0
  78 0044 6060     		str	r0, [r4, #4]
  79              		.loc 1 70 0
  80 0046 0091     		str	r1, [sp]
  81 0048 033A     		subs	r2, r2, #3
  82 004a 1846     		mov	r0, r3
  83 004c 4FF4A871 		mov	r1, #336
  84 0050 2B46     		mov	r3, r5
  85 0052 FFF7FEFF 		bl	chThdCreateStatic
  86              	.LVL2:
  87              		.loc 1 71 0
  88 0056 BA69     		ldr	r2, [r7, #24]
  89 0058 F368     		ldr	r3, [r6, #12]
  90 005a 9268     		ldr	r2, [r2, #8]
  91 005c 1749     		ldr	r1, .L2+28
  92              		.loc 1 70 0
  93 005e A060     		str	r0, [r4, #8]
  94              		.loc 1 71 0
  95 0060 0091     		str	r1, [sp]
  96 0062 023A     		subs	r2, r2, #2
  97 0064 1846     		mov	r0, r3
  98 0066 4FF4A871 		mov	r1, #336
  99 006a 2B46     		mov	r3, r5
 100 006c FFF7FEFF 		bl	chThdCreateStatic
 101              	.LVL3:
 102              		.loc 1 72 0
 103 0070 BA69     		ldr	r2, [r7, #24]
 104 0072 3369     		ldr	r3, [r6, #16]
 105 0074 9268     		ldr	r2, [r2, #8]
 106 0076 1249     		ldr	r1, .L2+32
 107              		.loc 1 71 0
 108 0078 E060     		str	r0, [r4, #12]
 109              		.loc 1 72 0
 110 007a 013A     		subs	r2, r2, #1
 111 007c 0091     		str	r1, [sp]
 112 007e 1846     		mov	r0, r3
 113 0080 4FF4A871 		mov	r1, #336
 114 0084 2B46     		mov	r3, r5
ARM GAS  /tmp/ccjVH6oK.s 			page 3


 115 0086 FFF7FEFF 		bl	chThdCreateStatic
 116              	.LVL4:
 117 008a 2061     		str	r0, [r4, #16]
 118              		.loc 1 73 0
 119 008c FFF7FEFF 		bl	test_wait_threads
 120              	.LVL5:
 121              		.loc 1 74 0
 122 0090 0C49     		ldr	r1, .L2+36
 123 0092 0120     		movs	r0, #1
 124              		.loc 1 75 0
 125 0094 03B0     		add	sp, sp, #12
 126              		@ sp needed
 127 0096 BDE8F040 		pop	{r4, r5, r6, r7, lr}
 128              		.loc 1 74 0
 129 009a FFF7FEBF 		b	_test_assert_sequence
 130              	.LVL6:
 131              	.L3:
 132 009e 00BF     		.align	2
 133              	.L2:
 134 00a0 00000000 		.word	rlist
 135 00a4 00000000 		.word	wa
 136 00a8 00000000 		.word	thread
 137 00ac 00000000 		.word	.LC0
 138 00b0 00000000 		.word	threads
 139 00b4 04000000 		.word	.LC1
 140 00b8 08000000 		.word	.LC2
 141 00bc 0C000000 		.word	.LC3
 142 00c0 10000000 		.word	.LC4
 143 00c4 14000000 		.word	.LC5
 144              		.cfi_endproc
 145              	.LFE8:
 146              		.size	thd1_execute, .-thd1_execute
 147              		.section	.text.thread,"ax",%progbits
 148              		.align	2
 149              		.p2align 4,,15
 150              		.thumb
 151              		.thumb_func
 152              		.type	thread, %function
 153              	thread:
 154              	.LFB7:
 155              		.loc 1 60 0
 156              		.cfi_startproc
 157              		@ args = 0, pretend = 0, frame = 0
 158              		@ frame_needed = 0, uses_anonymous_args = 0
 159              	.LVL7:
 160 0000 08B5     		push	{r3, lr}
 161              		.cfi_def_cfa_offset 8
 162              		.cfi_offset 3, -8
 163              		.cfi_offset 14, -4
 164              		.loc 1 62 0
 165 0002 0078     		ldrb	r0, [r0]	@ zero_extendqisi2
 166              	.LVL8:
 167 0004 FFF7FEFF 		bl	test_emit_token
 168              	.LVL9:
 169              		.loc 1 64 0
 170 0008 0020     		movs	r0, #0
 171 000a 08BD     		pop	{r3, pc}
ARM GAS  /tmp/ccjVH6oK.s 			page 4


 172              		.cfi_endproc
 173              	.LFE7:
 174              		.size	thread, .-thread
 175 000c AFF30080 		.section	.text.thd2_execute,"ax",%progbits
 176              		.align	2
 177              		.p2align 4,,15
 178              		.thumb
 179              		.thumb_func
 180              		.type	thd2_execute, %function
 181              	thd2_execute:
 182              	.LFB9:
 183              		.loc 1 94 0
 184              		.cfi_startproc
 185              		@ args = 0, pretend = 0, frame = 0
 186              		@ frame_needed = 0, uses_anonymous_args = 0
 187 0000 F0B5     		push	{r4, r5, r6, r7, lr}
 188              		.cfi_def_cfa_offset 20
 189              		.cfi_offset 4, -20
 190              		.cfi_offset 5, -16
 191              		.cfi_offset 6, -12
 192              		.cfi_offset 7, -8
 193              		.cfi_offset 14, -4
 194              		.loc 1 96 0
 195 0002 2D4F     		ldr	r7, .L6
 196 0004 2D4E     		ldr	r6, .L6+4
 197 0006 BB69     		ldr	r3, [r7, #24]
 198 0008 2D4D     		ldr	r5, .L6+8
 199 000a 9A68     		ldr	r2, [r3, #8]
 200 000c 2D4B     		ldr	r3, .L6+12
 201 000e 7068     		ldr	r0, [r6, #4]
 202 0010 2D4C     		ldr	r4, .L6+16
 203              		.loc 1 94 0
 204 0012 83B0     		sub	sp, sp, #12
 205              		.cfi_def_cfa_offset 32
 206              		.loc 1 96 0
 207 0014 043A     		subs	r2, r2, #4
 208 0016 0093     		str	r3, [sp]
 209 0018 4FF4A871 		mov	r1, #336
 210 001c 2B46     		mov	r3, r5
 211 001e FFF7FEFF 		bl	chThdCreateStatic
 212              	.LVL10:
 213              		.loc 1 97 0
 214 0022 BB69     		ldr	r3, [r7, #24]
 215 0024 2949     		ldr	r1, .L6+20
 216 0026 9A68     		ldr	r2, [r3, #8]
 217 0028 3368     		ldr	r3, [r6]
 218              		.loc 1 96 0
 219 002a 6060     		str	r0, [r4, #4]
 220              		.loc 1 97 0
 221 002c 0091     		str	r1, [sp]
 222 002e 053A     		subs	r2, r2, #5
 223 0030 1846     		mov	r0, r3
 224 0032 4FF4A871 		mov	r1, #336
 225 0036 2B46     		mov	r3, r5
 226 0038 FFF7FEFF 		bl	chThdCreateStatic
 227              	.LVL11:
 228              		.loc 1 98 0
ARM GAS  /tmp/ccjVH6oK.s 			page 5


 229 003c BA69     		ldr	r2, [r7, #24]
 230 003e 3369     		ldr	r3, [r6, #16]
 231 0040 9268     		ldr	r2, [r2, #8]
 232 0042 2349     		ldr	r1, .L6+24
 233              		.loc 1 97 0
 234 0044 2060     		str	r0, [r4]
 235              		.loc 1 98 0
 236 0046 0091     		str	r1, [sp]
 237 0048 013A     		subs	r2, r2, #1
 238 004a 1846     		mov	r0, r3
 239 004c 4FF4A871 		mov	r1, #336
 240 0050 2B46     		mov	r3, r5
 241 0052 FFF7FEFF 		bl	chThdCreateStatic
 242              	.LVL12:
 243              		.loc 1 99 0
 244 0056 BA69     		ldr	r2, [r7, #24]
 245 0058 F368     		ldr	r3, [r6, #12]
 246 005a 9268     		ldr	r2, [r2, #8]
 247 005c 1D49     		ldr	r1, .L6+28
 248              		.loc 1 98 0
 249 005e 2061     		str	r0, [r4, #16]
 250              		.loc 1 99 0
 251 0060 0091     		str	r1, [sp]
 252 0062 023A     		subs	r2, r2, #2
 253 0064 1846     		mov	r0, r3
 254 0066 4FF4A871 		mov	r1, #336
 255 006a 2B46     		mov	r3, r5
 256 006c FFF7FEFF 		bl	chThdCreateStatic
 257              	.LVL13:
 258              	.LBB2:
 259              		.loc 1 101 0
 260 0070 2023     		movs	r3, #32
 261              	.LBE2:
 262              		.loc 1 99 0
 263 0072 E060     		str	r0, [r4, #12]
 264              	.LBB3:
 265              		.loc 1 101 0
 266              	@ 101 "../../../test/testthd.c" 1
 267 0074 83F31188 		msr     BASEPRI, r3
 268              	@ 0 "" 2
 269              		.thumb
 270              	.LBE3:
 271 0078 FFF7FEFF 		bl	dbg_check_lock
 272              	.LVL14:
 273              		.loc 1 102 0
 274 007c BB69     		ldr	r3, [r7, #24]
 275 007e B068     		ldr	r0, [r6, #8]
 276 0080 9A68     		ldr	r2, [r3, #8]
 277 0082 154B     		ldr	r3, .L6+32
 278 0084 0093     		str	r3, [sp]
 279 0086 033A     		subs	r2, r2, #3
 280 0088 2B46     		mov	r3, r5
 281 008a 4FF4A871 		mov	r1, #336
 282 008e FFF7FEFF 		bl	chThdCreateI
 283              	.LVL15:
 284 0092 A060     		str	r0, [r4, #8]
 285              		.loc 1 103 0
ARM GAS  /tmp/ccjVH6oK.s 			page 6


 286 0094 FFF7FEFF 		bl	dbg_check_unlock
 287              	.LVL16:
 288              	.LBB4:
 289 0098 0023     		movs	r3, #0
 290              	@ 103 "../../../test/testthd.c" 1
 291 009a 83F31188 		msr     BASEPRI, r3
 292              	@ 0 "" 2
 293              		.thumb
 294              	.LBE4:
 295              		.loc 1 104 0
 296 009e A068     		ldr	r0, [r4, #8]
 297 00a0 FFF7FEFF 		bl	chThdResume
 298              	.LVL17:
 299              		.loc 1 105 0
 300 00a4 FFF7FEFF 		bl	test_wait_threads
 301              	.LVL18:
 302              		.loc 1 106 0
 303 00a8 0C49     		ldr	r1, .L6+36
 304 00aa 0120     		movs	r0, #1
 305              		.loc 1 107 0
 306 00ac 03B0     		add	sp, sp, #12
 307              		@ sp needed
 308 00ae BDE8F040 		pop	{r4, r5, r6, r7, lr}
 309              		.loc 1 106 0
 310 00b2 FFF7FEBF 		b	_test_assert_sequence
 311              	.LVL19:
 312              	.L7:
 313 00b6 00BF     		.align	2
 314              	.L6:
 315 00b8 00000000 		.word	rlist
 316 00bc 00000000 		.word	wa
 317 00c0 00000000 		.word	thread
 318 00c4 04000000 		.word	.LC1
 319 00c8 00000000 		.word	threads
 320 00cc 00000000 		.word	.LC0
 321 00d0 10000000 		.word	.LC4
 322 00d4 0C000000 		.word	.LC3
 323 00d8 08000000 		.word	.LC2
 324 00dc 14000000 		.word	.LC5
 325              		.cfi_endproc
 326              	.LFE9:
 327              		.size	thd2_execute, .-thd2_execute
 328              		.section	.text.thd3_execute,"ax",%progbits
 329              		.align	2
 330              		.p2align 4,,15
 331              		.thumb
 332              		.thumb_func
 333              		.type	thd3_execute, %function
 334              	thd3_execute:
 335              	.LFB10:
 336              		.loc 1 126 0
 337              		.cfi_startproc
 338              		@ args = 0, pretend = 0, frame = 0
 339              		@ frame_needed = 0, uses_anonymous_args = 0
 340 0000 F8B5     		push	{r3, r4, r5, r6, r7, lr}
 341              		.cfi_def_cfa_offset 24
 342              		.cfi_offset 3, -24
ARM GAS  /tmp/ccjVH6oK.s 			page 7


 343              		.cfi_offset 4, -20
 344              		.cfi_offset 5, -16
 345              		.cfi_offset 6, -12
 346              		.cfi_offset 7, -8
 347              		.cfi_offset 14, -4
 348              		.loc 1 129 0
 349 0002 534E     		ldr	r6, .L14
 350 0004 B369     		ldr	r3, [r6, #24]
 351 0006 9C68     		ldr	r4, [r3, #8]
 352              	.LVL20:
 353              		.loc 1 130 0
 354 0008 651C     		adds	r5, r4, #1
 355 000a 2846     		mov	r0, r5
 356 000c FFF7FEFF 		bl	chThdSetPriority
 357              	.LVL21:
 358              		.loc 1 131 0
 359 0010 B0EB040C 		subs	ip, r0, r4
 360 0014 DCF10001 		rsbs	r1, ip, #0
 361              		.loc 1 130 0
 362 0018 0746     		mov	r7, r0
 363              	.LVL22:
 364              		.loc 1 131 0
 365 001a 51EB0C01 		adcs	r1, r1, ip
 366 001e 0120     		movs	r0, #1
 367              	.LVL23:
 368 0020 FFF7FEFF 		bl	_test_assert
 369              	.LVL24:
 370 0024 00B1     		cbz	r0, .L13
 371              	.LVL25:
 372              	.L8:
 373 0026 F8BD     		pop	{r3, r4, r5, r6, r7, pc}
 374              	.LVL26:
 375              	.L13:
 376              		.loc 1 133 0
 377 0028 B369     		ldr	r3, [r6, #24]
 378 002a 9968     		ldr	r1, [r3, #8]
 379 002c B5EB010E 		subs	lr, r5, r1
 380 0030 DEF10001 		rsbs	r1, lr, #0
 381 0034 51EB0E01 		adcs	r1, r1, lr
 382 0038 0220     		movs	r0, #2
 383 003a FFF7FEFF 		bl	_test_assert
 384              	.LVL27:
 385 003e 0028     		cmp	r0, #0
 386 0040 F1D1     		bne	.L8
 387              		.loc 1 135 0
 388 0042 3846     		mov	r0, r7
 389 0044 FFF7FEFF 		bl	chThdSetPriority
 390              	.LVL28:
 391              		.loc 1 136 0
 392 0048 281A     		subs	r0, r5, r0
 393              	.LVL29:
 394 004a 4142     		rsbs	r1, r0, #0
 395 004c 4141     		adcs	r1, r1, r0
 396 004e 0320     		movs	r0, #3
 397 0050 FFF7FEFF 		bl	_test_assert
 398              	.LVL30:
 399 0054 0028     		cmp	r0, #0
ARM GAS  /tmp/ccjVH6oK.s 			page 8


 400 0056 E6D1     		bne	.L8
 401              		.loc 1 138 0
 402 0058 B369     		ldr	r3, [r6, #24]
 403 005a 9968     		ldr	r1, [r3, #8]
 404 005c 0A1B     		subs	r2, r1, r4
 405 005e 5142     		rsbs	r1, r2, #0
 406 0060 4FF00400 		mov	r0, #4
 407 0064 5141     		adcs	r1, r1, r2
 408 0066 FFF7FEFF 		bl	_test_assert
 409              	.LVL31:
 410 006a 0746     		mov	r7, r0
 411 006c 0028     		cmp	r0, #0
 412 006e DAD1     		bne	.L8
 413              	.LBB5:
 414              		.loc 1 143 0
 415 0070 2023     		movs	r3, #32
 416              	@ 143 "../../../test/testthd.c" 1
 417 0072 83F31188 		msr     BASEPRI, r3
 418              	@ 0 "" 2
 419              		.thumb
 420              	.LBE5:
 421 0076 FFF7FEFF 		bl	dbg_check_lock
 422              	.LVL32:
 423              		.loc 1 144 0
 424 007a B369     		ldr	r3, [r6, #24]
 425 007c 9A68     		ldr	r2, [r3, #8]
 426 007e 0232     		adds	r2, r2, #2
 427 0080 9A60     		str	r2, [r3, #8]
 428              		.loc 1 145 0
 429 0082 FFF7FEFF 		bl	dbg_check_unlock
 430              	.LVL33:
 431              	.LBB6:
 432 0086 3B46     		mov	r3, r7
 433              	@ 145 "../../../test/testthd.c" 1
 434 0088 83F31188 		msr     BASEPRI, r3
 435              	@ 0 "" 2
 436              		.thumb
 437              	.LBE6:
 438              		.loc 1 146 0
 439 008c B369     		ldr	r3, [r6, #24]
 440 008e 9968     		ldr	r1, [r3, #8]
 441 0090 A71C     		adds	r7, r4, #2
 442 0092 CB1B     		subs	r3, r1, r7
 443 0094 5942     		rsbs	r1, r3, #0
 444 0096 5941     		adcs	r1, r1, r3
 445 0098 0520     		movs	r0, #5
 446 009a FFF7FEFF 		bl	_test_assert
 447              	.LVL34:
 448 009e 0028     		cmp	r0, #0
 449 00a0 C1D1     		bne	.L8
 450              		.loc 1 150 0
 451 00a2 2846     		mov	r0, r5
 452 00a4 FFF7FEFF 		bl	chThdSetPriority
 453              	.LVL35:
 454              		.loc 1 151 0
 455 00a8 B0EB040C 		subs	ip, r0, r4
 456 00ac DCF10001 		rsbs	r1, ip, #0
ARM GAS  /tmp/ccjVH6oK.s 			page 9


 457 00b0 51EB0C01 		adcs	r1, r1, ip
 458 00b4 0620     		movs	r0, #6
 459              	.LVL36:
 460 00b6 FFF7FEFF 		bl	_test_assert
 461              	.LVL37:
 462 00ba 0028     		cmp	r0, #0
 463 00bc B3D1     		bne	.L8
 464              		.loc 1 153 0
 465 00be B369     		ldr	r3, [r6, #24]
 466 00c0 9968     		ldr	r1, [r3, #8]
 467 00c2 B7EB010E 		subs	lr, r7, r1
 468 00c6 DEF10001 		rsbs	r1, lr, #0
 469 00ca 51EB0E01 		adcs	r1, r1, lr
 470 00ce 0720     		movs	r0, #7
 471 00d0 FFF7FEFF 		bl	_test_assert
 472              	.LVL38:
 473 00d4 0028     		cmp	r0, #0
 474 00d6 A6D1     		bne	.L8
 475              		.loc 1 155 0
 476 00d8 B369     		ldr	r3, [r6, #24]
 477 00da 596C     		ldr	r1, [r3, #68]
 478 00dc 6F1A     		subs	r7, r5, r1
 479 00de 7942     		rsbs	r1, r7, #0
 480 00e0 7941     		adcs	r1, r1, r7
 481 00e2 0820     		movs	r0, #8
 482 00e4 FFF7FEFF 		bl	_test_assert
 483              	.LVL39:
 484 00e8 0028     		cmp	r0, #0
 485 00ea 9CD1     		bne	.L8
 486              		.loc 1 159 0
 487 00ec E71C     		adds	r7, r4, #3
 488 00ee 3846     		mov	r0, r7
 489 00f0 FFF7FEFF 		bl	chThdSetPriority
 490              	.LVL40:
 491              		.loc 1 160 0
 492 00f4 281A     		subs	r0, r5, r0
 493              	.LVL41:
 494 00f6 4142     		rsbs	r1, r0, #0
 495 00f8 4141     		adcs	r1, r1, r0
 496 00fa 0920     		movs	r0, #9
 497 00fc FFF7FEFF 		bl	_test_assert
 498              	.LVL42:
 499 0100 0028     		cmp	r0, #0
 500 0102 90D1     		bne	.L8
 501              		.loc 1 162 0
 502 0104 B369     		ldr	r3, [r6, #24]
 503 0106 9968     		ldr	r1, [r3, #8]
 504 0108 7A1A     		subs	r2, r7, r1
 505 010a 5142     		rsbs	r1, r2, #0
 506 010c 5141     		adcs	r1, r1, r2
 507 010e 0A20     		movs	r0, #10
 508 0110 FFF7FEFF 		bl	_test_assert
 509              	.LVL43:
 510 0114 0028     		cmp	r0, #0
 511 0116 86D1     		bne	.L8
 512              		.loc 1 164 0
 513 0118 B369     		ldr	r3, [r6, #24]
ARM GAS  /tmp/ccjVH6oK.s 			page 10


 514 011a 596C     		ldr	r1, [r3, #68]
 515 011c 7B1A     		subs	r3, r7, r1
 516 011e 5942     		rsbs	r1, r3, #0
 517 0120 4FF00B00 		mov	r0, #11
 518 0124 5941     		adcs	r1, r1, r3
 519 0126 FFF7FEFF 		bl	_test_assert
 520              	.LVL44:
 521 012a 0546     		mov	r5, r0
 522 012c 0028     		cmp	r0, #0
 523 012e 7FF47AAF 		bne	.L8
 524              	.LBB7:
 525              		.loc 1 167 0
 526 0132 2023     		movs	r3, #32
 527              	@ 167 "../../../test/testthd.c" 1
 528 0134 83F31188 		msr     BASEPRI, r3
 529              	@ 0 "" 2
 530              		.thumb
 531              	.LBE7:
 532 0138 FFF7FEFF 		bl	dbg_check_lock
 533              	.LVL45:
 534              		.loc 1 168 0
 535 013c B369     		ldr	r3, [r6, #24]
 536 013e 9C60     		str	r4, [r3, #8]
 537              		.loc 1 169 0
 538 0140 5C64     		str	r4, [r3, #68]
 539              		.loc 1 170 0
 540 0142 FFF7FEFF 		bl	dbg_check_unlock
 541              	.LVL46:
 542              	.LBB8:
 543 0146 2B46     		mov	r3, r5
 544              	@ 170 "../../../test/testthd.c" 1
 545 0148 83F31188 		msr     BASEPRI, r3
 546              	@ 0 "" 2
 547              		.thumb
 548 014c 6BE7     		b	.L8
 549              	.L15:
 550 014e 00BF     		.align	2
 551              	.L14:
 552 0150 00000000 		.word	rlist
 553              	.LBE8:
 554              		.cfi_endproc
 555              	.LFE10:
 556              		.size	thd3_execute, .-thd3_execute
 557 0154 AFF30080 		.section	.text.thd4_execute,"ax",%progbits
 557      AFF30080 
 557      AFF30080 
 558              		.align	2
 559              		.p2align 4,,15
 560              		.thumb
 561              		.thumb_func
 562              		.type	thd4_execute, %function
 563              	thd4_execute:
 564              	.LFB11:
 565              		.loc 1 189 0
 566              		.cfi_startproc
 567              		@ args = 0, pretend = 0, frame = 0
 568              		@ frame_needed = 0, uses_anonymous_args = 0
ARM GAS  /tmp/ccjVH6oK.s 			page 11


 569 0000 38B5     		push	{r3, r4, r5, lr}
 570              		.cfi_def_cfa_offset 16
 571              		.cfi_offset 3, -16
 572              		.cfi_offset 4, -12
 573              		.cfi_offset 5, -8
 574              		.cfi_offset 14, -4
 575              		.loc 1 195 0
 576 0002 1C4D     		ldr	r5, .L21
 577              		.loc 1 192 0
 578 0004 FFF7FEFF 		bl	test_wait_tick
 579              	.LVL47:
 580              		.loc 1 195 0
 581 0008 EC68     		ldr	r4, [r5, #12]
 582              	.LVL48:
 583              		.loc 1 196 0
 584 000a 6420     		movs	r0, #100
 585 000c FFF7FEFF 		bl	chThdSleep
 586              	.LVL49:
 587              		.loc 1 197 0
 588 0010 04F16401 		add	r1, r4, #100
 589 0014 04F16502 		add	r2, r4, #101
 590 0018 0120     		movs	r0, #1
 591 001a FFF7FEFF 		bl	_test_assert_time_window
 592              	.LVL50:
 593 001e 00B1     		cbz	r0, .L20
 594              	.LVL51:
 595              	.L16:
 596 0020 38BD     		pop	{r3, r4, r5, pc}
 597              	.LVL52:
 598              	.L20:
 599              		.loc 1 200 0
 600 0022 EC68     		ldr	r4, [r5, #12]
 601              	.LVL53:
 602              		.loc 1 201 0
 603 0024 6420     		movs	r0, #100
 604 0026 FFF7FEFF 		bl	chThdSleep
 605              	.LVL54:
 606              		.loc 1 202 0
 607 002a 04F16401 		add	r1, r4, #100
 608 002e 04F16502 		add	r2, r4, #101
 609 0032 0220     		movs	r0, #2
 610 0034 FFF7FEFF 		bl	_test_assert_time_window
 611              	.LVL55:
 612 0038 0028     		cmp	r0, #0
 613 003a F1D1     		bne	.L16
 614              	.LBB11:
 615              	.LBB12:
 616              		.loc 1 205 0
 617 003c EC68     		ldr	r4, [r5, #12]
 618              	.LVL56:
 619              		.loc 1 206 0
 620 003e 4FF47A70 		mov	r0, #1000
 621 0042 FFF7FEFF 		bl	chThdSleep
 622              	.LVL57:
 623              		.loc 1 207 0
 624 0046 04F57A71 		add	r1, r4, #1000
 625 004a 04F2E932 		addw	r2, r4, #1001
ARM GAS  /tmp/ccjVH6oK.s 			page 12


 626 004e 0320     		movs	r0, #3
 627 0050 FFF7FEFF 		bl	_test_assert_time_window
 628              	.LVL58:
 629 0054 0028     		cmp	r0, #0
 630 0056 E3D1     		bne	.L16
 631              		.loc 1 210 0
 632 0058 EC68     		ldr	r4, [r5, #12]
 633              	.LVL59:
 634 005a 04F16405 		add	r5, r4, #100
 635              	.LVL60:
 636              		.loc 1 211 0
 637 005e 2846     		mov	r0, r5
 638 0060 FFF7FEFF 		bl	chThdSleepUntil
 639              	.LVL61:
 640              		.loc 1 212 0
 641 0064 2946     		mov	r1, r5
 642 0066 04F16502 		add	r2, r4, #101
 643 006a 0420     		movs	r0, #4
 644              	.LBE12:
 645              	.LBE11:
 646              		.loc 1 213 0
 647 006c BDE83840 		pop	{r3, r4, r5, lr}
 648              	.LVL62:
 649              	.LBB14:
 650              	.LBB13:
 651              		.loc 1 212 0
 652 0070 FFF7FEBF 		b	_test_assert_time_window
 653              	.LVL63:
 654              	.L22:
 655              		.align	2
 656              	.L21:
 657 0074 00000000 		.word	vtlist
 658              	.LBE13:
 659              	.LBE14:
 660              		.cfi_endproc
 661              	.LFE11:
 662              		.size	thd4_execute, .-thd4_execute
 663              		.global	patternthd
 664              		.global	testthd4
 665              		.global	testthd3
 666              		.global	testthd2
 667              		.global	testthd1
 668 0078 AFF30080 		.section	.rodata.testthd1,"a",%progbits
 668      AFF30080 
 669              		.align	2
 670              		.type	testthd1, %object
 671              		.size	testthd1, 16
 672              	testthd1:
 673 0000 64000000 		.word	.LC9
 674 0004 00000000 		.word	0
 675 0008 00000000 		.word	0
 676 000c 00000000 		.word	thd1_execute
 677              		.section	.rodata.testthd2,"a",%progbits
 678              		.align	2
 679              		.type	testthd2, %object
 680              		.size	testthd2, 16
 681              	testthd2:
ARM GAS  /tmp/ccjVH6oK.s 			page 13


 682 0000 48000000 		.word	.LC8
 683 0004 00000000 		.word	0
 684 0008 00000000 		.word	0
 685 000c 00000000 		.word	thd2_execute
 686              		.section	.rodata.testthd3,"a",%progbits
 687              		.align	2
 688              		.type	testthd3, %object
 689              		.size	testthd3, 16
 690              	testthd3:
 691 0000 2C000000 		.word	.LC7
 692 0004 00000000 		.word	0
 693 0008 00000000 		.word	0
 694 000c 00000000 		.word	thd3_execute
 695              		.section	.rodata.testthd4,"a",%progbits
 696              		.align	2
 697              		.type	testthd4, %object
 698              		.size	testthd4, 16
 699              	testthd4:
 700 0000 1C000000 		.word	.LC6
 701 0004 00000000 		.word	0
 702 0008 00000000 		.word	0
 703 000c 00000000 		.word	thd4_execute
 704              		.section	.rodata.patternthd,"a",%progbits
 705              		.align	2
 706              		.type	patternthd, %object
 707              		.size	patternthd, 20
 708              	patternthd:
 709 0000 00000000 		.word	testthd1
 710 0004 00000000 		.word	testthd2
 711 0008 00000000 		.word	testthd3
 712 000c 00000000 		.word	testthd4
 713 0010 00000000 		.word	0
 714              		.section	.rodata.str1.4,"aMS",%progbits,1
 715              		.align	2
 716              	.LC0:
 717 0000 4500     		.ascii	"E\000"
 718 0002 0000     		.space	2
 719              	.LC1:
 720 0004 4400     		.ascii	"D\000"
 721 0006 0000     		.space	2
 722              	.LC2:
 723 0008 4300     		.ascii	"C\000"
 724 000a 0000     		.space	2
 725              	.LC3:
 726 000c 4200     		.ascii	"B\000"
 727 000e 0000     		.space	2
 728              	.LC4:
 729 0010 4100     		.ascii	"A\000"
 730 0012 0000     		.space	2
 731              	.LC5:
 732 0014 41424344 		.ascii	"ABCDE\000"
 732      4500
 733 001a 0000     		.space	2
 734              	.LC6:
 735 001c 54687265 		.ascii	"Threads, delays\000"
 735      6164732C 
 735      2064656C 
ARM GAS  /tmp/ccjVH6oK.s 			page 14


 735      61797300 
 736              	.LC7:
 737 002c 54687265 		.ascii	"Threads, priority change\000"
 737      6164732C 
 737      20707269 
 737      6F726974 
 737      79206368 
 738 0045 000000   		.space	3
 739              	.LC8:
 740 0048 54687265 		.ascii	"Threads, enqueuing test #2\000"
 740      6164732C 
 740      20656E71 
 740      75657569 
 740      6E672074 
 741 0063 00       		.space	1
 742              	.LC9:
 743 0064 54687265 		.ascii	"Threads, enqueuing test #1\000"
 743      6164732C 
 743      20656E71 
 743      75657569 
 743      6E672074 
 744 007f 00       		.text
 745              	.Letext0:
 746              		.file 2 "/opt/ARM/lib/gcc/arm-none-eabi/4.8.4/include/stddef.h"
 747              		.file 3 "/opt/ARM/arm-none-eabi/include/machine/_default_types.h"
 748              		.file 4 "/opt/ARM/arm-none-eabi/include/stdint.h"
 749              		.file 5 "../../../os/ports/GCC/ARMCMx/chtypes.h"
 750              		.file 6 "../../../os/kernel/include/chlists.h"
 751              		.file 7 "../../../os/kernel/include/chthreads.h"
 752              		.file 8 "../../../os/ports/GCC/ARMCMx/chcore_v7m.h"
 753              		.file 9 "../../../os/kernel/include/chvt.h"
 754              		.file 10 "../../../os/kernel/include/chschd.h"
 755              		.file 11 "../../../os/kernel/include/chmtx.h"
 756              		.file 12 "../../../test/test.h"
 757              		.file 13 "../../../os/kernel/include/chdebug.h"
