ARM GAS  /tmp/cc1NEcrf.s 			page 1


   1              		.syntax unified
   2              		.cpu cortex-m4
   3              		.fpu softvfp
   4              		.eabi_attribute 20, 1
   5              		.eabi_attribute 21, 1
   6              		.eabi_attribute 23, 3
   7              		.eabi_attribute 24, 1
   8              		.eabi_attribute 25, 1
   9              		.eabi_attribute 26, 1
  10              		.eabi_attribute 30, 2
  11              		.eabi_attribute 34, 1
  12              		.eabi_attribute 18, 4
  13              		.thumb
  14              		.file	"chdebug.c"
  15              		.text
  16              	.Ltext0:
  17              		.cfi_sections	.debug_frame
  18              		.section	.text.dbg_check_disable,"ax",%progbits
  19              		.align	2
  20              		.p2align 4,,15
  21              		.global	dbg_check_disable
  22              		.thumb
  23              		.thumb_func
  24              		.type	dbg_check_disable, %function
  25              	dbg_check_disable:
  26              	.LFB7:
  27              		.file 1 "../../../os/kernel/src/chdebug.c"
  28              		.loc 1 81 0
  29              		.cfi_startproc
  30              		@ args = 0, pretend = 0, frame = 0
  31              		@ frame_needed = 0, uses_anonymous_args = 0
  32              		@ link register save eliminated.
  33              		.loc 1 83 0
  34 0000 054B     		ldr	r3, .L5
  35 0002 1B68     		ldr	r3, [r3]
  36 0004 13B9     		cbnz	r3, .L2
  37              		.loc 1 83 0 is_stmt 0 discriminator 1
  38 0006 054B     		ldr	r3, .L5+4
  39 0008 1B68     		ldr	r3, [r3]
  40 000a 23B1     		cbz	r3, .L1
  41              	.L2:
  42              	.LVL0:
  43              	.LBB28:
  44              	.LBB29:
  45              		.loc 1 273 0 is_stmt 1
  46 000c 044B     		ldr	r3, .L5+8
  47 000e 054A     		ldr	r2, .L5+12
  48 0010 1A60     		str	r2, [r3]
  49              		.loc 1 274 0
  50 0012 FFF7FEBF 		b	port_halt
  51              	.LVL1:
  52              	.L1:
  53 0016 7047     		bx	lr
  54              	.L6:
  55              		.align	2
  56              	.L5:
  57 0018 00000000 		.word	.LANCHOR0
ARM GAS  /tmp/cc1NEcrf.s 			page 2


  58 001c 00000000 		.word	.LANCHOR1
  59 0020 00000000 		.word	.LANCHOR2
  60 0024 00000000 		.word	.LC0
  61              	.LBE29:
  62              	.LBE28:
  63              		.cfi_endproc
  64              	.LFE7:
  65              		.size	dbg_check_disable, .-dbg_check_disable
  66 0028 AFF30080 		.section	.text.dbg_check_suspend,"ax",%progbits
  66      AFF30080 
  67              		.align	2
  68              		.p2align 4,,15
  69              		.global	dbg_check_suspend
  70              		.thumb
  71              		.thumb_func
  72              		.type	dbg_check_suspend, %function
  73              	dbg_check_suspend:
  74              	.LFB8:
  75              		.loc 1 92 0
  76              		.cfi_startproc
  77              		@ args = 0, pretend = 0, frame = 0
  78              		@ frame_needed = 0, uses_anonymous_args = 0
  79              		@ link register save eliminated.
  80              		.loc 1 94 0
  81 0000 054B     		ldr	r3, .L10
  82 0002 1B68     		ldr	r3, [r3]
  83 0004 13B9     		cbnz	r3, .L8
  84              		.loc 1 94 0 is_stmt 0 discriminator 1
  85 0006 054B     		ldr	r3, .L10+4
  86 0008 1B68     		ldr	r3, [r3]
  87 000a 23B1     		cbz	r3, .L7
  88              	.L8:
  89              	.LVL2:
  90              	.LBB30:
  91              	.LBB31:
  92              		.loc 1 273 0 is_stmt 1
  93 000c 044B     		ldr	r3, .L10+8
  94 000e 054A     		ldr	r2, .L10+12
  95 0010 1A60     		str	r2, [r3]
  96              		.loc 1 274 0
  97 0012 FFF7FEBF 		b	port_halt
  98              	.LVL3:
  99              	.L7:
 100 0016 7047     		bx	lr
 101              	.L11:
 102              		.align	2
 103              	.L10:
 104 0018 00000000 		.word	.LANCHOR0
 105 001c 00000000 		.word	.LANCHOR1
 106 0020 00000000 		.word	.LANCHOR2
 107 0024 08000000 		.word	.LC1
 108              	.LBE31:
 109              	.LBE30:
 110              		.cfi_endproc
 111              	.LFE8:
 112              		.size	dbg_check_suspend, .-dbg_check_suspend
 113 0028 AFF30080 		.section	.text.dbg_check_enable,"ax",%progbits
ARM GAS  /tmp/cc1NEcrf.s 			page 3


 113      AFF30080 
 114              		.align	2
 115              		.p2align 4,,15
 116              		.global	dbg_check_enable
 117              		.thumb
 118              		.thumb_func
 119              		.type	dbg_check_enable, %function
 120              	dbg_check_enable:
 121              	.LFB9:
 122              		.loc 1 103 0
 123              		.cfi_startproc
 124              		@ args = 0, pretend = 0, frame = 0
 125              		@ frame_needed = 0, uses_anonymous_args = 0
 126              		@ link register save eliminated.
 127              		.loc 1 105 0
 128 0000 054B     		ldr	r3, .L15
 129 0002 1B68     		ldr	r3, [r3]
 130 0004 13B9     		cbnz	r3, .L13
 131              		.loc 1 105 0 is_stmt 0 discriminator 1
 132 0006 054B     		ldr	r3, .L15+4
 133 0008 1B68     		ldr	r3, [r3]
 134 000a 23B1     		cbz	r3, .L12
 135              	.L13:
 136              	.LVL4:
 137              	.LBB32:
 138              	.LBB33:
 139              		.loc 1 273 0 is_stmt 1
 140 000c 044B     		ldr	r3, .L15+8
 141 000e 054A     		ldr	r2, .L15+12
 142 0010 1A60     		str	r2, [r3]
 143              		.loc 1 274 0
 144 0012 FFF7FEBF 		b	port_halt
 145              	.LVL5:
 146              	.L12:
 147 0016 7047     		bx	lr
 148              	.L16:
 149              		.align	2
 150              	.L15:
 151 0018 00000000 		.word	.LANCHOR0
 152 001c 00000000 		.word	.LANCHOR1
 153 0020 00000000 		.word	.LANCHOR2
 154 0024 10000000 		.word	.LC2
 155              	.LBE33:
 156              	.LBE32:
 157              		.cfi_endproc
 158              	.LFE9:
 159              		.size	dbg_check_enable, .-dbg_check_enable
 160 0028 AFF30080 		.section	.text.dbg_check_lock,"ax",%progbits
 160      AFF30080 
 161              		.align	2
 162              		.p2align 4,,15
 163              		.global	dbg_check_lock
 164              		.thumb
 165              		.thumb_func
 166              		.type	dbg_check_lock, %function
 167              	dbg_check_lock:
 168              	.LFB10:
ARM GAS  /tmp/cc1NEcrf.s 			page 4


 169              		.loc 1 114 0
 170              		.cfi_startproc
 171              		@ args = 0, pretend = 0, frame = 0
 172              		@ frame_needed = 0, uses_anonymous_args = 0
 173              		.loc 1 116 0
 174 0000 074B     		ldr	r3, .L25
 175 0002 1B68     		ldr	r3, [r3]
 176              		.loc 1 114 0
 177 0004 10B5     		push	{r4, lr}
 178              		.cfi_def_cfa_offset 8
 179              		.cfi_offset 4, -8
 180              		.cfi_offset 14, -4
 181 0006 074C     		ldr	r4, .L25+4
 182              		.loc 1 116 0
 183 0008 0BB9     		cbnz	r3, .L18
 184              		.loc 1 116 0 is_stmt 0 discriminator 1
 185 000a 2368     		ldr	r3, [r4]
 186 000c 23B1     		cbz	r3, .L19
 187              	.L18:
 188              	.LVL6:
 189              	.LBB34:
 190              	.LBB35:
 191              		.loc 1 273 0 is_stmt 1
 192 000e 064B     		ldr	r3, .L25+8
 193 0010 064A     		ldr	r2, .L25+12
 194 0012 1A60     		str	r2, [r3]
 195              		.loc 1 274 0
 196 0014 FFF7FEFF 		bl	port_halt
 197              	.LVL7:
 198              	.L19:
 199              	.LBE35:
 200              	.LBE34:
 201              		.loc 1 118 0
 202 0018 0123     		movs	r3, #1
 203 001a 2360     		str	r3, [r4]
 204 001c 10BD     		pop	{r4, pc}
 205              	.L26:
 206 001e 00BF     		.align	2
 207              	.L25:
 208 0020 00000000 		.word	.LANCHOR0
 209 0024 00000000 		.word	.LANCHOR1
 210 0028 00000000 		.word	.LANCHOR2
 211 002c 18000000 		.word	.LC3
 212              		.cfi_endproc
 213              	.LFE10:
 214              		.size	dbg_check_lock, .-dbg_check_lock
 215              		.section	.text.dbg_check_unlock,"ax",%progbits
 216              		.align	2
 217              		.p2align 4,,15
 218              		.global	dbg_check_unlock
 219              		.thumb
 220              		.thumb_func
 221              		.type	dbg_check_unlock, %function
 222              	dbg_check_unlock:
 223              	.LFB11:
 224              		.loc 1 126 0
 225              		.cfi_startproc
ARM GAS  /tmp/cc1NEcrf.s 			page 5


 226              		@ args = 0, pretend = 0, frame = 0
 227              		@ frame_needed = 0, uses_anonymous_args = 0
 228              		.loc 1 128 0
 229 0000 094B     		ldr	r3, .L32
 230 0002 1B68     		ldr	r3, [r3]
 231              		.loc 1 126 0
 232 0004 10B5     		push	{r4, lr}
 233              		.cfi_def_cfa_offset 8
 234              		.cfi_offset 4, -8
 235              		.cfi_offset 14, -4
 236 0006 094C     		ldr	r4, .L32+4
 237              		.loc 1 128 0
 238 0008 2BB9     		cbnz	r3, .L28
 239              		.loc 1 128 0 is_stmt 0 discriminator 1
 240 000a 2368     		ldr	r3, [r4]
 241 000c 002B     		cmp	r3, #0
 242 000e 02DD     		ble	.L28
 243              		.loc 1 130 0 is_stmt 1
 244 0010 0023     		movs	r3, #0
 245 0012 2360     		str	r3, [r4]
 246 0014 10BD     		pop	{r4, pc}
 247              	.L28:
 248              	.LVL8:
 249              	.LBB36:
 250              	.LBB37:
 251              		.loc 1 273 0
 252 0016 064B     		ldr	r3, .L32+8
 253 0018 064A     		ldr	r2, .L32+12
 254 001a 1A60     		str	r2, [r3]
 255              		.loc 1 274 0
 256 001c FFF7FEFF 		bl	port_halt
 257              	.LVL9:
 258              	.LBE37:
 259              	.LBE36:
 260              		.loc 1 130 0
 261 0020 0023     		movs	r3, #0
 262 0022 2360     		str	r3, [r4]
 263 0024 10BD     		pop	{r4, pc}
 264              	.L33:
 265 0026 00BF     		.align	2
 266              	.L32:
 267 0028 00000000 		.word	.LANCHOR0
 268 002c 00000000 		.word	.LANCHOR1
 269 0030 00000000 		.word	.LANCHOR2
 270 0034 20000000 		.word	.LC4
 271              		.cfi_endproc
 272              	.LFE11:
 273              		.size	dbg_check_unlock, .-dbg_check_unlock
 274 0038 AFF30080 		.section	.text.dbg_check_lock_from_isr,"ax",%progbits
 274      AFF30080 
 275              		.align	2
 276              		.p2align 4,,15
 277              		.global	dbg_check_lock_from_isr
 278              		.thumb
 279              		.thumb_func
 280              		.type	dbg_check_lock_from_isr, %function
 281              	dbg_check_lock_from_isr:
ARM GAS  /tmp/cc1NEcrf.s 			page 6


 282              	.LFB12:
 283              		.loc 1 138 0
 284              		.cfi_startproc
 285              		@ args = 0, pretend = 0, frame = 0
 286              		@ frame_needed = 0, uses_anonymous_args = 0
 287              		.loc 1 140 0
 288 0000 074B     		ldr	r3, .L42
 289 0002 1B68     		ldr	r3, [r3]
 290 0004 002B     		cmp	r3, #0
 291              		.loc 1 138 0
 292 0006 10B5     		push	{r4, lr}
 293              		.cfi_def_cfa_offset 8
 294              		.cfi_offset 4, -8
 295              		.cfi_offset 14, -4
 296 0008 064C     		ldr	r4, .L42+4
 297              		.loc 1 140 0
 298 000a 01DD     		ble	.L35
 299              		.loc 1 140 0 is_stmt 0 discriminator 1
 300 000c 2368     		ldr	r3, [r4]
 301 000e 23B1     		cbz	r3, .L36
 302              	.L35:
 303              	.LVL10:
 304              	.LBB38:
 305              	.LBB39:
 306              		.loc 1 273 0 is_stmt 1
 307 0010 054B     		ldr	r3, .L42+8
 308 0012 064A     		ldr	r2, .L42+12
 309 0014 1A60     		str	r2, [r3]
 310              		.loc 1 274 0
 311 0016 FFF7FEFF 		bl	port_halt
 312              	.LVL11:
 313              	.L36:
 314              	.LBE39:
 315              	.LBE38:
 316              		.loc 1 142 0
 317 001a 0123     		movs	r3, #1
 318 001c 2360     		str	r3, [r4]
 319 001e 10BD     		pop	{r4, pc}
 320              	.L43:
 321              		.align	2
 322              	.L42:
 323 0020 00000000 		.word	.LANCHOR0
 324 0024 00000000 		.word	.LANCHOR1
 325 0028 00000000 		.word	.LANCHOR2
 326 002c 28000000 		.word	.LC5
 327              		.cfi_endproc
 328              	.LFE12:
 329              		.size	dbg_check_lock_from_isr, .-dbg_check_lock_from_isr
 330              		.section	.text.dbg_check_unlock_from_isr,"ax",%progbits
 331              		.align	2
 332              		.p2align 4,,15
 333              		.global	dbg_check_unlock_from_isr
 334              		.thumb
 335              		.thumb_func
 336              		.type	dbg_check_unlock_from_isr, %function
 337              	dbg_check_unlock_from_isr:
 338              	.LFB13:
ARM GAS  /tmp/cc1NEcrf.s 			page 7


 339              		.loc 1 150 0
 340              		.cfi_startproc
 341              		@ args = 0, pretend = 0, frame = 0
 342              		@ frame_needed = 0, uses_anonymous_args = 0
 343              		.loc 1 152 0
 344 0000 094B     		ldr	r3, .L49
 345 0002 1B68     		ldr	r3, [r3]
 346 0004 002B     		cmp	r3, #0
 347              		.loc 1 150 0
 348 0006 10B5     		push	{r4, lr}
 349              		.cfi_def_cfa_offset 8
 350              		.cfi_offset 4, -8
 351              		.cfi_offset 14, -4
 352 0008 084C     		ldr	r4, .L49+4
 353              		.loc 1 152 0
 354 000a 05DD     		ble	.L45
 355              		.loc 1 152 0 is_stmt 0 discriminator 1
 356 000c 2368     		ldr	r3, [r4]
 357 000e 002B     		cmp	r3, #0
 358 0010 02DD     		ble	.L45
 359              		.loc 1 154 0 is_stmt 1
 360 0012 0023     		movs	r3, #0
 361 0014 2360     		str	r3, [r4]
 362 0016 10BD     		pop	{r4, pc}
 363              	.L45:
 364              	.LVL12:
 365              	.LBB40:
 366              	.LBB41:
 367              		.loc 1 273 0
 368 0018 054B     		ldr	r3, .L49+8
 369 001a 064A     		ldr	r2, .L49+12
 370 001c 1A60     		str	r2, [r3]
 371              		.loc 1 274 0
 372 001e FFF7FEFF 		bl	port_halt
 373              	.LVL13:
 374              	.LBE41:
 375              	.LBE40:
 376              		.loc 1 154 0
 377 0022 0023     		movs	r3, #0
 378 0024 2360     		str	r3, [r4]
 379 0026 10BD     		pop	{r4, pc}
 380              	.L50:
 381              		.align	2
 382              	.L49:
 383 0028 00000000 		.word	.LANCHOR0
 384 002c 00000000 		.word	.LANCHOR1
 385 0030 00000000 		.word	.LANCHOR2
 386 0034 30000000 		.word	.LC6
 387              		.cfi_endproc
 388              	.LFE13:
 389              		.size	dbg_check_unlock_from_isr, .-dbg_check_unlock_from_isr
 390 0038 AFF30080 		.section	.text.dbg_check_enter_isr,"ax",%progbits
 390      AFF30080 
 391              		.align	2
 392              		.p2align 4,,15
 393              		.global	dbg_check_enter_isr
 394              		.thumb
ARM GAS  /tmp/cc1NEcrf.s 			page 8


 395              		.thumb_func
 396              		.type	dbg_check_enter_isr, %function
 397              	dbg_check_enter_isr:
 398              	.LFB14:
 399              		.loc 1 162 0
 400              		.cfi_startproc
 401              		@ args = 0, pretend = 0, frame = 0
 402              		@ frame_needed = 0, uses_anonymous_args = 0
 403 0000 10B5     		push	{r4, lr}
 404              		.cfi_def_cfa_offset 8
 405              		.cfi_offset 4, -8
 406              		.cfi_offset 14, -4
 407              	.LBB42:
 408              		.loc 1 164 0
 409 0002 2023     		movs	r3, #32
 410              	@ 164 "../../../os/kernel/src/chdebug.c" 1
 411 0004 83F31188 		msr     BASEPRI, r3
 412              	@ 0 "" 2
 413              		.thumb
 414              	.LBE42:
 415              		.loc 1 165 0
 416 0008 094C     		ldr	r4, .L55
 417 000a 2368     		ldr	r3, [r4]
 418 000c 002B     		cmp	r3, #0
 419 000e 02DB     		blt	.L52
 420              		.loc 1 165 0 is_stmt 0 discriminator 1
 421 0010 084A     		ldr	r2, .L55+4
 422 0012 1268     		ldr	r2, [r2]
 423 0014 2AB1     		cbz	r2, .L53
 424              	.L52:
 425              	.LVL14:
 426              	.LBB43:
 427              	.LBB44:
 428              		.loc 1 273 0 is_stmt 1
 429 0016 084B     		ldr	r3, .L55+8
 430 0018 084A     		ldr	r2, .L55+12
 431 001a 1A60     		str	r2, [r3]
 432              		.loc 1 274 0
 433 001c FFF7FEFF 		bl	port_halt
 434              	.LVL15:
 435 0020 2368     		ldr	r3, [r4]
 436              	.LVL16:
 437              	.L53:
 438              	.LBE44:
 439              	.LBE43:
 440              		.loc 1 167 0
 441 0022 0133     		adds	r3, r3, #1
 442 0024 2360     		str	r3, [r4]
 443              	.LBB45:
 444              		.loc 1 168 0
 445 0026 0023     		movs	r3, #0
 446              	@ 168 "../../../os/kernel/src/chdebug.c" 1
 447 0028 83F31188 		msr     BASEPRI, r3
 448              	@ 0 "" 2
 449              		.thumb
 450 002c 10BD     		pop	{r4, pc}
 451              	.L56:
ARM GAS  /tmp/cc1NEcrf.s 			page 9


 452 002e 00BF     		.align	2
 453              	.L55:
 454 0030 00000000 		.word	.LANCHOR0
 455 0034 00000000 		.word	.LANCHOR1
 456 0038 00000000 		.word	.LANCHOR2
 457 003c 38000000 		.word	.LC7
 458              	.LBE45:
 459              		.cfi_endproc
 460              	.LFE14:
 461              		.size	dbg_check_enter_isr, .-dbg_check_enter_isr
 462              		.section	.text.dbg_check_leave_isr,"ax",%progbits
 463              		.align	2
 464              		.p2align 4,,15
 465              		.global	dbg_check_leave_isr
 466              		.thumb
 467              		.thumb_func
 468              		.type	dbg_check_leave_isr, %function
 469              	dbg_check_leave_isr:
 470              	.LFB15:
 471              		.loc 1 176 0
 472              		.cfi_startproc
 473              		@ args = 0, pretend = 0, frame = 0
 474              		@ frame_needed = 0, uses_anonymous_args = 0
 475 0000 10B5     		push	{r4, lr}
 476              		.cfi_def_cfa_offset 8
 477              		.cfi_offset 4, -8
 478              		.cfi_offset 14, -4
 479              	.LBB46:
 480              		.loc 1 178 0
 481 0002 2023     		movs	r3, #32
 482              	@ 178 "../../../os/kernel/src/chdebug.c" 1
 483 0004 83F31188 		msr     BASEPRI, r3
 484              	@ 0 "" 2
 485              		.thumb
 486              	.LBE46:
 487              		.loc 1 179 0
 488 0008 094C     		ldr	r4, .L61
 489 000a 2368     		ldr	r3, [r4]
 490 000c 002B     		cmp	r3, #0
 491 000e 02DD     		ble	.L58
 492              		.loc 1 179 0 is_stmt 0 discriminator 1
 493 0010 084A     		ldr	r2, .L61+4
 494 0012 1268     		ldr	r2, [r2]
 495 0014 2AB1     		cbz	r2, .L59
 496              	.L58:
 497              	.LVL17:
 498              	.LBB47:
 499              	.LBB48:
 500              		.loc 1 273 0 is_stmt 1
 501 0016 084B     		ldr	r3, .L61+8
 502 0018 084A     		ldr	r2, .L61+12
 503 001a 1A60     		str	r2, [r3]
 504              		.loc 1 274 0
 505 001c FFF7FEFF 		bl	port_halt
 506              	.LVL18:
 507 0020 2368     		ldr	r3, [r4]
 508              	.LVL19:
ARM GAS  /tmp/cc1NEcrf.s 			page 10


 509              	.L59:
 510              	.LBE48:
 511              	.LBE47:
 512              		.loc 1 181 0
 513 0022 013B     		subs	r3, r3, #1
 514 0024 2360     		str	r3, [r4]
 515              	.LBB49:
 516              		.loc 1 182 0
 517 0026 0023     		movs	r3, #0
 518              	@ 182 "../../../os/kernel/src/chdebug.c" 1
 519 0028 83F31188 		msr     BASEPRI, r3
 520              	@ 0 "" 2
 521              		.thumb
 522 002c 10BD     		pop	{r4, pc}
 523              	.L62:
 524 002e 00BF     		.align	2
 525              	.L61:
 526 0030 00000000 		.word	.LANCHOR0
 527 0034 00000000 		.word	.LANCHOR1
 528 0038 00000000 		.word	.LANCHOR2
 529 003c 40000000 		.word	.LC8
 530              	.LBE49:
 531              		.cfi_endproc
 532              	.LFE15:
 533              		.size	dbg_check_leave_isr, .-dbg_check_leave_isr
 534              		.section	.text.chDbgCheckClassI,"ax",%progbits
 535              		.align	2
 536              		.p2align 4,,15
 537              		.global	chDbgCheckClassI
 538              		.thumb
 539              		.thumb_func
 540              		.type	chDbgCheckClassI, %function
 541              	chDbgCheckClassI:
 542              	.LFB16:
 543              		.loc 1 193 0
 544              		.cfi_startproc
 545              		@ args = 0, pretend = 0, frame = 0
 546              		@ frame_needed = 0, uses_anonymous_args = 0
 547              		@ link register save eliminated.
 548              		.loc 1 195 0
 549 0000 064B     		ldr	r3, .L66
 550 0002 1B68     		ldr	r3, [r3]
 551 0004 002B     		cmp	r3, #0
 552 0006 04DB     		blt	.L64
 553              		.loc 1 195 0 is_stmt 0 discriminator 1
 554 0008 054B     		ldr	r3, .L66+4
 555 000a 1B68     		ldr	r3, [r3]
 556 000c 002B     		cmp	r3, #0
 557 000e 00DD     		ble	.L64
 558 0010 7047     		bx	lr
 559              	.L64:
 560              	.LVL20:
 561              	.LBB50:
 562              	.LBB51:
 563              		.loc 1 273 0 is_stmt 1
 564 0012 044B     		ldr	r3, .L66+8
 565 0014 044A     		ldr	r2, .L66+12
ARM GAS  /tmp/cc1NEcrf.s 			page 11


 566 0016 1A60     		str	r2, [r3]
 567              		.loc 1 274 0
 568 0018 FFF7FEBF 		b	port_halt
 569              	.LVL21:
 570              	.L67:
 571              		.align	2
 572              	.L66:
 573 001c 00000000 		.word	.LANCHOR0
 574 0020 00000000 		.word	.LANCHOR1
 575 0024 00000000 		.word	.LANCHOR2
 576 0028 48000000 		.word	.LC9
 577              	.LBE51:
 578              	.LBE50:
 579              		.cfi_endproc
 580              	.LFE16:
 581              		.size	chDbgCheckClassI, .-chDbgCheckClassI
 582 002c AFF30080 		.section	.text.chDbgCheckClassS,"ax",%progbits
 583              		.align	2
 584              		.p2align 4,,15
 585              		.global	chDbgCheckClassS
 586              		.thumb
 587              		.thumb_func
 588              		.type	chDbgCheckClassS, %function
 589              	chDbgCheckClassS:
 590              	.LFB17:
 591              		.loc 1 207 0
 592              		.cfi_startproc
 593              		@ args = 0, pretend = 0, frame = 0
 594              		@ frame_needed = 0, uses_anonymous_args = 0
 595              		@ link register save eliminated.
 596              		.loc 1 209 0
 597 0000 064B     		ldr	r3, .L71
 598 0002 1B68     		ldr	r3, [r3]
 599 0004 23B9     		cbnz	r3, .L69
 600              		.loc 1 209 0 is_stmt 0 discriminator 1
 601 0006 064B     		ldr	r3, .L71+4
 602 0008 1B68     		ldr	r3, [r3]
 603 000a 002B     		cmp	r3, #0
 604 000c 00DD     		ble	.L69
 605 000e 7047     		bx	lr
 606              	.L69:
 607              	.LVL22:
 608              	.LBB52:
 609              	.LBB53:
 610              		.loc 1 273 0 is_stmt 1
 611 0010 044B     		ldr	r3, .L71+8
 612 0012 054A     		ldr	r2, .L71+12
 613 0014 1A60     		str	r2, [r3]
 614              		.loc 1 274 0
 615 0016 FFF7FEBF 		b	port_halt
 616              	.LVL23:
 617              	.L72:
 618 001a 00BF     		.align	2
 619              	.L71:
 620 001c 00000000 		.word	.LANCHOR0
 621 0020 00000000 		.word	.LANCHOR1
 622 0024 00000000 		.word	.LANCHOR2
ARM GAS  /tmp/cc1NEcrf.s 			page 12


 623 0028 50000000 		.word	.LC10
 624              	.LBE53:
 625              	.LBE52:
 626              		.cfi_endproc
 627              	.LFE17:
 628              		.size	chDbgCheckClassS, .-chDbgCheckClassS
 629 002c AFF30080 		.section	.text._trace_init,"ax",%progbits
 630              		.align	2
 631              		.p2align 4,,15
 632              		.global	_trace_init
 633              		.thumb
 634              		.thumb_func
 635              		.type	_trace_init, %function
 636              	_trace_init:
 637              	.LFB18:
 638              		.loc 1 229 0
 639              		.cfi_startproc
 640              		@ args = 0, pretend = 0, frame = 0
 641              		@ frame_needed = 0, uses_anonymous_args = 0
 642              		@ link register save eliminated.
 643              		.loc 1 231 0
 644 0000 034A     		ldr	r2, .L74
 645 0002 1346     		mov	r3, r2
 646 0004 4021     		movs	r1, #64
 647 0006 43F8081B 		str	r1, [r3], #8
 648              		.loc 1 232 0
 649 000a 5360     		str	r3, [r2, #4]
 650 000c 7047     		bx	lr
 651              	.L75:
 652 000e 00BF     		.align	2
 653              	.L74:
 654 0010 00000000 		.word	.LANCHOR3
 655              		.cfi_endproc
 656              	.LFE18:
 657              		.size	_trace_init, .-_trace_init
 658 0014 AFF30080 		.section	.text.dbg_trace,"ax",%progbits
 658      AFF30080 
 658      AFF30080 
 659              		.align	2
 660              		.p2align 4,,15
 661              		.global	dbg_trace
 662              		.thumb
 663              		.thumb_func
 664              		.type	dbg_trace, %function
 665              	dbg_trace:
 666              	.LFB19:
 667              		.loc 1 242 0
 668              		.cfi_startproc
 669              		@ args = 0, pretend = 0, frame = 0
 670              		@ frame_needed = 0, uses_anonymous_args = 0
 671              		@ link register save eliminated.
 672              	.LVL24:
 673              		.loc 1 244 0
 674 0000 0C4A     		ldr	r2, .L80
 675              		.loc 1 245 0
 676 0002 0D49     		ldr	r1, .L80+4
 677              		.loc 1 244 0
ARM GAS  /tmp/cc1NEcrf.s 			page 13


 678 0004 5368     		ldr	r3, [r2, #4]
 679              		.loc 1 245 0
 680 0006 8969     		ldr	r1, [r1, #24]
 681              		.loc 1 242 0
 682 0008 10B4     		push	{r4}
 683              		.cfi_def_cfa_offset 4
 684              		.cfi_offset 4, -4
 685              		.loc 1 244 0
 686 000a 0C4C     		ldr	r4, .L80+8
 687 000c E468     		ldr	r4, [r4, #12]
 688 000e 1C60     		str	r4, [r3]
 689              		.loc 1 245 0
 690 0010 5960     		str	r1, [r3, #4]
 691              		.loc 1 246 0
 692 0012 816A     		ldr	r1, [r0, #40]
 693 0014 9960     		str	r1, [r3, #8]
 694              		.loc 1 247 0
 695 0016 90F82010 		ldrb	r1, [r0, #32]	@ zero_extendqisi2
 696 001a 1973     		strb	r1, [r3, #12]
 697              		.loc 1 248 0
 698 001c 1033     		adds	r3, r3, #16
 699 001e 02F58161 		add	r1, r2, #1032
 700 0022 8B42     		cmp	r3, r1
 701              		.loc 1 250 0
 702 0024 28BF     		it	cs
 703 0026 02F10803 		addcs	r3, r2, #8
 704 002a 5360     		str	r3, [r2, #4]
 705              		.loc 1 251 0
 706 002c 5DF8044B 		ldr	r4, [sp], #4
 707 0030 7047     		bx	lr
 708              	.L81:
 709 0032 00BF     		.align	2
 710              	.L80:
 711 0034 00000000 		.word	.LANCHOR3
 712 0038 00000000 		.word	rlist
 713 003c 00000000 		.word	vtlist
 714              		.cfi_endproc
 715              	.LFE19:
 716              		.size	dbg_trace, .-dbg_trace
 717              		.section	.text.chDbgPanic,"ax",%progbits
 718              		.align	2
 719              		.p2align 4,,15
 720              		.global	chDbgPanic
 721              		.thumb
 722              		.thumb_func
 723              		.type	chDbgPanic, %function
 724              	chDbgPanic:
 725              	.LFB20:
 726              		.loc 1 271 0
 727              		.cfi_startproc
 728              		@ args = 0, pretend = 0, frame = 0
 729              		@ frame_needed = 0, uses_anonymous_args = 0
 730              		@ link register save eliminated.
 731              	.LVL25:
 732              		.loc 1 273 0
 733 0000 014B     		ldr	r3, .L83
 734 0002 1860     		str	r0, [r3]
ARM GAS  /tmp/cc1NEcrf.s 			page 14


 735              		.loc 1 274 0
 736 0004 FFF7FEBF 		b	port_halt
 737              	.LVL26:
 738              	.L84:
 739              		.align	2
 740              	.L83:
 741 0008 00000000 		.word	.LANCHOR2
 742              		.cfi_endproc
 743              	.LFE20:
 744              		.size	chDbgPanic, .-chDbgPanic
 745              		.global	dbg_panic_msg
 746              		.global	dbg_trace_buffer
 747              		.global	dbg_lock_cnt
 748              		.global	dbg_isr_cnt
 749 000c AFF30080 		.section	.bss.dbg_isr_cnt,"aw",%nobits
 750              		.align	2
 751              		.set	.LANCHOR0,. + 0
 752              		.type	dbg_isr_cnt, %object
 753              		.size	dbg_isr_cnt, 4
 754              	dbg_isr_cnt:
 755 0000 00000000 		.space	4
 756              		.section	.bss.dbg_trace_buffer,"aw",%nobits
 757              		.align	2
 758              		.set	.LANCHOR3,. + 0
 759              		.type	dbg_trace_buffer, %object
 760              		.size	dbg_trace_buffer, 1032
 761              	dbg_trace_buffer:
 762 0000 00000000 		.space	1032
 762      00000000 
 762      00000000 
 762      00000000 
 762      00000000 
 763              		.section	.rodata.str1.4,"aMS",%progbits,1
 764              		.align	2
 765              	.LC0:
 766 0000 53562331 		.ascii	"SV#1\000"
 766      00
 767 0005 000000   		.space	3
 768              	.LC1:
 769 0008 53562332 		.ascii	"SV#2\000"
 769      00
 770 000d 000000   		.space	3
 771              	.LC2:
 772 0010 53562333 		.ascii	"SV#3\000"
 772      00
 773 0015 000000   		.space	3
 774              	.LC3:
 775 0018 53562334 		.ascii	"SV#4\000"
 775      00
 776 001d 000000   		.space	3
 777              	.LC4:
 778 0020 53562335 		.ascii	"SV#5\000"
 778      00
 779 0025 000000   		.space	3
 780              	.LC5:
 781 0028 53562336 		.ascii	"SV#6\000"
 781      00
ARM GAS  /tmp/cc1NEcrf.s 			page 15


 782 002d 000000   		.space	3
 783              	.LC6:
 784 0030 53562337 		.ascii	"SV#7\000"
 784      00
 785 0035 000000   		.space	3
 786              	.LC7:
 787 0038 53562338 		.ascii	"SV#8\000"
 787      00
 788 003d 000000   		.space	3
 789              	.LC8:
 790 0040 53562339 		.ascii	"SV#9\000"
 790      00
 791 0045 000000   		.space	3
 792              	.LC9:
 793 0048 53562331 		.ascii	"SV#10\000"
 793      3000
 794 004e 0000     		.space	2
 795              	.LC10:
 796 0050 53562331 		.ascii	"SV#11\000"
 796      3100
 797 0056 0000     		.section	.bss.dbg_lock_cnt,"aw",%nobits
 798              		.align	2
 799              		.set	.LANCHOR1,. + 0
 800              		.type	dbg_lock_cnt, %object
 801              		.size	dbg_lock_cnt, 4
 802              	dbg_lock_cnt:
 803 0000 00000000 		.space	4
 804              		.section	.bss.dbg_panic_msg,"aw",%nobits
 805              		.align	2
 806              		.set	.LANCHOR2,. + 0
 807              		.type	dbg_panic_msg, %object
 808              		.size	dbg_panic_msg, 4
 809              	dbg_panic_msg:
 810 0000 00000000 		.space	4
 811              		.text
 812              	.Letext0:
 813              		.file 2 "/opt/yagarto/arm-none-eabi/include/machine/_default_types.h"
 814              		.file 3 "/opt/yagarto/arm-none-eabi/include/stdint.h"
 815              		.file 4 "../../../os/ports/GCC/ARMCMx/chtypes.h"
 816              		.file 5 "../../../os/kernel/include/chlists.h"
 817              		.file 6 "../../../os/kernel/include/chthreads.h"
 818              		.file 7 "../../../os/ports/GCC/ARMCMx/chcore_v7m.h"
 819              		.file 8 "../../../os/kernel/include/chvt.h"
 820              		.file 9 "../../../os/kernel/include/chschd.h"
 821              		.file 10 "../../../os/kernel/include/chmtx.h"
 822              		.file 11 "../../../os/kernel/include/chdebug.h"
