ARM GAS  /tmp/ccolcQFN.s 			page 1


   1              		.syntax unified
   2              		.cpu cortex-m4
   3              		.fpu softvfp
   4              		.eabi_attribute 20, 1
   5              		.eabi_attribute 21, 1
   6              		.eabi_attribute 23, 3
   7              		.eabi_attribute 24, 1
   8              		.eabi_attribute 25, 1
   9              		.eabi_attribute 26, 1
  10              		.eabi_attribute 30, 2
  11              		.eabi_attribute 34, 1
  12              		.eabi_attribute 18, 4
  13              		.thumb
  14              		.file	"chmemcore.c"
  15              		.text
  16              	.Ltext0:
  17              		.cfi_sections	.debug_frame
  18              		.section	.text._core_init,"ax",%progbits
  19              		.align	2
  20              		.p2align 4,,15
  21              		.global	_core_init
  22              		.thumb
  23              		.thumb_func
  24              		.type	_core_init, %function
  25              	_core_init:
  26              	.LFB7:
  27              		.file 1 "../../../os/kernel/src/chmemcore.c"
  28              		.loc 1 66 0
  29              		.cfi_startproc
  30              		@ args = 0, pretend = 0, frame = 0
  31              		@ frame_needed = 0, uses_anonymous_args = 0
  32              		@ link register save eliminated.
  33              		.loc 1 70 0
  34 0000 0548     		ldr	r0, .L2
  35              		.loc 1 71 0
  36 0002 064A     		ldr	r2, .L2+4
  37              		.loc 1 70 0
  38 0004 0649     		ldr	r1, .L2+8
  39              		.loc 1 71 0
  40 0006 074B     		ldr	r3, .L2+12
  41              		.loc 1 70 0
  42 0008 20F00700 		bic	r0, r0, #7
  43              		.loc 1 71 0
  44 000c 22F00702 		bic	r2, r2, #7
  45              		.loc 1 70 0
  46 0010 0860     		str	r0, [r1]
  47              		.loc 1 71 0
  48 0012 1A60     		str	r2, [r3]
  49 0014 7047     		bx	lr
  50              	.L3:
  51 0016 00BF     		.align	2
  52              	.L2:
  53 0018 07000000 		.word	__heap_base__+7
  54 001c 00000000 		.word	__heap_end__
  55 0020 00000000 		.word	.LANCHOR0
  56 0024 00000000 		.word	.LANCHOR1
  57              		.cfi_endproc
ARM GAS  /tmp/ccolcQFN.s 			page 2


  58              	.LFE7:
  59              		.size	_core_init, .-_core_init
  60 0028 AFF30080 		.section	.text.chCoreAllocI,"ax",%progbits
  60      AFF30080 
  61              		.align	2
  62              		.p2align 4,,15
  63              		.global	chCoreAllocI
  64              		.thumb
  65              		.thumb_func
  66              		.type	chCoreAllocI, %function
  67              	chCoreAllocI:
  68              	.LFB9:
  69              		.loc 1 112 0
  70              		.cfi_startproc
  71              		@ args = 0, pretend = 0, frame = 0
  72              		@ frame_needed = 0, uses_anonymous_args = 0
  73              	.LVL0:
  74 0000 10B5     		push	{r4, lr}
  75              		.cfi_def_cfa_offset 8
  76              		.cfi_offset 4, -8
  77              		.cfi_offset 14, -4
  78              		.loc 1 112 0
  79 0002 0446     		mov	r4, r0
  80              		.loc 1 115 0
  81 0004 FFF7FEFF 		bl	chDbgCheckClassI
  82              	.LVL1:
  83              		.loc 1 118 0
  84 0008 074A     		ldr	r2, .L7
  85 000a 0849     		ldr	r1, .L7+4
  86 000c 1368     		ldr	r3, [r2]
  87 000e 0968     		ldr	r1, [r1]
  88              		.loc 1 117 0
  89 0010 E01D     		adds	r0, r4, #7
  90 0012 20F00700 		bic	r0, r0, #7
  91              	.LVL2:
  92              		.loc 1 118 0
  93 0016 C91A     		subs	r1, r1, r3
  94 0018 8842     		cmp	r0, r1
  95              	.LVL3:
  96              		.loc 1 121 0
  97 001a 9DBF     		ittte	ls
  98 001c C018     		addls	r0, r0, r3
  99              	.LVL4:
 100 001e 1060     		strls	r0, [r2]
 101              		.loc 1 122 0
 102 0020 1846     		movls	r0, r3
 103              		.loc 1 119 0
 104 0022 0020     		movhi	r0, #0
 105              		.loc 1 123 0
 106 0024 10BD     		pop	{r4, pc}
 107              	.LVL5:
 108              	.L8:
 109 0026 00BF     		.align	2
 110              	.L7:
 111 0028 00000000 		.word	.LANCHOR0
 112 002c 00000000 		.word	.LANCHOR1
 113              		.cfi_endproc
ARM GAS  /tmp/ccolcQFN.s 			page 3


 114              	.LFE9:
 115              		.size	chCoreAllocI, .-chCoreAllocI
 116              		.section	.text.chCoreAlloc,"ax",%progbits
 117              		.align	2
 118              		.p2align 4,,15
 119              		.global	chCoreAlloc
 120              		.thumb
 121              		.thumb_func
 122              		.type	chCoreAlloc, %function
 123              	chCoreAlloc:
 124              	.LFB8:
 125              		.loc 1 91 0
 126              		.cfi_startproc
 127              		@ args = 0, pretend = 0, frame = 0
 128              		@ frame_needed = 0, uses_anonymous_args = 0
 129              	.LVL6:
 130 0000 10B5     		push	{r4, lr}
 131              		.cfi_def_cfa_offset 8
 132              		.cfi_offset 4, -8
 133              		.cfi_offset 14, -4
 134              	.LBB2:
 135              		.loc 1 94 0
 136 0002 2023     		movs	r3, #32
 137              	.LBE2:
 138              		.loc 1 91 0
 139 0004 0446     		mov	r4, r0
 140              	.LBB3:
 141              		.loc 1 94 0
 142              	@ 94 "../../../os/kernel/src/chmemcore.c" 1
 143 0006 83F31188 		msr     BASEPRI, r3
 144              	@ 0 "" 2
 145              		.thumb
 146              	.LBE3:
 147 000a FFF7FEFF 		bl	dbg_check_lock
 148              	.LVL7:
 149              		.loc 1 95 0
 150 000e 2046     		mov	r0, r4
 151 0010 FFF7FEFF 		bl	chCoreAllocI
 152              	.LVL8:
 153 0014 0446     		mov	r4, r0
 154              	.LVL9:
 155              		.loc 1 96 0
 156 0016 FFF7FEFF 		bl	dbg_check_unlock
 157              	.LVL10:
 158              	.LBB4:
 159 001a 0023     		movs	r3, #0
 160              	@ 96 "../../../os/kernel/src/chmemcore.c" 1
 161 001c 83F31188 		msr     BASEPRI, r3
 162              	@ 0 "" 2
 163              		.thumb
 164              	.LBE4:
 165              		.loc 1 98 0
 166 0020 2046     		mov	r0, r4
 167 0022 10BD     		pop	{r4, pc}
 168              		.cfi_endproc
 169              	.LFE8:
 170              		.size	chCoreAlloc, .-chCoreAlloc
ARM GAS  /tmp/ccolcQFN.s 			page 4


 171 0024 AFF30080 		.section	.text.chCoreStatus,"ax",%progbits
 171      AFF30080 
 171      AFF30080 
 172              		.align	2
 173              		.p2align 4,,15
 174              		.global	chCoreStatus
 175              		.thumb
 176              		.thumb_func
 177              		.type	chCoreStatus, %function
 178              	chCoreStatus:
 179              	.LFB10:
 180              		.loc 1 132 0
 181              		.cfi_startproc
 182              		@ args = 0, pretend = 0, frame = 0
 183              		@ frame_needed = 0, uses_anonymous_args = 0
 184              		@ link register save eliminated.
 185              		.loc 1 134 0
 186 0000 024A     		ldr	r2, .L11
 187 0002 034B     		ldr	r3, .L11+4
 188 0004 1068     		ldr	r0, [r2]
 189 0006 1B68     		ldr	r3, [r3]
 190              		.loc 1 135 0
 191 0008 C01A     		subs	r0, r0, r3
 192 000a 7047     		bx	lr
 193              	.L12:
 194              		.align	2
 195              	.L11:
 196 000c 00000000 		.word	.LANCHOR1
 197 0010 00000000 		.word	.LANCHOR0
 198              		.cfi_endproc
 199              	.LFE10:
 200              		.size	chCoreStatus, .-chCoreStatus
 201 0014 AFF30080 		.section	.bss.endmem,"aw",%nobits
 201      AFF30080 
 201      AFF30080 
 202              		.align	2
 203              		.set	.LANCHOR1,. + 0
 204              		.type	endmem, %object
 205              		.size	endmem, 4
 206              	endmem:
 207 0000 00000000 		.space	4
 208              		.section	.bss.nextmem,"aw",%nobits
 209              		.align	2
 210              		.set	.LANCHOR0,. + 0
 211              		.type	nextmem, %object
 212              		.size	nextmem, 4
 213              	nextmem:
 214 0000 00000000 		.space	4
 215              		.text
 216              	.Letext0:
 217              		.file 2 "/opt/yagarto/lib/gcc/arm-none-eabi/4.8.4/include/stddef.h"
 218              		.file 3 "/opt/yagarto/arm-none-eabi/include/machine/_default_types.h"
 219              		.file 4 "/opt/yagarto/arm-none-eabi/include/stdint.h"
 220              		.file 5 "../../../os/kernel/include/chdebug.h"
