ARM GAS  /tmp/ccsfHEPp.s 			page 1


   1              		.syntax unified
   2              		.cpu cortex-m4
   3              		.fpu softvfp
   4              		.eabi_attribute 20, 1
   5              		.eabi_attribute 21, 1
   6              		.eabi_attribute 23, 3
   7              		.eabi_attribute 24, 1
   8              		.eabi_attribute 25, 1
   9              		.eabi_attribute 26, 1
  10              		.eabi_attribute 30, 2
  11              		.eabi_attribute 34, 1
  12              		.eabi_attribute 18, 4
  13              		.thumb
  14              		.file	"chmsg.c"
  15              		.text
  16              	.Ltext0:
  17              		.cfi_sections	.debug_frame
  18              		.section	.text.chMsgSend,"ax",%progbits
  19              		.align	2
  20              		.p2align 4,,15
  21              		.global	chMsgSend
  22              		.thumb
  23              		.thumb_func
  24              		.type	chMsgSend, %function
  25              	chMsgSend:
  26              	.LFB7:
  27              		.file 1 "../../../os/kernel/src/chmsg.c"
  28              		.loc 1 75 0
  29              		.cfi_startproc
  30              		@ args = 0, pretend = 0, frame = 0
  31              		@ frame_needed = 0, uses_anonymous_args = 0
  32              	.LVL0:
  33              		.loc 1 76 0
  34 0000 154B     		ldr	r3, .L7
  35              		.loc 1 75 0
  36 0002 70B5     		push	{r4, r5, r6, lr}
  37              		.cfi_def_cfa_offset 16
  38              		.cfi_offset 4, -16
  39              		.cfi_offset 5, -12
  40              		.cfi_offset 6, -8
  41              		.cfi_offset 14, -4
  42              		.loc 1 78 0
  43 0004 0546     		mov	r5, r0
  44              		.loc 1 75 0
  45 0006 0E46     		mov	r6, r1
  46              		.loc 1 76 0
  47 0008 9C69     		ldr	r4, [r3, #24]
  48              	.LVL1:
  49              		.loc 1 78 0
  50 000a 00B3     		cbz	r0, .L5
  51              	.LVL2:
  52              	.L2:
  53              	.LBB10:
  54              		.loc 1 80 0
  55 000c 2023     		movs	r3, #32
  56              	@ 80 "../../../os/kernel/src/chmsg.c" 1
  57 000e 83F31188 		msr     BASEPRI, r3
ARM GAS  /tmp/ccsfHEPp.s 			page 2


  58              	@ 0 "" 2
  59              		.thumb
  60              	.LBE10:
  61 0012 FFF7FEFF 		bl	dbg_check_lock
  62              	.LVL3:
  63              		.loc 1 82 0
  64 0016 05F13002 		add	r2, r5, #48
  65              		.loc 1 84 0
  66 001a 95F82010 		ldrb	r1, [r5, #32]	@ zero_extendqisi2
  67              		.loc 1 82 0
  68 001e A262     		str	r2, [r4, #40]
  69              	.LVL4:
  70              	.LBB11:
  71              	.LBB12:
  72              		.file 2 "../../../os/kernel/include/chinline.h"
  73              		.loc 2 55 0
  74 0020 6B6B     		ldr	r3, [r5, #52]
  75              	.LBE12:
  76              	.LBE11:
  77              		.loc 1 81 0
  78 0022 A663     		str	r6, [r4, #56]
  79              		.loc 1 84 0
  80 0024 0C29     		cmp	r1, #12
  81              	.LBB14:
  82              	.LBB13:
  83              		.loc 2 55 0
  84 0026 84E80C00 		stmia	r4, {r2, r3}
  85              		.loc 2 56 0
  86 002a 6C63     		str	r4, [r5, #52]
  87 002c 1C60     		str	r4, [r3]
  88              	.LBE13:
  89              	.LBE14:
  90              		.loc 1 84 0
  91 002e 0AD0     		beq	.L6
  92              	.LVL5:
  93              	.L3:
  94              		.loc 1 86 0
  95 0030 0A20     		movs	r0, #10
  96 0032 FFF7FEFF 		bl	chSchGoSleepS
  97              	.LVL6:
  98              		.loc 1 87 0
  99 0036 A46A     		ldr	r4, [r4, #40]
 100              	.LVL7:
 101              		.loc 1 88 0
 102 0038 FFF7FEFF 		bl	dbg_check_unlock
 103              	.LVL8:
 104              	.LBB15:
 105 003c 0023     		movs	r3, #0
 106              	@ 88 "../../../os/kernel/src/chmsg.c" 1
 107 003e 83F31188 		msr     BASEPRI, r3
 108              	@ 0 "" 2
 109              		.thumb
 110              	.LBE15:
 111              		.loc 1 90 0
 112 0042 2046     		mov	r0, r4
 113 0044 70BD     		pop	{r4, r5, r6, pc}
 114              	.LVL9:
ARM GAS  /tmp/ccsfHEPp.s 			page 3


 115              	.L6:
 116              		.loc 1 85 0
 117 0046 2846     		mov	r0, r5
 118 0048 FFF7FEFF 		bl	chSchReadyI
 119              	.LVL10:
 120 004c F0E7     		b	.L3
 121              	.LVL11:
 122              	.L5:
 123              		.loc 1 78 0 discriminator 1
 124 004e 0348     		ldr	r0, .L7+4
 125              	.LVL12:
 126 0050 FFF7FEFF 		bl	chDbgPanic
 127              	.LVL13:
 128 0054 DAE7     		b	.L2
 129              	.L8:
 130 0056 00BF     		.align	2
 131              	.L7:
 132 0058 00000000 		.word	rlist
 133 005c 00000000 		.word	.LC0
 134              		.cfi_endproc
 135              	.LFE7:
 136              		.size	chMsgSend, .-chMsgSend
 137              		.section	.text.chMsgWait,"ax",%progbits
 138              		.align	2
 139              		.p2align 4,,15
 140              		.global	chMsgWait
 141              		.thumb
 142              		.thumb_func
 143              		.type	chMsgWait, %function
 144              	chMsgWait:
 145              	.LFB8:
 146              		.loc 1 106 0
 147              		.cfi_startproc
 148              		@ args = 0, pretend = 0, frame = 0
 149              		@ frame_needed = 0, uses_anonymous_args = 0
 150 0000 38B5     		push	{r3, r4, r5, lr}
 151              		.cfi_def_cfa_offset 16
 152              		.cfi_offset 3, -16
 153              		.cfi_offset 4, -12
 154              		.cfi_offset 5, -8
 155              		.cfi_offset 14, -4
 156              	.LBB16:
 157              		.loc 1 109 0
 158 0002 2023     		movs	r3, #32
 159              	@ 109 "../../../os/kernel/src/chmsg.c" 1
 160 0004 83F31188 		msr     BASEPRI, r3
 161              	@ 0 "" 2
 162              		.thumb
 163              	.LBE16:
 164              		.loc 1 110 0
 165 0008 0E4D     		ldr	r5, .L12
 166              		.loc 1 109 0
 167 000a FFF7FEFF 		bl	dbg_check_lock
 168              	.LVL14:
 169              		.loc 1 110 0
 170 000e AA69     		ldr	r2, [r5, #24]
 171 0010 1346     		mov	r3, r2
ARM GAS  /tmp/ccsfHEPp.s 			page 4


 172 0012 53F8304F 		ldr	r4, [r3, #48]!
 173 0016 9C42     		cmp	r4, r3
 174 0018 0CD0     		beq	.L11
 175              	.L10:
 176              	.LVL15:
 177              	.LBB17:
 178              	.LBB18:
 179              		.loc 2 62 0
 180 001a 2168     		ldr	r1, [r4]
 181 001c 1163     		str	r1, [r2, #48]
 182              	.LBE18:
 183              	.LBE17:
 184              		.loc 1 113 0
 185 001e 0B22     		movs	r2, #11
 186              	.LBB20:
 187              	.LBB19:
 188              		.loc 2 62 0
 189 0020 4B60     		str	r3, [r1, #4]
 190              	.LBE19:
 191              	.LBE20:
 192              		.loc 1 113 0
 193 0022 84F82020 		strb	r2, [r4, #32]
 194              		.loc 1 114 0
 195 0026 FFF7FEFF 		bl	dbg_check_unlock
 196              	.LVL16:
 197              	.LBB21:
 198 002a 0023     		movs	r3, #0
 199              	@ 114 "../../../os/kernel/src/chmsg.c" 1
 200 002c 83F31188 		msr     BASEPRI, r3
 201              	@ 0 "" 2
 202              		.thumb
 203              	.LBE21:
 204              		.loc 1 116 0
 205 0030 2046     		mov	r0, r4
 206 0032 38BD     		pop	{r3, r4, r5, pc}
 207              	.LVL17:
 208              	.L11:
 209              		.loc 1 111 0
 210 0034 0C20     		movs	r0, #12
 211 0036 FFF7FEFF 		bl	chSchGoSleepS
 212              	.LVL18:
 213 003a AA69     		ldr	r2, [r5, #24]
 214 003c 146B     		ldr	r4, [r2, #48]
 215 003e 02F13003 		add	r3, r2, #48
 216 0042 EAE7     		b	.L10
 217              	.L13:
 218              		.align	2
 219              	.L12:
 220 0044 00000000 		.word	rlist
 221              		.cfi_endproc
 222              	.LFE8:
 223              		.size	chMsgWait, .-chMsgWait
 224 0048 AFF30080 		.section	.text.chMsgRelease,"ax",%progbits
 224      AFF30080 
 225              		.align	2
 226              		.p2align 4,,15
 227              		.global	chMsgRelease
ARM GAS  /tmp/ccsfHEPp.s 			page 5


 228              		.thumb
 229              		.thumb_func
 230              		.type	chMsgRelease, %function
 231              	chMsgRelease:
 232              	.LFB9:
 233              		.loc 1 128 0
 234              		.cfi_startproc
 235              		@ args = 0, pretend = 0, frame = 0
 236              		@ frame_needed = 0, uses_anonymous_args = 0
 237              	.LVL19:
 238 0000 38B5     		push	{r3, r4, r5, lr}
 239              		.cfi_def_cfa_offset 16
 240              		.cfi_offset 3, -16
 241              		.cfi_offset 4, -12
 242              		.cfi_offset 5, -8
 243              		.cfi_offset 14, -4
 244              		.loc 1 128 0
 245 0002 0446     		mov	r4, r0
 246 0004 0D46     		mov	r5, r1
 247              	.LBB22:
 248              		.loc 1 130 0
 249 0006 2023     		movs	r3, #32
 250              	@ 130 "../../../os/kernel/src/chmsg.c" 1
 251 0008 83F31188 		msr     BASEPRI, r3
 252              	@ 0 "" 2
 253              		.thumb
 254              	.LBE22:
 255 000c FFF7FEFF 		bl	dbg_check_lock
 256              	.LVL20:
 257              		.loc 1 131 0
 258 0010 94F82030 		ldrb	r3, [r4, #32]	@ zero_extendqisi2
 259 0014 0B2B     		cmp	r3, #11
 260 0016 02D0     		beq	.L15
 261              		.loc 1 131 0 is_stmt 0 discriminator 1
 262 0018 0648     		ldr	r0, .L19
 263 001a FFF7FEFF 		bl	chDbgPanic
 264              	.LVL21:
 265              	.L15:
 266              		.loc 1 133 0 is_stmt 1
 267 001e 2046     		mov	r0, r4
 268 0020 2946     		mov	r1, r5
 269 0022 FFF7FEFF 		bl	chSchWakeupS
 270              	.LVL22:
 271              		.loc 1 134 0
 272 0026 FFF7FEFF 		bl	dbg_check_unlock
 273              	.LVL23:
 274              	.LBB23:
 275 002a 0023     		movs	r3, #0
 276              	@ 134 "../../../os/kernel/src/chmsg.c" 1
 277 002c 83F31188 		msr     BASEPRI, r3
 278              	@ 0 "" 2
 279              		.thumb
 280 0030 38BD     		pop	{r3, r4, r5, pc}
 281              	.LVL24:
 282              	.L20:
 283 0032 00BF     		.align	2
 284              	.L19:
ARM GAS  /tmp/ccsfHEPp.s 			page 6


 285 0034 10000000 		.word	.LC1
 286              	.LBE23:
 287              		.cfi_endproc
 288              	.LFE9:
 289              		.size	chMsgRelease, .-chMsgRelease
 290 0038 AFF30080 		.section	.rodata.str1.4,"aMS",%progbits,1
 290      AFF30080 
 291              		.align	2
 292              	.LC0:
 293 0000 2263684D 		.ascii	"\"chMsgSend\"()\000"
 293      73675365 
 293      6E642228 
 293      2900
 294 000e 0000     		.space	2
 295              	.LC1:
 296 0010 63684D73 		.ascii	"chMsgRelease(), #1\000"
 296      6752656C 
 296      65617365 
 296      28292C20 
 296      233100
 297 0023 00       		.text
 298              	.Letext0:
 299              		.file 3 "/opt/yagarto/arm-none-eabi/include/machine/_default_types.h"
 300              		.file 4 "/opt/yagarto/arm-none-eabi/include/stdint.h"
 301              		.file 5 "../../../os/ports/GCC/ARMCMx/chtypes.h"
 302              		.file 6 "../../../os/kernel/include/chlists.h"
 303              		.file 7 "../../../os/kernel/include/chthreads.h"
 304              		.file 8 "../../../os/ports/GCC/ARMCMx/chcore_v7m.h"
 305              		.file 9 "../../../os/kernel/include/chschd.h"
 306              		.file 10 "../../../os/kernel/include/chmtx.h"
 307              		.file 11 "../../../os/kernel/include/chdebug.h"
