ARM GAS  /tmp/ccmdHemr.s 			page 1


   1              		.syntax unified
   2              		.cpu cortex-m4
   3              		.fpu softvfp
   4              		.eabi_attribute 20, 1
   5              		.eabi_attribute 21, 1
   6              		.eabi_attribute 23, 3
   7              		.eabi_attribute 24, 1
   8              		.eabi_attribute 25, 1
   9              		.eabi_attribute 26, 1
  10              		.eabi_attribute 30, 2
  11              		.eabi_attribute 34, 1
  12              		.eabi_attribute 18, 4
  13              		.thumb
  14              		.file	"testbmk.c"
  15              		.text
  16              	.Ltext0:
  17              		.cfi_sections	.debug_frame
  18              		.section	.text.thread2,"ax",%progbits
  19              		.align	2
  20              		.p2align 4,,15
  21              		.thumb
  22              		.thumb_func
  23              		.type	thread2, %function
  24              	thread2:
  25              	.LFB11:
  26              		.file 1 "../../../test/testbmk.c"
  27              		.loc 1 154 0
  28              		.cfi_startproc
  29              		@ args = 0, pretend = 0, frame = 0
  30              		@ frame_needed = 0, uses_anonymous_args = 0
  31              		@ link register save eliminated.
  32              	.LVL0:
  33              		.loc 1 157 0
  34 0000 7047     		bx	lr
  35              		.cfi_endproc
  36              	.LFE11:
  37              		.size	thread2, .-thread2
  38 0002 00BFAFF3 		.section	.text.tmo,"ax",%progbits
  38      0080AFF3 
  38      0080AFF3 
  38      0080
  39              		.align	2
  40              		.p2align 4,,15
  41              		.thumb
  42              		.thumb_func
  43              		.type	tmo, %function
  44              	tmo:
  45              	.LFB23:
  46              		.loc 1 502 0
  47              		.cfi_startproc
  48              		@ args = 0, pretend = 0, frame = 0
  49              		@ frame_needed = 0, uses_anonymous_args = 0
  50              		@ link register save eliminated.
  51              	.LVL1:
  52 0000 7047     		bx	lr
  53              		.cfi_endproc
  54              	.LFE23:
ARM GAS  /tmp/ccmdHemr.s 			page 2


  55              		.size	tmo, .-tmo
  56 0002 00BFAFF3 		.section	.text.bmk13_execute,"ax",%progbits
  56      0080AFF3 
  56      0080AFF3 
  56      0080
  57              		.align	2
  58              		.p2align 4,,15
  59              		.thumb
  60              		.thumb_func
  61              		.type	bmk13_execute, %function
  62              	bmk13_execute:
  63              	.LFB29:
  64              		.loc 1 637 0
  65              		.cfi_startproc
  66              		@ args = 0, pretend = 0, frame = 0
  67              		@ frame_needed = 0, uses_anonymous_args = 0
  68              		.loc 1 637 0
  69 0000 10B5     		push	{r4, lr}
  70              		.cfi_def_cfa_offset 8
  71              		.cfi_offset 4, -8
  72              		.cfi_offset 14, -4
  73              		.loc 1 639 0
  74 0002 2F48     		ldr	r0, .L4
  75              		.loc 1 645 0
  76 0004 2F4C     		ldr	r4, .L4+4
  77              		.loc 1 639 0
  78 0006 FFF7FEFF 		bl	test_print
  79              	.LVL2:
  80              		.loc 1 640 0
  81 000a 4FF4EE70 		mov	r0, #476
  82 000e FFF7FEFF 		bl	test_printn
  83              	.LVL3:
  84              		.loc 1 645 0
  85 0012 2046     		mov	r0, r4
  86 0014 FFF7FEFF 		bl	test_println
  87              	.LVL4:
  88              		.loc 1 646 0
  89 0018 2B48     		ldr	r0, .L4+8
  90 001a FFF7FEFF 		bl	test_print
  91              	.LVL5:
  92              		.loc 1 647 0
  93 001e 4C20     		movs	r0, #76
  94 0020 FFF7FEFF 		bl	test_printn
  95              	.LVL6:
  96              		.loc 1 648 0
  97 0024 2046     		mov	r0, r4
  98 0026 FFF7FEFF 		bl	test_println
  99              	.LVL7:
 100              		.loc 1 649 0
 101 002a 2848     		ldr	r0, .L4+12
 102 002c FFF7FEFF 		bl	test_print
 103              	.LVL8:
 104              		.loc 1 650 0
 105 0030 1420     		movs	r0, #20
 106 0032 FFF7FEFF 		bl	test_printn
 107              	.LVL9:
 108              		.loc 1 651 0
ARM GAS  /tmp/ccmdHemr.s 			page 3


 109 0036 2046     		mov	r0, r4
 110 0038 FFF7FEFF 		bl	test_println
 111              	.LVL10:
 112              		.loc 1 653 0
 113 003c 2448     		ldr	r0, .L4+16
 114 003e FFF7FEFF 		bl	test_print
 115              	.LVL11:
 116              		.loc 1 654 0
 117 0042 0C20     		movs	r0, #12
 118 0044 FFF7FEFF 		bl	test_printn
 119              	.LVL12:
 120              		.loc 1 655 0
 121 0048 2046     		mov	r0, r4
 122 004a FFF7FEFF 		bl	test_println
 123              	.LVL13:
 124              		.loc 1 658 0
 125 004e 2148     		ldr	r0, .L4+20
 126 0050 FFF7FEFF 		bl	test_print
 127              	.LVL14:
 128              		.loc 1 659 0
 129 0054 0420     		movs	r0, #4
 130 0056 FFF7FEFF 		bl	test_printn
 131              	.LVL15:
 132              		.loc 1 660 0
 133 005a 2046     		mov	r0, r4
 134 005c FFF7FEFF 		bl	test_println
 135              	.LVL16:
 136              		.loc 1 661 0
 137 0060 1D48     		ldr	r0, .L4+24
 138 0062 FFF7FEFF 		bl	test_print
 139              	.LVL17:
 140              		.loc 1 662 0
 141 0066 1020     		movs	r0, #16
 142 0068 FFF7FEFF 		bl	test_printn
 143              	.LVL18:
 144              		.loc 1 663 0
 145 006c 2046     		mov	r0, r4
 146 006e FFF7FEFF 		bl	test_println
 147              	.LVL19:
 148              		.loc 1 666 0
 149 0072 1A48     		ldr	r0, .L4+28
 150 0074 FFF7FEFF 		bl	test_print
 151              	.LVL20:
 152              		.loc 1 667 0
 153 0078 1020     		movs	r0, #16
 154 007a FFF7FEFF 		bl	test_printn
 155              	.LVL21:
 156              		.loc 1 668 0
 157 007e 2046     		mov	r0, r4
 158 0080 FFF7FEFF 		bl	test_println
 159              	.LVL22:
 160              		.loc 1 671 0
 161 0084 1648     		ldr	r0, .L4+32
 162 0086 FFF7FEFF 		bl	test_print
 163              	.LVL23:
 164              		.loc 1 672 0
 165 008a 0820     		movs	r0, #8
ARM GAS  /tmp/ccmdHemr.s 			page 4


 166 008c FFF7FEFF 		bl	test_printn
 167              	.LVL24:
 168              		.loc 1 673 0
 169 0090 2046     		mov	r0, r4
 170 0092 FFF7FEFF 		bl	test_println
 171              	.LVL25:
 172              		.loc 1 676 0
 173 0096 1348     		ldr	r0, .L4+36
 174 0098 FFF7FEFF 		bl	test_print
 175              	.LVL26:
 176              		.loc 1 677 0
 177 009c 2420     		movs	r0, #36
 178 009e FFF7FEFF 		bl	test_printn
 179              	.LVL27:
 180              		.loc 1 678 0
 181 00a2 2046     		mov	r0, r4
 182 00a4 FFF7FEFF 		bl	test_println
 183              	.LVL28:
 184              		.loc 1 681 0
 185 00a8 0F48     		ldr	r0, .L4+40
 186 00aa FFF7FEFF 		bl	test_print
 187              	.LVL29:
 188              		.loc 1 682 0
 189 00ae 2820     		movs	r0, #40
 190 00b0 FFF7FEFF 		bl	test_printn
 191              	.LVL30:
 192              		.loc 1 683 0
 193 00b4 2046     		mov	r0, r4
 194              		.loc 1 685 0
 195 00b6 BDE81040 		pop	{r4, lr}
 196              		.loc 1 683 0
 197 00ba FFF7FEBF 		b	test_println
 198              	.LVL31:
 199              	.L5:
 200 00be 00BF     		.align	2
 201              	.L4:
 202 00c0 00000000 		.word	.LC0
 203 00c4 10000000 		.word	.LC1
 204 00c8 18000000 		.word	.LC2
 205 00cc 28000000 		.word	.LC3
 206 00d0 38000000 		.word	.LC4
 207 00d4 48000000 		.word	.LC5
 208 00d8 58000000 		.word	.LC6
 209 00dc 68000000 		.word	.LC7
 210 00e0 78000000 		.word	.LC8
 211 00e4 88000000 		.word	.LC9
 212 00e8 98000000 		.word	.LC10
 213              		.cfi_endproc
 214              	.LFE29:
 215              		.size	bmk13_execute, .-bmk13_execute
 216 00ec AFF30080 		.section	.text.thread1,"ax",%progbits
 217              		.align	2
 218              		.p2align 4,,15
 219              		.thumb
 220              		.thumb_func
 221              		.type	thread1, %function
 222              	thread1:
ARM GAS  /tmp/ccmdHemr.s 			page 5


 223              	.LFB7:
 224              		.loc 1 64 0
 225              		.cfi_startproc
 226              		@ args = 0, pretend = 0, frame = 0
 227              		@ frame_needed = 0, uses_anonymous_args = 0
 228              	.LVL32:
 229 0000 10B5     		push	{r4, lr}
 230              		.cfi_def_cfa_offset 8
 231              		.cfi_offset 4, -8
 232              		.cfi_offset 14, -4
 233              	.LVL33:
 234              	.L8:
 235              		.loc 1 70 0 discriminator 1
 236 0002 FFF7FEFF 		bl	chMsgWait
 237              	.LVL34:
 238              		.loc 1 71 0 discriminator 1
 239 0006 846B     		ldr	r4, [r0, #56]
 240              	.LVL35:
 241              		.loc 1 72 0 discriminator 1
 242 0008 2146     		mov	r1, r4
 243 000a FFF7FEFF 		bl	chMsgRelease
 244              	.LVL36:
 245              		.loc 1 73 0 discriminator 1
 246 000e 002C     		cmp	r4, #0
 247 0010 F7D1     		bne	.L8
 248              		.loc 1 75 0
 249 0012 2046     		mov	r0, r4
 250 0014 10BD     		pop	{r4, pc}
 251              		.cfi_endproc
 252              	.LFE7:
 253              		.size	thread1, .-thread1
 254 0016 00BFAFF3 		.section	.text.bmk6_execute,"ax",%progbits
 254      0080AFF3 
 254      0080
 255              		.align	2
 256              		.p2align 4,,15
 257              		.thumb
 258              		.thumb_func
 259              		.type	bmk6_execute, %function
 260              	bmk6_execute:
 261              	.LFB16:
 262              		.loc 1 304 0
 263              		.cfi_startproc
 264              		@ args = 0, pretend = 0, frame = 0
 265              		@ frame_needed = 0, uses_anonymous_args = 0
 266              	.LVL37:
 267 0000 2DE9F041 		push	{r4, r5, r6, r7, r8, lr}
 268              		.cfi_def_cfa_offset 24
 269              		.cfi_offset 4, -24
 270              		.cfi_offset 5, -20
 271              		.cfi_offset 6, -16
 272              		.cfi_offset 7, -12
 273              		.cfi_offset 8, -8
 274              		.cfi_offset 14, -4
 275              		.loc 1 308 0
 276 0004 144B     		ldr	r3, .L13
 277              		.loc 1 307 0
ARM GAS  /tmp/ccmdHemr.s 			page 6


 278 0006 154A     		ldr	r2, .L13+4
 279              		.loc 1 308 0
 280 0008 9B69     		ldr	r3, [r3, #24]
 281              		.loc 1 307 0
 282 000a D2F80080 		ldr	r8, [r2]
 283              	.LVL38:
 284              		.loc 1 308 0
 285 000e 9E68     		ldr	r6, [r3, #8]
 286 0010 134F     		ldr	r7, .L13+8
 287              		.loc 1 304 0
 288 0012 82B0     		sub	sp, sp, #8
 289              		.cfi_def_cfa_offset 32
 290              		.loc 1 309 0
 291 0014 FFF7FEFF 		bl	test_wait_tick
 292              	.LVL39:
 293              		.loc 1 310 0
 294 0018 4FF47A70 		mov	r0, #1000
 295 001c FFF7FEFF 		bl	test_start_timer
 296              	.LVL40:
 297              		.loc 1 306 0
 298 0020 0024     		movs	r4, #0
 299              		.loc 1 308 0
 300 0022 0136     		adds	r6, r6, #1
 301              	.LVL41:
 302              		.loc 1 312 0
 303 0024 2546     		mov	r5, r4
 304              	.LVL42:
 305              	.L12:
 306              		.loc 1 312 0 is_stmt 0 discriminator 1
 307 0026 0F4B     		ldr	r3, .L13+12
 308 0028 0095     		str	r5, [sp]
 309 002a 4046     		mov	r0, r8
 310 002c 4FF4A871 		mov	r1, #336
 311 0030 3246     		mov	r2, r6
 312 0032 FFF7FEFF 		bl	chThdCreateStatic
 313              	.LVL43:
 314              		.loc 1 317 0 is_stmt 1 discriminator 1
 315 0036 3B78     		ldrb	r3, [r7]	@ zero_extendqisi2
 316              		.loc 1 313 0 discriminator 1
 317 0038 0134     		adds	r4, r4, #1
 318              	.LVL44:
 319              		.loc 1 317 0 discriminator 1
 320 003a 002B     		cmp	r3, #0
 321 003c F3D0     		beq	.L12
 322              		.loc 1 318 0
 323 003e 0A48     		ldr	r0, .L13+16
 324 0040 FFF7FEFF 		bl	test_print
 325              	.LVL45:
 326              		.loc 1 319 0
 327 0044 2046     		mov	r0, r4
 328 0046 FFF7FEFF 		bl	test_printn
 329              	.LVL46:
 330              		.loc 1 320 0
 331 004a 0848     		ldr	r0, .L13+20
 332              		.loc 1 321 0
 333 004c 02B0     		add	sp, sp, #8
 334              		@ sp needed
ARM GAS  /tmp/ccmdHemr.s 			page 7


 335 004e BDE8F041 		pop	{r4, r5, r6, r7, r8, lr}
 336              	.LVL47:
 337              		.loc 1 320 0
 338 0052 FFF7FEBF 		b	test_println
 339              	.LVL48:
 340              	.L14:
 341 0056 00BF     		.align	2
 342              	.L13:
 343 0058 00000000 		.word	rlist
 344 005c 00000000 		.word	wa
 345 0060 00000000 		.word	test_timer_done
 346 0064 00000000 		.word	thread2
 347 0068 A8000000 		.word	.LC11
 348 006c B8000000 		.word	.LC12
 349              		.cfi_endproc
 350              	.LFE16:
 351              		.size	bmk6_execute, .-bmk6_execute
 352              		.section	.text.msg_loop_test,"ax",%progbits
 353              		.align	2
 354              		.p2align 4,,15
 355              		.thumb
 356              		.thumb_func
 357              		.type	msg_loop_test, %function
 358              	msg_loop_test:
 359              	.LFB8:
 360              		.loc 1 80 0
 361              		.cfi_startproc
 362              		@ args = 0, pretend = 0, frame = 0
 363              		@ frame_needed = 0, uses_anonymous_args = 0
 364              	.LVL49:
 365 0000 70B5     		push	{r4, r5, r6, lr}
 366              		.cfi_def_cfa_offset 16
 367              		.cfi_offset 4, -16
 368              		.cfi_offset 5, -12
 369              		.cfi_offset 6, -8
 370              		.cfi_offset 14, -4
 371              		.loc 1 80 0
 372 0002 0546     		mov	r5, r0
 373              		.loc 1 83 0
 374 0004 FFF7FEFF 		bl	test_wait_tick
 375              	.LVL50:
 376              		.loc 1 84 0
 377 0008 4FF47A70 		mov	r0, #1000
 378 000c FFF7FEFF 		bl	test_start_timer
 379              	.LVL51:
 380 0010 074E     		ldr	r6, .L18
 381              		.loc 1 82 0
 382 0012 0024     		movs	r4, #0
 383              	.LVL52:
 384              	.L17:
 385              		.loc 1 86 0 discriminator 1
 386 0014 2846     		mov	r0, r5
 387 0016 0121     		movs	r1, #1
 388 0018 FFF7FEFF 		bl	chMsgSend
 389              	.LVL53:
 390              		.loc 1 91 0 discriminator 1
 391 001c 3378     		ldrb	r3, [r6]	@ zero_extendqisi2
ARM GAS  /tmp/ccmdHemr.s 			page 8


 392              		.loc 1 87 0 discriminator 1
 393 001e 0134     		adds	r4, r4, #1
 394              	.LVL54:
 395              		.loc 1 91 0 discriminator 1
 396 0020 002B     		cmp	r3, #0
 397 0022 F7D0     		beq	.L17
 398              		.loc 1 92 0
 399 0024 2846     		mov	r0, r5
 400 0026 0021     		movs	r1, #0
 401 0028 FFF7FEFF 		bl	chMsgSend
 402              	.LVL55:
 403              		.loc 1 94 0
 404 002c 2046     		mov	r0, r4
 405 002e 70BD     		pop	{r4, r5, r6, pc}
 406              	.LVL56:
 407              	.L19:
 408              		.align	2
 409              	.L18:
 410 0030 00000000 		.word	test_timer_done
 411              		.cfi_endproc
 412              	.LFE8:
 413              		.size	msg_loop_test, .-msg_loop_test
 414 0034 AFF30080 		.section	.text.bmk1_execute,"ax",%progbits
 414      AFF30080 
 414      AFF30080 
 415              		.align	2
 416              		.p2align 4,,15
 417              		.thumb
 418              		.thumb_func
 419              		.type	bmk1_execute, %function
 420              	bmk1_execute:
 421              	.LFB9:
 422              		.loc 1 105 0
 423              		.cfi_startproc
 424              		@ args = 0, pretend = 0, frame = 0
 425              		@ frame_needed = 0, uses_anonymous_args = 0
 426 0000 10B5     		push	{r4, lr}
 427              		.cfi_def_cfa_offset 8
 428              		.cfi_offset 4, -8
 429              		.cfi_offset 14, -4
 430              		.loc 1 108 0
 431 0002 134B     		ldr	r3, .L21
 432 0004 134A     		ldr	r2, .L21+4
 433 0006 9B69     		ldr	r3, [r3, #24]
 434 0008 1068     		ldr	r0, [r2]
 435 000a 9A68     		ldr	r2, [r3, #8]
 436 000c 124B     		ldr	r3, .L21+8
 437              		.loc 1 105 0
 438 000e 82B0     		sub	sp, sp, #8
 439              		.cfi_def_cfa_offset 16
 440              		.loc 1 108 0
 441 0010 0021     		movs	r1, #0
 442 0012 013A     		subs	r2, r2, #1
 443 0014 0091     		str	r1, [sp]
 444 0016 4FF4A871 		mov	r1, #336
 445 001a FFF7FEFF 		bl	chThdCreateStatic
 446              	.LVL57:
ARM GAS  /tmp/ccmdHemr.s 			page 9


 447 001e 0F4B     		ldr	r3, .L21+12
 448 0020 1860     		str	r0, [r3]
 449              		.loc 1 109 0
 450 0022 FFF7FEFF 		bl	msg_loop_test
 451              	.LVL58:
 452 0026 0446     		mov	r4, r0
 453              	.LVL59:
 454              		.loc 1 110 0
 455 0028 FFF7FEFF 		bl	test_wait_threads
 456              	.LVL60:
 457              		.loc 1 111 0
 458 002c 0C48     		ldr	r0, .L21+16
 459 002e FFF7FEFF 		bl	test_print
 460              	.LVL61:
 461              		.loc 1 112 0
 462 0032 2046     		mov	r0, r4
 463 0034 FFF7FEFF 		bl	test_printn
 464              	.LVL62:
 465              		.loc 1 113 0
 466 0038 0A48     		ldr	r0, .L21+20
 467 003a FFF7FEFF 		bl	test_print
 468              	.LVL63:
 469              		.loc 1 114 0
 470 003e 6000     		lsls	r0, r4, #1
 471 0040 FFF7FEFF 		bl	test_printn
 472              	.LVL64:
 473              		.loc 1 115 0
 474 0044 0848     		ldr	r0, .L21+24
 475              		.loc 1 116 0
 476 0046 02B0     		add	sp, sp, #8
 477              		@ sp needed
 478 0048 BDE81040 		pop	{r4, lr}
 479              	.LVL65:
 480              		.loc 1 115 0
 481 004c FFF7FEBF 		b	test_println
 482              	.LVL66:
 483              	.L22:
 484              		.align	2
 485              	.L21:
 486 0050 00000000 		.word	rlist
 487 0054 00000000 		.word	wa
 488 0058 00000000 		.word	thread1
 489 005c 00000000 		.word	threads
 490 0060 A8000000 		.word	.LC11
 491 0064 C4000000 		.word	.LC13
 492 0068 D0000000 		.word	.LC14
 493              		.cfi_endproc
 494              	.LFE9:
 495              		.size	bmk1_execute, .-bmk1_execute
 496 006c AFF30080 		.section	.text.bmk2_execute,"ax",%progbits
 497              		.align	2
 498              		.p2align 4,,15
 499              		.thumb
 500              		.thumb_func
 501              		.type	bmk2_execute, %function
 502              	bmk2_execute:
 503              	.LFB10:
ARM GAS  /tmp/ccmdHemr.s 			page 10


 504              		.loc 1 134 0
 505              		.cfi_startproc
 506              		@ args = 0, pretend = 0, frame = 0
 507              		@ frame_needed = 0, uses_anonymous_args = 0
 508 0000 10B5     		push	{r4, lr}
 509              		.cfi_def_cfa_offset 8
 510              		.cfi_offset 4, -8
 511              		.cfi_offset 14, -4
 512              		.loc 1 137 0
 513 0002 134B     		ldr	r3, .L24
 514 0004 134A     		ldr	r2, .L24+4
 515 0006 9B69     		ldr	r3, [r3, #24]
 516 0008 1068     		ldr	r0, [r2]
 517 000a 9A68     		ldr	r2, [r3, #8]
 518 000c 124B     		ldr	r3, .L24+8
 519              		.loc 1 134 0
 520 000e 82B0     		sub	sp, sp, #8
 521              		.cfi_def_cfa_offset 16
 522              		.loc 1 137 0
 523 0010 0021     		movs	r1, #0
 524 0012 0132     		adds	r2, r2, #1
 525 0014 0091     		str	r1, [sp]
 526 0016 4FF4A871 		mov	r1, #336
 527 001a FFF7FEFF 		bl	chThdCreateStatic
 528              	.LVL67:
 529 001e 0F4B     		ldr	r3, .L24+12
 530 0020 1860     		str	r0, [r3]
 531              		.loc 1 138 0
 532 0022 FFF7FEFF 		bl	msg_loop_test
 533              	.LVL68:
 534 0026 0446     		mov	r4, r0
 535              	.LVL69:
 536              		.loc 1 139 0
 537 0028 FFF7FEFF 		bl	test_wait_threads
 538              	.LVL70:
 539              		.loc 1 140 0
 540 002c 0C48     		ldr	r0, .L24+16
 541 002e FFF7FEFF 		bl	test_print
 542              	.LVL71:
 543              		.loc 1 141 0
 544 0032 2046     		mov	r0, r4
 545 0034 FFF7FEFF 		bl	test_printn
 546              	.LVL72:
 547              		.loc 1 142 0
 548 0038 0A48     		ldr	r0, .L24+20
 549 003a FFF7FEFF 		bl	test_print
 550              	.LVL73:
 551              		.loc 1 143 0
 552 003e 6000     		lsls	r0, r4, #1
 553 0040 FFF7FEFF 		bl	test_printn
 554              	.LVL74:
 555              		.loc 1 144 0
 556 0044 0848     		ldr	r0, .L24+24
 557              		.loc 1 145 0
 558 0046 02B0     		add	sp, sp, #8
 559              		@ sp needed
 560 0048 BDE81040 		pop	{r4, lr}
ARM GAS  /tmp/ccmdHemr.s 			page 11


 561              	.LVL75:
 562              		.loc 1 144 0
 563 004c FFF7FEBF 		b	test_println
 564              	.LVL76:
 565              	.L25:
 566              		.align	2
 567              	.L24:
 568 0050 00000000 		.word	rlist
 569 0054 00000000 		.word	wa
 570 0058 00000000 		.word	thread1
 571 005c 00000000 		.word	threads
 572 0060 A8000000 		.word	.LC11
 573 0064 C4000000 		.word	.LC13
 574 0068 D0000000 		.word	.LC14
 575              		.cfi_endproc
 576              	.LFE10:
 577              		.size	bmk2_execute, .-bmk2_execute
 578 006c AFF30080 		.section	.text.bmk3_execute,"ax",%progbits
 579              		.align	2
 580              		.p2align 4,,15
 581              		.thumb
 582              		.thumb_func
 583              		.type	bmk3_execute, %function
 584              	bmk3_execute:
 585              	.LFB12:
 586              		.loc 1 169 0
 587              		.cfi_startproc
 588              		@ args = 0, pretend = 0, frame = 0
 589              		@ frame_needed = 0, uses_anonymous_args = 0
 590 0000 2DE9F041 		push	{r4, r5, r6, r7, r8, lr}
 591              		.cfi_def_cfa_offset 24
 592              		.cfi_offset 4, -24
 593              		.cfi_offset 5, -20
 594              		.cfi_offset 6, -16
 595              		.cfi_offset 7, -12
 596              		.cfi_offset 8, -8
 597              		.cfi_offset 14, -4
 598              		.loc 1 172 0
 599 0004 2C4F     		ldr	r7, .L27
 600 0006 2D4E     		ldr	r6, .L27+4
 601 0008 BB69     		ldr	r3, [r7, #24]
 602 000a 3068     		ldr	r0, [r6]
 603 000c 9A68     		ldr	r2, [r3, #8]
 604 000e 2C4B     		ldr	r3, .L27+8
 605 0010 2C4C     		ldr	r4, .L27+12
 606              		.loc 1 173 0
 607 0012 DFF8C080 		ldr	r8, .L27+28
 608              		.loc 1 169 0
 609 0016 82B0     		sub	sp, sp, #8
 610              		.cfi_def_cfa_offset 32
 611              		.loc 1 172 0
 612 0018 0025     		movs	r5, #0
 613 001a 0132     		adds	r2, r2, #1
 614 001c 0095     		str	r5, [sp]
 615 001e 4FF4A871 		mov	r1, #336
 616 0022 FFF7FEFF 		bl	chThdCreateStatic
 617              	.LVL77:
ARM GAS  /tmp/ccmdHemr.s 			page 12


 618              		.loc 1 173 0
 619 0026 BA69     		ldr	r2, [r7, #24]
 620 0028 7368     		ldr	r3, [r6, #4]
 621 002a 9268     		ldr	r2, [r2, #8]
 622              		.loc 1 172 0
 623 002c 2060     		str	r0, [r4]
 624              		.loc 1 173 0
 625 002e 023A     		subs	r2, r2, #2
 626 0030 0095     		str	r5, [sp]
 627 0032 1846     		mov	r0, r3
 628 0034 4FF4A871 		mov	r1, #336
 629 0038 4346     		mov	r3, r8
 630 003a FFF7FEFF 		bl	chThdCreateStatic
 631              	.LVL78:
 632              		.loc 1 174 0
 633 003e BA69     		ldr	r2, [r7, #24]
 634 0040 B368     		ldr	r3, [r6, #8]
 635 0042 9268     		ldr	r2, [r2, #8]
 636              		.loc 1 173 0
 637 0044 6060     		str	r0, [r4, #4]
 638              		.loc 1 174 0
 639 0046 033A     		subs	r2, r2, #3
 640 0048 0095     		str	r5, [sp]
 641 004a 1846     		mov	r0, r3
 642 004c 4FF4A871 		mov	r1, #336
 643 0050 4346     		mov	r3, r8
 644 0052 FFF7FEFF 		bl	chThdCreateStatic
 645              	.LVL79:
 646              		.loc 1 175 0
 647 0056 BA69     		ldr	r2, [r7, #24]
 648 0058 F368     		ldr	r3, [r6, #12]
 649 005a 9268     		ldr	r2, [r2, #8]
 650              		.loc 1 174 0
 651 005c A060     		str	r0, [r4, #8]
 652              		.loc 1 175 0
 653 005e 043A     		subs	r2, r2, #4
 654 0060 0095     		str	r5, [sp]
 655 0062 1846     		mov	r0, r3
 656 0064 4FF4A871 		mov	r1, #336
 657 0068 4346     		mov	r3, r8
 658 006a FFF7FEFF 		bl	chThdCreateStatic
 659              	.LVL80:
 660              		.loc 1 176 0
 661 006e BA69     		ldr	r2, [r7, #24]
 662 0070 3369     		ldr	r3, [r6, #16]
 663 0072 9268     		ldr	r2, [r2, #8]
 664              		.loc 1 175 0
 665 0074 E060     		str	r0, [r4, #12]
 666              		.loc 1 176 0
 667 0076 053A     		subs	r2, r2, #5
 668 0078 4FF4A871 		mov	r1, #336
 669 007c 1846     		mov	r0, r3
 670 007e 0095     		str	r5, [sp]
 671 0080 4346     		mov	r3, r8
 672 0082 FFF7FEFF 		bl	chThdCreateStatic
 673              	.LVL81:
 674 0086 2061     		str	r0, [r4, #16]
ARM GAS  /tmp/ccmdHemr.s 			page 13


 675              		.loc 1 177 0
 676 0088 2068     		ldr	r0, [r4]
 677 008a FFF7FEFF 		bl	msg_loop_test
 678              	.LVL82:
 679 008e 0446     		mov	r4, r0
 680              	.LVL83:
 681              		.loc 1 178 0
 682 0090 FFF7FEFF 		bl	test_wait_threads
 683              	.LVL84:
 684              		.loc 1 179 0
 685 0094 0C48     		ldr	r0, .L27+16
 686 0096 FFF7FEFF 		bl	test_print
 687              	.LVL85:
 688              		.loc 1 180 0
 689 009a 2046     		mov	r0, r4
 690 009c FFF7FEFF 		bl	test_printn
 691              	.LVL86:
 692              		.loc 1 181 0
 693 00a0 0A48     		ldr	r0, .L27+20
 694 00a2 FFF7FEFF 		bl	test_print
 695              	.LVL87:
 696              		.loc 1 182 0
 697 00a6 6000     		lsls	r0, r4, #1
 698 00a8 FFF7FEFF 		bl	test_printn
 699              	.LVL88:
 700              		.loc 1 183 0
 701 00ac 0848     		ldr	r0, .L27+24
 702              		.loc 1 184 0
 703 00ae 02B0     		add	sp, sp, #8
 704              		@ sp needed
 705 00b0 BDE8F041 		pop	{r4, r5, r6, r7, r8, lr}
 706              	.LVL89:
 707              		.loc 1 183 0
 708 00b4 FFF7FEBF 		b	test_println
 709              	.LVL90:
 710              	.L28:
 711              		.align	2
 712              	.L27:
 713 00b8 00000000 		.word	rlist
 714 00bc 00000000 		.word	wa
 715 00c0 00000000 		.word	thread1
 716 00c4 00000000 		.word	threads
 717 00c8 A8000000 		.word	.LC11
 718 00cc C4000000 		.word	.LC13
 719 00d0 D0000000 		.word	.LC14
 720 00d4 00000000 		.word	thread2
 721              		.cfi_endproc
 722              	.LFE12:
 723              		.size	bmk3_execute, .-bmk3_execute
 724 00d8 AFF30080 		.section	.text.thread4,"ax",%progbits
 724      AFF30080 
 725              		.align	2
 726              		.p2align 4,,15
 727              		.global	thread4
 728              		.thumb
 729              		.thumb_func
 730              		.type	thread4, %function
ARM GAS  /tmp/ccmdHemr.s 			page 14


 731              	thread4:
 732              	.LFB13:
 733              		.loc 1 203 0
 734              		.cfi_startproc
 735              		@ args = 0, pretend = 0, frame = 0
 736              		@ frame_needed = 0, uses_anonymous_args = 0
 737              	.LVL91:
 738              		.loc 1 205 0
 739 0000 0A4A     		ldr	r2, .L32
 740              		.loc 1 203 0
 741 0002 10B5     		push	{r4, lr}
 742              		.cfi_def_cfa_offset 8
 743              		.cfi_offset 4, -8
 744              		.cfi_offset 14, -4
 745              	.LBB2:
 746              		.loc 1 208 0
 747 0004 2023     		movs	r3, #32
 748              	.LBE2:
 749              		.loc 1 205 0
 750 0006 9469     		ldr	r4, [r2, #24]
 751              	.LVL92:
 752              	.LBB3:
 753              		.loc 1 208 0
 754              	@ 208 "../../../test/testbmk.c" 1
 755 0008 83F31188 		msr     BASEPRI, r3
 756              	@ 0 "" 2
 757              		.thumb
 758              	.LBE3:
 759 000c FFF7FEFF 		bl	dbg_check_lock
 760              	.LVL93:
 761              	.L31:
 762              		.loc 1 210 0 discriminator 1
 763 0010 0220     		movs	r0, #2
 764 0012 FFF7FEFF 		bl	chSchGoSleepS
 765              	.LVL94:
 766              		.loc 1 212 0 discriminator 1
 767 0016 A36A     		ldr	r3, [r4, #40]
 768 0018 002B     		cmp	r3, #0
 769 001a F9D0     		beq	.L31
 770              		.loc 1 213 0
 771 001c FFF7FEFF 		bl	dbg_check_unlock
 772              	.LVL95:
 773              	.LBB4:
 774 0020 0023     		movs	r3, #0
 775              	@ 213 "../../../test/testbmk.c" 1
 776 0022 83F31188 		msr     BASEPRI, r3
 777              	@ 0 "" 2
 778              		.thumb
 779              	.LBE4:
 780              		.loc 1 215 0
 781 0026 1846     		mov	r0, r3
 782 0028 10BD     		pop	{r4, pc}
 783              	.LVL96:
 784              	.L33:
 785 002a 00BF     		.align	2
 786              	.L32:
 787 002c 00000000 		.word	rlist
ARM GAS  /tmp/ccmdHemr.s 			page 15


 788              		.cfi_endproc
 789              	.LFE13:
 790              		.size	thread4, .-thread4
 791              		.section	.text.bmk4_execute,"ax",%progbits
 792              		.align	2
 793              		.p2align 4,,15
 794              		.thumb
 795              		.thumb_func
 796              		.type	bmk4_execute, %function
 797              	bmk4_execute:
 798              	.LFB14:
 799              		.loc 1 217 0
 800              		.cfi_startproc
 801              		@ args = 0, pretend = 0, frame = 0
 802              		@ frame_needed = 0, uses_anonymous_args = 0
 803 0000 70B5     		push	{r4, r5, r6, lr}
 804              		.cfi_def_cfa_offset 16
 805              		.cfi_offset 4, -16
 806              		.cfi_offset 5, -12
 807              		.cfi_offset 6, -8
 808              		.cfi_offset 14, -4
 809              		.loc 1 221 0
 810 0002 294B     		ldr	r3, .L37
 811 0004 294A     		ldr	r2, .L37+4
 812 0006 9B69     		ldr	r3, [r3, #24]
 813 0008 1068     		ldr	r0, [r2]
 814 000a 9A68     		ldr	r2, [r3, #8]
 815 000c 284B     		ldr	r3, .L37+8
 816 000e 294E     		ldr	r6, .L37+12
 817              		.loc 1 217 0
 818 0010 82B0     		sub	sp, sp, #8
 819              		.cfi_def_cfa_offset 24
 820              		.loc 1 221 0
 821 0012 0025     		movs	r5, #0
 822 0014 0132     		adds	r2, r2, #1
 823 0016 4FF4A871 		mov	r1, #336
 824 001a 0095     		str	r5, [sp]
 825 001c FFF7FEFF 		bl	chThdCreateStatic
 826              	.LVL97:
 827 0020 254B     		ldr	r3, .L37+16
 828 0022 0446     		mov	r4, r0
 829 0024 1860     		str	r0, [r3]
 830              	.LVL98:
 831              		.loc 1 223 0
 832 0026 FFF7FEFF 		bl	test_wait_tick
 833              	.LVL99:
 834              		.loc 1 224 0
 835 002a 4FF47A70 		mov	r0, #1000
 836 002e FFF7FEFF 		bl	test_start_timer
 837              	.LVL100:
 838              	.L36:
 839              	.LBB5:
 840              		.loc 1 226 0 discriminator 1
 841 0032 2023     		movs	r3, #32
 842              	@ 226 "../../../test/testbmk.c" 1
 843 0034 83F31188 		msr     BASEPRI, r3
 844              	@ 0 "" 2
ARM GAS  /tmp/ccmdHemr.s 			page 16


 845              		.thumb
 846              	.LBE5:
 847 0038 FFF7FEFF 		bl	dbg_check_lock
 848              	.LVL101:
 849              		.loc 1 227 0 discriminator 1
 850 003c 2046     		mov	r0, r4
 851 003e 0021     		movs	r1, #0
 852 0040 FFF7FEFF 		bl	chSchWakeupS
 853              	.LVL102:
 854              		.loc 1 228 0 discriminator 1
 855 0044 2046     		mov	r0, r4
 856 0046 0021     		movs	r1, #0
 857 0048 FFF7FEFF 		bl	chSchWakeupS
 858              	.LVL103:
 859              		.loc 1 229 0 discriminator 1
 860 004c 2046     		mov	r0, r4
 861 004e 0021     		movs	r1, #0
 862 0050 FFF7FEFF 		bl	chSchWakeupS
 863              	.LVL104:
 864              		.loc 1 230 0 discriminator 1
 865 0054 2046     		mov	r0, r4
 866 0056 0021     		movs	r1, #0
 867 0058 FFF7FEFF 		bl	chSchWakeupS
 868              	.LVL105:
 869              		.loc 1 231 0 discriminator 1
 870 005c FFF7FEFF 		bl	dbg_check_unlock
 871              	.LVL106:
 872              	.LBB6:
 873 0060 0023     		movs	r3, #0
 874              	@ 231 "../../../test/testbmk.c" 1
 875 0062 83F31188 		msr     BASEPRI, r3
 876              	@ 0 "" 2
 877              		.thumb
 878              	.LBE6:
 879              		.loc 1 236 0 discriminator 1
 880 0066 3378     		ldrb	r3, [r6]	@ zero_extendqisi2
 881              		.loc 1 232 0 discriminator 1
 882 0068 0435     		adds	r5, r5, #4
 883              	.LVL107:
 884              		.loc 1 236 0 discriminator 1
 885 006a 002B     		cmp	r3, #0
 886 006c E1D0     		beq	.L36
 887              	.LBB7:
 888              		.loc 1 237 0
 889 006e 2023     		movs	r3, #32
 890              	@ 237 "../../../test/testbmk.c" 1
 891 0070 83F31188 		msr     BASEPRI, r3
 892              	@ 0 "" 2
 893              		.thumb
 894              	.LBE7:
 895 0074 FFF7FEFF 		bl	dbg_check_lock
 896              	.LVL108:
 897              		.loc 1 238 0
 898 0078 2046     		mov	r0, r4
 899 007a 4FF0FF31 		mov	r1, #-1
 900 007e FFF7FEFF 		bl	chSchWakeupS
 901              	.LVL109:
ARM GAS  /tmp/ccmdHemr.s 			page 17


 902              		.loc 1 239 0
 903 0082 FFF7FEFF 		bl	dbg_check_unlock
 904              	.LVL110:
 905              	.LBB8:
 906 0086 0023     		movs	r3, #0
 907              	@ 239 "../../../test/testbmk.c" 1
 908 0088 83F31188 		msr     BASEPRI, r3
 909              	@ 0 "" 2
 910              		.thumb
 911              	.LBE8:
 912              		.loc 1 241 0
 913 008c FFF7FEFF 		bl	test_wait_threads
 914              	.LVL111:
 915              		.loc 1 242 0
 916 0090 0A48     		ldr	r0, .L37+20
 917 0092 FFF7FEFF 		bl	test_print
 918              	.LVL112:
 919              		.loc 1 243 0
 920 0096 6800     		lsls	r0, r5, #1
 921 0098 FFF7FEFF 		bl	test_printn
 922              	.LVL113:
 923              		.loc 1 244 0
 924 009c 0848     		ldr	r0, .L37+24
 925              		.loc 1 245 0
 926 009e 02B0     		add	sp, sp, #8
 927              		@ sp needed
 928 00a0 BDE87040 		pop	{r4, r5, r6, lr}
 929              	.LVL114:
 930              		.loc 1 244 0
 931 00a4 FFF7FEBF 		b	test_println
 932              	.LVL115:
 933              	.L38:
 934              		.align	2
 935              	.L37:
 936 00a8 00000000 		.word	rlist
 937 00ac 00000000 		.word	wa
 938 00b0 00000000 		.word	thread4
 939 00b4 00000000 		.word	test_timer_done
 940 00b8 00000000 		.word	threads
 941 00bc A8000000 		.word	.LC11
 942 00c0 D0000000 		.word	.LC14
 943              		.cfi_endproc
 944              	.LFE14:
 945              		.size	bmk4_execute, .-bmk4_execute
 946 00c4 AFF30080 		.section	.text.bmk5_execute,"ax",%progbits
 946      AFF30080 
 946      AFF30080 
 947              		.align	2
 948              		.p2align 4,,15
 949              		.thumb
 950              		.thumb_func
 951              		.type	bmk5_execute, %function
 952              	bmk5_execute:
 953              	.LFB15:
 954              		.loc 1 265 0
 955              		.cfi_startproc
 956              		@ args = 0, pretend = 0, frame = 0
ARM GAS  /tmp/ccmdHemr.s 			page 18


 957              		@ frame_needed = 0, uses_anonymous_args = 0
 958              	.LVL116:
 959 0000 2DE9F041 		push	{r4, r5, r6, r7, r8, lr}
 960              		.cfi_def_cfa_offset 24
 961              		.cfi_offset 4, -24
 962              		.cfi_offset 5, -20
 963              		.cfi_offset 6, -16
 964              		.cfi_offset 7, -12
 965              		.cfi_offset 8, -8
 966              		.cfi_offset 14, -4
 967              		.loc 1 269 0
 968 0004 154B     		ldr	r3, .L42
 969              		.loc 1 268 0
 970 0006 164A     		ldr	r2, .L42+4
 971              		.loc 1 269 0
 972 0008 9B69     		ldr	r3, [r3, #24]
 973              		.loc 1 268 0
 974 000a D2F80080 		ldr	r8, [r2]
 975              	.LVL117:
 976              		.loc 1 269 0
 977 000e 9E68     		ldr	r6, [r3, #8]
 978 0010 144F     		ldr	r7, .L42+8
 979              		.loc 1 265 0
 980 0012 82B0     		sub	sp, sp, #8
 981              		.cfi_def_cfa_offset 32
 982              		.loc 1 270 0
 983 0014 FFF7FEFF 		bl	test_wait_tick
 984              	.LVL118:
 985              		.loc 1 271 0
 986 0018 4FF47A70 		mov	r0, #1000
 987 001c FFF7FEFF 		bl	test_start_timer
 988              	.LVL119:
 989              		.loc 1 267 0
 990 0020 0024     		movs	r4, #0
 991              		.loc 1 269 0
 992 0022 013E     		subs	r6, r6, #1
 993              	.LVL120:
 994              		.loc 1 273 0
 995 0024 2546     		mov	r5, r4
 996              	.LVL121:
 997              	.L41:
 998              		.loc 1 273 0 is_stmt 0 discriminator 1
 999 0026 104B     		ldr	r3, .L42+12
 1000 0028 0095     		str	r5, [sp]
 1001 002a 4FF4A871 		mov	r1, #336
 1002 002e 3246     		mov	r2, r6
 1003 0030 4046     		mov	r0, r8
 1004 0032 FFF7FEFF 		bl	chThdCreateStatic
 1005              	.LVL122:
 1006 0036 FFF7FEFF 		bl	chThdWait
 1007              	.LVL123:
 1008              		.loc 1 278 0 is_stmt 1 discriminator 1
 1009 003a 3B78     		ldrb	r3, [r7]	@ zero_extendqisi2
 1010              		.loc 1 274 0 discriminator 1
 1011 003c 0134     		adds	r4, r4, #1
 1012              	.LVL124:
 1013              		.loc 1 278 0 discriminator 1
ARM GAS  /tmp/ccmdHemr.s 			page 19


 1014 003e 002B     		cmp	r3, #0
 1015 0040 F1D0     		beq	.L41
 1016              		.loc 1 279 0
 1017 0042 0A48     		ldr	r0, .L42+16
 1018 0044 FFF7FEFF 		bl	test_print
 1019              	.LVL125:
 1020              		.loc 1 280 0
 1021 0048 2046     		mov	r0, r4
 1022 004a FFF7FEFF 		bl	test_printn
 1023              	.LVL126:
 1024              		.loc 1 281 0
 1025 004e 0848     		ldr	r0, .L42+20
 1026              		.loc 1 282 0
 1027 0050 02B0     		add	sp, sp, #8
 1028              		@ sp needed
 1029 0052 BDE8F041 		pop	{r4, r5, r6, r7, r8, lr}
 1030              	.LVL127:
 1031              		.loc 1 281 0
 1032 0056 FFF7FEBF 		b	test_println
 1033              	.LVL128:
 1034              	.L43:
 1035 005a 00BF     		.align	2
 1036              	.L42:
 1037 005c 00000000 		.word	rlist
 1038 0060 00000000 		.word	wa
 1039 0064 00000000 		.word	test_timer_done
 1040 0068 00000000 		.word	thread2
 1041 006c A8000000 		.word	.LC11
 1042 0070 B8000000 		.word	.LC12
 1043              		.cfi_endproc
 1044              	.LFE15:
 1045              		.size	bmk5_execute, .-bmk5_execute
 1046 0074 AFF30080 		.section	.text.bmk7_execute,"ax",%progbits
 1046      AFF30080 
 1046      AFF30080 
 1047              		.align	2
 1048              		.p2align 4,,15
 1049              		.thumb
 1050              		.thumb_func
 1051              		.type	bmk7_execute, %function
 1052              	bmk7_execute:
 1053              	.LFB19:
 1054              		.loc 1 354 0
 1055              		.cfi_startproc
 1056              		@ args = 0, pretend = 0, frame = 0
 1057              		@ frame_needed = 0, uses_anonymous_args = 0
 1058 0000 2DE9F041 		push	{r4, r5, r6, r7, r8, lr}
 1059              		.cfi_def_cfa_offset 24
 1060              		.cfi_offset 4, -24
 1061              		.cfi_offset 5, -20
 1062              		.cfi_offset 6, -16
 1063              		.cfi_offset 7, -12
 1064              		.cfi_offset 8, -8
 1065              		.cfi_offset 14, -4
 1066              		.loc 1 357 0
 1067 0004 DFF80081 		ldr	r8, .L47+32
 1068 0008 374F     		ldr	r7, .L47
ARM GAS  /tmp/ccmdHemr.s 			page 20


 1069 000a D8F81830 		ldr	r3, [r8, #24]
 1070 000e 3868     		ldr	r0, [r7]
 1071 0010 9A68     		ldr	r2, [r3, #8]
 1072 0012 364B     		ldr	r3, .L47+4
 1073 0014 364E     		ldr	r6, .L47+8
 1074 0016 374D     		ldr	r5, .L47+12
 1075              		.loc 1 354 0
 1076 0018 82B0     		sub	sp, sp, #8
 1077              		.cfi_def_cfa_offset 32
 1078              		.loc 1 357 0
 1079 001a 0024     		movs	r4, #0
 1080 001c 0532     		adds	r2, r2, #5
 1081 001e 4FF4A871 		mov	r1, #336
 1082 0022 0094     		str	r4, [sp]
 1083 0024 FFF7FEFF 		bl	chThdCreateStatic
 1084              	.LVL129:
 1085              		.loc 1 358 0
 1086 0028 D8F81820 		ldr	r2, [r8, #24]
 1087 002c 7B68     		ldr	r3, [r7, #4]
 1088 002e 9268     		ldr	r2, [r2, #8]
 1089              		.loc 1 357 0
 1090 0030 3060     		str	r0, [r6]
 1091              		.loc 1 358 0
 1092 0032 0432     		adds	r2, r2, #4
 1093 0034 1846     		mov	r0, r3
 1094 0036 4FF4A871 		mov	r1, #336
 1095 003a 2C4B     		ldr	r3, .L47+4
 1096 003c 0094     		str	r4, [sp]
 1097 003e FFF7FEFF 		bl	chThdCreateStatic
 1098              	.LVL130:
 1099              		.loc 1 359 0
 1100 0042 D8F81820 		ldr	r2, [r8, #24]
 1101 0046 BB68     		ldr	r3, [r7, #8]
 1102 0048 9268     		ldr	r2, [r2, #8]
 1103              		.loc 1 358 0
 1104 004a 7060     		str	r0, [r6, #4]
 1105              		.loc 1 359 0
 1106 004c 0332     		adds	r2, r2, #3
 1107 004e 1846     		mov	r0, r3
 1108 0050 4FF4A871 		mov	r1, #336
 1109 0054 254B     		ldr	r3, .L47+4
 1110 0056 0094     		str	r4, [sp]
 1111 0058 FFF7FEFF 		bl	chThdCreateStatic
 1112              	.LVL131:
 1113              		.loc 1 360 0
 1114 005c D8F81820 		ldr	r2, [r8, #24]
 1115 0060 FB68     		ldr	r3, [r7, #12]
 1116 0062 9268     		ldr	r2, [r2, #8]
 1117              		.loc 1 359 0
 1118 0064 B060     		str	r0, [r6, #8]
 1119              		.loc 1 360 0
 1120 0066 0232     		adds	r2, r2, #2
 1121 0068 1846     		mov	r0, r3
 1122 006a 4FF4A871 		mov	r1, #336
 1123 006e 1F4B     		ldr	r3, .L47+4
 1124 0070 0094     		str	r4, [sp]
 1125 0072 FFF7FEFF 		bl	chThdCreateStatic
ARM GAS  /tmp/ccmdHemr.s 			page 21


 1126              	.LVL132:
 1127              		.loc 1 361 0
 1128 0076 D8F81820 		ldr	r2, [r8, #24]
 1129 007a 3B69     		ldr	r3, [r7, #16]
 1130 007c 9268     		ldr	r2, [r2, #8]
 1131              		.loc 1 360 0
 1132 007e F060     		str	r0, [r6, #12]
 1133              		.loc 1 361 0
 1134 0080 0132     		adds	r2, r2, #1
 1135 0082 1846     		mov	r0, r3
 1136 0084 4FF4A871 		mov	r1, #336
 1137 0088 184B     		ldr	r3, .L47+4
 1138 008a 0094     		str	r4, [sp]
 1139 008c FFF7FEFF 		bl	chThdCreateStatic
 1140              	.LVL133:
 1141 0090 3061     		str	r0, [r6, #16]
 1142              	.LVL134:
 1143              		.loc 1 364 0
 1144 0092 FFF7FEFF 		bl	test_wait_tick
 1145              	.LVL135:
 1146              		.loc 1 365 0
 1147 0096 4FF47A70 		mov	r0, #1000
 1148 009a FFF7FEFF 		bl	test_start_timer
 1149              	.LVL136:
 1150              	.L46:
 1151              		.loc 1 367 0 discriminator 1
 1152 009e 1648     		ldr	r0, .L47+16
 1153 00a0 0021     		movs	r1, #0
 1154 00a2 FFF7FEFF 		bl	chSemReset
 1155              	.LVL137:
 1156              		.loc 1 372 0 discriminator 1
 1157 00a6 2B78     		ldrb	r3, [r5]	@ zero_extendqisi2
 1158              		.loc 1 368 0 discriminator 1
 1159 00a8 0134     		adds	r4, r4, #1
 1160              	.LVL138:
 1161              		.loc 1 372 0 discriminator 1
 1162 00aa 002B     		cmp	r3, #0
 1163 00ac F7D0     		beq	.L46
 1164              		.loc 1 373 0
 1165 00ae FFF7FEFF 		bl	test_terminate_threads
 1166              	.LVL139:
 1167              		.loc 1 374 0
 1168 00b2 0021     		movs	r1, #0
 1169 00b4 1048     		ldr	r0, .L47+16
 1170 00b6 FFF7FEFF 		bl	chSemReset
 1171              	.LVL140:
 1172              		.loc 1 375 0
 1173 00ba FFF7FEFF 		bl	test_wait_threads
 1174              	.LVL141:
 1175              		.loc 1 377 0
 1176 00be 0F48     		ldr	r0, .L47+20
 1177 00c0 FFF7FEFF 		bl	test_print
 1178              	.LVL142:
 1179              		.loc 1 378 0
 1180 00c4 2046     		mov	r0, r4
 1181 00c6 FFF7FEFF 		bl	test_printn
 1182              	.LVL143:
ARM GAS  /tmp/ccmdHemr.s 			page 22


 1183              		.loc 1 379 0
 1184 00ca 0D48     		ldr	r0, .L47+24
 1185 00cc FFF7FEFF 		bl	test_print
 1186              	.LVL144:
 1187              		.loc 1 380 0
 1188 00d0 04EB4400 		add	r0, r4, r4, lsl #1
 1189 00d4 4000     		lsls	r0, r0, #1
 1190 00d6 FFF7FEFF 		bl	test_printn
 1191              	.LVL145:
 1192              		.loc 1 381 0
 1193 00da 0A48     		ldr	r0, .L47+28
 1194              		.loc 1 382 0
 1195 00dc 02B0     		add	sp, sp, #8
 1196              		@ sp needed
 1197 00de BDE8F041 		pop	{r4, r5, r6, r7, r8, lr}
 1198              	.LVL146:
 1199              		.loc 1 381 0
 1200 00e2 FFF7FEBF 		b	test_println
 1201              	.LVL147:
 1202              	.L48:
 1203 00e6 00BF     		.align	2
 1204              	.L47:
 1205 00e8 00000000 		.word	wa
 1206 00ec 00000000 		.word	thread3
 1207 00f0 00000000 		.word	threads
 1208 00f4 00000000 		.word	test_timer_done
 1209 00f8 00000000 		.word	.LANCHOR0
 1210 00fc A8000000 		.word	.LC11
 1211 0100 DC000000 		.word	.LC15
 1212 0104 D0000000 		.word	.LC14
 1213 0108 00000000 		.word	rlist
 1214              		.cfi_endproc
 1215              	.LFE19:
 1216              		.size	bmk7_execute, .-bmk7_execute
 1217 010c AFF30080 		.section	.text.thread3,"ax",%progbits
 1218              		.align	2
 1219              		.p2align 4,,15
 1220              		.thumb
 1221              		.thumb_func
 1222              		.type	thread3, %function
 1223              	thread3:
 1224              	.LFB17:
 1225              		.loc 1 341 0
 1226              		.cfi_startproc
 1227              		@ args = 0, pretend = 0, frame = 0
 1228              		@ frame_needed = 0, uses_anonymous_args = 0
 1229              	.LVL148:
 1230 0000 10B5     		push	{r4, lr}
 1231              		.cfi_def_cfa_offset 8
 1232              		.cfi_offset 4, -8
 1233              		.cfi_offset 14, -4
 1234              		.loc 1 344 0
 1235 0002 084C     		ldr	r4, .L54
 1236 0004 A369     		ldr	r3, [r4, #24]
 1237 0006 93F82130 		ldrb	r3, [r3, #33]	@ zero_extendqisi2
 1238 000a 5A07     		lsls	r2, r3, #29
 1239 000c 07D4     		bmi	.L53
ARM GAS  /tmp/ccmdHemr.s 			page 23


 1240              	.LVL149:
 1241              	.L52:
 1242              		.loc 1 345 0
 1243 000e 0648     		ldr	r0, .L54+4
 1244 0010 FFF7FEFF 		bl	chSemWait
 1245              	.LVL150:
 1246              		.loc 1 344 0
 1247 0014 A369     		ldr	r3, [r4, #24]
 1248 0016 93F82130 		ldrb	r3, [r3, #33]	@ zero_extendqisi2
 1249 001a 5B07     		lsls	r3, r3, #29
 1250 001c F7D5     		bpl	.L52
 1251              	.L53:
 1252              		.loc 1 347 0
 1253 001e 0020     		movs	r0, #0
 1254 0020 10BD     		pop	{r4, pc}
 1255              	.L55:
 1256 0022 00BF     		.align	2
 1257              	.L54:
 1258 0024 00000000 		.word	rlist
 1259 0028 00000000 		.word	.LANCHOR0
 1260              		.cfi_endproc
 1261              	.LFE17:
 1262              		.size	thread3, .-thread3
 1263              		.section	.text.bmk7_setup,"ax",%progbits
 1264              		.align	2
 1265              		.p2align 4,,15
 1266              		.thumb
 1267              		.thumb_func
 1268              		.type	bmk7_setup, %function
 1269              	bmk7_setup:
 1270              	.LFB18:
 1271              		.loc 1 349 0
 1272              		.cfi_startproc
 1273              		@ args = 0, pretend = 0, frame = 0
 1274              		@ frame_needed = 0, uses_anonymous_args = 0
 1275              		@ link register save eliminated.
 1276              		.loc 1 351 0
 1277 0000 0148     		ldr	r0, .L57
 1278 0002 0021     		movs	r1, #0
 1279 0004 FFF7FEBF 		b	chSemInit
 1280              	.LVL151:
 1281              	.L58:
 1282              		.align	2
 1283              	.L57:
 1284 0008 00000000 		.word	.LANCHOR0
 1285              		.cfi_endproc
 1286              	.LFE18:
 1287              		.size	bmk7_setup, .-bmk7_setup
 1288 000c AFF30080 		.section	.text.bmk11_setup,"ax",%progbits
 1289              		.align	2
 1290              		.p2align 4,,15
 1291              		.thumb
 1292              		.thumb_func
 1293              		.type	bmk11_setup, %function
 1294              	bmk11_setup:
 1295              	.LFB25:
 1296              		.loc 1 545 0
ARM GAS  /tmp/ccmdHemr.s 			page 24


 1297              		.cfi_startproc
 1298              		@ args = 0, pretend = 0, frame = 0
 1299              		@ frame_needed = 0, uses_anonymous_args = 0
 1300              		@ link register save eliminated.
 1301              		.loc 1 547 0
 1302 0000 0148     		ldr	r0, .L60
 1303 0002 0121     		movs	r1, #1
 1304 0004 FFF7FEBF 		b	chSemInit
 1305              	.LVL152:
 1306              	.L61:
 1307              		.align	2
 1308              	.L60:
 1309 0008 00000000 		.word	.LANCHOR0
 1310              		.cfi_endproc
 1311              	.LFE25:
 1312              		.size	bmk11_setup, .-bmk11_setup
 1313 000c AFF30080 		.section	.text.bmk8_execute,"ax",%progbits
 1314              		.align	2
 1315              		.p2align 4,,15
 1316              		.thumb
 1317              		.thumb_func
 1318              		.type	bmk8_execute, %function
 1319              	bmk8_execute:
 1320              	.LFB21:
 1321              		.loc 1 416 0
 1322              		.cfi_startproc
 1323              		@ args = 0, pretend = 0, frame = 8
 1324              		@ frame_needed = 0, uses_anonymous_args = 0
 1325 0000 2DE9F041 		push	{r4, r5, r6, r7, r8, lr}
 1326              		.cfi_def_cfa_offset 24
 1327              		.cfi_offset 4, -24
 1328              		.cfi_offset 5, -20
 1329              		.cfi_offset 6, -16
 1330              		.cfi_offset 7, -12
 1331              		.cfi_offset 8, -8
 1332              		.cfi_offset 14, -4
 1333 0004 84B0     		sub	sp, sp, #16
 1334              		.cfi_def_cfa_offset 40
 1335              		.loc 1 419 0
 1336 0006 04AC     		add	r4, sp, #16
 1337              		.loc 1 422 0
 1338 0008 DFF8CC80 		ldr	r8, .L63+20
 1339 000c 2D4F     		ldr	r7, .L63
 1340 000e 2E4E     		ldr	r6, .L63+4
 1341 0010 2E4D     		ldr	r5, .L63+8
 1342              		.loc 1 419 0
 1343 0012 0023     		movs	r3, #0
 1344 0014 44F8043D 		str	r3, [r4, #-4]!
 1345              		.loc 1 420 0
 1346 0018 FFF7FEFF 		bl	test_wait_tick
 1347              	.LVL153:
 1348              		.loc 1 422 0
 1349 001c D8F81830 		ldr	r3, [r8, #24]
 1350 0020 3868     		ldr	r0, [r7]
 1351 0022 9A68     		ldr	r2, [r3, #8]
 1352 0024 0094     		str	r4, [sp]
 1353 0026 3346     		mov	r3, r6
ARM GAS  /tmp/ccmdHemr.s 			page 25


 1354 0028 013A     		subs	r2, r2, #1
 1355 002a 4FF4A871 		mov	r1, #336
 1356 002e FFF7FEFF 		bl	chThdCreateStatic
 1357              	.LVL154:
 1358              		.loc 1 423 0
 1359 0032 D8F81820 		ldr	r2, [r8, #24]
 1360 0036 7B68     		ldr	r3, [r7, #4]
 1361 0038 9268     		ldr	r2, [r2, #8]
 1362              		.loc 1 422 0
 1363 003a 2860     		str	r0, [r5]
 1364              		.loc 1 423 0
 1365 003c 013A     		subs	r2, r2, #1
 1366 003e 0094     		str	r4, [sp]
 1367 0040 1846     		mov	r0, r3
 1368 0042 4FF4A871 		mov	r1, #336
 1369 0046 3346     		mov	r3, r6
 1370 0048 FFF7FEFF 		bl	chThdCreateStatic
 1371              	.LVL155:
 1372              		.loc 1 424 0
 1373 004c D8F81820 		ldr	r2, [r8, #24]
 1374 0050 BB68     		ldr	r3, [r7, #8]
 1375 0052 9268     		ldr	r2, [r2, #8]
 1376              		.loc 1 423 0
 1377 0054 6860     		str	r0, [r5, #4]
 1378              		.loc 1 424 0
 1379 0056 013A     		subs	r2, r2, #1
 1380 0058 0094     		str	r4, [sp]
 1381 005a 1846     		mov	r0, r3
 1382 005c 4FF4A871 		mov	r1, #336
 1383 0060 3346     		mov	r3, r6
 1384 0062 FFF7FEFF 		bl	chThdCreateStatic
 1385              	.LVL156:
 1386              		.loc 1 425 0
 1387 0066 D8F81820 		ldr	r2, [r8, #24]
 1388 006a FB68     		ldr	r3, [r7, #12]
 1389 006c 9268     		ldr	r2, [r2, #8]
 1390              		.loc 1 424 0
 1391 006e A860     		str	r0, [r5, #8]
 1392              		.loc 1 425 0
 1393 0070 013A     		subs	r2, r2, #1
 1394 0072 0094     		str	r4, [sp]
 1395 0074 1846     		mov	r0, r3
 1396 0076 4FF4A871 		mov	r1, #336
 1397 007a 3346     		mov	r3, r6
 1398 007c FFF7FEFF 		bl	chThdCreateStatic
 1399              	.LVL157:
 1400              		.loc 1 426 0
 1401 0080 D8F81820 		ldr	r2, [r8, #24]
 1402 0084 3B69     		ldr	r3, [r7, #16]
 1403 0086 9268     		ldr	r2, [r2, #8]
 1404              		.loc 1 425 0
 1405 0088 E860     		str	r0, [r5, #12]
 1406              		.loc 1 426 0
 1407 008a 013A     		subs	r2, r2, #1
 1408 008c 4FF4A871 		mov	r1, #336
 1409 0090 0094     		str	r4, [sp]
 1410 0092 1846     		mov	r0, r3
ARM GAS  /tmp/ccmdHemr.s 			page 26


 1411 0094 3346     		mov	r3, r6
 1412 0096 FFF7FEFF 		bl	chThdCreateStatic
 1413              	.LVL158:
 1414 009a 2861     		str	r0, [r5, #16]
 1415              		.loc 1 428 0
 1416 009c 4FF47A70 		mov	r0, #1000
 1417 00a0 FFF7FEFF 		bl	chThdSleep
 1418              	.LVL159:
 1419              		.loc 1 429 0
 1420 00a4 FFF7FEFF 		bl	test_terminate_threads
 1421              	.LVL160:
 1422              		.loc 1 430 0
 1423 00a8 FFF7FEFF 		bl	test_wait_threads
 1424              	.LVL161:
 1425              		.loc 1 432 0
 1426 00ac 0848     		ldr	r0, .L63+12
 1427 00ae FFF7FEFF 		bl	test_print
 1428              	.LVL162:
 1429              		.loc 1 433 0
 1430 00b2 0398     		ldr	r0, [sp, #12]
 1431 00b4 FFF7FEFF 		bl	test_printn
 1432              	.LVL163:
 1433              		.loc 1 434 0
 1434 00b8 0648     		ldr	r0, .L63+16
 1435 00ba FFF7FEFF 		bl	test_println
 1436              	.LVL164:
 1437              		.loc 1 435 0
 1438 00be 04B0     		add	sp, sp, #16
 1439              		@ sp needed
 1440 00c0 BDE8F081 		pop	{r4, r5, r6, r7, r8, pc}
 1441              	.L64:
 1442              		.align	2
 1443              	.L63:
 1444 00c4 00000000 		.word	wa
 1445 00c8 00000000 		.word	thread8
 1446 00cc 00000000 		.word	threads
 1447 00d0 A8000000 		.word	.LC11
 1448 00d4 D0000000 		.word	.LC14
 1449 00d8 00000000 		.word	rlist
 1450              		.cfi_endproc
 1451              	.LFE21:
 1452              		.size	bmk8_execute, .-bmk8_execute
 1453 00dc AFF30080 		.section	.text.thread8,"ax",%progbits
 1454              		.align	2
 1455              		.p2align 4,,15
 1456              		.thumb
 1457              		.thumb_func
 1458              		.type	thread8, %function
 1459              	thread8:
 1460              	.LFB20:
 1461              		.loc 1 401 0
 1462              		.cfi_startproc
 1463              		@ args = 0, pretend = 0, frame = 0
 1464              		@ frame_needed = 0, uses_anonymous_args = 0
 1465              	.LVL165:
 1466 0000 38B5     		push	{r3, r4, r5, lr}
 1467              		.cfi_def_cfa_offset 16
ARM GAS  /tmp/ccmdHemr.s 			page 27


 1468              		.cfi_offset 3, -16
 1469              		.cfi_offset 4, -12
 1470              		.cfi_offset 5, -8
 1471              		.cfi_offset 14, -4
 1472 0002 0A4D     		ldr	r5, .L68
 1473              		.loc 1 401 0
 1474 0004 0446     		mov	r4, r0
 1475              	.LVL166:
 1476              	.L67:
 1477              		.loc 1 404 0 discriminator 1
 1478 0006 FFF7FEFF 		bl	chThdYield
 1479              	.LVL167:
 1480              		.loc 1 405 0 discriminator 1
 1481 000a FFF7FEFF 		bl	chThdYield
 1482              	.LVL168:
 1483              		.loc 1 406 0 discriminator 1
 1484 000e FFF7FEFF 		bl	chThdYield
 1485              	.LVL169:
 1486              		.loc 1 407 0 discriminator 1
 1487 0012 FFF7FEFF 		bl	chThdYield
 1488              	.LVL170:
 1489              		.loc 1 408 0 discriminator 1
 1490 0016 2368     		ldr	r3, [r4]
 1491              		.loc 1 412 0 discriminator 1
 1492 0018 AA69     		ldr	r2, [r5, #24]
 1493              		.loc 1 408 0 discriminator 1
 1494 001a 0433     		adds	r3, r3, #4
 1495 001c 2360     		str	r3, [r4]
 1496              		.loc 1 412 0 discriminator 1
 1497 001e 92F82130 		ldrb	r3, [r2, #33]	@ zero_extendqisi2
 1498 0022 5B07     		lsls	r3, r3, #29
 1499 0024 EFD5     		bpl	.L67
 1500              		.loc 1 414 0
 1501 0026 0020     		movs	r0, #0
 1502 0028 38BD     		pop	{r3, r4, r5, pc}
 1503              	.LVL171:
 1504              	.L69:
 1505 002a 00BF     		.align	2
 1506              	.L68:
 1507 002c 00000000 		.word	rlist
 1508              		.cfi_endproc
 1509              	.LFE20:
 1510              		.size	thread8, .-thread8
 1511              		.section	.text.bmk9_execute,"ax",%progbits
 1512              		.align	2
 1513              		.p2align 4,,15
 1514              		.thumb
 1515              		.thumb_func
 1516              		.type	bmk9_execute, %function
 1517              	bmk9_execute:
 1518              	.LFB22:
 1519              		.loc 1 455 0
 1520              		.cfi_startproc
 1521              		@ args = 0, pretend = 0, frame = 0
 1522              		@ frame_needed = 0, uses_anonymous_args = 0
 1523 0000 30B5     		push	{r4, r5, lr}
 1524              		.cfi_def_cfa_offset 12
ARM GAS  /tmp/ccmdHemr.s 			page 28


 1525              		.cfi_offset 4, -12
 1526              		.cfi_offset 5, -8
 1527              		.cfi_offset 14, -4
 1528 0002 83B0     		sub	sp, sp, #12
 1529              		.cfi_def_cfa_offset 24
 1530              		.loc 1 460 0
 1531 0004 0024     		movs	r4, #0
 1532 0006 2346     		mov	r3, r4
 1533 0008 2548     		ldr	r0, .L73
 1534 000a 2649     		ldr	r1, .L73+4
 1535 000c 0094     		str	r4, [sp]
 1536 000e 1022     		movs	r2, #16
 1537 0010 FFF7FEFF 		bl	chIQInit
 1538              	.LVL172:
 1539              		.loc 1 462 0
 1540 0014 FFF7FEFF 		bl	test_wait_tick
 1541              	.LVL173:
 1542              		.loc 1 463 0
 1543 0018 4FF47A70 		mov	r0, #1000
 1544 001c 224D     		ldr	r5, .L73+8
 1545 001e FFF7FEFF 		bl	test_start_timer
 1546              	.LVL174:
 1547              	.L72:
 1548              	.LBB9:
 1549              		.loc 1 465 0 discriminator 1
 1550 0022 2023     		movs	r3, #32
 1551              	@ 465 "../../../test/testbmk.c" 1
 1552 0024 83F31188 		msr     BASEPRI, r3
 1553              	@ 0 "" 2
 1554              		.thumb
 1555              	.LBE9:
 1556 0028 FFF7FEFF 		bl	dbg_check_lock
 1557              	.LVL175:
 1558              		.loc 1 466 0 discriminator 1
 1559 002c 0021     		movs	r1, #0
 1560 002e 1C48     		ldr	r0, .L73
 1561 0030 FFF7FEFF 		bl	chIQPutI
 1562              	.LVL176:
 1563              		.loc 1 467 0 discriminator 1
 1564 0034 0121     		movs	r1, #1
 1565 0036 1A48     		ldr	r0, .L73
 1566 0038 FFF7FEFF 		bl	chIQPutI
 1567              	.LVL177:
 1568              		.loc 1 468 0 discriminator 1
 1569 003c 0221     		movs	r1, #2
 1570 003e 1848     		ldr	r0, .L73
 1571 0040 FFF7FEFF 		bl	chIQPutI
 1572              	.LVL178:
 1573              		.loc 1 469 0 discriminator 1
 1574 0044 0321     		movs	r1, #3
 1575 0046 1648     		ldr	r0, .L73
 1576 0048 FFF7FEFF 		bl	chIQPutI
 1577              	.LVL179:
 1578              		.loc 1 470 0 discriminator 1
 1579 004c FFF7FEFF 		bl	dbg_check_unlock
 1580              	.LVL180:
 1581              	.LBB10:
ARM GAS  /tmp/ccmdHemr.s 			page 29


 1582 0050 0023     		movs	r3, #0
 1583              	@ 470 "../../../test/testbmk.c" 1
 1584 0052 83F31188 		msr     BASEPRI, r3
 1585              	@ 0 "" 2
 1586              		.thumb
 1587              	.LBE10:
 1588              		.loc 1 471 0 discriminator 1
 1589 0056 4FF0FF31 		mov	r1, #-1
 1590 005a 1148     		ldr	r0, .L73
 1591 005c FFF7FEFF 		bl	chIQGetTimeout
 1592              	.LVL181:
 1593              		.loc 1 472 0 discriminator 1
 1594 0060 4FF0FF31 		mov	r1, #-1
 1595 0064 0E48     		ldr	r0, .L73
 1596 0066 FFF7FEFF 		bl	chIQGetTimeout
 1597              	.LVL182:
 1598              		.loc 1 473 0 discriminator 1
 1599 006a 4FF0FF31 		mov	r1, #-1
 1600 006e 0C48     		ldr	r0, .L73
 1601 0070 FFF7FEFF 		bl	chIQGetTimeout
 1602              	.LVL183:
 1603              		.loc 1 474 0 discriminator 1
 1604 0074 0A48     		ldr	r0, .L73
 1605 0076 4FF0FF31 		mov	r1, #-1
 1606 007a FFF7FEFF 		bl	chIQGetTimeout
 1607              	.LVL184:
 1608              		.loc 1 479 0 discriminator 1
 1609 007e 2B78     		ldrb	r3, [r5]	@ zero_extendqisi2
 1610              		.loc 1 475 0 discriminator 1
 1611 0080 0134     		adds	r4, r4, #1
 1612              	.LVL185:
 1613              		.loc 1 479 0 discriminator 1
 1614 0082 002B     		cmp	r3, #0
 1615 0084 CDD0     		beq	.L72
 1616              		.loc 1 480 0
 1617 0086 0948     		ldr	r0, .L73+12
 1618 0088 FFF7FEFF 		bl	test_print
 1619              	.LVL186:
 1620              		.loc 1 481 0
 1621 008c A000     		lsls	r0, r4, #2
 1622 008e FFF7FEFF 		bl	test_printn
 1623              	.LVL187:
 1624              		.loc 1 482 0
 1625 0092 0748     		ldr	r0, .L73+16
 1626              		.loc 1 483 0
 1627 0094 03B0     		add	sp, sp, #12
 1628              		@ sp needed
 1629 0096 BDE83040 		pop	{r4, r5, lr}
 1630              	.LVL188:
 1631              		.loc 1 482 0
 1632 009a FFF7FEBF 		b	test_println
 1633              	.LVL189:
 1634              	.L74:
 1635 009e 00BF     		.align	2
 1636              	.L73:
 1637 00a0 00000000 		.word	.LANCHOR1
 1638 00a4 00000000 		.word	.LANCHOR2
ARM GAS  /tmp/ccmdHemr.s 			page 30


 1639 00a8 00000000 		.word	test_timer_done
 1640 00ac A8000000 		.word	.LC11
 1641 00b0 F0000000 		.word	.LC16
 1642              		.cfi_endproc
 1643              	.LFE22:
 1644              		.size	bmk9_execute, .-bmk9_execute
 1645 00b4 AFF30080 		.section	.text.bmk10_execute,"ax",%progbits
 1645      AFF30080 
 1645      AFF30080 
 1646              		.align	2
 1647              		.p2align 4,,15
 1648              		.thumb
 1649              		.thumb_func
 1650              		.type	bmk10_execute, %function
 1651              	bmk10_execute:
 1652              	.LFB24:
 1653              		.loc 1 504 0
 1654              		.cfi_startproc
 1655              		@ args = 0, pretend = 0, frame = 0
 1656              		@ frame_needed = 0, uses_anonymous_args = 0
 1657              	.LVL190:
 1658 0000 38B5     		push	{r3, r4, r5, lr}
 1659              		.cfi_def_cfa_offset 16
 1660              		.cfi_offset 3, -16
 1661              		.cfi_offset 4, -12
 1662              		.cfi_offset 5, -8
 1663              		.cfi_offset 14, -4
 1664              		.loc 1 508 0
 1665 0002 FFF7FEFF 		bl	test_wait_tick
 1666              	.LVL191:
 1667              		.loc 1 509 0
 1668 0006 4FF47A70 		mov	r0, #1000
 1669 000a FFF7FEFF 		bl	test_start_timer
 1670              	.LVL192:
 1671 000e 174D     		ldr	r5, .L78
 1672              		.loc 1 506 0
 1673 0010 0024     		movs	r4, #0
 1674              	.LVL193:
 1675              	.L77:
 1676              	.LBB11:
 1677              		.loc 1 511 0 discriminator 1
 1678 0012 2023     		movs	r3, #32
 1679              	@ 511 "../../../test/testbmk.c" 1
 1680 0014 83F31188 		msr     BASEPRI, r3
 1681              	@ 0 "" 2
 1682              		.thumb
 1683              	.LBE11:
 1684 0018 FFF7FEFF 		bl	dbg_check_lock
 1685              	.LVL194:
 1686              		.loc 1 512 0 discriminator 1
 1687 001c 1448     		ldr	r0, .L78+4
 1688 001e 154A     		ldr	r2, .L78+8
 1689 0020 0121     		movs	r1, #1
 1690 0022 0023     		movs	r3, #0
 1691 0024 FFF7FEFF 		bl	chVTSetI
 1692              	.LVL195:
 1693              		.loc 1 513 0 discriminator 1
ARM GAS  /tmp/ccmdHemr.s 			page 31


 1694 0028 124A     		ldr	r2, .L78+8
 1695 002a 1348     		ldr	r0, .L78+12
 1696 002c 42F21071 		movw	r1, #10000
 1697 0030 0023     		movs	r3, #0
 1698 0032 FFF7FEFF 		bl	chVTSetI
 1699              	.LVL196:
 1700              		.loc 1 514 0 discriminator 1
 1701 0036 0E48     		ldr	r0, .L78+4
 1702 0038 FFF7FEFF 		bl	chVTResetI
 1703              	.LVL197:
 1704              		.loc 1 515 0 discriminator 1
 1705 003c 0E48     		ldr	r0, .L78+12
 1706 003e FFF7FEFF 		bl	chVTResetI
 1707              	.LVL198:
 1708              		.loc 1 516 0 discriminator 1
 1709 0042 FFF7FEFF 		bl	dbg_check_unlock
 1710              	.LVL199:
 1711              	.LBB12:
 1712 0046 0023     		movs	r3, #0
 1713              	@ 516 "../../../test/testbmk.c" 1
 1714 0048 83F31188 		msr     BASEPRI, r3
 1715              	@ 0 "" 2
 1716              		.thumb
 1717              	.LBE12:
 1718              		.loc 1 521 0 discriminator 1
 1719 004c 2B78     		ldrb	r3, [r5]	@ zero_extendqisi2
 1720              		.loc 1 517 0 discriminator 1
 1721 004e 0134     		adds	r4, r4, #1
 1722              	.LVL200:
 1723              		.loc 1 521 0 discriminator 1
 1724 0050 002B     		cmp	r3, #0
 1725 0052 DED0     		beq	.L77
 1726              		.loc 1 522 0
 1727 0054 0948     		ldr	r0, .L78+16
 1728 0056 FFF7FEFF 		bl	test_print
 1729              	.LVL201:
 1730              		.loc 1 523 0
 1731 005a 6000     		lsls	r0, r4, #1
 1732 005c FFF7FEFF 		bl	test_printn
 1733              	.LVL202:
 1734              		.loc 1 524 0
 1735 0060 0748     		ldr	r0, .L78+20
 1736              		.loc 1 525 0
 1737 0062 BDE83840 		pop	{r3, r4, r5, lr}
 1738              	.LVL203:
 1739              		.loc 1 524 0
 1740 0066 FFF7FEBF 		b	test_println
 1741              	.LVL204:
 1742              	.L79:
 1743 006a 00BF     		.align	2
 1744              	.L78:
 1745 006c 00000000 		.word	test_timer_done
 1746 0070 00000000 		.word	.LANCHOR3
 1747 0074 00000000 		.word	tmo
 1748 0078 00000000 		.word	.LANCHOR4
 1749 007c A8000000 		.word	.LC11
 1750 0080 FC000000 		.word	.LC17
ARM GAS  /tmp/ccmdHemr.s 			page 32


 1751              		.cfi_endproc
 1752              	.LFE24:
 1753              		.size	bmk10_execute, .-bmk10_execute
 1754 0084 AFF30080 		.section	.text.bmk11_execute,"ax",%progbits
 1754      AFF30080 
 1754      AFF30080 
 1755              		.align	2
 1756              		.p2align 4,,15
 1757              		.thumb
 1758              		.thumb_func
 1759              		.type	bmk11_execute, %function
 1760              	bmk11_execute:
 1761              	.LFB26:
 1762              		.loc 1 550 0
 1763              		.cfi_startproc
 1764              		@ args = 0, pretend = 0, frame = 0
 1765              		@ frame_needed = 0, uses_anonymous_args = 0
 1766              	.LVL205:
 1767 0000 38B5     		push	{r3, r4, r5, lr}
 1768              		.cfi_def_cfa_offset 16
 1769              		.cfi_offset 3, -16
 1770              		.cfi_offset 4, -12
 1771              		.cfi_offset 5, -8
 1772              		.cfi_offset 14, -4
 1773              		.loc 1 553 0
 1774 0002 FFF7FEFF 		bl	test_wait_tick
 1775              	.LVL206:
 1776              		.loc 1 554 0
 1777 0006 4FF47A70 		mov	r0, #1000
 1778 000a FFF7FEFF 		bl	test_start_timer
 1779              	.LVL207:
 1780 000e 144D     		ldr	r5, .L83
 1781              		.loc 1 551 0
 1782 0010 0024     		movs	r4, #0
 1783              	.LVL208:
 1784              	.L82:
 1785              		.loc 1 556 0 discriminator 1
 1786 0012 1448     		ldr	r0, .L83+4
 1787 0014 FFF7FEFF 		bl	chSemWait
 1788              	.LVL209:
 1789              		.loc 1 557 0 discriminator 1
 1790 0018 1248     		ldr	r0, .L83+4
 1791 001a FFF7FEFF 		bl	chSemSignal
 1792              	.LVL210:
 1793              		.loc 1 558 0 discriminator 1
 1794 001e 1148     		ldr	r0, .L83+4
 1795 0020 FFF7FEFF 		bl	chSemWait
 1796              	.LVL211:
 1797              		.loc 1 559 0 discriminator 1
 1798 0024 0F48     		ldr	r0, .L83+4
 1799 0026 FFF7FEFF 		bl	chSemSignal
 1800              	.LVL212:
 1801              		.loc 1 560 0 discriminator 1
 1802 002a 0E48     		ldr	r0, .L83+4
 1803 002c FFF7FEFF 		bl	chSemWait
 1804              	.LVL213:
 1805              		.loc 1 561 0 discriminator 1
ARM GAS  /tmp/ccmdHemr.s 			page 33


 1806 0030 0C48     		ldr	r0, .L83+4
 1807 0032 FFF7FEFF 		bl	chSemSignal
 1808              	.LVL214:
 1809              		.loc 1 562 0 discriminator 1
 1810 0036 0B48     		ldr	r0, .L83+4
 1811 0038 FFF7FEFF 		bl	chSemWait
 1812              	.LVL215:
 1813              		.loc 1 563 0 discriminator 1
 1814 003c 0948     		ldr	r0, .L83+4
 1815 003e FFF7FEFF 		bl	chSemSignal
 1816              	.LVL216:
 1817              		.loc 1 568 0 discriminator 1
 1818 0042 2B78     		ldrb	r3, [r5]	@ zero_extendqisi2
 1819              		.loc 1 564 0 discriminator 1
 1820 0044 0134     		adds	r4, r4, #1
 1821              	.LVL217:
 1822              		.loc 1 568 0 discriminator 1
 1823 0046 002B     		cmp	r3, #0
 1824 0048 E3D0     		beq	.L82
 1825              		.loc 1 569 0
 1826 004a 0748     		ldr	r0, .L83+8
 1827 004c FFF7FEFF 		bl	test_print
 1828              	.LVL218:
 1829              		.loc 1 570 0
 1830 0050 A000     		lsls	r0, r4, #2
 1831 0052 FFF7FEFF 		bl	test_printn
 1832              	.LVL219:
 1833              		.loc 1 571 0
 1834 0056 0548     		ldr	r0, .L83+12
 1835              		.loc 1 572 0
 1836 0058 BDE83840 		pop	{r3, r4, r5, lr}
 1837              	.LVL220:
 1838              		.loc 1 571 0
 1839 005c FFF7FEBF 		b	test_println
 1840              	.LVL221:
 1841              	.L84:
 1842              		.align	2
 1843              	.L83:
 1844 0060 00000000 		.word	test_timer_done
 1845 0064 00000000 		.word	.LANCHOR0
 1846 0068 A8000000 		.word	.LC11
 1847 006c 08010000 		.word	.LC18
 1848              		.cfi_endproc
 1849              	.LFE26:
 1850              		.size	bmk11_execute, .-bmk11_execute
 1851              		.section	.text.bmk12_execute,"ax",%progbits
 1852              		.align	2
 1853              		.p2align 4,,15
 1854              		.thumb
 1855              		.thumb_func
 1856              		.type	bmk12_execute, %function
 1857              	bmk12_execute:
 1858              	.LFB28:
 1859              		.loc 1 598 0
 1860              		.cfi_startproc
 1861              		@ args = 0, pretend = 0, frame = 0
 1862              		@ frame_needed = 0, uses_anonymous_args = 0
ARM GAS  /tmp/ccmdHemr.s 			page 34


 1863              	.LVL222:
 1864 0000 38B5     		push	{r3, r4, r5, lr}
 1865              		.cfi_def_cfa_offset 16
 1866              		.cfi_offset 3, -16
 1867              		.cfi_offset 4, -12
 1868              		.cfi_offset 5, -8
 1869              		.cfi_offset 14, -4
 1870              		.loc 1 601 0
 1871 0002 FFF7FEFF 		bl	test_wait_tick
 1872              	.LVL223:
 1873              		.loc 1 602 0
 1874 0006 4FF47A70 		mov	r0, #1000
 1875 000a FFF7FEFF 		bl	test_start_timer
 1876              	.LVL224:
 1877 000e 124D     		ldr	r5, .L88
 1878              		.loc 1 599 0
 1879 0010 0024     		movs	r4, #0
 1880              	.LVL225:
 1881              	.L87:
 1882              		.loc 1 604 0 discriminator 1
 1883 0012 1248     		ldr	r0, .L88+4
 1884 0014 FFF7FEFF 		bl	chMtxLock
 1885              	.LVL226:
 1886              		.loc 1 605 0 discriminator 1
 1887 0018 FFF7FEFF 		bl	chMtxUnlock
 1888              	.LVL227:
 1889              		.loc 1 606 0 discriminator 1
 1890 001c 0F48     		ldr	r0, .L88+4
 1891 001e FFF7FEFF 		bl	chMtxLock
 1892              	.LVL228:
 1893              		.loc 1 607 0 discriminator 1
 1894 0022 FFF7FEFF 		bl	chMtxUnlock
 1895              	.LVL229:
 1896              		.loc 1 608 0 discriminator 1
 1897 0026 0D48     		ldr	r0, .L88+4
 1898 0028 FFF7FEFF 		bl	chMtxLock
 1899              	.LVL230:
 1900              		.loc 1 609 0 discriminator 1
 1901 002c FFF7FEFF 		bl	chMtxUnlock
 1902              	.LVL231:
 1903              		.loc 1 610 0 discriminator 1
 1904 0030 0A48     		ldr	r0, .L88+4
 1905 0032 FFF7FEFF 		bl	chMtxLock
 1906              	.LVL232:
 1907              		.loc 1 611 0 discriminator 1
 1908 0036 FFF7FEFF 		bl	chMtxUnlock
 1909              	.LVL233:
 1910              		.loc 1 616 0 discriminator 1
 1911 003a 2B78     		ldrb	r3, [r5]	@ zero_extendqisi2
 1912              		.loc 1 612 0 discriminator 1
 1913 003c 0134     		adds	r4, r4, #1
 1914              	.LVL234:
 1915              		.loc 1 616 0 discriminator 1
 1916 003e 002B     		cmp	r3, #0
 1917 0040 E7D0     		beq	.L87
 1918              		.loc 1 617 0
 1919 0042 0748     		ldr	r0, .L88+8
ARM GAS  /tmp/ccmdHemr.s 			page 35


 1920 0044 FFF7FEFF 		bl	test_print
 1921              	.LVL235:
 1922              		.loc 1 618 0
 1923 0048 A000     		lsls	r0, r4, #2
 1924 004a FFF7FEFF 		bl	test_printn
 1925              	.LVL236:
 1926              		.loc 1 619 0
 1927 004e 0548     		ldr	r0, .L88+12
 1928              		.loc 1 620 0
 1929 0050 BDE83840 		pop	{r3, r4, r5, lr}
 1930              	.LVL237:
 1931              		.loc 1 619 0
 1932 0054 FFF7FEBF 		b	test_println
 1933              	.LVL238:
 1934              	.L89:
 1935              		.align	2
 1936              	.L88:
 1937 0058 00000000 		.word	test_timer_done
 1938 005c 00000000 		.word	.LANCHOR5
 1939 0060 A8000000 		.word	.LC11
 1940 0064 18010000 		.word	.LC19
 1941              		.cfi_endproc
 1942              	.LFE28:
 1943              		.size	bmk12_execute, .-bmk12_execute
 1944 0068 AFF30080 		.section	.text.bmk12_setup,"ax",%progbits
 1944      AFF30080 
 1945              		.align	2
 1946              		.p2align 4,,15
 1947              		.thumb
 1948              		.thumb_func
 1949              		.type	bmk12_setup, %function
 1950              	bmk12_setup:
 1951              	.LFB27:
 1952              		.loc 1 593 0
 1953              		.cfi_startproc
 1954              		@ args = 0, pretend = 0, frame = 0
 1955              		@ frame_needed = 0, uses_anonymous_args = 0
 1956              		@ link register save eliminated.
 1957              		.loc 1 595 0
 1958 0000 0148     		ldr	r0, .L91
 1959 0002 FFF7FEBF 		b	chMtxInit
 1960              	.LVL239:
 1961              	.L92:
 1962 0006 00BF     		.align	2
 1963              	.L91:
 1964 0008 00000000 		.word	.LANCHOR5
 1965              		.cfi_endproc
 1966              	.LFE27:
 1967              		.size	bmk12_setup, .-bmk12_setup
 1968              		.global	patternbmk
 1969              		.global	testbmk13
 1970              		.global	testbmk12
 1971              		.global	testbmk11
 1972              		.global	testbmk10
 1973              		.global	testbmk9
 1974              		.global	testbmk8
 1975              		.global	testbmk7
ARM GAS  /tmp/ccmdHemr.s 			page 36


 1976              		.global	testbmk6
 1977              		.global	testbmk5
 1978              		.global	testbmk4
 1979              		.global	testbmk3
 1980              		.global	testbmk2
 1981              		.global	testbmk1
 1982 000c AFF30080 		.section	.rodata.testbmk8,"a",%progbits
 1983              		.align	2
 1984              		.type	testbmk8, %object
 1985              		.size	testbmk8, 16
 1986              	testbmk8:
 1987 0000 D0010000 		.word	.LC25
 1988 0004 00000000 		.word	0
 1989 0008 00000000 		.word	0
 1990 000c 00000000 		.word	bmk8_execute
 1991              		.section	.rodata.patternbmk,"a",%progbits
 1992              		.align	2
 1993              		.type	patternbmk, %object
 1994              		.size	patternbmk, 56
 1995              	patternbmk:
 1996 0000 00000000 		.word	testbmk1
 1997 0004 00000000 		.word	testbmk2
 1998 0008 00000000 		.word	testbmk3
 1999 000c 00000000 		.word	testbmk4
 2000 0010 00000000 		.word	testbmk5
 2001 0014 00000000 		.word	testbmk6
 2002 0018 00000000 		.word	testbmk7
 2003 001c 00000000 		.word	testbmk8
 2004 0020 00000000 		.word	testbmk9
 2005 0024 00000000 		.word	testbmk10
 2006 0028 00000000 		.word	testbmk11
 2007 002c 00000000 		.word	testbmk12
 2008 0030 00000000 		.word	testbmk13
 2009 0034 00000000 		.word	0
 2010              		.section	.bss.vt2.5006,"aw",%nobits
 2011              		.align	2
 2012              		.set	.LANCHOR4,. + 0
 2013              		.type	vt2.5006, %object
 2014              		.size	vt2.5006, 20
 2015              	vt2.5006:
 2016 0000 00000000 		.space	20
 2016      00000000 
 2016      00000000 
 2016      00000000 
 2016      00000000 
 2017              		.section	.rodata.testbmk2,"a",%progbits
 2018              		.align	2
 2019              		.type	testbmk2, %object
 2020              		.size	testbmk2, 16
 2021              	testbmk2:
 2022 0000 98020000 		.word	.LC31
 2023 0004 00000000 		.word	0
 2024 0008 00000000 		.word	0
 2025 000c 00000000 		.word	bmk2_execute
 2026              		.section	.rodata.testbmk10,"a",%progbits
 2027              		.align	2
 2028              		.type	testbmk10, %object
ARM GAS  /tmp/ccmdHemr.s 			page 37


 2029              		.size	testbmk10, 16
 2030              	testbmk10:
 2031 0000 88010000 		.word	.LC23
 2032 0004 00000000 		.word	0
 2033 0008 00000000 		.word	0
 2034 000c 00000000 		.word	bmk10_execute
 2035              		.section	.bss.vt1.5005,"aw",%nobits
 2036              		.align	2
 2037              		.set	.LANCHOR3,. + 0
 2038              		.type	vt1.5005, %object
 2039              		.size	vt1.5005, 20
 2040              	vt1.5005:
 2041 0000 00000000 		.space	20
 2041      00000000 
 2041      00000000 
 2041      00000000 
 2041      00000000 
 2042              		.section	.rodata.testbmk4,"a",%progbits
 2043              		.align	2
 2044              		.type	testbmk4, %object
 2045              		.size	testbmk4, 16
 2046              	testbmk4:
 2047 0000 64020000 		.word	.LC29
 2048 0004 00000000 		.word	0
 2049 0008 00000000 		.word	0
 2050 000c 00000000 		.word	bmk4_execute
 2051              		.section	.bss.iq.4993,"aw",%nobits
 2052              		.align	2
 2053              		.set	.LANCHOR1,. + 0
 2054              		.type	iq.4993, %object
 2055              		.size	iq.4993, 36
 2056              	iq.4993:
 2057 0000 00000000 		.space	36
 2057      00000000 
 2057      00000000 
 2057      00000000 
 2057      00000000 
 2058              		.section	.rodata.testbmk3,"a",%progbits
 2059              		.align	2
 2060              		.type	testbmk3, %object
 2061              		.size	testbmk3, 16
 2062              	testbmk3:
 2063 0000 80020000 		.word	.LC30
 2064 0004 00000000 		.word	0
 2065 0008 00000000 		.word	0
 2066 000c 00000000 		.word	bmk3_execute
 2067              		.section	.rodata.testbmk13,"a",%progbits
 2068              		.align	2
 2069              		.type	testbmk13, %object
 2070              		.size	testbmk13, 16
 2071              	testbmk13:
 2072 0000 28010000 		.word	.LC20
 2073 0004 00000000 		.word	0
 2074 0008 00000000 		.word	0
 2075 000c 00000000 		.word	bmk13_execute
 2076              		.section	.rodata.str1.4,"aMS",%progbits,1
 2077              		.align	2
ARM GAS  /tmp/ccmdHemr.s 			page 38


 2078              	.LC0:
 2079 0000 2D2D2D20 		.ascii	"--- System: \000"
 2079      53797374 
 2079      656D3A20 
 2079      00
 2080 000d 000000   		.space	3
 2081              	.LC1:
 2082 0010 20627974 		.ascii	" bytes\000"
 2082      657300
 2083 0017 00       		.space	1
 2084              	.LC2:
 2085 0018 2D2D2D20 		.ascii	"--- Thread: \000"
 2085      54687265 
 2085      61643A20 
 2085      00
 2086 0025 000000   		.space	3
 2087              	.LC3:
 2088 0028 2D2D2D20 		.ascii	"--- Timer : \000"
 2088      54696D65 
 2088      72203A20 
 2088      00
 2089 0035 000000   		.space	3
 2090              	.LC4:
 2091 0038 2D2D2D20 		.ascii	"--- Semaph: \000"
 2091      53656D61 
 2091      70683A20 
 2091      00
 2092 0045 000000   		.space	3
 2093              	.LC5:
 2094 0048 2D2D2D20 		.ascii	"--- EventS: \000"
 2094      4576656E 
 2094      74533A20 
 2094      00
 2095 0055 000000   		.space	3
 2096              	.LC6:
 2097 0058 2D2D2D20 		.ascii	"--- EventL: \000"
 2097      4576656E 
 2097      744C3A20 
 2097      00
 2098 0065 000000   		.space	3
 2099              	.LC7:
 2100 0068 2D2D2D20 		.ascii	"--- Mutex : \000"
 2100      4D757465 
 2100      78203A20 
 2100      00
 2101 0075 000000   		.space	3
 2102              	.LC8:
 2103 0078 2D2D2D20 		.ascii	"--- CondV.: \000"
 2103      436F6E64 
 2103      562E3A20 
 2103      00
 2104 0085 000000   		.space	3
 2105              	.LC9:
 2106 0088 2D2D2D20 		.ascii	"--- Queue : \000"
 2106      51756575 
 2106      65203A20 
 2106      00
ARM GAS  /tmp/ccmdHemr.s 			page 39


 2107 0095 000000   		.space	3
 2108              	.LC10:
 2109 0098 2D2D2D20 		.ascii	"--- MailB.: \000"
 2109      4D61696C 
 2109      422E3A20 
 2109      00
 2110 00a5 000000   		.space	3
 2111              	.LC11:
 2112 00a8 2D2D2D20 		.ascii	"--- Score : \000"
 2112      53636F72 
 2112      65203A20 
 2112      00
 2113 00b5 000000   		.space	3
 2114              	.LC12:
 2115 00b8 20746872 		.ascii	" threads/S\000"
 2115      65616473 
 2115      2F5300
 2116 00c3 00       		.space	1
 2117              	.LC13:
 2118 00c4 206D7367 		.ascii	" msgs/S, \000"
 2118      732F532C 
 2118      2000
 2119 00ce 0000     		.space	2
 2120              	.LC14:
 2121 00d0 20637478 		.ascii	" ctxswc/S\000"
 2121      7377632F 
 2121      5300
 2122 00da 0000     		.space	2
 2123              	.LC15:
 2124 00dc 20726573 		.ascii	" reschedules/S, \000"
 2124      63686564 
 2124      756C6573 
 2124      2F532C20 
 2124      00
 2125 00ed 000000   		.space	3
 2126              	.LC16:
 2127 00f0 20627974 		.ascii	" bytes/S\000"
 2127      65732F53 
 2127      00
 2128 00f9 000000   		.space	3
 2129              	.LC17:
 2130 00fc 2074696D 		.ascii	" timers/S\000"
 2130      6572732F 
 2130      5300
 2131 0106 0000     		.space	2
 2132              	.LC18:
 2133 0108 20776169 		.ascii	" wait+signal/S\000"
 2133      742B7369 
 2133      676E616C 
 2133      2F5300
 2134 0117 00       		.space	1
 2135              	.LC19:
 2136 0118 206C6F63 		.ascii	" lock+unlock/S\000"
 2136      6B2B756E 
 2136      6C6F636B 
 2136      2F5300
 2137 0127 00       		.space	1
ARM GAS  /tmp/ccmdHemr.s 			page 40


 2138              	.LC20:
 2139 0128 42656E63 		.ascii	"Benchmark, RAM footprint\000"
 2139      686D6172 
 2139      6B2C2052 
 2139      414D2066 
 2139      6F6F7470 
 2140 0141 000000   		.space	3
 2141              	.LC21:
 2142 0144 42656E63 		.ascii	"Benchmark, mutexes lock/unlock\000"
 2142      686D6172 
 2142      6B2C206D 
 2142      75746578 
 2142      6573206C 
 2143 0163 00       		.space	1
 2144              	.LC22:
 2145 0164 42656E63 		.ascii	"Benchmark, semaphores wait/signal\000"
 2145      686D6172 
 2145      6B2C2073 
 2145      656D6170 
 2145      686F7265 
 2146 0186 0000     		.space	2
 2147              	.LC23:
 2148 0188 42656E63 		.ascii	"Benchmark, virtual timers set/reset\000"
 2148      686D6172 
 2148      6B2C2076 
 2148      69727475 
 2148      616C2074 
 2149              	.LC24:
 2150 01ac 42656E63 		.ascii	"Benchmark, I/O Queues throughput\000"
 2150      686D6172 
 2150      6B2C2049 
 2150      2F4F2051 
 2150      75657565 
 2151 01cd 000000   		.space	3
 2152              	.LC25:
 2153 01d0 42656E63 		.ascii	"Benchmark, round robin context switching\000"
 2153      686D6172 
 2153      6B2C2072 
 2153      6F756E64 
 2153      20726F62 
 2154 01f9 000000   		.space	3
 2155              	.LC26:
 2156 01fc 42656E63 		.ascii	"Benchmark, mass reschedule, 5 threads\000"
 2156      686D6172 
 2156      6B2C206D 
 2156      61737320 
 2156      72657363 
 2157 0222 0000     		.space	2
 2158              	.LC27:
 2159 0224 42656E63 		.ascii	"Benchmark, threads, create only\000"
 2159      686D6172 
 2159      6B2C2074 
 2159      68726561 
 2159      64732C20 
 2160              	.LC28:
 2161 0244 42656E63 		.ascii	"Benchmark, threads, full cycle\000"
 2161      686D6172 
ARM GAS  /tmp/ccmdHemr.s 			page 41


 2161      6B2C2074 
 2161      68726561 
 2161      64732C20 
 2162 0263 00       		.space	1
 2163              	.LC29:
 2164 0264 42656E63 		.ascii	"Benchmark, context switch\000"
 2164      686D6172 
 2164      6B2C2063 
 2164      6F6E7465 
 2164      78742073 
 2165 027e 0000     		.space	2
 2166              	.LC30:
 2167 0280 42656E63 		.ascii	"Benchmark, messages #3\000"
 2167      686D6172 
 2167      6B2C206D 
 2167      65737361 
 2167      67657320 
 2168 0297 00       		.space	1
 2169              	.LC31:
 2170 0298 42656E63 		.ascii	"Benchmark, messages #2\000"
 2170      686D6172 
 2170      6B2C206D 
 2170      65737361 
 2170      67657320 
 2171 02af 00       		.space	1
 2172              	.LC32:
 2173 02b0 42656E63 		.ascii	"Benchmark, messages #1\000"
 2173      686D6172 
 2173      6B2C206D 
 2173      65737361 
 2173      67657320 
 2174 02c7 00       		.section	.rodata.testbmk9,"a",%progbits
 2175              		.align	2
 2176              		.type	testbmk9, %object
 2177              		.size	testbmk9, 16
 2178              	testbmk9:
 2179 0000 AC010000 		.word	.LC24
 2180 0004 00000000 		.word	0
 2181 0008 00000000 		.word	0
 2182 000c 00000000 		.word	bmk9_execute
 2183              		.section	.bss.sem1,"aw",%nobits
 2184              		.align	2
 2185              		.set	.LANCHOR0,. + 0
 2186              		.type	sem1, %object
 2187              		.size	sem1, 12
 2188              	sem1:
 2189 0000 00000000 		.space	12
 2189      00000000 
 2189      00000000 
 2190              		.section	.bss.mtx1,"aw",%nobits
 2191              		.align	2
 2192              		.set	.LANCHOR5,. + 0
 2193              		.type	mtx1, %object
 2194              		.size	mtx1, 16
 2195              	mtx1:
 2196 0000 00000000 		.space	16
 2196      00000000 
ARM GAS  /tmp/ccmdHemr.s 			page 42


 2196      00000000 
 2196      00000000 
 2197              		.section	.rodata.testbmk1,"a",%progbits
 2198              		.align	2
 2199              		.type	testbmk1, %object
 2200              		.size	testbmk1, 16
 2201              	testbmk1:
 2202 0000 B0020000 		.word	.LC32
 2203 0004 00000000 		.word	0
 2204 0008 00000000 		.word	0
 2205 000c 00000000 		.word	bmk1_execute
 2206              		.section	.rodata.testbmk11,"a",%progbits
 2207              		.align	2
 2208              		.type	testbmk11, %object
 2209              		.size	testbmk11, 16
 2210              	testbmk11:
 2211 0000 64010000 		.word	.LC22
 2212 0004 00000000 		.word	bmk11_setup
 2213 0008 00000000 		.word	0
 2214 000c 00000000 		.word	bmk11_execute
 2215              		.section	.rodata.testbmk12,"a",%progbits
 2216              		.align	2
 2217              		.type	testbmk12, %object
 2218              		.size	testbmk12, 16
 2219              	testbmk12:
 2220 0000 44010000 		.word	.LC21
 2221 0004 00000000 		.word	bmk12_setup
 2222 0008 00000000 		.word	0
 2223 000c 00000000 		.word	bmk12_execute
 2224              		.section	.bss.ib.4992,"aw",%nobits
 2225              		.align	2
 2226              		.set	.LANCHOR2,. + 0
 2227              		.type	ib.4992, %object
 2228              		.size	ib.4992, 16
 2229              	ib.4992:
 2230 0000 00000000 		.space	16
 2230      00000000 
 2230      00000000 
 2230      00000000 
 2231              		.section	.rodata.testbmk5,"a",%progbits
 2232              		.align	2
 2233              		.type	testbmk5, %object
 2234              		.size	testbmk5, 16
 2235              	testbmk5:
 2236 0000 44020000 		.word	.LC28
 2237 0004 00000000 		.word	0
 2238 0008 00000000 		.word	0
 2239 000c 00000000 		.word	bmk5_execute
 2240              		.section	.rodata.testbmk6,"a",%progbits
 2241              		.align	2
 2242              		.type	testbmk6, %object
 2243              		.size	testbmk6, 16
 2244              	testbmk6:
 2245 0000 24020000 		.word	.LC27
 2246 0004 00000000 		.word	0
 2247 0008 00000000 		.word	0
 2248 000c 00000000 		.word	bmk6_execute
ARM GAS  /tmp/ccmdHemr.s 			page 43


 2249              		.section	.rodata.testbmk7,"a",%progbits
 2250              		.align	2
 2251              		.type	testbmk7, %object
 2252              		.size	testbmk7, 16
 2253              	testbmk7:
 2254 0000 FC010000 		.word	.LC26
 2255 0004 00000000 		.word	bmk7_setup
 2256 0008 00000000 		.word	0
 2257 000c 00000000 		.word	bmk7_execute
 2258              		.text
 2259              	.Letext0:
 2260              		.file 2 "/opt/yagarto/lib/gcc/arm-none-eabi/4.8.4/include/stddef.h"
 2261              		.file 3 "/opt/yagarto/arm-none-eabi/include/machine/_default_types.h"
 2262              		.file 4 "/opt/yagarto/arm-none-eabi/include/stdint.h"
 2263              		.file 5 "../../../os/ports/GCC/ARMCMx/chtypes.h"
 2264              		.file 6 "../../../os/kernel/include/chlists.h"
 2265              		.file 7 "../../../os/kernel/include/chthreads.h"
 2266              		.file 8 "../../../os/ports/GCC/ARMCMx/chcore_v7m.h"
 2267              		.file 9 "../../../os/kernel/include/chvt.h"
 2268              		.file 10 "../../../os/kernel/include/chschd.h"
 2269              		.file 11 "../../../os/kernel/include/chsem.h"
 2270              		.file 12 "../../../os/kernel/include/chmtx.h"
 2271              		.file 13 "../../../os/kernel/include/chqueues.h"
 2272              		.file 14 "../../../test/test.h"
 2273              		.file 15 "../../../os/kernel/include/chmsg.h"
 2274              		.file 16 "../../../os/kernel/include/chdebug.h"
