ARM GAS  /tmp/ccu8MErn.s 			page 1


   1              		.syntax unified
   2              		.cpu cortex-m4
   3              		.fpu softvfp
   4              		.eabi_attribute 20, 1
   5              		.eabi_attribute 21, 1
   6              		.eabi_attribute 23, 3
   7              		.eabi_attribute 24, 1
   8              		.eabi_attribute 25, 1
   9              		.eabi_attribute 26, 1
  10              		.eabi_attribute 30, 2
  11              		.eabi_attribute 34, 1
  12              		.eabi_attribute 18, 4
  13              		.thumb
  14              		.file	"pal.c"
  15              		.text
  16              	.Ltext0:
  17              		.cfi_sections	.debug_frame
  18              		.section	.text.palReadBus,"ax",%progbits
  19              		.align	2
  20              		.p2align 4,,15
  21              		.global	palReadBus
  22              		.thumb
  23              		.thumb_func
  24              		.type	palReadBus, %function
  25              	palReadBus:
  26              	.LFB118:
  27              		.file 1 "../../../os/hal/src/pal.c"
  28              		.loc 1 77 0
  29              		.cfi_startproc
  30              		@ args = 0, pretend = 0, frame = 0
  31              		@ frame_needed = 0, uses_anonymous_args = 0
  32              	.LVL0:
  33 0000 10B5     		push	{r4, lr}
  34              		.cfi_def_cfa_offset 8
  35              		.cfi_offset 4, -8
  36              		.cfi_offset 14, -4
  37              		.loc 1 79 0
  38 0002 0446     		mov	r4, r0
  39 0004 10B1     		cbz	r0, .L2
  40              		.loc 1 79 0 is_stmt 0 discriminator 2
  41 0006 8368     		ldr	r3, [r0, #8]
  42 0008 0F2B     		cmp	r3, #15
  43 000a 06D9     		bls	.L3
  44              	.L2:
  45              		.loc 1 79 0 discriminator 1
  46 000c 40F20000 		movw	r0, #:lower16:.LC0
  47              	.LVL1:
  48 0010 C0F20000 		movt	r0, #:upper16:.LC0
  49 0014 FFF7FEFF 		bl	chDbgPanic
  50              	.LVL2:
  51 0018 A368     		ldr	r3, [r4, #8]
  52              	.L3:
  53              		.loc 1 82 0 is_stmt 1
  54 001a 94E80600 		ldmia	r4, {r1, r2}
  55 001e 0969     		ldr	r1, [r1, #16]
  56 0020 21FA03F0 		lsr	r0, r1, r3
  57              		.loc 1 83 0
ARM GAS  /tmp/ccu8MErn.s 			page 2


  58 0024 1040     		ands	r0, r0, r2
  59 0026 10BD     		pop	{r4, pc}
  60              		.cfi_endproc
  61              	.LFE118:
  62              		.size	palReadBus, .-palReadBus
  63 0028 AFF30080 		.section	.text.palWriteBus,"ax",%progbits
  63      AFF30080 
  64              		.align	2
  65              		.p2align 4,,15
  66              		.global	palWriteBus
  67              		.thumb
  68              		.thumb_func
  69              		.type	palWriteBus, %function
  70              	palWriteBus:
  71              	.LFB119:
  72              		.loc 1 103 0
  73              		.cfi_startproc
  74              		@ args = 0, pretend = 0, frame = 0
  75              		@ frame_needed = 0, uses_anonymous_args = 0
  76              	.LVL3:
  77 0000 38B5     		push	{r3, r4, r5, lr}
  78              		.cfi_def_cfa_offset 16
  79              		.cfi_offset 3, -16
  80              		.cfi_offset 4, -12
  81              		.cfi_offset 5, -8
  82              		.cfi_offset 14, -4
  83              		.loc 1 105 0
  84 0002 0446     		mov	r4, r0
  85              		.loc 1 103 0
  86 0004 0D46     		mov	r5, r1
  87              		.loc 1 105 0
  88 0006 10B1     		cbz	r0, .L10
  89              		.loc 1 105 0 is_stmt 0 discriminator 2
  90 0008 8268     		ldr	r2, [r0, #8]
  91 000a 0F2A     		cmp	r2, #15
  92 000c 06D9     		bls	.L11
  93              	.L10:
  94              		.loc 1 105 0 discriminator 1
  95 000e 40F20000 		movw	r0, #:lower16:.LC1
  96              	.LVL4:
  97 0012 C0F20000 		movt	r0, #:upper16:.LC1
  98 0016 FFF7FEFF 		bl	chDbgPanic
  99              	.LVL5:
 100 001a A268     		ldr	r2, [r4, #8]
 101              	.L11:
 102              		.loc 1 108 0 is_stmt 1
 103 001c 94E80A00 		ldmia	r4, {r1, r3}
 104 0020 02F11000 		add	r0, r2, #16
 105 0024 23EA0504 		bic	r4, r3, r5
 106              	.LVL6:
 107 0028 1D40     		ands	r5, r5, r3
 108              	.LVL7:
 109 002a 05FA02F2 		lsl	r2, r5, r2
 110 002e 04FA00F3 		lsl	r3, r4, r0
 111 0032 1A43     		orrs	r2, r2, r3
 112 0034 8A61     		str	r2, [r1, #24]
 113 0036 38BD     		pop	{r3, r4, r5, pc}
ARM GAS  /tmp/ccu8MErn.s 			page 3


 114              		.cfi_endproc
 115              	.LFE119:
 116              		.size	palWriteBus, .-palWriteBus
 117 0038 AFF30080 		.section	.text.palSetBusMode,"ax",%progbits
 117      AFF30080 
 118              		.align	2
 119              		.p2align 4,,15
 120              		.global	palSetBusMode
 121              		.thumb
 122              		.thumb_func
 123              		.type	palSetBusMode, %function
 124              	palSetBusMode:
 125              	.LFB120:
 126              		.loc 1 127 0
 127              		.cfi_startproc
 128              		@ args = 0, pretend = 0, frame = 0
 129              		@ frame_needed = 0, uses_anonymous_args = 0
 130              	.LVL8:
 131 0000 70B5     		push	{r4, r5, r6, lr}
 132              		.cfi_def_cfa_offset 16
 133              		.cfi_offset 4, -16
 134              		.cfi_offset 5, -12
 135              		.cfi_offset 6, -8
 136              		.cfi_offset 14, -4
 137              		.loc 1 129 0
 138 0002 0446     		mov	r4, r0
 139              		.loc 1 127 0
 140 0004 0E46     		mov	r6, r1
 141              		.loc 1 129 0
 142 0006 20B1     		cbz	r0, .L17
 143              		.loc 1 129 0 is_stmt 0 discriminator 2
 144 0008 8368     		ldr	r3, [r0, #8]
 145 000a 0F2B     		cmp	r3, #15
 146 000c 98BF     		it	ls
 147 000e 1946     		movls	r1, r3
 148              	.LVL9:
 149 0010 06D9     		bls	.L18
 150              	.L17:
 151              		.loc 1 129 0 discriminator 1
 152 0012 40F20000 		movw	r0, #:lower16:.LC2
 153              	.LVL10:
 154 0016 C0F20000 		movt	r0, #:upper16:.LC2
 155 001a FFF7FEFF 		bl	chDbgPanic
 156              	.LVL11:
 157 001e A168     		ldr	r1, [r4, #8]
 158              	.L18:
 159              		.loc 1 132 0 is_stmt 1
 160 0020 94E82100 		ldmia	r4, {r0, r5}
 161 0024 3246     		mov	r2, r6
 162 0026 05FA01F1 		lsl	r1, r5, r1
 163              		.loc 1 133 0
 164 002a BDE87040 		pop	{r4, r5, r6, lr}
 165              	.LVL12:
 166              		.loc 1 132 0
 167 002e FFF7FEBF 		b	_pal_lld_setgroupmode
 168              	.LVL13:
 169              		.cfi_endproc
ARM GAS  /tmp/ccu8MErn.s 			page 4


 170              	.LFE120:
 171              		.size	palSetBusMode, .-palSetBusMode
 172 0032 00BFAFF3 		.section	.rodata.str1.4,"aMS",%progbits,1
 172      0080AFF3 
 172      0080AFF3 
 172      0080
 173              		.align	2
 174              	.LC0:
 175 0000 2270616C 		.ascii	"\"palReadBus\"()\000"
 175      52656164 
 175      42757322 
 175      282900
 176 000f 00       		.space	1
 177              	.LC1:
 178 0010 2270616C 		.ascii	"\"palWriteBus\"()\000"
 178      57726974 
 178      65427573 
 178      22282900 
 179              	.LC2:
 180 0020 2270616C 		.ascii	"\"palSetBusMode\"()\000"
 180      53657442 
 180      75734D6F 
 180      64652228 
 180      2900
 181 0032 0000     		.text
 182              	.Letext0:
 183              		.file 2 "/usr/include/newlib/machine/_default_types.h"
 184              		.file 3 "/usr/include/newlib/stdint.h"
 185              		.file 4 "../../../os/hal/platforms/STM32/GPIOv2/pal_lld.h"
 186              		.file 5 "../../../os/hal/include/pal.h"
 187              		.file 6 "../../../os/ports/common/ARMCMx/CMSIS/include/core_cm4.h"
 188              		.file 7 "../../../os/kernel/include/chdebug.h"
